{
  "_format": "hh-sol-artifact-1",
  "contractName": "StreamVault",
  "sourceName": "contracts/StreamVault.sol",
  "abi": [
    {
      "inputs": [
        {
          "internalType": "address",
          "name": "_yieldRouter",
          "type": "address"
        }
      ],
      "stateMutability": "nonpayable",
      "type": "constructor"
    },
    {
      "inputs": [],
      "name": "ReentrancyGuardReentrantCall",
      "type": "error"
    },
    {
      "inputs": [
        {
          "internalType": "address",
          "name": "token",
          "type": "address"
        }
      ],
      "name": "SafeERC20FailedOperation",
      "type": "error"
    },
    {
      "anonymous": false,
      "inputs": [
        {
          "indexed": true,
          "internalType": "uint256",
          "name": "streamId",
          "type": "uint256"
        },
        {
          "indexed": true,
          "internalType": "address",
          "name": "employee",
          "type": "address"
        },
        {
          "indexed": false,
          "internalType": "uint256",
          "name": "amount",
          "type": "uint256"
        }
      ],
      "name": "Claimed",
      "type": "event"
    },
    {
      "anonymous": false,
      "inputs": [
        {
          "indexed": true,
          "internalType": "uint256",
          "name": "streamId",
          "type": "uint256"
        },
        {
          "indexed": false,
          "internalType": "uint256",
          "name": "yieldEarned",
          "type": "uint256"
        }
      ],
      "name": "StreamClosed",
      "type": "event"
    },
    {
      "anonymous": false,
      "inputs": [
        {
          "indexed": true,
          "internalType": "uint256",
          "name": "streamId",
          "type": "uint256"
        },
        {
          "indexed": true,
          "internalType": "address",
          "name": "employer",
          "type": "address"
        },
        {
          "indexed": true,
          "internalType": "address",
          "name": "employee",
          "type": "address"
        },
        {
          "indexed": false,
          "internalType": "uint256",
          "name": "totalAmount",
          "type": "uint256"
        },
        {
          "indexed": false,
          "internalType": "uint256",
          "name": "startTime",
          "type": "uint256"
        },
        {
          "indexed": false,
          "internalType": "uint256",
          "name": "endTime",
          "type": "uint256"
        },
        {
          "indexed": false,
          "internalType": "uint8",
          "name": "vaultTier",
          "type": "uint8"
        },
        {
          "indexed": false,
          "internalType": "string",
          "name": "aiReasoning",
          "type": "string"
        }
      ],
      "name": "StreamCreated",
      "type": "event"
    },
    {
      "inputs": [
        {
          "internalType": "uint256",
          "name": "streamId",
          "type": "uint256"
        }
      ],
      "name": "claimVested",
      "outputs": [],
      "stateMutability": "nonpayable",
      "type": "function"
    },
    {
      "inputs": [
        {
          "internalType": "uint256",
          "name": "streamId",
          "type": "uint256"
        }
      ],
      "name": "closeStream",
      "outputs": [],
      "stateMutability": "nonpayable",
      "type": "function"
    },
    {
      "inputs": [
        {
          "internalType": "address",
          "name": "employee",
          "type": "address"
        },
        {
          "internalType": "address",
          "name": "token",
          "type": "address"
        },
        {
          "internalType": "uint256",
          "name": "totalAmount",
          "type": "uint256"
        },
        {
          "internalType": "uint256",
          "name": "duration",
          "type": "uint256"
        },
        {
          "internalType": "uint8",
          "name": "vaultTier",
          "type": "uint8"
        },
        {
          "internalType": "string",
          "name": "aiReasoning",
          "type": "string"
        }
      ],
      "name": "createStream",
      "outputs": [
        {
          "internalType": "uint256",
          "name": "streamId",
          "type": "uint256"
        }
      ],
      "stateMutability": "nonpayable",
      "type": "function"
    },
    {
      "inputs": [
        {
          "internalType": "address",
          "name": "",
          "type": "address"
        },
        {
          "internalType": "uint256",
          "name": "",
          "type": "uint256"
        }
      ],
      "name": "employeeStreams",
      "outputs": [
        {
          "internalType": "uint256",
          "name": "",
          "type": "uint256"
        }
      ],
      "stateMutability": "view",
      "type": "function"
    },
    {
      "inputs": [
        {
          "internalType": "address",
          "name": "",
          "type": "address"
        },
        {
          "internalType": "uint256",
          "name": "",
          "type": "uint256"
        }
      ],
      "name": "employerStreams",
      "outputs": [
        {
          "internalType": "uint256",
          "name": "",
          "type": "uint256"
        }
      ],
      "stateMutability": "view",
      "type": "function"
    },
    {
      "inputs": [
        {
          "internalType": "uint256",
          "name": "streamId",
          "type": "uint256"
        }
      ],
      "name": "getClaimable",
      "outputs": [
        {
          "internalType": "uint256",
          "name": "",
          "type": "uint256"
        }
      ],
      "stateMutability": "view",
      "type": "function"
    },
    {
      "inputs": [
        {
          "internalType": "address",
          "name": "employee",
          "type": "address"
        }
      ],
      "name": "getEmployeeStreams",
      "outputs": [
        {
          "internalType": "uint256[]",
          "name": "",
          "type": "uint256[]"
        }
      ],
      "stateMutability": "view",
      "type": "function"
    },
    {
      "inputs": [
        {
          "internalType": "address",
          "name": "employer",
          "type": "address"
        }
      ],
      "name": "getEmployerStreams",
      "outputs": [
        {
          "internalType": "uint256[]",
          "name": "",
          "type": "uint256[]"
        }
      ],
      "stateMutability": "view",
      "type": "function"
    },
    {
      "inputs": [
        {
          "internalType": "uint256",
          "name": "streamId",
          "type": "uint256"
        }
      ],
      "name": "getStream",
      "outputs": [
        {
          "components": [
            {
              "internalType": "address",
              "name": "employer",
              "type": "address"
            },
            {
              "internalType": "address",
              "name": "employee",
              "type": "address"
            },
            {
              "internalType": "address",
              "name": "token",
              "type": "address"
            },
            {
              "internalType": "uint256",
              "name": "totalAmount",
              "type": "uint256"
            },
            {
              "internalType": "uint256",
              "name": "startTime",
              "type": "uint256"
            },
            {
              "internalType": "uint256",
              "name": "endTime",
              "type": "uint256"
            },
            {
              "internalType": "uint256",
              "name": "claimedAmount",
              "type": "uint256"
            },
            {
              "internalType": "uint8",
              "name": "vaultTier",
              "type": "uint8"
            },
            {
              "internalType": "bool",
              "name": "active",
              "type": "bool"
            },
            {
              "internalType": "string",
              "name": "aiReasoning",
              "type": "string"
            }
          ],
          "internalType": "struct StreamVault.Stream",
          "name": "",
          "type": "tuple"
        }
      ],
      "stateMutability": "view",
      "type": "function"
    },
    {
      "inputs": [
        {
          "internalType": "uint256",
          "name": "streamId",
          "type": "uint256"
        }
      ],
      "name": "getVestedAmount",
      "outputs": [
        {
          "internalType": "uint256",
          "name": "",
          "type": "uint256"
        }
      ],
      "stateMutability": "view",
      "type": "function"
    },
    {
      "inputs": [],
      "name": "nextStreamId",
      "outputs": [
        {
          "internalType": "uint256",
          "name": "",
          "type": "uint256"
        }
      ],
      "stateMutability": "view",
      "type": "function"
    },
    {
      "inputs": [
        {
          "internalType": "uint256",
          "name": "",
          "type": "uint256"
        }
      ],
      "name": "streams",
      "outputs": [
        {
          "internalType": "address",
          "name": "employer",
          "type": "address"
        },
        {
          "internalType": "address",
          "name": "employee",
          "type": "address"
        },
        {
          "internalType": "address",
          "name": "token",
          "type": "address"
        },
        {
          "internalType": "uint256",
          "name": "totalAmount",
          "type": "uint256"
        },
        {
          "internalType": "uint256",
          "name": "startTime",
          "type": "uint256"
        },
        {
          "internalType": "uint256",
          "name": "endTime",
          "type": "uint256"
        },
        {
          "internalType": "uint256",
          "name": "claimedAmount",
          "type": "uint256"
        },
        {
          "internalType": "uint8",
          "name": "vaultTier",
          "type": "uint8"
        },
        {
          "internalType": "bool",
          "name": "active",
          "type": "bool"
        },
        {
          "internalType": "string",
          "name": "aiReasoning",
          "type": "string"
        }
      ],
      "stateMutability": "view",
      "type": "function"
    },
    {
      "inputs": [],
      "name": "yieldRouter",
      "outputs": [
        {
          "internalType": "contract RWAYieldRouter",
          "name": "",
          "type": "address"
        }
      ],
      "stateMutability": "view",
      "type": "function"
    }
  ],
  "bytecode": "0x60a060405234801561000f575f80fd5b506040516117be3803806117be83398101604081905261002e91610063565b60017f9b779b17422d0df92223018b32b4d1fa46e071723d6817e2486d003becc55f00556001600160a01b0316608052610090565b5f60208284031215610073575f80fd5b81516001600160a01b0381168114610089575f80fd5b9392505050565b6080516116fb6100c35f395f818160d40152818161036a015281816105a8015281816109520152610a1701526116fb5ff3fe608060405234801561000f575f80fd5b50600436106100cb575f3560e01c806375a7b327116100885780639c7e4a66116100635780639c7e4a66146101e0578063a99b26c7146101f3578063cafeedf614610206578063ea1433c914610219575f80fd5b806375a7b3271461018d578063894e9a0d146101a057806390b734c7146101c0575f80fd5b806308ccadd8146100cf5780631d1b7b77146101135780631e99d56914610128578063204fd3b41461013e57806321837bbb1461015157806364d60d9114610164575b5f80fd5b6100f67f000000000000000000000000000000000000000000000000000000000000000081565b6040516001600160a01b0390911681526020015b60405180910390f35b61012661012136600461116d565b61022c565b005b6101305f5481565b60405190815260200161010a565b61012661014c36600461116d565b61042b565b61013061015f36600461119f565b610669565b61017761017236600461116d565b610694565b60405161010a9a9998979695949392919061120a565b61013061019b366004611279565b610785565b6101b36101ae36600461116d565b610ca4565b60405161010a919061132f565b6101d36101ce3660046113e7565b610e38565b60405161010a9190611400565b6101306101ee36600461116d565b610ea1565b6101d36102013660046113e7565b610ecd565b61013061021436600461116d565b610f34565b61013061022736600461119f565b610f50565b610234610f69565b5f81815260016020526040902080546001600160a01b0316331461029f5760405162461bcd60e51b815260206004820152601760248201527f4e6f74207468652073747265616d20656d706c6f79657200000000000000000060448201526064015b60405180910390fd5b6007810154610100900460ff166102e95760405162461bcd60e51b815260206004820152600e60248201526d105b1c9958591e4818db1bdcd95960921b6044820152606401610296565b80600501544210156103335760405162461bcd60e51b815260206004820152601360248201527253747265616d207374696c6c2061637469766560681b6044820152606401610296565b60078101805461ff00191690558054604051637e2d185760e01b8152600481018490526001600160a01b0391821660248201525f917f00000000000000000000000000000000000000000000000000000000000000001690637e2d1857906044016020604051808303815f875af11580156103b0573d5f803e3d5ffd5b505050506040513d601f19601f820116820180604052508101906103d49190611443565b9050827f2eaa8dd2315329b465aca27e4c5c1a2bb1d8a671adbc565fc828551ea5909ff58260405161040891815260200190565b60405180910390a2505061042860015f805160206116a683398151915255565b50565b610433610f69565b5f818152600160208190526040909120908101546001600160a01b0316331461049e5760405162461bcd60e51b815260206004820152601860248201527f4e6f74207468652073747265616d20726563697069656e7400000000000000006044820152606401610296565b6007810154610100900460ff166104ee5760405162461bcd60e51b815260206004820152601460248201527353747265616d206973206e6f742061637469766560601b6044820152606401610296565b5f81600601546104fd83610f84565b610507919061146e565b90505f811161054f5760405162461bcd60e51b8152602060048201526014602482015273139bdd1a1a5b99c81d1bc818db185a5b481e595d60621b6044820152606401610296565b80826006015f8282546105629190611481565b90915550506002820154600783015460405163aa45259b60e01b81526001600160a01b0392831660048201526024810184905260ff9091166044820152606481018590527f00000000000000000000000000000000000000000000000000000000000000009091169063aa45259b906084015f604051808303815f87803b1580156105eb575f80fd5b505af11580156105fd573d5f803e3d5ffd5b505050600283015461061a91506001600160a01b03163383610ff7565b604051818152339084907f4ec90e965519d92681267467f775ada5bd214aa92c0dc93d90a5e880ce9ed0269060200160405180910390a3505061042860015f805160206116a683398151915255565b6003602052815f5260405f208181548110610682575f80fd5b905f5260205f20015f91509150505481565b600160208190525f91825260409091208054918101546002820154600383015460048401546005850154600686015460078701546008880180546001600160a01b039a8b169a988916999790981697959694959394929360ff808416946101009094041692919061070490611494565b80601f016020809104026020016040519081016040528092919081815260200182805461073090611494565b801561077b5780601f106107525761010080835404028352916020019161077b565b820191905f5260205f20905b81548152906001019060200180831161075e57829003601f168201915b505050505090508a565b5f61078e610f69565b6001600160a01b0388166107e45760405162461bcd60e51b815260206004820152601860248201527f496e76616c696420656d706c6f796565206164647265737300000000000000006044820152606401610296565b336001600160a01b0389160361083c5760405162461bcd60e51b815260206004820152601960248201527f43616e6e6f742073747265616d20746f20796f757273656c66000000000000006044820152606401610296565b5f86116108805760405162461bcd60e51b81526020600482015260126024820152710416d6f756e74206d757374206265203e20360741b6044820152606401610296565b603c8510156108dd5760405162461bcd60e51b8152602060048201526024808201527f4475726174696f6e206d757374206265206174206c65617374203630207365636044820152636f6e647360e01b6064820152608401610296565b60028460ff1611156109265760405162461bcd60e51b815260206004820152601260248201527124b73b30b634b2103b30bab63a103a34b2b960711b6044820152606401610296565b61093b6001600160a01b038816333089611031565b60405163095ea7b360e01b81526001600160a01b037f0000000000000000000000000000000000000000000000000000000000000000811660048301526024820188905288169063095ea7b3906044016020604051808303815f875af11580156109a7573d5f803e3d5ffd5b505050506040513d601f19601f820116820180604052508101906109cb91906114cc565b505f805490806109da836114eb565b909155506040516378fc4f4960e11b81526001600160a01b0389811660048301526024820189905260ff87166044830152606482018390529192507f00000000000000000000000000000000000000000000000000000000000000009091169063f1f89e92906084016020604051808303815f875af1158015610a5f573d5f803e3d5ffd5b505050506040513d601f19601f82011682018060405250810190610a839190611443565b50604051806101400160405280336001600160a01b03168152602001896001600160a01b03168152602001886001600160a01b031681526020018781526020014281526020018642610ad59190611481565b81526020015f81526020018560ff16815260200160011515815260200184848080601f0160208091040260200160405190810160405280939291908181526020018383808284375f92018290525093909452505083815260016020818152604092839020855181546001600160a01b039182166001600160a01b03199182161783559287015193820180549482169484169490941790935592850151600284018054919093169116179055606083015160038201556080830151600482015560a0830151600582015560c0830151600682015560e08301516007820180546101008087015115150261ffff1990911660ff909316929092179190911790556101208301519091506008820190610beb9082611562565b5050335f818152600260209081526040808320805460018181018355918552838520018790556001600160a01b038e168085526003845291842080549182018155845291909220018490559150827fe445c372e353d0c4381102c791da06dba951f1e4fdcb61f0ac352d6faa331cfd8942610c668b82611481565b8a8a8a604051610c7b96959493929190611622565b60405180910390a4610c9960015f805160206116a683398151915255565b979650505050505050565b610d116040518061014001604052805f6001600160a01b031681526020015f6001600160a01b031681526020015f6001600160a01b031681526020015f81526020015f81526020015f81526020015f81526020015f60ff1681526020015f15158152602001606081525090565b5f8281526001602081815260409283902083516101408101855281546001600160a01b039081168252938201548416928101929092526002810154909216928101929092526003810154606083015260048101546080830152600581015460a0830152600681015460c0830152600781015460ff80821660e0850152610100918290041615159083015260088101805461012084019190610db190611494565b80601f0160208091040260200160405190810160405280929190818152602001828054610ddd90611494565b8015610e285780601f10610dff57610100808354040283529160200191610e28565b820191905f5260205f20905b815481529060010190602001808311610e0b57829003601f168201915b5050505050815250509050919050565b6001600160a01b0381165f90815260026020908152604091829020805483518184028101840190945280845260609392830182828015610e9557602002820191905f5260205f20905b815481526020019060010190808311610e81575b50505050509050919050565b5f8181526001602052604081206006810154610ebc82610f84565b610ec6919061146e565b9392505050565b6001600160a01b0381165f90815260036020908152604091829020805483518184028101840190945280845260609392830182828015610e9557602002820191905f5260205f2090815481526020019060010190808311610e815750505050509050919050565b5f818152600160205260408120610f4a90610f84565b92915050565b6002602052815f5260405f208181548110610682575f80fd5b610f7161106d565b60025f805160206116a683398151915255565b5f81600401544211610f9757505f919050565b81600501544210610faa57506003015490565b5f826004015442610fbb919061146e565b90505f83600401548460050154610fd2919061146e565b905080828560030154610fe5919061166f565b610fef9190611686565b949350505050565b611004838383600161109e565b61102c57604051635274afe760e01b81526001600160a01b0384166004820152602401610296565b505050565b61103f848484846001611100565b61106757604051635274afe760e01b81526001600160a01b0385166004820152602401610296565b50505050565b5f805160206116a68339815191525460020361109c57604051633ee5aeb560e01b815260040160405180910390fd5b565b60405163a9059cbb60e01b5f8181526001600160a01b038616600452602485905291602083604481808b5af1925060015f511483166110f45783831516156110e8573d5f823e3d81fd5b5f873b113d1516831692505b60405250949350505050565b6040516323b872dd60e01b5f8181526001600160a01b038781166004528616602452604485905291602083606481808c5af1925060015f5114831661115c578383151615611150573d5f823e3d81fd5b5f883b113d1516831692505b604052505f60605295945050505050565b5f6020828403121561117d575f80fd5b5035919050565b80356001600160a01b038116811461119a575f80fd5b919050565b5f80604083850312156111b0575f80fd5b6111b983611184565b946020939093013593505050565b5f81518084525f5b818110156111eb576020818501810151868301820152016111cf565b505f602082860101526020601f19601f83011685010191505092915050565b5f61014060018060a01b03808e168452808d166020850152808c166040850152508960608401528860808401528760a08401528660c084015260ff861660e084015284151561010084015280610120840152611268818401856111c7565b9d9c50505050505050505050505050565b5f805f805f805f60c0888a03121561128f575f80fd5b61129888611184565b96506112a660208901611184565b95506040880135945060608801359350608088013560ff811681146112c9575f80fd5b925060a088013567ffffffffffffffff808211156112e5575f80fd5b818a0191508a601f8301126112f8575f80fd5b813581811115611306575f80fd5b8b6020828501011115611317575f80fd5b60208301945080935050505092959891949750929550565b602081526113496020820183516001600160a01b03169052565b5f602083015161136460408401826001600160a01b03169052565b5060408301516001600160a01b03811660608401525060608301516080830152608083015160a083015260a083015160c083015260c083015160e083015260e08301516101006113b88185018360ff169052565b84015190506101206113cd8482018315159052565b840151610140848101529050610fef6101608401826111c7565b5f602082840312156113f7575f80fd5b610ec682611184565b602080825282518282018190525f9190848201906040850190845b818110156114375783518352928401929184019160010161141b565b50909695505050505050565b5f60208284031215611453575f80fd5b5051919050565b634e487b7160e01b5f52601160045260245ffd5b81810381811115610f4a57610f4a61145a565b80820180821115610f4a57610f4a61145a565b600181811c908216806114a857607f821691505b6020821081036114c657634e487b7160e01b5f52602260045260245ffd5b50919050565b5f602082840312156114dc575f80fd5b81518015158114610ec6575f80fd5b5f600182016114fc576114fc61145a565b5060010190565b634e487b7160e01b5f52604160045260245ffd5b601f82111561102c57805f5260205f20601f840160051c8101602085101561153c5750805b601f840160051c820191505b8181101561155b575f8155600101611548565b5050505050565b815167ffffffffffffffff81111561157c5761157c611503565b6115908161158a8454611494565b84611517565b602080601f8311600181146115c3575f84156115ac5750858301515b5f19600386901b1c1916600185901b17855561161a565b5f85815260208120601f198616915b828110156115f1578886015182559484019460019091019084016115d2565b508582101561160e57878501515f19600388901b60f8161c191681555b505060018460011b0185555b505050505050565b86815285602082015284604082015260ff8416606082015260a060808201528160a0820152818360c08301375f81830160c090810191909152601f909201601f1916010195945050505050565b8082028115828204841417610f4a57610f4a61145a565b5f826116a057634e487b7160e01b5f52601260045260245ffd5b50049056fe9b779b17422d0df92223018b32b4d1fa46e071723d6817e2486d003becc55f00a2646970667358221220510b71b04c27283bc75f3018afa59b7b5d46c3fe9d9c48a82f0caddec3d8959364736f6c63430008180033",
  "linkReferences": {},
  "deployedLinkReferences": {}
}