{
  "_format": "hh-sol-artifact-1",
  "contractName": "RWATierVault",
  "sourceName": "contracts/RWAYieldRouter.sol",
  "abi": [
    {
      "inputs": [
        {
          "internalType": "contract IERC20",
          "name": "_asset",
          "type": "address"
        },
        {
          "internalType": "string",
          "name": "_name",
          "type": "string"
        },
        {
          "internalType": "string",
          "name": "_symbol",
          "type": "string"
        },
        {
          "internalType": "uint256",
          "name": "_apyBps",
          "type": "uint256"
        },
        {
          "internalType": "string",
          "name": "_tierName",
          "type": "string"
        }
      ],
      "stateMutability": "nonpayable",
      "type": "constructor"
    },
    {
      "inputs": [
        {
          "internalType": "address",
          "name": "spender",
          "type": "address"
        },
        {
          "internalType": "uint256",
          "name": "allowance",
          "type": "uint256"
        },
        {
          "internalType": "uint256",
          "name": "needed",
          "type": "uint256"
        }
      ],
      "name": "ERC20InsufficientAllowance",
      "type": "error"
    },
    {
      "inputs": [
        {
          "internalType": "address",
          "name": "sender",
          "type": "address"
        },
        {
          "internalType": "uint256",
          "name": "balance",
          "type": "uint256"
        },
        {
          "internalType": "uint256",
          "name": "needed",
          "type": "uint256"
        }
      ],
      "name": "ERC20InsufficientBalance",
      "type": "error"
    },
    {
      "inputs": [
        {
          "internalType": "address",
          "name": "approver",
          "type": "address"
        }
      ],
      "name": "ERC20InvalidApprover",
      "type": "error"
    },
    {
      "inputs": [
        {
          "internalType": "address",
          "name": "receiver",
          "type": "address"
        }
      ],
      "name": "ERC20InvalidReceiver",
      "type": "error"
    },
    {
      "inputs": [
        {
          "internalType": "address",
          "name": "sender",
          "type": "address"
        }
      ],
      "name": "ERC20InvalidSender",
      "type": "error"
    },
    {
      "inputs": [
        {
          "internalType": "address",
          "name": "spender",
          "type": "address"
        }
      ],
      "name": "ERC20InvalidSpender",
      "type": "error"
    },
    {
      "inputs": [
        {
          "internalType": "address",
          "name": "receiver",
          "type": "address"
        },
        {
          "internalType": "uint256",
          "name": "assets",
          "type": "uint256"
        },
        {
          "internalType": "uint256",
          "name": "max",
          "type": "uint256"
        }
      ],
      "name": "ERC4626ExceededMaxDeposit",
      "type": "error"
    },
    {
      "inputs": [
        {
          "internalType": "address",
          "name": "receiver",
          "type": "address"
        },
        {
          "internalType": "uint256",
          "name": "shares",
          "type": "uint256"
        },
        {
          "internalType": "uint256",
          "name": "max",
          "type": "uint256"
        }
      ],
      "name": "ERC4626ExceededMaxMint",
      "type": "error"
    },
    {
      "inputs": [
        {
          "internalType": "address",
          "name": "owner",
          "type": "address"
        },
        {
          "internalType": "uint256",
          "name": "shares",
          "type": "uint256"
        },
        {
          "internalType": "uint256",
          "name": "max",
          "type": "uint256"
        }
      ],
      "name": "ERC4626ExceededMaxRedeem",
      "type": "error"
    },
    {
      "inputs": [
        {
          "internalType": "address",
          "name": "owner",
          "type": "address"
        },
        {
          "internalType": "uint256",
          "name": "assets",
          "type": "uint256"
        },
        {
          "internalType": "uint256",
          "name": "max",
          "type": "uint256"
        }
      ],
      "name": "ERC4626ExceededMaxWithdraw",
      "type": "error"
    },
    {
      "inputs": [
        {
          "internalType": "address",
          "name": "owner",
          "type": "address"
        }
      ],
      "name": "OwnableInvalidOwner",
      "type": "error"
    },
    {
      "inputs": [
        {
          "internalType": "address",
          "name": "account",
          "type": "address"
        }
      ],
      "name": "OwnableUnauthorizedAccount",
      "type": "error"
    },
    {
      "inputs": [],
      "name": "ReentrancyGuardReentrantCall",
      "type": "error"
    },
    {
      "inputs": [
        {
          "internalType": "address",
          "name": "token",
          "type": "address"
        }
      ],
      "name": "SafeERC20FailedOperation",
      "type": "error"
    },
    {
      "anonymous": false,
      "inputs": [
        {
          "indexed": true,
          "internalType": "address",
          "name": "owner",
          "type": "address"
        },
        {
          "indexed": true,
          "internalType": "address",
          "name": "spender",
          "type": "address"
        },
        {
          "indexed": false,
          "internalType": "uint256",
          "name": "value",
          "type": "uint256"
        }
      ],
      "name": "Approval",
      "type": "event"
    },
    {
      "anonymous": false,
      "inputs": [
        {
          "indexed": true,
          "internalType": "address",
          "name": "sender",
          "type": "address"
        },
        {
          "indexed": true,
          "internalType": "address",
          "name": "owner",
          "type": "address"
        },
        {
          "indexed": false,
          "internalType": "uint256",
          "name": "assets",
          "type": "uint256"
        },
        {
          "indexed": false,
          "internalType": "uint256",
          "name": "shares",
          "type": "uint256"
        }
      ],
      "name": "Deposit",
      "type": "event"
    },
    {
      "anonymous": false,
      "inputs": [
        {
          "indexed": true,
          "internalType": "address",
          "name": "previousOwner",
          "type": "address"
        },
        {
          "indexed": true,
          "internalType": "address",
          "name": "newOwner",
          "type": "address"
        }
      ],
      "name": "OwnershipTransferred",
      "type": "event"
    },
    {
      "anonymous": false,
      "inputs": [
        {
          "indexed": true,
          "internalType": "address",
          "name": "from",
          "type": "address"
        },
        {
          "indexed": true,
          "internalType": "address",
          "name": "to",
          "type": "address"
        },
        {
          "indexed": false,
          "internalType": "uint256",
          "name": "value",
          "type": "uint256"
        }
      ],
      "name": "Transfer",
      "type": "event"
    },
    {
      "anonymous": false,
      "inputs": [
        {
          "indexed": true,
          "internalType": "address",
          "name": "sender",
          "type": "address"
        },
        {
          "indexed": true,
          "internalType": "address",
          "name": "receiver",
          "type": "address"
        },
        {
          "indexed": true,
          "internalType": "address",
          "name": "owner",
          "type": "address"
        },
        {
          "indexed": false,
          "internalType": "uint256",
          "name": "assets",
          "type": "uint256"
        },
        {
          "indexed": false,
          "internalType": "uint256",
          "name": "shares",
          "type": "uint256"
        }
      ],
      "name": "Withdraw",
      "type": "event"
    },
    {
      "anonymous": false,
      "inputs": [
        {
          "indexed": true,
          "internalType": "address",
          "name": "account",
          "type": "address"
        },
        {
          "indexed": false,
          "internalType": "uint256",
          "name": "yield",
          "type": "uint256"
        }
      ],
      "name": "YieldAccrued",
      "type": "event"
    },
    {
      "inputs": [],
      "name": "BPS_DENOMINATOR",
      "outputs": [
        {
          "internalType": "uint256",
          "name": "",
          "type": "uint256"
        }
      ],
      "stateMutability": "view",
      "type": "function"
    },
    {
      "inputs": [],
      "name": "SECONDS_PER_YEAR",
      "outputs": [
        {
          "internalType": "uint256",
          "name": "",
          "type": "uint256"
        }
      ],
      "stateMutability": "view",
      "type": "function"
    },
    {
      "inputs": [
        {
          "internalType": "address",
          "name": "owner",
          "type": "address"
        },
        {
          "internalType": "address",
          "name": "spender",
          "type": "address"
        }
      ],
      "name": "allowance",
      "outputs": [
        {
          "internalType": "uint256",
          "name": "",
          "type": "uint256"
        }
      ],
      "stateMutability": "view",
      "type": "function"
    },
    {
      "inputs": [
        {
          "internalType": "address",
          "name": "spender",
          "type": "address"
        },
        {
          "internalType": "uint256",
          "name": "value",
          "type": "uint256"
        }
      ],
      "name": "approve",
      "outputs": [
        {
          "internalType": "bool",
          "name": "",
          "type": "bool"
        }
      ],
      "stateMutability": "nonpayable",
      "type": "function"
    },
    {
      "inputs": [],
      "name": "apyBps",
      "outputs": [
        {
          "internalType": "uint256",
          "name": "",
          "type": "uint256"
        }
      ],
      "stateMutability": "view",
      "type": "function"
    },
    {
      "inputs": [],
      "name": "asset",
      "outputs": [
        {
          "internalType": "address",
          "name": "",
          "type": "address"
        }
      ],
      "stateMutability": "view",
      "type": "function"
    },
    {
      "inputs": [
        {
          "internalType": "address",
          "name": "account",
          "type": "address"
        }
      ],
      "name": "balanceOf",
      "outputs": [
        {
          "internalType": "uint256",
          "name": "",
          "type": "uint256"
        }
      ],
      "stateMutability": "view",
      "type": "function"
    },
    {
      "inputs": [
        {
          "internalType": "uint256",
          "name": "shares",
          "type": "uint256"
        }
      ],
      "name": "convertToAssets",
      "outputs": [
        {
          "internalType": "uint256",
          "name": "",
          "type": "uint256"
        }
      ],
      "stateMutability": "view",
      "type": "function"
    },
    {
      "inputs": [
        {
          "internalType": "uint256",
          "name": "assets",
          "type": "uint256"
        }
      ],
      "name": "convertToShares",
      "outputs": [
        {
          "internalType": "uint256",
          "name": "",
          "type": "uint256"
        }
      ],
      "stateMutability": "view",
      "type": "function"
    },
    {
      "inputs": [],
      "name": "decimals",
      "outputs": [
        {
          "internalType": "uint8",
          "name": "",
          "type": "uint8"
        }
      ],
      "stateMutability": "view",
      "type": "function"
    },
    {
      "inputs": [
        {
          "internalType": "uint256",
          "name": "assets",
          "type": "uint256"
        },
        {
          "internalType": "address",
          "name": "receiver",
          "type": "address"
        }
      ],
      "name": "deposit",
      "outputs": [
        {
          "internalType": "uint256",
          "name": "",
          "type": "uint256"
        }
      ],
      "stateMutability": "nonpayable",
      "type": "function"
    },
    {
      "inputs": [
        {
          "internalType": "address",
          "name": "",
          "type": "address"
        }
      ],
      "name": "depositTimestamp",
      "outputs": [
        {
          "internalType": "uint256",
          "name": "",
          "type": "uint256"
        }
      ],
      "stateMutability": "view",
      "type": "function"
    },
    {
      "inputs": [],
      "name": "getAPYBps",
      "outputs": [
        {
          "internalType": "uint256",
          "name": "",
          "type": "uint256"
        }
      ],
      "stateMutability": "view",
      "type": "function"
    },
    {
      "inputs": [
        {
          "internalType": "address",
          "name": "",
          "type": "address"
        }
      ],
      "name": "maxDeposit",
      "outputs": [
        {
          "internalType": "uint256",
          "name": "",
          "type": "uint256"
        }
      ],
      "stateMutability": "view",
      "type": "function"
    },
    {
      "inputs": [
        {
          "internalType": "address",
          "name": "",
          "type": "address"
        }
      ],
      "name": "maxMint",
      "outputs": [
        {
          "internalType": "uint256",
          "name": "",
          "type": "uint256"
        }
      ],
      "stateMutability": "view",
      "type": "function"
    },
    {
      "inputs": [
        {
          "internalType": "address",
          "name": "owner",
          "type": "address"
        }
      ],
      "name": "maxRedeem",
      "outputs": [
        {
          "internalType": "uint256",
          "name": "",
          "type": "uint256"
        }
      ],
      "stateMutability": "view",
      "type": "function"
    },
    {
      "inputs": [
        {
          "internalType": "address",
          "name": "owner",
          "type": "address"
        }
      ],
      "name": "maxWithdraw",
      "outputs": [
        {
          "internalType": "uint256",
          "name": "",
          "type": "uint256"
        }
      ],
      "stateMutability": "view",
      "type": "function"
    },
    {
      "inputs": [
        {
          "internalType": "uint256",
          "name": "shares",
          "type": "uint256"
        },
        {
          "internalType": "address",
          "name": "receiver",
          "type": "address"
        }
      ],
      "name": "mint",
      "outputs": [
        {
          "internalType": "uint256",
          "name": "",
          "type": "uint256"
        }
      ],
      "stateMutability": "nonpayable",
      "type": "function"
    },
    {
      "inputs": [],
      "name": "name",
      "outputs": [
        {
          "internalType": "string",
          "name": "",
          "type": "string"
        }
      ],
      "stateMutability": "view",
      "type": "function"
    },
    {
      "inputs": [],
      "name": "owner",
      "outputs": [
        {
          "internalType": "address",
          "name": "",
          "type": "address"
        }
      ],
      "stateMutability": "view",
      "type": "function"
    },
    {
      "inputs": [
        {
          "internalType": "uint256",
          "name": "assets",
          "type": "uint256"
        }
      ],
      "name": "previewDeposit",
      "outputs": [
        {
          "internalType": "uint256",
          "name": "",
          "type": "uint256"
        }
      ],
      "stateMutability": "view",
      "type": "function"
    },
    {
      "inputs": [
        {
          "internalType": "uint256",
          "name": "shares",
          "type": "uint256"
        }
      ],
      "name": "previewMint",
      "outputs": [
        {
          "internalType": "uint256",
          "name": "",
          "type": "uint256"
        }
      ],
      "stateMutability": "view",
      "type": "function"
    },
    {
      "inputs": [
        {
          "internalType": "uint256",
          "name": "shares",
          "type": "uint256"
        }
      ],
      "name": "previewRedeem",
      "outputs": [
        {
          "internalType": "uint256",
          "name": "",
          "type": "uint256"
        }
      ],
      "stateMutability": "view",
      "type": "function"
    },
    {
      "inputs": [
        {
          "internalType": "uint256",
          "name": "assets",
          "type": "uint256"
        }
      ],
      "name": "previewWithdraw",
      "outputs": [
        {
          "internalType": "uint256",
          "name": "",
          "type": "uint256"
        }
      ],
      "stateMutability": "view",
      "type": "function"
    },
    {
      "inputs": [
        {
          "internalType": "uint256",
          "name": "principal",
          "type": "uint256"
        },
        {
          "internalType": "uint256",
          "name": "durationSeconds",
          "type": "uint256"
        }
      ],
      "name": "previewYieldForAmount",
      "outputs": [
        {
          "internalType": "uint256",
          "name": "",
          "type": "uint256"
        }
      ],
      "stateMutability": "view",
      "type": "function"
    },
    {
      "inputs": [
        {
          "internalType": "uint256",
          "name": "shares",
          "type": "uint256"
        },
        {
          "internalType": "address",
          "name": "receiver",
          "type": "address"
        },
        {
          "internalType": "address",
          "name": "owner_",
          "type": "address"
        }
      ],
      "name": "redeem",
      "outputs": [
        {
          "internalType": "uint256",
          "name": "",
          "type": "uint256"
        }
      ],
      "stateMutability": "nonpayable",
      "type": "function"
    },
    {
      "inputs": [],
      "name": "renounceOwnership",
      "outputs": [],
      "stateMutability": "nonpayable",
      "type": "function"
    },
    {
      "inputs": [],
      "name": "symbol",
      "outputs": [
        {
          "internalType": "string",
          "name": "",
          "type": "string"
        }
      ],
      "stateMutability": "view",
      "type": "function"
    },
    {
      "inputs": [],
      "name": "tierName",
      "outputs": [
        {
          "internalType": "string",
          "name": "",
          "type": "string"
        }
      ],
      "stateMutability": "view",
      "type": "function"
    },
    {
      "inputs": [],
      "name": "totalAssets",
      "outputs": [
        {
          "internalType": "uint256",
          "name": "",
          "type": "uint256"
        }
      ],
      "stateMutability": "view",
      "type": "function"
    },
    {
      "inputs": [],
      "name": "totalSupply",
      "outputs": [
        {
          "internalType": "uint256",
          "name": "",
          "type": "uint256"
        }
      ],
      "stateMutability": "view",
      "type": "function"
    },
    {
      "inputs": [
        {
          "internalType": "address",
          "name": "to",
          "type": "address"
        },
        {
          "internalType": "uint256",
          "name": "value",
          "type": "uint256"
        }
      ],
      "name": "transfer",
      "outputs": [
        {
          "internalType": "bool",
          "name": "",
          "type": "bool"
        }
      ],
      "stateMutability": "nonpayable",
      "type": "function"
    },
    {
      "inputs": [
        {
          "internalType": "address",
          "name": "from",
          "type": "address"
        },
        {
          "internalType": "address",
          "name": "to",
          "type": "address"
        },
        {
          "internalType": "uint256",
          "name": "value",
          "type": "uint256"
        }
      ],
      "name": "transferFrom",
      "outputs": [
        {
          "internalType": "bool",
          "name": "",
          "type": "bool"
        }
      ],
      "stateMutability": "nonpayable",
      "type": "function"
    },
    {
      "inputs": [
        {
          "internalType": "address",
          "name": "newOwner",
          "type": "address"
        }
      ],
      "name": "transferOwnership",
      "outputs": [],
      "stateMutability": "nonpayable",
      "type": "function"
    },
    {
      "inputs": [
        {
          "internalType": "uint256",
          "name": "assets",
          "type": "uint256"
        },
        {
          "internalType": "address",
          "name": "receiver",
          "type": "address"
        },
        {
          "internalType": "address",
          "name": "owner_",
          "type": "address"
        }
      ],
      "name": "withdraw",
      "outputs": [
        {
          "internalType": "uint256",
          "name": "",
          "type": "uint256"
        }
      ],
      "stateMutability": "nonpayable",
      "type": "function"
    }
  ],
  "bytecode": "0x60e060405234801562000010575f80fd5b5060405162001bc538038062001bc58339810160408190526200003391620002d5565b33858585600362000045838262000413565b50600462000054828262000413565b5050505f806200006a836200010960201b60201c565b91509150816200007c5760126200007e565b805b60ff1660a05250506001600160a01b039081166080528116620000ba57604051631e4fbdf760e01b81525f600482015260240160405180910390fd5b620000c581620001a2565b5060017f9b779b17422d0df92223018b32b4d1fa46e071723d6817e2486d003becc55f005560c08290526006620000fd828262000413565b505050505050620004df565b5f80806200011660405190565b6040805160048152602481019091526020810180516001600160e01b0390811663313ce56760e01b179091529192505f9182916200015891889190620001f316565b5090925090506200016883604052565b81801562000177575060203d10155b801562000185575060ff8111155b62000192575f8062000196565b6001815b94509450505050915091565b600580546001600160a01b038381166001600160a01b0319831681179093556040519116919082907f8be0079c531659141344cd1fd0a4f28419497f9722a3daafe3b4186f6b6457e0905f90a35050565b5f805f60405f855160208701885afa92505f51915060205190509250925092565b634e487b7160e01b5f52604160045260245ffd5b5f82601f83011262000238575f80fd5b81516001600160401b038082111562000255576200025562000214565b604051601f8301601f19908116603f0116810190828211818310171562000280576200028062000214565b81604052838152602092508660208588010111156200029d575f80fd5b5f91505b83821015620002c05785820183015181830184015290820190620002a1565b5f602085830101528094505050505092915050565b5f805f805f60a08688031215620002ea575f80fd5b85516001600160a01b038116811462000301575f80fd5b60208701519095506001600160401b03808211156200031e575f80fd5b6200032c89838a0162000228565b9550604088015191508082111562000342575f80fd5b6200035089838a0162000228565b94506060880151935060808801519150808211156200036d575f80fd5b506200037c8882890162000228565b9150509295509295909350565b600181811c908216806200039e57607f821691505b602082108103620003bd57634e487b7160e01b5f52602260045260245ffd5b50919050565b601f8211156200040e57805f5260205f20601f840160051c81016020851015620003ea5750805b601f840160051c820191505b818110156200040b575f8155600101620003f6565b50505b505050565b81516001600160401b038111156200042f576200042f62000214565b620004478162000440845462000389565b84620003c3565b602080601f8311600181146200047d575f8415620004655750858301515b5f19600386901b1c1916600185901b178555620004d7565b5f85815260208120601f198616915b82811015620004ad578886015182559484019460019091019084016200048c565b5085821015620004cb57878501515f19600388901b60f8161c191681555b505060018460011b0185555b505050505050565b60805160a05160c051611691620005345f395f8181610287015281816103650152818161059d015261071a01525f6106da01525f81816102f5015281816104e801528181610ed4015261111d01526116915ff3fe608060405234801561000f575f80fd5b5060043610610208575f3560e01c806370a082311161011f578063c63d75b6116100a9578063dd62ed3e11610079578063dd62ed3e14610485578063e1a45218146104bd578063e6a69ab8146104c6578063ef8b30f71461044c578063f2fde38b146104d1575f80fd5b8063c63d75b61461032d578063c6e6f5921461044c578063ce96cb771461045f578063d905777e14610472575f80fd5b806395d89b41116100ef57806395d89b41146103f8578063a9059cbb14610400578063b3d7f6b914610413578063b460af9414610426578063ba08765214610439575f80fd5b806370a08231146103a2578063715018a6146103ca5780638da5cb5b146103d457806394bf804d146103e5575f80fd5b8063313ce567116101a057806346b00d041161017057806346b00d04146103415780634cdad5061461023c57806351618ed3146103605780635a7edc9d146103875780636e553f651461038f575f80fd5b8063313ce567146102c6578063378e7b7b146102e057806338d52e0f146102f3578063402d267d1461032d575f80fd5b80630a28a477116101db5780630a28a477146102725780630f10fa9d1461028557806318160ddd146102ab57806323b872dd146102b3575f80fd5b806301e1d1141461020c57806306fdde031461022757806307a2d13a1461023c578063095ea7b31461024f575b5f80fd5b6102146104e4565b6040519081526020015b60405180910390f35b61022f6105ea565b60405161021e9190611274565b61021461024a3660046112c0565b61067a565b61026261025d3660046112f2565b61068b565b604051901515815260200161021e565b6102146102803660046112c0565b6106a2565b7f0000000000000000000000000000000000000000000000000000000000000000610214565b600254610214565b6102626102c136600461131a565b6106ae565b6102ce6106d3565b60405160ff909116815260200161021e565b6102146102ee366004611353565b610703565b7f00000000000000000000000000000000000000000000000000000000000000005b6040516001600160a01b03909116815260200161021e565b61021461033b366004611373565b505f1990565b61021461034f366004611373565b60076020525f908152604090205481565b6102147f000000000000000000000000000000000000000000000000000000000000000081565b61022f610753565b61021461039d36600461138c565b6107df565b6102146103b0366004611373565b6001600160a01b03165f9081526020819052604090205490565b6103d2610851565b005b6005546001600160a01b0316610315565b6102146103f336600461138c565b610864565b61022f610895565b61026261040e3660046112f2565b6108a4565b6102146104213660046112c0565b6108b1565b6102146104343660046113b6565b6108bd565b6102146104473660046113b6565b6108e9565b61021461045a3660046112c0565b6108fd565b61021461046d366004611373565b610908565b610214610480366004611373565b610911565b6102146104933660046113ef565b6001600160a01b039182165f90815260016020908152604080832093909416825291909152205490565b61021461271081565b6102146301e1338081565b6103d26104df366004611373565b61092e565b5f807f00000000000000000000000000000000000000000000000000000000000000006040516370a0823160e01b81523060048201526001600160a01b0391909116906370a0823190602401602060405180830381865afa15801561054b573d5f803e3d5ffd5b505050506040513d601f19601f8201168201806040525081019061056f9190611417565b90505f61057a61096b565b6105849042611442565b90505f6105976301e13380612710611455565b826105c27f000000000000000000000000000000000000000000000000000000000000000086611455565b6105cc9190611455565b6105d69190611480565b90506105e28184611493565b935050505090565b6060600380546105f9906114a6565b80601f0160208091040260200160405190810160405280929190818152602001828054610625906114a6565b80156106705780601f1061064757610100808354040283529160200191610670565b820191905f5260205f20905b81548152906001019060200180831161065357829003601f168201915b5050505050905090565b5f610685825f610981565b92915050565b5f336106988185856109b9565b5060019392505050565b5f6106858260016109cb565b5f336106bb8582856109fa565b6106c6858585610a63565b60019150505b9392505050565b5f6106fe817f00000000000000000000000000000000000000000000000000000000000000006114de565b905090565b5f6107146301e13380612710611455565b8261073f7f000000000000000000000000000000000000000000000000000000000000000086611455565b6107499190611455565b6106cc9190611480565b60068054610760906114a6565b80601f016020809104026020016040519081016040528092919081815260200182805461078c906114a6565b80156107d75780601f106107ae576101008083540402835291602001916107d7565b820191905f5260205f20905b8154815290600101906020018083116107ba57829003601f168201915b505050505081565b5f6107e8610ac0565b6008545f036107f657426008555b6001600160a01b0382165f90815260076020526040812054900361082f576001600160a01b0382165f9081526007602052604090204290555b6108398383610adb565b905061068560015f8051602061163c83398151915255565b610859610af6565b6108625f610b23565b565b5f5f19610875565b60405180910390fd5b5f61087f856108b1565b905061088d33858388610b74565b949350505050565b6060600480546105f9906114a6565b5f33610698818585610a63565b5f610685826001610981565b5f6108c6610ac0565b6108d1848484610be4565b90506106cc60015f8051602061163c83398151915255565b5f6108f2610ac0565b6108d1848484610c3a565b5f610685825f6109cb565b5f61068561024a835b6001600160a01b0381165f90815260208190526040812054610685565b610936610af6565b6001600160a01b03811661095f57604051631e4fbdf760e01b81525f600482015260240161086c565b61096881610b23565b50565b5f6008545f1461097c575060085490565b504290565b5f6106cc61098d6104e4565b610998906001611493565b6109a35f600a6115f8565b6002546109b09190611493565b85919085610c87565b6109c68383836001610cc9565b505050565b5f6106cc6109da82600a6115f8565b6002546109e79190611493565b6109ef6104e4565b6109b0906001611493565b6001600160a01b038381165f908152600160209081526040808320938616835292905220545f19811015610a5d5781811015610a4f57828183604051637dc7a0d960e11b815260040161086c939291906114f7565b610a5d84848484035f610cc9565b50505050565b6001600160a01b038316610a8c57604051634b637e8f60e11b81525f600482015260240161086c565b6001600160a01b038216610ab55760405163ec442f0560e01b81525f600482015260240161086c565b6109c6838383610d8d565b610ac8610ea0565b60025f8051602061163c83398151915255565b5f5f195f610ae8856108fd565b905061088d33858784610b74565b6005546001600160a01b031633146108625760405163118cdaa760e01b815233600482015260240161086c565b600580546001600160a01b038381166001600160a01b0319831681179093556040519116919082907f8be0079c531659141344cd1fd0a4f28419497f9722a3daafe3b4186f6b6457e0905f90a35050565b610b7e8483610ecf565b610b888382610eff565b826001600160a01b0316846001600160a01b03167fdcbc1c05240f31ff3ad067ef1ee35ce4997762752e3a095284754544f4c709d78484604051610bd6929190918252602082015260400190565b60405180910390a350505050565b5f80610bef83610908565b905080851115610c1857828582604051633fa733bb60e21b815260040161086c939291906114f7565b5f610c22866106a2565b9050610c313386868985610f33565b95945050505050565b5f80610c4583610911565b905080851115610c6e57828582604051632e52afbb60e21b815260040161086c939291906114f7565b5f610c788661067a565b9050610c31338686848a610f33565b5f610cb4610c9483610fd2565b8015610caf57505f8480610caa57610caa61146c565b868809115b151590565b610cbf868686610ffe565b610c319190611493565b6001600160a01b038416610cf25760405163e602df0560e01b81525f600482015260240161086c565b6001600160a01b038316610d1b57604051634a1406b160e11b81525f600482015260240161086c565b6001600160a01b038085165f9081526001602090815260408083209387168352929052208290558015610a5d57826001600160a01b0316846001600160a01b03167f8c5be1e5ebec7d5bd14f71427d1e84f3dd0314c0f7b2291e5b200ac8c7c3b92584604051610bd691815260200190565b6001600160a01b038316610db7578060025f828254610dac9190611493565b90915550610e149050565b6001600160a01b0383165f9081526020819052604090205481811015610df65783818360405163391434e360e21b815260040161086c939291906114f7565b6001600160a01b0384165f9081526020819052604090209082900390555b6001600160a01b038216610e3057600280548290039055610e4e565b6001600160a01b0382165f9081526020819052604090208054820190555b816001600160a01b0316836001600160a01b03167fddf252ad1be2c89b69c2b068fc378daa952ba7f163c4a11628f55a4df523b3ef83604051610e9391815260200190565b60405180910390a3505050565b5f8051602061163c8339815191525460020361086257604051633ee5aeb560e01b815260040160405180910390fd5b610efb7f00000000000000000000000000000000000000000000000000000000000000008330846110ae565b5050565b6001600160a01b038216610f285760405163ec442f0560e01b81525f600482015260240161086c565b610efb5f8383610d8d565b826001600160a01b0316856001600160a01b031614610f5757610f578386836109fa565b610f6183826110e4565b610f6b8483611118565b826001600160a01b0316846001600160a01b0316866001600160a01b03167ffbde797d201c681b91056529119e0b02407c7bb96a4a2c75c01fc9667232c8db8585604051610fc3929190918252602082015260400190565b60405180910390a45050505050565b5f6002826003811115610fe757610fe7611606565b610ff1919061161a565b60ff166001149050919050565b5f805f61100b8686611143565b91509150815f0361102f578381816110255761102561146c565b04925050506106cc565b81841161104657611046600385150260111861115f565b5f848688095f868103871696879004966002600389028118808a02820302808a02820302808a02820302808a02820302808a02820302808a02909103029181900381900460010185841190960395909502919093039390930492909217029150509392505050565b6110bc848484846001611170565b610a5d57604051635274afe760e01b81526001600160a01b038516600482015260240161086c565b6001600160a01b03821661110d57604051634b637e8f60e11b81525f600482015260240161086c565b610efb825f83610d8d565b610efb7f000000000000000000000000000000000000000000000000000000000000000083836111dd565b5f805f1983850993909202808410938190039390930393915050565b634e487b715f52806020526024601cfd5b6040516323b872dd60e01b5f8181526001600160a01b038781166004528616602452604485905291602083606481808c5af1925060015f511483166111cc5783831516156111c0573d5f823e3d81fd5b5f883b113d1516831692505b604052505f60605295945050505050565b6111ea8383836001611212565b6109c657604051635274afe760e01b81526001600160a01b038416600482015260240161086c565b60405163a9059cbb60e01b5f8181526001600160a01b038616600452602485905291602083604481808b5af1925060015f5114831661126857838315161561125c573d5f823e3d81fd5b5f873b113d1516831692505b60405250949350505050565b5f602080835283518060208501525f5b818110156112a057858101830151858201604001528201611284565b505f604082860101526040601f19601f8301168501019250505092915050565b5f602082840312156112d0575f80fd5b5035919050565b80356001600160a01b03811681146112ed575f80fd5b919050565b5f8060408385031215611303575f80fd5b61130c836112d7565b946020939093013593505050565b5f805f6060848603121561132c575f80fd5b611335846112d7565b9250611343602085016112d7565b9150604084013590509250925092565b5f8060408385031215611364575f80fd5b50508035926020909101359150565b5f60208284031215611383575f80fd5b6106cc826112d7565b5f806040838503121561139d575f80fd5b823591506113ad602084016112d7565b90509250929050565b5f805f606084860312156113c8575f80fd5b833592506113d8602085016112d7565b91506113e6604085016112d7565b90509250925092565b5f8060408385031215611400575f80fd5b611409836112d7565b91506113ad602084016112d7565b5f60208284031215611427575f80fd5b5051919050565b634e487b7160e01b5f52601160045260245ffd5b818103818111156106855761068561142e565b80820281158282048414176106855761068561142e565b634e487b7160e01b5f52601260045260245ffd5b5f8261148e5761148e61146c565b500490565b808201808211156106855761068561142e565b600181811c908216806114ba57607f821691505b6020821081036114d857634e487b7160e01b5f52602260045260245ffd5b50919050565b60ff81811683821601908111156106855761068561142e565b6001600160a01b039390931683526020830191909152604082015260600190565b600181815b8085111561155257815f19048211156115385761153861142e565b8085161561154557918102915b93841c939080029061151d565b509250929050565b5f8261156857506001610685565b8161157457505f610685565b816001811461158a5760028114611594576115b0565b6001915050610685565b60ff8411156115a5576115a561142e565b50506001821b610685565b5060208310610133831016604e8410600b84101617156115d3575081810a610685565b6115dd8383611518565b805f19048211156115f0576115f061142e565b029392505050565b5f6106cc60ff84168361155a565b634e487b7160e01b5f52602160045260245ffd5b5f60ff83168061162c5761162c61146c565b8060ff8416069150509291505056fe9b779b17422d0df92223018b32b4d1fa46e071723d6817e2486d003becc55f00a264697066735822122011b94fb7e5d3a7730c0bc961d0eb47c14f79b791ede21ad7ccb5b64e3572db1764736f6c63430008180033",
  "linkReferences": {},
  "deployedLinkReferences": {}
}