{"contracts/StreamVault.sol":{"StreamVault":{"abi":[{"inputs":[{"internalType":"address","name":"_yieldRouter","type":"address"}],"stateMutability":"nonpayable","type":"constructor"},{"inputs":[],"name":"ReentrancyGuardReentrantCall","type":"error"},{"inputs":[{"internalType":"address","name":"token","type":"address"}],"name":"SafeERC20FailedOperation","type":"error"},{"anonymous":false,"inputs":[{"indexed":true,"internalType":"uint256","name":"streamId","type":"uint256"},{"indexed":true,"internalType":"address","name":"employee","type":"address"},{"indexed":false,"internalType":"uint256","name":"amount","type":"uint256"}],"name":"Claimed","type":"event"},{"anonymous":false,"inputs":[{"indexed":true,"internalType":"uint256","name":"streamId","type":"uint256"},{"indexed":false,"internalType":"uint256","name":"yieldEarned","type":"uint256"}],"name":"StreamClosed","type":"event"},{"anonymous":false,"inputs":[{"indexed":true,"internalType":"uint256","name":"streamId","type":"uint256"},{"indexed":true,"internalType":"address","name":"employer","type":"address"},{"indexed":true,"internalType":"address","name":"employee","type":"address"},{"indexed":false,"internalType":"uint256","name":"totalAmount","type":"uint256"},{"indexed":false,"internalType":"uint256","name":"startTime","type":"uint256"},{"indexed":false,"internalType":"uint256","name":"endTime","type":"uint256"},{"indexed":false,"internalType":"uint8","name":"vaultTier","type":"uint8"},{"indexed":false,"internalType":"string","name":"aiReasoning","type":"string"}],"name":"StreamCreated","type":"event"},{"inputs":[{"internalType":"uint256","name":"streamId","type":"uint256"}],"name":"claimVested","outputs":[],"stateMutability":"nonpayable","type":"function"},{"inputs":[{"internalType":"uint256","name":"streamId","type":"uint256"}],"name":"closeStream","outputs":[],"stateMutability":"nonpayable","type":"function"},{"inputs":[{"internalType":"address","name":"employee","type":"address"},{"internalType":"address","name":"token","type":"address"},{"internalType":"uint256","name":"totalAmount","type":"uint256"},{"internalType":"uint256","name":"duration","type":"uint256"},{"internalType":"uint8","name":"vaultTier","type":"uint8"},{"internalType":"string","name":"aiReasoning","type":"string"}],"name":"createStream","outputs":[{"internalType":"uint256","name":"streamId","type":"uint256"}],"stateMutability":"nonpayable","type":"function"},{"inputs":[{"internalType":"address","name":"","type":"address"},{"internalType":"uint256","name":"","type":"uint256"}],"name":"employeeStreams","outputs":[{"internalType":"uint256","name":"","type":"uint256"}],"stateMutability":"view","type":"function"},{"inputs":[{"internalType":"address","name":"","type":"address"},{"internalType":"uint256","name":"","type":"uint256"}],"name":"employerStreams","outputs":[{"internalType":"uint256","name":"","type":"uint256"}],"stateMutability":"view","type":"function"},{"inputs":[{"internalType":"uint256","name":"streamId","type":"uint256"}],"name":"getClaimable","outputs":[{"internalType":"uint256","name":"","type":"uint256"}],"stateMutability":"view","type":"function"},{"inputs":[{"internalType":"address","name":"employee","type":"address"}],"name":"getEmployeeStreams","outputs":[{"internalType":"uint256[]","name":"","type":"uint256[]"}],"stateMutability":"view","type":"function"},{"inputs":[{"internalType":"address","name":"employer","type":"address"}],"name":"getEmployerStreams","outputs":[{"internalType":"uint256[]","name":"","type":"uint256[]"}],"stateMutability":"view","type":"function"},{"inputs":[{"internalType":"uint256","name":"streamId","type":"uint256"}],"name":"getStream","outputs":[{"components":[{"internalType":"address","name":"employer","type":"address"},{"internalType":"address","name":"employee","type":"address"},{"internalType":"address","name":"token","type":"address"},{"internalType":"uint256","name":"totalAmount","type":"uint256"},{"internalType":"uint256","name":"startTime","type":"uint256"},{"internalType":"uint256","name":"endTime","type":"uint256"},{"internalType":"uint256","name":"claimedAmount","type":"uint256"},{"internalType":"uint8","name":"vaultTier","type":"uint8"},{"internalType":"bool","name":"active","type":"bool"},{"internalType":"string","name":"aiReasoning","type":"string"}],"internalType":"struct StreamVault.Stream","name":"","type":"tuple"}],"stateMutability":"view","type":"function"},{"inputs":[{"internalType":"uint256","name":"streamId","type":"uint256"}],"name":"getVestedAmount","outputs":[{"internalType":"uint256","name":"","type":"uint256"}],"stateMutability":"view","type":"function"},{"inputs":[],"name":"nextStreamId","outputs":[{"internalType":"uint256","name":"","type":"uint256"}],"stateMutability":"view","type":"function"},{"inputs":[{"internalType":"uint256","name":"","type":"uint256"}],"name":"streams","outputs":[{"internalType":"address","name":"employer","type":"address"},{"internalType":"address","name":"employee","type":"address"},{"internalType":"address","name":"token","type":"address"},{"internalType":"uint256","name":"totalAmount","type":"uint256"},{"internalType":"uint256","name":"startTime","type":"uint256"},{"internalType":"uint256","name":"endTime","type":"uint256"},{"internalType":"uint256","name":"claimedAmount","type":"uint256"},{"internalType":"uint8","name":"vaultTier","type":"uint8"},{"internalType":"bool","name":"active","type":"bool"},{"internalType":"string","name":"aiReasoning","type":"string"}],"stateMutability":"view","type":"function"},{"inputs":[],"name":"yieldRouter","outputs":[{"internalType":"contract RWAYieldRouter","name":"","type":"address"}],"stateMutability":"view","type":"function"}],"evm":{"bytecode":{"linkReferences":{},"object":"60a060405234801561000f575f80fd5b506040516117be3803806117be83398101604081905261002e91610063565b60017f9b779b17422d0df92223018b32b4d1fa46e071723d6817e2486d003becc55f00556001600160a01b0316608052610090565b5f60208284031215610073575f80fd5b81516001600160a01b0381168114610089575f80fd5b9392505050565b6080516116fb6100c35f395f818160d40152818161036a015281816105a8015281816109520152610a1701526116fb5ff3fe608060405234801561000f575f80fd5b50600436106100cb575f3560e01c806375a7b327116100885780639c7e4a66116100635780639c7e4a66146101e0578063a99b26c7146101f3578063cafeedf614610206578063ea1433c914610219575f80fd5b806375a7b3271461018d578063894e9a0d146101a057806390b734c7146101c0575f80fd5b806308ccadd8146100cf5780631d1b7b77146101135780631e99d56914610128578063204fd3b41461013e57806321837bbb1461015157806364d60d9114610164575b5f80fd5b6100f67f000000000000000000000000000000000000000000000000000000000000000081565b6040516001600160a01b0390911681526020015b60405180910390f35b61012661012136600461116d565b61022c565b005b6101305f5481565b60405190815260200161010a565b61012661014c36600461116d565b61042b565b61013061015f36600461119f565b610669565b61017761017236600461116d565b610694565b60405161010a9a9998979695949392919061120a565b61013061019b366004611279565b610785565b6101b36101ae36600461116d565b610ca4565b60405161010a919061132f565b6101d36101ce3660046113e7565b610e38565b60405161010a9190611400565b6101306101ee36600461116d565b610ea1565b6101d36102013660046113e7565b610ecd565b61013061021436600461116d565b610f34565b61013061022736600461119f565b610f50565b610234610f69565b5f81815260016020526040902080546001600160a01b0316331461029f5760405162461bcd60e51b815260206004820152601760248201527f4e6f74207468652073747265616d20656d706c6f79657200000000000000000060448201526064015b60405180910390fd5b6007810154610100900460ff166102e95760405162461bcd60e51b815260206004820152600e60248201526d105b1c9958591e4818db1bdcd95960921b6044820152606401610296565b80600501544210156103335760405162461bcd60e51b815260206004820152601360248201527253747265616d207374696c6c2061637469766560681b6044820152606401610296565b60078101805461ff00191690558054604051637e2d185760e01b8152600481018490526001600160a01b0391821660248201525f917f00000000000000000000000000000000000000000000000000000000000000001690637e2d1857906044016020604051808303815f875af11580156103b0573d5f803e3d5ffd5b505050506040513d601f19601f820116820180604052508101906103d49190611443565b9050827f2eaa8dd2315329b465aca27e4c5c1a2bb1d8a671adbc565fc828551ea5909ff58260405161040891815260200190565b60405180910390a2505061042860015f805160206116a683398151915255565b50565b610433610f69565b5f818152600160208190526040909120908101546001600160a01b0316331461049e5760405162461bcd60e51b815260206004820152601860248201527f4e6f74207468652073747265616d20726563697069656e7400000000000000006044820152606401610296565b6007810154610100900460ff166104ee5760405162461bcd60e51b815260206004820152601460248201527353747265616d206973206e6f742061637469766560601b6044820152606401610296565b5f81600601546104fd83610f84565b610507919061146e565b90505f811161054f5760405162461bcd60e51b8152602060048201526014602482015273139bdd1a1a5b99c81d1bc818db185a5b481e595d60621b6044820152606401610296565b80826006015f8282546105629190611481565b90915550506002820154600783015460405163aa45259b60e01b81526001600160a01b0392831660048201526024810184905260ff9091166044820152606481018590527f00000000000000000000000000000000000000000000000000000000000000009091169063aa45259b906084015f604051808303815f87803b1580156105eb575f80fd5b505af11580156105fd573d5f803e3d5ffd5b505050600283015461061a91506001600160a01b03163383610ff7565b604051818152339084907f4ec90e965519d92681267467f775ada5bd214aa92c0dc93d90a5e880ce9ed0269060200160405180910390a3505061042860015f805160206116a683398151915255565b6003602052815f5260405f208181548110610682575f80fd5b905f5260205f20015f91509150505481565b600160208190525f91825260409091208054918101546002820154600383015460048401546005850154600686015460078701546008880180546001600160a01b039a8b169a988916999790981697959694959394929360ff808416946101009094041692919061070490611494565b80601f016020809104026020016040519081016040528092919081815260200182805461073090611494565b801561077b5780601f106107525761010080835404028352916020019161077b565b820191905f5260205f20905b81548152906001019060200180831161075e57829003601f168201915b505050505090508a565b5f61078e610f69565b6001600160a01b0388166107e45760405162461bcd60e51b815260206004820152601860248201527f496e76616c696420656d706c6f796565206164647265737300000000000000006044820152606401610296565b336001600160a01b0389160361083c5760405162461bcd60e51b815260206004820152601960248201527f43616e6e6f742073747265616d20746f20796f757273656c66000000000000006044820152606401610296565b5f86116108805760405162461bcd60e51b81526020600482015260126024820152710416d6f756e74206d757374206265203e20360741b6044820152606401610296565b603c8510156108dd5760405162461bcd60e51b8152602060048201526024808201527f4475726174696f6e206d757374206265206174206c65617374203630207365636044820152636f6e647360e01b6064820152608401610296565b60028460ff1611156109265760405162461bcd60e51b815260206004820152601260248201527124b73b30b634b2103b30bab63a103a34b2b960711b6044820152606401610296565b61093b6001600160a01b038816333089611031565b60405163095ea7b360e01b81526001600160a01b037f0000000000000000000000000000000000000000000000000000000000000000811660048301526024820188905288169063095ea7b3906044016020604051808303815f875af11580156109a7573d5f803e3d5ffd5b505050506040513d601f19601f820116820180604052508101906109cb91906114cc565b505f805490806109da836114eb565b909155506040516378fc4f4960e11b81526001600160a01b0389811660048301526024820189905260ff87166044830152606482018390529192507f00000000000000000000000000000000000000000000000000000000000000009091169063f1f89e92906084016020604051808303815f875af1158015610a5f573d5f803e3d5ffd5b505050506040513d601f19601f82011682018060405250810190610a839190611443565b50604051806101400160405280336001600160a01b03168152602001896001600160a01b03168152602001886001600160a01b031681526020018781526020014281526020018642610ad59190611481565b81526020015f81526020018560ff16815260200160011515815260200184848080601f0160208091040260200160405190810160405280939291908181526020018383808284375f92018290525093909452505083815260016020818152604092839020855181546001600160a01b039182166001600160a01b03199182161783559287015193820180549482169484169490941790935592850151600284018054919093169116179055606083015160038201556080830151600482015560a0830151600582015560c0830151600682015560e08301516007820180546101008087015115150261ffff1990911660ff909316929092179190911790556101208301519091506008820190610beb9082611562565b5050335f818152600260209081526040808320805460018181018355918552838520018790556001600160a01b038e168085526003845291842080549182018155845291909220018490559150827fe445c372e353d0c4381102c791da06dba951f1e4fdcb61f0ac352d6faa331cfd8942610c668b82611481565b8a8a8a604051610c7b96959493929190611622565b60405180910390a4610c9960015f805160206116a683398151915255565b979650505050505050565b610d116040518061014001604052805f6001600160a01b031681526020015f6001600160a01b031681526020015f6001600160a01b031681526020015f81526020015f81526020015f81526020015f81526020015f60ff1681526020015f15158152602001606081525090565b5f8281526001602081815260409283902083516101408101855281546001600160a01b039081168252938201548416928101929092526002810154909216928101929092526003810154606083015260048101546080830152600581015460a0830152600681015460c0830152600781015460ff80821660e0850152610100918290041615159083015260088101805461012084019190610db190611494565b80601f0160208091040260200160405190810160405280929190818152602001828054610ddd90611494565b8015610e285780601f10610dff57610100808354040283529160200191610e28565b820191905f5260205f20905b815481529060010190602001808311610e0b57829003601f168201915b5050505050815250509050919050565b6001600160a01b0381165f90815260026020908152604091829020805483518184028101840190945280845260609392830182828015610e9557602002820191905f5260205f20905b815481526020019060010190808311610e81575b50505050509050919050565b5f8181526001602052604081206006810154610ebc82610f84565b610ec6919061146e565b9392505050565b6001600160a01b0381165f90815260036020908152604091829020805483518184028101840190945280845260609392830182828015610e9557602002820191905f5260205f2090815481526020019060010190808311610e815750505050509050919050565b5f818152600160205260408120610f4a90610f84565b92915050565b6002602052815f5260405f208181548110610682575f80fd5b610f7161106d565b60025f805160206116a683398151915255565b5f81600401544211610f9757505f919050565b81600501544210610faa57506003015490565b5f826004015442610fbb919061146e565b90505f83600401548460050154610fd2919061146e565b905080828560030154610fe5919061166f565b610fef9190611686565b949350505050565b611004838383600161109e565b61102c57604051635274afe760e01b81526001600160a01b0384166004820152602401610296565b505050565b61103f848484846001611100565b61106757604051635274afe760e01b81526001600160a01b0385166004820152602401610296565b50505050565b5f805160206116a68339815191525460020361109c57604051633ee5aeb560e01b815260040160405180910390fd5b565b60405163a9059cbb60e01b5f8181526001600160a01b038616600452602485905291602083604481808b5af1925060015f511483166110f45783831516156110e8573d5f823e3d81fd5b5f873b113d1516831692505b60405250949350505050565b6040516323b872dd60e01b5f8181526001600160a01b038781166004528616602452604485905291602083606481808c5af1925060015f5114831661115c578383151615611150573d5f823e3d81fd5b5f883b113d1516831692505b604052505f60605295945050505050565b5f6020828403121561117d575f80fd5b5035919050565b80356001600160a01b038116811461119a575f80fd5b919050565b5f80604083850312156111b0575f80fd5b6111b983611184565b946020939093013593505050565b5f81518084525f5b818110156111eb576020818501810151868301820152016111cf565b505f602082860101526020601f19601f83011685010191505092915050565b5f61014060018060a01b03808e168452808d166020850152808c166040850152508960608401528860808401528760a08401528660c084015260ff861660e084015284151561010084015280610120840152611268818401856111c7565b9d9c50505050505050505050505050565b5f805f805f805f60c0888a03121561128f575f80fd5b61129888611184565b96506112a660208901611184565b95506040880135945060608801359350608088013560ff811681146112c9575f80fd5b925060a088013567ffffffffffffffff808211156112e5575f80fd5b818a0191508a601f8301126112f8575f80fd5b813581811115611306575f80fd5b8b6020828501011115611317575f80fd5b60208301945080935050505092959891949750929550565b602081526113496020820183516001600160a01b03169052565b5f602083015161136460408401826001600160a01b03169052565b5060408301516001600160a01b03811660608401525060608301516080830152608083015160a083015260a083015160c083015260c083015160e083015260e08301516101006113b88185018360ff169052565b84015190506101206113cd8482018315159052565b840151610140848101529050610fef6101608401826111c7565b5f602082840312156113f7575f80fd5b610ec682611184565b602080825282518282018190525f9190848201906040850190845b818110156114375783518352928401929184019160010161141b565b50909695505050505050565b5f60208284031215611453575f80fd5b5051919050565b634e487b7160e01b5f52601160045260245ffd5b81810381811115610f4a57610f4a61145a565b80820180821115610f4a57610f4a61145a565b600181811c908216806114a857607f821691505b6020821081036114c657634e487b7160e01b5f52602260045260245ffd5b50919050565b5f602082840312156114dc575f80fd5b81518015158114610ec6575f80fd5b5f600182016114fc576114fc61145a565b5060010190565b634e487b7160e01b5f52604160045260245ffd5b601f82111561102c57805f5260205f20601f840160051c8101602085101561153c5750805b601f840160051c820191505b8181101561155b575f8155600101611548565b5050505050565b815167ffffffffffffffff81111561157c5761157c611503565b6115908161158a8454611494565b84611517565b602080601f8311600181146115c3575f84156115ac5750858301515b5f19600386901b1c1916600185901b17855561161a565b5f85815260208120601f198616915b828110156115f1578886015182559484019460019091019084016115d2565b508582101561160e57878501515f19600388901b60f8161c191681555b505060018460011b0185555b505050505050565b86815285602082015284604082015260ff8416606082015260a060808201528160a0820152818360c08301375f81830160c090810191909152601f909201601f1916010195945050505050565b8082028115828204841417610f4a57610f4a61145a565b5f826116a057634e487b7160e01b5f52601260045260245ffd5b50049056fe9b779b17422d0df92223018b32b4d1fa46e071723d6817e2486d003becc55f00a2646970667358221220510b71b04c27283bc75f3018afa59b7b5d46c3fe9d9c48a82f0caddec3d8959364736f6c63430008180033","opcodes":"PUSH1 0xA0 PUSH1 0x40 MSTORE CALLVALUE DUP1 ISZERO PUSH2 0xF JUMPI PUSH0 DUP1 REVERT JUMPDEST POP PUSH1 0x40 MLOAD PUSH2 0x17BE CODESIZE SUB DUP1 PUSH2 0x17BE DUP4 CODECOPY DUP2 ADD PUSH1 0x40 DUP2 SWAP1 MSTORE PUSH2 0x2E SWAP2 PUSH2 0x63 JUMP JUMPDEST PUSH1 0x1 PUSH32 0x9B779B17422D0DF92223018B32B4D1FA46E071723D6817E2486D003BECC55F00 SSTORE PUSH1 0x1 PUSH1 0x1 PUSH1 0xA0 SHL SUB AND PUSH1 0x80 MSTORE PUSH2 0x90 JUMP JUMPDEST PUSH0 PUSH1 0x20 DUP3 DUP5 SUB SLT ISZERO PUSH2 0x73 JUMPI PUSH0 DUP1 REVERT JUMPDEST DUP2 MLOAD PUSH1 0x1 PUSH1 0x1 PUSH1 0xA0 SHL SUB DUP2 AND DUP2 EQ PUSH2 0x89 JUMPI PUSH0 DUP1 REVERT JUMPDEST SWAP4 SWAP3 POP POP POP JUMP JUMPDEST PUSH1 0x80 MLOAD PUSH2 0x16FB PUSH2 0xC3 PUSH0 CODECOPY PUSH0 DUP2 DUP2 PUSH1 0xD4 ADD MSTORE DUP2 DUP2 PUSH2 0x36A ADD MSTORE DUP2 DUP2 PUSH2 0x5A8 ADD MSTORE DUP2 DUP2 PUSH2 0x952 ADD MSTORE PUSH2 0xA17 ADD MSTORE PUSH2 0x16FB PUSH0 RETURN INVALID PUSH1 0x80 PUSH1 0x40 MSTORE CALLVALUE DUP1 ISZERO PUSH2 0xF JUMPI PUSH0 DUP1 REVERT JUMPDEST POP PUSH1 0x4 CALLDATASIZE LT PUSH2 0xCB JUMPI PUSH0 CALLDATALOAD PUSH1 0xE0 SHR DUP1 PUSH4 0x75A7B327 GT PUSH2 0x88 JUMPI DUP1 PUSH4 0x9C7E4A66 GT PUSH2 0x63 JUMPI DUP1 PUSH4 0x9C7E4A66 EQ PUSH2 0x1E0 JUMPI DUP1 PUSH4 0xA99B26C7 EQ PUSH2 0x1F3 JUMPI DUP1 PUSH4 0xCAFEEDF6 EQ PUSH2 0x206 JUMPI DUP1 PUSH4 0xEA1433C9 EQ PUSH2 0x219 JUMPI PUSH0 DUP1 REVERT JUMPDEST DUP1 PUSH4 0x75A7B327 EQ PUSH2 0x18D JUMPI DUP1 PUSH4 0x894E9A0D EQ PUSH2 0x1A0 JUMPI DUP1 PUSH4 0x90B734C7 EQ PUSH2 0x1C0 JUMPI PUSH0 DUP1 REVERT JUMPDEST DUP1 PUSH4 0x8CCADD8 EQ PUSH2 0xCF JUMPI DUP1 PUSH4 0x1D1B7B77 EQ PUSH2 0x113 JUMPI DUP1 PUSH4 0x1E99D569 EQ PUSH2 0x128 JUMPI DUP1 PUSH4 0x204FD3B4 EQ PUSH2 0x13E JUMPI DUP1 PUSH4 0x21837BBB EQ PUSH2 0x151 JUMPI DUP1 PUSH4 0x64D60D91 EQ PUSH2 0x164 JUMPI JUMPDEST PUSH0 DUP1 REVERT JUMPDEST PUSH2 0xF6 PUSH32 0x0 DUP2 JUMP JUMPDEST PUSH1 0x40 MLOAD PUSH1 0x1 PUSH1 0x1 PUSH1 0xA0 SHL SUB SWAP1 SWAP2 AND DUP2 MSTORE PUSH1 0x20 ADD JUMPDEST PUSH1 0x40 MLOAD DUP1 SWAP2 SUB SWAP1 RETURN JUMPDEST PUSH2 0x126 PUSH2 0x121 CALLDATASIZE PUSH1 0x4 PUSH2 0x116D JUMP JUMPDEST PUSH2 0x22C JUMP JUMPDEST STOP JUMPDEST PUSH2 0x130 PUSH0 SLOAD DUP2 JUMP JUMPDEST PUSH1 0x40 MLOAD SWAP1 DUP2 MSTORE PUSH1 0x20 ADD PUSH2 0x10A JUMP JUMPDEST PUSH2 0x126 PUSH2 0x14C CALLDATASIZE PUSH1 0x4 PUSH2 0x116D JUMP JUMPDEST PUSH2 0x42B JUMP JUMPDEST PUSH2 0x130 PUSH2 0x15F CALLDATASIZE PUSH1 0x4 PUSH2 0x119F JUMP JUMPDEST PUSH2 0x669 JUMP JUMPDEST PUSH2 0x177 PUSH2 0x172 CALLDATASIZE PUSH1 0x4 PUSH2 0x116D JUMP JUMPDEST PUSH2 0x694 JUMP JUMPDEST PUSH1 0x40 MLOAD PUSH2 0x10A SWAP11 SWAP10 SWAP9 SWAP8 SWAP7 SWAP6 SWAP5 SWAP4 SWAP3 SWAP2 SWAP1 PUSH2 0x120A JUMP JUMPDEST PUSH2 0x130 PUSH2 0x19B CALLDATASIZE PUSH1 0x4 PUSH2 0x1279 JUMP JUMPDEST PUSH2 0x785 JUMP JUMPDEST PUSH2 0x1B3 PUSH2 0x1AE CALLDATASIZE PUSH1 0x4 PUSH2 0x116D JUMP JUMPDEST PUSH2 0xCA4 JUMP JUMPDEST PUSH1 0x40 MLOAD PUSH2 0x10A SWAP2 SWAP1 PUSH2 0x132F JUMP JUMPDEST PUSH2 0x1D3 PUSH2 0x1CE CALLDATASIZE PUSH1 0x4 PUSH2 0x13E7 JUMP JUMPDEST PUSH2 0xE38 JUMP JUMPDEST PUSH1 0x40 MLOAD PUSH2 0x10A SWAP2 SWAP1 PUSH2 0x1400 JUMP JUMPDEST PUSH2 0x130 PUSH2 0x1EE CALLDATASIZE PUSH1 0x4 PUSH2 0x116D JUMP JUMPDEST PUSH2 0xEA1 JUMP JUMPDEST PUSH2 0x1D3 PUSH2 0x201 CALLDATASIZE PUSH1 0x4 PUSH2 0x13E7 JUMP JUMPDEST PUSH2 0xECD JUMP JUMPDEST PUSH2 0x130 PUSH2 0x214 CALLDATASIZE PUSH1 0x4 PUSH2 0x116D JUMP JUMPDEST PUSH2 0xF34 JUMP JUMPDEST PUSH2 0x130 PUSH2 0x227 CALLDATASIZE PUSH1 0x4 PUSH2 0x119F JUMP JUMPDEST PUSH2 0xF50 JUMP JUMPDEST PUSH2 0x234 PUSH2 0xF69 JUMP JUMPDEST PUSH0 DUP2 DUP2 MSTORE PUSH1 0x1 PUSH1 0x20 MSTORE PUSH1 0x40 SWAP1 KECCAK256 DUP1 SLOAD PUSH1 0x1 PUSH1 0x1 PUSH1 0xA0 SHL SUB AND CALLER EQ PUSH2 0x29F JUMPI PUSH1 0x40 MLOAD PUSH3 0x461BCD PUSH1 0xE5 SHL DUP2 MSTORE PUSH1 0x20 PUSH1 0x4 DUP3 ADD MSTORE PUSH1 0x17 PUSH1 0x24 DUP3 ADD MSTORE PUSH32 0x4E6F74207468652073747265616D20656D706C6F796572000000000000000000 PUSH1 0x44 DUP3 ADD MSTORE PUSH1 0x64 ADD JUMPDEST PUSH1 0x40 MLOAD DUP1 SWAP2 SUB SWAP1 REVERT JUMPDEST PUSH1 0x7 DUP2 ADD SLOAD PUSH2 0x100 SWAP1 DIV PUSH1 0xFF AND PUSH2 0x2E9 JUMPI PUSH1 0x40 MLOAD PUSH3 0x461BCD PUSH1 0xE5 SHL DUP2 MSTORE PUSH1 0x20 PUSH1 0x4 DUP3 ADD MSTORE PUSH1 0xE PUSH1 0x24 DUP3 ADD MSTORE PUSH14 0x105B1C9958591E4818DB1BDCD959 PUSH1 0x92 SHL PUSH1 0x44 DUP3 ADD MSTORE PUSH1 0x64 ADD PUSH2 0x296 JUMP JUMPDEST DUP1 PUSH1 0x5 ADD SLOAD TIMESTAMP LT ISZERO PUSH2 0x333 JUMPI PUSH1 0x40 MLOAD PUSH3 0x461BCD PUSH1 0xE5 SHL DUP2 MSTORE PUSH1 0x20 PUSH1 0x4 DUP3 ADD MSTORE PUSH1 0x13 PUSH1 0x24 DUP3 ADD MSTORE PUSH19 0x53747265616D207374696C6C20616374697665 PUSH1 0x68 SHL PUSH1 0x44 DUP3 ADD MSTORE PUSH1 0x64 ADD PUSH2 0x296 JUMP JUMPDEST PUSH1 0x7 DUP2 ADD DUP1 SLOAD PUSH2 0xFF00 NOT AND SWAP1 SSTORE DUP1 SLOAD PUSH1 0x40 MLOAD PUSH4 0x7E2D1857 PUSH1 0xE0 SHL DUP2 MSTORE PUSH1 0x4 DUP2 ADD DUP5 SWAP1 MSTORE PUSH1 0x1 PUSH1 0x1 PUSH1 0xA0 SHL SUB SWAP2 DUP3 AND PUSH1 0x24 DUP3 ADD MSTORE PUSH0 SWAP2 PUSH32 0x0 AND SWAP1 PUSH4 0x7E2D1857 SWAP1 PUSH1 0x44 ADD PUSH1 0x20 PUSH1 0x40 MLOAD DUP1 DUP4 SUB DUP2 PUSH0 DUP8 GAS CALL ISZERO DUP1 ISZERO PUSH2 0x3B0 JUMPI RETURNDATASIZE PUSH0 DUP1 RETURNDATACOPY RETURNDATASIZE PUSH0 REVERT JUMPDEST POP POP POP POP PUSH1 0x40 MLOAD RETURNDATASIZE PUSH1 0x1F NOT PUSH1 0x1F DUP3 ADD AND DUP3 ADD DUP1 PUSH1 0x40 MSTORE POP DUP2 ADD SWAP1 PUSH2 0x3D4 SWAP2 SWAP1 PUSH2 0x1443 JUMP JUMPDEST SWAP1 POP DUP3 PUSH32 0x2EAA8DD2315329B465ACA27E4C5C1A2BB1D8A671ADBC565FC828551EA5909FF5 DUP3 PUSH1 0x40 MLOAD PUSH2 0x408 SWAP2 DUP2 MSTORE PUSH1 0x20 ADD SWAP1 JUMP JUMPDEST PUSH1 0x40 MLOAD DUP1 SWAP2 SUB SWAP1 LOG2 POP POP PUSH2 0x428 PUSH1 0x1 PUSH0 DUP1 MLOAD PUSH1 0x20 PUSH2 0x16A6 DUP4 CODECOPY DUP2 MLOAD SWAP2 MSTORE SSTORE JUMP JUMPDEST POP JUMP JUMPDEST PUSH2 0x433 PUSH2 0xF69 JUMP JUMPDEST PUSH0 DUP2 DUP2 MSTORE PUSH1 0x1 PUSH1 0x20 DUP2 SWAP1 MSTORE PUSH1 0x40 SWAP1 SWAP2 KECCAK256 SWAP1 DUP2 ADD SLOAD PUSH1 0x1 PUSH1 0x1 PUSH1 0xA0 SHL SUB AND CALLER EQ PUSH2 0x49E JUMPI PUSH1 0x40 MLOAD PUSH3 0x461BCD PUSH1 0xE5 SHL DUP2 MSTORE PUSH1 0x20 PUSH1 0x4 DUP3 ADD MSTORE PUSH1 0x18 PUSH1 0x24 DUP3 ADD MSTORE PUSH32 0x4E6F74207468652073747265616D20726563697069656E740000000000000000 PUSH1 0x44 DUP3 ADD MSTORE PUSH1 0x64 ADD PUSH2 0x296 JUMP JUMPDEST PUSH1 0x7 DUP2 ADD SLOAD PUSH2 0x100 SWAP1 DIV PUSH1 0xFF AND PUSH2 0x4EE JUMPI PUSH1 0x40 MLOAD PUSH3 0x461BCD PUSH1 0xE5 SHL DUP2 MSTORE PUSH1 0x20 PUSH1 0x4 DUP3 ADD MSTORE PUSH1 0x14 PUSH1 0x24 DUP3 ADD MSTORE PUSH20 0x53747265616D206973206E6F7420616374697665 PUSH1 0x60 SHL PUSH1 0x44 DUP3 ADD MSTORE PUSH1 0x64 ADD PUSH2 0x296 JUMP JUMPDEST PUSH0 DUP2 PUSH1 0x6 ADD SLOAD PUSH2 0x4FD DUP4 PUSH2 0xF84 JUMP JUMPDEST PUSH2 0x507 SWAP2 SWAP1 PUSH2 0x146E JUMP JUMPDEST SWAP1 POP PUSH0 DUP2 GT PUSH2 0x54F JUMPI PUSH1 0x40 MLOAD PUSH3 0x461BCD PUSH1 0xE5 SHL DUP2 MSTORE PUSH1 0x20 PUSH1 0x4 DUP3 ADD MSTORE PUSH1 0x14 PUSH1 0x24 DUP3 ADD MSTORE PUSH20 0x139BDD1A1A5B99C81D1BC818DB185A5B481E595D PUSH1 0x62 SHL PUSH1 0x44 DUP3 ADD MSTORE PUSH1 0x64 ADD PUSH2 0x296 JUMP JUMPDEST DUP1 DUP3 PUSH1 0x6 ADD PUSH0 DUP3 DUP3 SLOAD PUSH2 0x562 SWAP2 SWAP1 PUSH2 0x1481 JUMP JUMPDEST SWAP1 SWAP2 SSTORE POP POP PUSH1 0x2 DUP3 ADD SLOAD PUSH1 0x7 DUP4 ADD SLOAD PUSH1 0x40 MLOAD PUSH4 0xAA45259B PUSH1 0xE0 SHL DUP2 MSTORE PUSH1 0x1 PUSH1 0x1 PUSH1 0xA0 SHL SUB SWAP3 DUP4 AND PUSH1 0x4 DUP3 ADD MSTORE PUSH1 0x24 DUP2 ADD DUP5 SWAP1 MSTORE PUSH1 0xFF SWAP1 SWAP2 AND PUSH1 0x44 DUP3 ADD MSTORE PUSH1 0x64 DUP2 ADD DUP6 SWAP1 MSTORE PUSH32 0x0 SWAP1 SWAP2 AND SWAP1 PUSH4 0xAA45259B SWAP1 PUSH1 0x84 ADD PUSH0 PUSH1 0x40 MLOAD DUP1 DUP4 SUB DUP2 PUSH0 DUP8 DUP1 EXTCODESIZE ISZERO DUP1 ISZERO PUSH2 0x5EB JUMPI PUSH0 DUP1 REVERT JUMPDEST POP GAS CALL ISZERO DUP1 ISZERO PUSH2 0x5FD JUMPI RETURNDATASIZE PUSH0 DUP1 RETURNDATACOPY RETURNDATASIZE PUSH0 REVERT JUMPDEST POP POP POP PUSH1 0x2 DUP4 ADD SLOAD PUSH2 0x61A SWAP2 POP PUSH1 0x1 PUSH1 0x1 PUSH1 0xA0 SHL SUB AND CALLER DUP4 PUSH2 0xFF7 JUMP JUMPDEST PUSH1 0x40 MLOAD DUP2 DUP2 MSTORE CALLER SWAP1 DUP5 SWAP1 PUSH32 0x4EC90E965519D92681267467F775ADA5BD214AA92C0DC93D90A5E880CE9ED026 SWAP1 PUSH1 0x20 ADD PUSH1 0x40 MLOAD DUP1 SWAP2 SUB SWAP1 LOG3 POP POP PUSH2 0x428 PUSH1 0x1 PUSH0 DUP1 MLOAD PUSH1 0x20 PUSH2 0x16A6 DUP4 CODECOPY DUP2 MLOAD SWAP2 MSTORE SSTORE JUMP JUMPDEST PUSH1 0x3 PUSH1 0x20 MSTORE DUP2 PUSH0 MSTORE PUSH1 0x40 PUSH0 KECCAK256 DUP2 DUP2 SLOAD DUP2 LT PUSH2 0x682 JUMPI PUSH0 DUP1 REVERT JUMPDEST SWAP1 PUSH0 MSTORE PUSH1 0x20 PUSH0 KECCAK256 ADD PUSH0 SWAP2 POP SWAP2 POP POP SLOAD DUP2 JUMP JUMPDEST PUSH1 0x1 PUSH1 0x20 DUP2 SWAP1 MSTORE PUSH0 SWAP2 DUP3 MSTORE PUSH1 0x40 SWAP1 SWAP2 KECCAK256 DUP1 SLOAD SWAP2 DUP2 ADD SLOAD PUSH1 0x2 DUP3 ADD SLOAD PUSH1 0x3 DUP4 ADD SLOAD PUSH1 0x4 DUP5 ADD SLOAD PUSH1 0x5 DUP6 ADD SLOAD PUSH1 0x6 DUP7 ADD SLOAD PUSH1 0x7 DUP8 ADD SLOAD PUSH1 0x8 DUP9 ADD DUP1 SLOAD PUSH1 0x1 PUSH1 0x1 PUSH1 0xA0 SHL SUB SWAP11 DUP12 AND SWAP11 SWAP9 DUP10 AND SWAP10 SWAP8 SWAP1 SWAP9 AND SWAP8 SWAP6 SWAP7 SWAP5 SWAP6 SWAP4 SWAP5 SWAP3 SWAP4 PUSH1 0xFF DUP1 DUP5 AND SWAP5 PUSH2 0x100 SWAP1 SWAP5 DIV AND SWAP3 SWAP2 SWAP1 PUSH2 0x704 SWAP1 PUSH2 0x1494 JUMP JUMPDEST DUP1 PUSH1 0x1F ADD PUSH1 0x20 DUP1 SWAP2 DIV MUL PUSH1 0x20 ADD PUSH1 0x40 MLOAD SWAP1 DUP2 ADD PUSH1 0x40 MSTORE DUP1 SWAP3 SWAP2 SWAP1 DUP2 DUP2 MSTORE PUSH1 0x20 ADD DUP3 DUP1 SLOAD PUSH2 0x730 SWAP1 PUSH2 0x1494 JUMP JUMPDEST DUP1 ISZERO PUSH2 0x77B JUMPI DUP1 PUSH1 0x1F LT PUSH2 0x752 JUMPI PUSH2 0x100 DUP1 DUP4 SLOAD DIV MUL DUP4 MSTORE SWAP2 PUSH1 0x20 ADD SWAP2 PUSH2 0x77B JUMP JUMPDEST DUP3 ADD SWAP2 SWAP1 PUSH0 MSTORE PUSH1 0x20 PUSH0 KECCAK256 SWAP1 JUMPDEST DUP2 SLOAD DUP2 MSTORE SWAP1 PUSH1 0x1 ADD SWAP1 PUSH1 0x20 ADD DUP1 DUP4 GT PUSH2 0x75E JUMPI DUP3 SWAP1 SUB PUSH1 0x1F AND DUP3 ADD SWAP2 JUMPDEST POP POP POP POP POP SWAP1 POP DUP11 JUMP JUMPDEST PUSH0 PUSH2 0x78E PUSH2 0xF69 JUMP JUMPDEST PUSH1 0x1 PUSH1 0x1 PUSH1 0xA0 SHL SUB DUP9 AND PUSH2 0x7E4 JUMPI PUSH1 0x40 MLOAD PUSH3 0x461BCD PUSH1 0xE5 SHL DUP2 MSTORE PUSH1 0x20 PUSH1 0x4 DUP3 ADD MSTORE PUSH1 0x18 PUSH1 0x24 DUP3 ADD MSTORE PUSH32 0x496E76616C696420656D706C6F79656520616464726573730000000000000000 PUSH1 0x44 DUP3 ADD MSTORE PUSH1 0x64 ADD PUSH2 0x296 JUMP JUMPDEST CALLER PUSH1 0x1 PUSH1 0x1 PUSH1 0xA0 SHL SUB DUP10 AND SUB PUSH2 0x83C JUMPI PUSH1 0x40 MLOAD PUSH3 0x461BCD PUSH1 0xE5 SHL DUP2 MSTORE PUSH1 0x20 PUSH1 0x4 DUP3 ADD MSTORE PUSH1 0x19 PUSH1 0x24 DUP3 ADD MSTORE PUSH32 0x43616E6E6F742073747265616D20746F20796F757273656C6600000000000000 PUSH1 0x44 DUP3 ADD MSTORE PUSH1 0x64 ADD PUSH2 0x296 JUMP JUMPDEST PUSH0 DUP7 GT PUSH2 0x880 JUMPI PUSH1 0x40 MLOAD PUSH3 0x461BCD PUSH1 0xE5 SHL DUP2 MSTORE PUSH1 0x20 PUSH1 0x4 DUP3 ADD MSTORE PUSH1 0x12 PUSH1 0x24 DUP3 ADD MSTORE PUSH18 0x416D6F756E74206D757374206265203E203 PUSH1 0x74 SHL PUSH1 0x44 DUP3 ADD MSTORE PUSH1 0x64 ADD PUSH2 0x296 JUMP JUMPDEST PUSH1 0x3C DUP6 LT ISZERO PUSH2 0x8DD JUMPI PUSH1 0x40 MLOAD PUSH3 0x461BCD PUSH1 0xE5 SHL DUP2 MSTORE PUSH1 0x20 PUSH1 0x4 DUP3 ADD MSTORE PUSH1 0x24 DUP1 DUP3 ADD MSTORE PUSH32 0x4475726174696F6E206D757374206265206174206C6561737420363020736563 PUSH1 0x44 DUP3 ADD MSTORE PUSH4 0x6F6E6473 PUSH1 0xE0 SHL PUSH1 0x64 DUP3 ADD MSTORE PUSH1 0x84 ADD PUSH2 0x296 JUMP JUMPDEST PUSH1 0x2 DUP5 PUSH1 0xFF AND GT ISZERO PUSH2 0x926 JUMPI PUSH1 0x40 MLOAD PUSH3 0x461BCD PUSH1 0xE5 SHL DUP2 MSTORE PUSH1 0x20 PUSH1 0x4 DUP3 ADD MSTORE PUSH1 0x12 PUSH1 0x24 DUP3 ADD MSTORE PUSH18 0x24B73B30B634B2103B30BAB63A103A34B2B9 PUSH1 0x71 SHL PUSH1 0x44 DUP3 ADD MSTORE PUSH1 0x64 ADD PUSH2 0x296 JUMP JUMPDEST PUSH2 0x93B PUSH1 0x1 PUSH1 0x1 PUSH1 0xA0 SHL SUB DUP9 AND CALLER ADDRESS DUP10 PUSH2 0x1031 JUMP JUMPDEST PUSH1 0x40 MLOAD PUSH4 0x95EA7B3 PUSH1 0xE0 SHL DUP2 MSTORE PUSH1 0x1 PUSH1 0x1 PUSH1 0xA0 SHL SUB PUSH32 0x0 DUP2 AND PUSH1 0x4 DUP4 ADD MSTORE PUSH1 0x24 DUP3 ADD DUP9 SWAP1 MSTORE DUP9 AND SWAP1 PUSH4 0x95EA7B3 SWAP1 PUSH1 0x44 ADD PUSH1 0x20 PUSH1 0x40 MLOAD DUP1 DUP4 SUB DUP2 PUSH0 DUP8 GAS CALL ISZERO DUP1 ISZERO PUSH2 0x9A7 JUMPI RETURNDATASIZE PUSH0 DUP1 RETURNDATACOPY RETURNDATASIZE PUSH0 REVERT JUMPDEST POP POP POP POP PUSH1 0x40 MLOAD RETURNDATASIZE PUSH1 0x1F NOT PUSH1 0x1F DUP3 ADD AND DUP3 ADD DUP1 PUSH1 0x40 MSTORE POP DUP2 ADD SWAP1 PUSH2 0x9CB SWAP2 SWAP1 PUSH2 0x14CC JUMP JUMPDEST POP PUSH0 DUP1 SLOAD SWAP1 DUP1 PUSH2 0x9DA DUP4 PUSH2 0x14EB JUMP JUMPDEST SWAP1 SWAP2 SSTORE POP PUSH1 0x40 MLOAD PUSH4 0x78FC4F49 PUSH1 0xE1 SHL DUP2 MSTORE PUSH1 0x1 PUSH1 0x1 PUSH1 0xA0 SHL SUB DUP10 DUP2 AND PUSH1 0x4 DUP4 ADD MSTORE PUSH1 0x24 DUP3 ADD DUP10 SWAP1 MSTORE PUSH1 0xFF DUP8 AND PUSH1 0x44 DUP4 ADD MSTORE PUSH1 0x64 DUP3 ADD DUP4 SWAP1 MSTORE SWAP2 SWAP3 POP PUSH32 0x0 SWAP1 SWAP2 AND SWAP1 PUSH4 0xF1F89E92 SWAP1 PUSH1 0x84 ADD PUSH1 0x20 PUSH1 0x40 MLOAD DUP1 DUP4 SUB DUP2 PUSH0 DUP8 GAS CALL ISZERO DUP1 ISZERO PUSH2 0xA5F JUMPI RETURNDATASIZE PUSH0 DUP1 RETURNDATACOPY RETURNDATASIZE PUSH0 REVERT JUMPDEST POP POP POP POP PUSH1 0x40 MLOAD RETURNDATASIZE PUSH1 0x1F NOT PUSH1 0x1F DUP3 ADD AND DUP3 ADD DUP1 PUSH1 0x40 MSTORE POP DUP2 ADD SWAP1 PUSH2 0xA83 SWAP2 SWAP1 PUSH2 0x1443 JUMP JUMPDEST POP PUSH1 0x40 MLOAD DUP1 PUSH2 0x140 ADD PUSH1 0x40 MSTORE DUP1 CALLER PUSH1 0x1 PUSH1 0x1 PUSH1 0xA0 SHL SUB AND DUP2 MSTORE PUSH1 0x20 ADD DUP10 PUSH1 0x1 PUSH1 0x1 PUSH1 0xA0 SHL SUB AND DUP2 MSTORE PUSH1 0x20 ADD DUP9 PUSH1 0x1 PUSH1 0x1 PUSH1 0xA0 SHL SUB AND DUP2 MSTORE PUSH1 0x20 ADD DUP8 DUP2 MSTORE PUSH1 0x20 ADD TIMESTAMP DUP2 MSTORE PUSH1 0x20 ADD DUP7 TIMESTAMP PUSH2 0xAD5 SWAP2 SWAP1 PUSH2 0x1481 JUMP JUMPDEST DUP2 MSTORE PUSH1 0x20 ADD PUSH0 DUP2 MSTORE PUSH1 0x20 ADD DUP6 PUSH1 0xFF AND DUP2 MSTORE PUSH1 0x20 ADD PUSH1 0x1 ISZERO ISZERO DUP2 MSTORE PUSH1 0x20 ADD DUP5 DUP5 DUP1 DUP1 PUSH1 0x1F ADD PUSH1 0x20 DUP1 SWAP2 DIV MUL PUSH1 0x20 ADD PUSH1 0x40 MLOAD SWAP1 DUP2 ADD PUSH1 0x40 MSTORE DUP1 SWAP4 SWAP3 SWAP2 SWAP1 DUP2 DUP2 MSTORE PUSH1 0x20 ADD DUP4 DUP4 DUP1 DUP3 DUP5 CALLDATACOPY PUSH0 SWAP3 ADD DUP3 SWAP1 MSTORE POP SWAP4 SWAP1 SWAP5 MSTORE POP POP DUP4 DUP2 MSTORE PUSH1 0x1 PUSH1 0x20 DUP2 DUP2 MSTORE PUSH1 0x40 SWAP3 DUP4 SWAP1 KECCAK256 DUP6 MLOAD DUP2 SLOAD PUSH1 0x1 PUSH1 0x1 PUSH1 0xA0 SHL SUB SWAP2 DUP3 AND PUSH1 0x1 PUSH1 0x1 PUSH1 0xA0 SHL SUB NOT SWAP2 DUP3 AND OR DUP4 SSTORE SWAP3 DUP8 ADD MLOAD SWAP4 DUP3 ADD DUP1 SLOAD SWAP5 DUP3 AND SWAP5 DUP5 AND SWAP5 SWAP1 SWAP5 OR SWAP1 SWAP4 SSTORE SWAP3 DUP6 ADD MLOAD PUSH1 0x2 DUP5 ADD DUP1 SLOAD SWAP2 SWAP1 SWAP4 AND SWAP2 AND OR SWAP1 SSTORE PUSH1 0x60 DUP4 ADD MLOAD PUSH1 0x3 DUP3 ADD SSTORE PUSH1 0x80 DUP4 ADD MLOAD PUSH1 0x4 DUP3 ADD SSTORE PUSH1 0xA0 DUP4 ADD MLOAD PUSH1 0x5 DUP3 ADD SSTORE PUSH1 0xC0 DUP4 ADD MLOAD PUSH1 0x6 DUP3 ADD SSTORE PUSH1 0xE0 DUP4 ADD MLOAD PUSH1 0x7 DUP3 ADD DUP1 SLOAD PUSH2 0x100 DUP1 DUP8 ADD MLOAD ISZERO ISZERO MUL PUSH2 0xFFFF NOT SWAP1 SWAP2 AND PUSH1 0xFF SWAP1 SWAP4 AND SWAP3 SWAP1 SWAP3 OR SWAP2 SWAP1 SWAP2 OR SWAP1 SSTORE PUSH2 0x120 DUP4 ADD MLOAD SWAP1 SWAP2 POP PUSH1 0x8 DUP3 ADD SWAP1 PUSH2 0xBEB SWAP1 DUP3 PUSH2 0x1562 JUMP JUMPDEST POP POP CALLER PUSH0 DUP2 DUP2 MSTORE PUSH1 0x2 PUSH1 0x20 SWAP1 DUP2 MSTORE PUSH1 0x40 DUP1 DUP4 KECCAK256 DUP1 SLOAD PUSH1 0x1 DUP2 DUP2 ADD DUP4 SSTORE SWAP2 DUP6 MSTORE DUP4 DUP6 KECCAK256 ADD DUP8 SWAP1 SSTORE PUSH1 0x1 PUSH1 0x1 PUSH1 0xA0 SHL SUB DUP15 AND DUP1 DUP6 MSTORE PUSH1 0x3 DUP5 MSTORE SWAP2 DUP5 KECCAK256 DUP1 SLOAD SWAP2 DUP3 ADD DUP2 SSTORE DUP5 MSTORE SWAP2 SWAP1 SWAP3 KECCAK256 ADD DUP5 SWAP1 SSTORE SWAP2 POP DUP3 PUSH32 0xE445C372E353D0C4381102C791DA06DBA951F1E4FDCB61F0AC352D6FAA331CFD DUP10 TIMESTAMP PUSH2 0xC66 DUP12 DUP3 PUSH2 0x1481 JUMP JUMPDEST DUP11 DUP11 DUP11 PUSH1 0x40 MLOAD PUSH2 0xC7B SWAP7 SWAP6 SWAP5 SWAP4 SWAP3 SWAP2 SWAP1 PUSH2 0x1622 JUMP JUMPDEST PUSH1 0x40 MLOAD DUP1 SWAP2 SUB SWAP1 LOG4 PUSH2 0xC99 PUSH1 0x1 PUSH0 DUP1 MLOAD PUSH1 0x20 PUSH2 0x16A6 DUP4 CODECOPY DUP2 MLOAD SWAP2 MSTORE SSTORE JUMP JUMPDEST SWAP8 SWAP7 POP POP POP POP POP POP POP JUMP JUMPDEST PUSH2 0xD11 PUSH1 0x40 MLOAD DUP1 PUSH2 0x140 ADD PUSH1 0x40 MSTORE DUP1 PUSH0 PUSH1 0x1 PUSH1 0x1 PUSH1 0xA0 SHL SUB AND DUP2 MSTORE PUSH1 0x20 ADD PUSH0 PUSH1 0x1 PUSH1 0x1 PUSH1 0xA0 SHL SUB AND DUP2 MSTORE PUSH1 0x20 ADD PUSH0 PUSH1 0x1 PUSH1 0x1 PUSH1 0xA0 SHL SUB AND DUP2 MSTORE PUSH1 0x20 ADD PUSH0 DUP2 MSTORE PUSH1 0x20 ADD PUSH0 DUP2 MSTORE PUSH1 0x20 ADD PUSH0 DUP2 MSTORE PUSH1 0x20 ADD PUSH0 DUP2 MSTORE PUSH1 0x20 ADD PUSH0 PUSH1 0xFF AND DUP2 MSTORE PUSH1 0x20 ADD PUSH0 ISZERO ISZERO DUP2 MSTORE PUSH1 0x20 ADD PUSH1 0x60 DUP2 MSTORE POP SWAP1 JUMP JUMPDEST PUSH0 DUP3 DUP2 MSTORE PUSH1 0x1 PUSH1 0x20 DUP2 DUP2 MSTORE PUSH1 0x40 SWAP3 DUP4 SWAP1 KECCAK256 DUP4 MLOAD PUSH2 0x140 DUP2 ADD DUP6 MSTORE DUP2 SLOAD PUSH1 0x1 PUSH1 0x1 PUSH1 0xA0 SHL SUB SWAP1 DUP2 AND DUP3 MSTORE SWAP4 DUP3 ADD SLOAD DUP5 AND SWAP3 DUP2 ADD SWAP3 SWAP1 SWAP3 MSTORE PUSH1 0x2 DUP2 ADD SLOAD SWAP1 SWAP3 AND SWAP3 DUP2 ADD SWAP3 SWAP1 SWAP3 MSTORE PUSH1 0x3 DUP2 ADD SLOAD PUSH1 0x60 DUP4 ADD MSTORE PUSH1 0x4 DUP2 ADD SLOAD PUSH1 0x80 DUP4 ADD MSTORE PUSH1 0x5 DUP2 ADD SLOAD PUSH1 0xA0 DUP4 ADD MSTORE PUSH1 0x6 DUP2 ADD SLOAD PUSH1 0xC0 DUP4 ADD MSTORE PUSH1 0x7 DUP2 ADD SLOAD PUSH1 0xFF DUP1 DUP3 AND PUSH1 0xE0 DUP6 ADD MSTORE PUSH2 0x100 SWAP2 DUP3 SWAP1 DIV AND ISZERO ISZERO SWAP1 DUP4 ADD MSTORE PUSH1 0x8 DUP2 ADD DUP1 SLOAD PUSH2 0x120 DUP5 ADD SWAP2 SWAP1 PUSH2 0xDB1 SWAP1 PUSH2 0x1494 JUMP JUMPDEST DUP1 PUSH1 0x1F ADD PUSH1 0x20 DUP1 SWAP2 DIV MUL PUSH1 0x20 ADD PUSH1 0x40 MLOAD SWAP1 DUP2 ADD PUSH1 0x40 MSTORE DUP1 SWAP3 SWAP2 SWAP1 DUP2 DUP2 MSTORE PUSH1 0x20 ADD DUP3 DUP1 SLOAD PUSH2 0xDDD SWAP1 PUSH2 0x1494 JUMP JUMPDEST DUP1 ISZERO PUSH2 0xE28 JUMPI DUP1 PUSH1 0x1F LT PUSH2 0xDFF JUMPI PUSH2 0x100 DUP1 DUP4 SLOAD DIV MUL DUP4 MSTORE SWAP2 PUSH1 0x20 ADD SWAP2 PUSH2 0xE28 JUMP JUMPDEST DUP3 ADD SWAP2 SWAP1 PUSH0 MSTORE PUSH1 0x20 PUSH0 KECCAK256 SWAP1 JUMPDEST DUP2 SLOAD DUP2 MSTORE SWAP1 PUSH1 0x1 ADD SWAP1 PUSH1 0x20 ADD DUP1 DUP4 GT PUSH2 0xE0B JUMPI DUP3 SWAP1 SUB PUSH1 0x1F AND DUP3 ADD SWAP2 JUMPDEST POP POP POP POP POP DUP2 MSTORE POP POP SWAP1 POP SWAP2 SWAP1 POP JUMP JUMPDEST PUSH1 0x1 PUSH1 0x1 PUSH1 0xA0 SHL SUB DUP2 AND PUSH0 SWAP1 DUP2 MSTORE PUSH1 0x2 PUSH1 0x20 SWAP1 DUP2 MSTORE PUSH1 0x40 SWAP2 DUP3 SWAP1 KECCAK256 DUP1 SLOAD DUP4 MLOAD DUP2 DUP5 MUL DUP2 ADD DUP5 ADD SWAP1 SWAP5 MSTORE DUP1 DUP5 MSTORE PUSH1 0x60 SWAP4 SWAP3 DUP4 ADD DUP3 DUP3 DUP1 ISZERO PUSH2 0xE95 JUMPI PUSH1 0x20 MUL DUP3 ADD SWAP2 SWAP1 PUSH0 MSTORE PUSH1 0x20 PUSH0 KECCAK256 SWAP1 JUMPDEST DUP2 SLOAD DUP2 MSTORE PUSH1 0x20 ADD SWAP1 PUSH1 0x1 ADD SWAP1 DUP1 DUP4 GT PUSH2 0xE81 JUMPI JUMPDEST POP POP POP POP POP SWAP1 POP SWAP2 SWAP1 POP JUMP JUMPDEST PUSH0 DUP2 DUP2 MSTORE PUSH1 0x1 PUSH1 0x20 MSTORE PUSH1 0x40 DUP2 KECCAK256 PUSH1 0x6 DUP2 ADD SLOAD PUSH2 0xEBC DUP3 PUSH2 0xF84 JUMP JUMPDEST PUSH2 0xEC6 SWAP2 SWAP1 PUSH2 0x146E JUMP JUMPDEST SWAP4 SWAP3 POP POP POP JUMP JUMPDEST PUSH1 0x1 PUSH1 0x1 PUSH1 0xA0 SHL SUB DUP2 AND PUSH0 SWAP1 DUP2 MSTORE PUSH1 0x3 PUSH1 0x20 SWAP1 DUP2 MSTORE PUSH1 0x40 SWAP2 DUP3 SWAP1 KECCAK256 DUP1 SLOAD DUP4 MLOAD DUP2 DUP5 MUL DUP2 ADD DUP5 ADD SWAP1 SWAP5 MSTORE DUP1 DUP5 MSTORE PUSH1 0x60 SWAP4 SWAP3 DUP4 ADD DUP3 DUP3 DUP1 ISZERO PUSH2 0xE95 JUMPI PUSH1 0x20 MUL DUP3 ADD SWAP2 SWAP1 PUSH0 MSTORE PUSH1 0x20 PUSH0 KECCAK256 SWAP1 DUP2 SLOAD DUP2 MSTORE PUSH1 0x20 ADD SWAP1 PUSH1 0x1 ADD SWAP1 DUP1 DUP4 GT PUSH2 0xE81 JUMPI POP POP POP POP POP SWAP1 POP SWAP2 SWAP1 POP JUMP JUMPDEST PUSH0 DUP2 DUP2 MSTORE PUSH1 0x1 PUSH1 0x20 MSTORE PUSH1 0x40 DUP2 KECCAK256 PUSH2 0xF4A SWAP1 PUSH2 0xF84 JUMP JUMPDEST SWAP3 SWAP2 POP POP JUMP JUMPDEST PUSH1 0x2 PUSH1 0x20 MSTORE DUP2 PUSH0 MSTORE PUSH1 0x40 PUSH0 KECCAK256 DUP2 DUP2 SLOAD DUP2 LT PUSH2 0x682 JUMPI PUSH0 DUP1 REVERT JUMPDEST PUSH2 0xF71 PUSH2 0x106D JUMP JUMPDEST PUSH1 0x2 PUSH0 DUP1 MLOAD PUSH1 0x20 PUSH2 0x16A6 DUP4 CODECOPY DUP2 MLOAD SWAP2 MSTORE SSTORE JUMP JUMPDEST PUSH0 DUP2 PUSH1 0x4 ADD SLOAD TIMESTAMP GT PUSH2 0xF97 JUMPI POP PUSH0 SWAP2 SWAP1 POP JUMP JUMPDEST DUP2 PUSH1 0x5 ADD SLOAD TIMESTAMP LT PUSH2 0xFAA JUMPI POP PUSH1 0x3 ADD SLOAD SWAP1 JUMP JUMPDEST PUSH0 DUP3 PUSH1 0x4 ADD SLOAD TIMESTAMP PUSH2 0xFBB SWAP2 SWAP1 PUSH2 0x146E JUMP JUMPDEST SWAP1 POP PUSH0 DUP4 PUSH1 0x4 ADD SLOAD DUP5 PUSH1 0x5 ADD SLOAD PUSH2 0xFD2 SWAP2 SWAP1 PUSH2 0x146E JUMP JUMPDEST SWAP1 POP DUP1 DUP3 DUP6 PUSH1 0x3 ADD SLOAD PUSH2 0xFE5 SWAP2 SWAP1 PUSH2 0x166F JUMP JUMPDEST PUSH2 0xFEF SWAP2 SWAP1 PUSH2 0x1686 JUMP JUMPDEST SWAP5 SWAP4 POP POP POP POP JUMP JUMPDEST PUSH2 0x1004 DUP4 DUP4 DUP4 PUSH1 0x1 PUSH2 0x109E JUMP JUMPDEST PUSH2 0x102C JUMPI PUSH1 0x40 MLOAD PUSH4 0x5274AFE7 PUSH1 0xE0 SHL DUP2 MSTORE PUSH1 0x1 PUSH1 0x1 PUSH1 0xA0 SHL SUB DUP5 AND PUSH1 0x4 DUP3 ADD MSTORE PUSH1 0x24 ADD PUSH2 0x296 JUMP JUMPDEST POP POP POP JUMP JUMPDEST PUSH2 0x103F DUP5 DUP5 DUP5 DUP5 PUSH1 0x1 PUSH2 0x1100 JUMP JUMPDEST PUSH2 0x1067 JUMPI PUSH1 0x40 MLOAD PUSH4 0x5274AFE7 PUSH1 0xE0 SHL DUP2 MSTORE PUSH1 0x1 PUSH1 0x1 PUSH1 0xA0 SHL SUB DUP6 AND PUSH1 0x4 DUP3 ADD MSTORE PUSH1 0x24 ADD PUSH2 0x296 JUMP JUMPDEST POP POP POP POP JUMP JUMPDEST PUSH0 DUP1 MLOAD PUSH1 0x20 PUSH2 0x16A6 DUP4 CODECOPY DUP2 MLOAD SWAP2 MSTORE SLOAD PUSH1 0x2 SUB PUSH2 0x109C JUMPI PUSH1 0x40 MLOAD PUSH4 0x3EE5AEB5 PUSH1 0xE0 SHL DUP2 MSTORE PUSH1 0x4 ADD PUSH1 0x40 MLOAD DUP1 SWAP2 SUB SWAP1 REVERT JUMPDEST JUMP JUMPDEST PUSH1 0x40 MLOAD PUSH4 0xA9059CBB PUSH1 0xE0 SHL PUSH0 DUP2 DUP2 MSTORE PUSH1 0x1 PUSH1 0x1 PUSH1 0xA0 SHL SUB DUP7 AND PUSH1 0x4 MSTORE PUSH1 0x24 DUP6 SWAP1 MSTORE SWAP2 PUSH1 0x20 DUP4 PUSH1 0x44 DUP2 DUP1 DUP12 GAS CALL SWAP3 POP PUSH1 0x1 PUSH0 MLOAD EQ DUP4 AND PUSH2 0x10F4 JUMPI DUP4 DUP4 ISZERO AND ISZERO PUSH2 0x10E8 JUMPI RETURNDATASIZE PUSH0 DUP3 RETURNDATACOPY RETURNDATASIZE DUP2 REVERT JUMPDEST PUSH0 DUP8 EXTCODESIZE GT RETURNDATASIZE ISZERO AND DUP4 AND SWAP3 POP JUMPDEST PUSH1 0x40 MSTORE POP SWAP5 SWAP4 POP POP POP POP JUMP JUMPDEST PUSH1 0x40 MLOAD PUSH4 0x23B872DD PUSH1 0xE0 SHL PUSH0 DUP2 DUP2 MSTORE PUSH1 0x1 PUSH1 0x1 PUSH1 0xA0 SHL SUB DUP8 DUP2 AND PUSH1 0x4 MSTORE DUP7 AND PUSH1 0x24 MSTORE PUSH1 0x44 DUP6 SWAP1 MSTORE SWAP2 PUSH1 0x20 DUP4 PUSH1 0x64 DUP2 DUP1 DUP13 GAS CALL SWAP3 POP PUSH1 0x1 PUSH0 MLOAD EQ DUP4 AND PUSH2 0x115C JUMPI DUP4 DUP4 ISZERO AND ISZERO PUSH2 0x1150 JUMPI RETURNDATASIZE PUSH0 DUP3 RETURNDATACOPY RETURNDATASIZE DUP2 REVERT JUMPDEST PUSH0 DUP9 EXTCODESIZE GT RETURNDATASIZE ISZERO AND DUP4 AND SWAP3 POP JUMPDEST PUSH1 0x40 MSTORE POP PUSH0 PUSH1 0x60 MSTORE SWAP6 SWAP5 POP POP POP POP POP JUMP JUMPDEST PUSH0 PUSH1 0x20 DUP3 DUP5 SUB SLT ISZERO PUSH2 0x117D JUMPI PUSH0 DUP1 REVERT JUMPDEST POP CALLDATALOAD SWAP2 SWAP1 POP JUMP JUMPDEST DUP1 CALLDATALOAD PUSH1 0x1 PUSH1 0x1 PUSH1 0xA0 SHL SUB DUP2 AND DUP2 EQ PUSH2 0x119A JUMPI PUSH0 DUP1 REVERT JUMPDEST SWAP2 SWAP1 POP JUMP JUMPDEST PUSH0 DUP1 PUSH1 0x40 DUP4 DUP6 SUB SLT ISZERO PUSH2 0x11B0 JUMPI PUSH0 DUP1 REVERT JUMPDEST PUSH2 0x11B9 DUP4 PUSH2 0x1184 JUMP JUMPDEST SWAP5 PUSH1 0x20 SWAP4 SWAP1 SWAP4 ADD CALLDATALOAD SWAP4 POP POP POP JUMP JUMPDEST PUSH0 DUP2 MLOAD DUP1 DUP5 MSTORE PUSH0 JUMPDEST DUP2 DUP2 LT ISZERO PUSH2 0x11EB JUMPI PUSH1 0x20 DUP2 DUP6 ADD DUP2 ADD MLOAD DUP7 DUP4 ADD DUP3 ADD MSTORE ADD PUSH2 0x11CF JUMP JUMPDEST POP PUSH0 PUSH1 0x20 DUP3 DUP7 ADD ADD MSTORE PUSH1 0x20 PUSH1 0x1F NOT PUSH1 0x1F DUP4 ADD AND DUP6 ADD ADD SWAP2 POP POP SWAP3 SWAP2 POP POP JUMP JUMPDEST PUSH0 PUSH2 0x140 PUSH1 0x1 DUP1 PUSH1 0xA0 SHL SUB DUP1 DUP15 AND DUP5 MSTORE DUP1 DUP14 AND PUSH1 0x20 DUP6 ADD MSTORE DUP1 DUP13 AND PUSH1 0x40 DUP6 ADD MSTORE POP DUP10 PUSH1 0x60 DUP5 ADD MSTORE DUP9 PUSH1 0x80 DUP5 ADD MSTORE DUP8 PUSH1 0xA0 DUP5 ADD MSTORE DUP7 PUSH1 0xC0 DUP5 ADD MSTORE PUSH1 0xFF DUP7 AND PUSH1 0xE0 DUP5 ADD MSTORE DUP5 ISZERO ISZERO PUSH2 0x100 DUP5 ADD MSTORE DUP1 PUSH2 0x120 DUP5 ADD MSTORE PUSH2 0x1268 DUP2 DUP5 ADD DUP6 PUSH2 0x11C7 JUMP JUMPDEST SWAP14 SWAP13 POP POP POP POP POP POP POP POP POP POP POP POP POP JUMP JUMPDEST PUSH0 DUP1 PUSH0 DUP1 PUSH0 DUP1 PUSH0 PUSH1 0xC0 DUP9 DUP11 SUB SLT ISZERO PUSH2 0x128F JUMPI PUSH0 DUP1 REVERT JUMPDEST PUSH2 0x1298 DUP9 PUSH2 0x1184 JUMP JUMPDEST SWAP7 POP PUSH2 0x12A6 PUSH1 0x20 DUP10 ADD PUSH2 0x1184 JUMP JUMPDEST SWAP6 POP PUSH1 0x40 DUP9 ADD CALLDATALOAD SWAP5 POP PUSH1 0x60 DUP9 ADD CALLDATALOAD SWAP4 POP PUSH1 0x80 DUP9 ADD CALLDATALOAD PUSH1 0xFF DUP2 AND DUP2 EQ PUSH2 0x12C9 JUMPI PUSH0 DUP1 REVERT JUMPDEST SWAP3 POP PUSH1 0xA0 DUP9 ADD CALLDATALOAD PUSH8 0xFFFFFFFFFFFFFFFF DUP1 DUP3 GT ISZERO PUSH2 0x12E5 JUMPI PUSH0 DUP1 REVERT JUMPDEST DUP2 DUP11 ADD SWAP2 POP DUP11 PUSH1 0x1F DUP4 ADD SLT PUSH2 0x12F8 JUMPI PUSH0 DUP1 REVERT JUMPDEST DUP2 CALLDATALOAD DUP2 DUP2 GT ISZERO PUSH2 0x1306 JUMPI PUSH0 DUP1 REVERT JUMPDEST DUP12 PUSH1 0x20 DUP3 DUP6 ADD ADD GT ISZERO PUSH2 0x1317 JUMPI PUSH0 DUP1 REVERT JUMPDEST PUSH1 0x20 DUP4 ADD SWAP5 POP DUP1 SWAP4 POP POP POP POP SWAP3 SWAP6 SWAP9 SWAP2 SWAP5 SWAP8 POP SWAP3 SWAP6 POP JUMP JUMPDEST PUSH1 0x20 DUP2 MSTORE PUSH2 0x1349 PUSH1 0x20 DUP3 ADD DUP4 MLOAD PUSH1 0x1 PUSH1 0x1 PUSH1 0xA0 SHL SUB AND SWAP1 MSTORE JUMP JUMPDEST PUSH0 PUSH1 0x20 DUP4 ADD MLOAD PUSH2 0x1364 PUSH1 0x40 DUP5 ADD DUP3 PUSH1 0x1 PUSH1 0x1 PUSH1 0xA0 SHL SUB AND SWAP1 MSTORE JUMP JUMPDEST POP PUSH1 0x40 DUP4 ADD MLOAD PUSH1 0x1 PUSH1 0x1 PUSH1 0xA0 SHL SUB DUP2 AND PUSH1 0x60 DUP5 ADD MSTORE POP PUSH1 0x60 DUP4 ADD MLOAD PUSH1 0x80 DUP4 ADD MSTORE PUSH1 0x80 DUP4 ADD MLOAD PUSH1 0xA0 DUP4 ADD MSTORE PUSH1 0xA0 DUP4 ADD MLOAD PUSH1 0xC0 DUP4 ADD MSTORE PUSH1 0xC0 DUP4 ADD MLOAD PUSH1 0xE0 DUP4 ADD MSTORE PUSH1 0xE0 DUP4 ADD MLOAD PUSH2 0x100 PUSH2 0x13B8 DUP2 DUP6 ADD DUP4 PUSH1 0xFF AND SWAP1 MSTORE JUMP JUMPDEST DUP5 ADD MLOAD SWAP1 POP PUSH2 0x120 PUSH2 0x13CD DUP5 DUP3 ADD DUP4 ISZERO ISZERO SWAP1 MSTORE JUMP JUMPDEST DUP5 ADD MLOAD PUSH2 0x140 DUP5 DUP2 ADD MSTORE SWAP1 POP PUSH2 0xFEF PUSH2 0x160 DUP5 ADD DUP3 PUSH2 0x11C7 JUMP JUMPDEST PUSH0 PUSH1 0x20 DUP3 DUP5 SUB SLT ISZERO PUSH2 0x13F7 JUMPI PUSH0 DUP1 REVERT JUMPDEST PUSH2 0xEC6 DUP3 PUSH2 0x1184 JUMP JUMPDEST PUSH1 0x20 DUP1 DUP3 MSTORE DUP3 MLOAD DUP3 DUP3 ADD DUP2 SWAP1 MSTORE PUSH0 SWAP2 SWAP1 DUP5 DUP3 ADD SWAP1 PUSH1 0x40 DUP6 ADD SWAP1 DUP5 JUMPDEST DUP2 DUP2 LT ISZERO PUSH2 0x1437 JUMPI DUP4 MLOAD DUP4 MSTORE SWAP3 DUP5 ADD SWAP3 SWAP2 DUP5 ADD SWAP2 PUSH1 0x1 ADD PUSH2 0x141B JUMP JUMPDEST POP SWAP1 SWAP7 SWAP6 POP POP POP POP POP POP JUMP JUMPDEST PUSH0 PUSH1 0x20 DUP3 DUP5 SUB SLT ISZERO PUSH2 0x1453 JUMPI PUSH0 DUP1 REVERT JUMPDEST POP MLOAD SWAP2 SWAP1 POP JUMP JUMPDEST PUSH4 0x4E487B71 PUSH1 0xE0 SHL PUSH0 MSTORE PUSH1 0x11 PUSH1 0x4 MSTORE PUSH1 0x24 PUSH0 REVERT JUMPDEST DUP2 DUP2 SUB DUP2 DUP2 GT ISZERO PUSH2 0xF4A JUMPI PUSH2 0xF4A PUSH2 0x145A JUMP JUMPDEST DUP1 DUP3 ADD DUP1 DUP3 GT ISZERO PUSH2 0xF4A JUMPI PUSH2 0xF4A PUSH2 0x145A JUMP JUMPDEST PUSH1 0x1 DUP2 DUP2 SHR SWAP1 DUP3 AND DUP1 PUSH2 0x14A8 JUMPI PUSH1 0x7F DUP3 AND SWAP2 POP JUMPDEST PUSH1 0x20 DUP3 LT DUP2 SUB PUSH2 0x14C6 JUMPI PUSH4 0x4E487B71 PUSH1 0xE0 SHL PUSH0 MSTORE PUSH1 0x22 PUSH1 0x4 MSTORE PUSH1 0x24 PUSH0 REVERT JUMPDEST POP SWAP2 SWAP1 POP JUMP JUMPDEST PUSH0 PUSH1 0x20 DUP3 DUP5 SUB SLT ISZERO PUSH2 0x14DC JUMPI PUSH0 DUP1 REVERT JUMPDEST DUP2 MLOAD DUP1 ISZERO ISZERO DUP2 EQ PUSH2 0xEC6 JUMPI PUSH0 DUP1 REVERT JUMPDEST PUSH0 PUSH1 0x1 DUP3 ADD PUSH2 0x14FC JUMPI PUSH2 0x14FC PUSH2 0x145A JUMP JUMPDEST POP PUSH1 0x1 ADD SWAP1 JUMP JUMPDEST PUSH4 0x4E487B71 PUSH1 0xE0 SHL PUSH0 MSTORE PUSH1 0x41 PUSH1 0x4 MSTORE PUSH1 0x24 PUSH0 REVERT JUMPDEST PUSH1 0x1F DUP3 GT ISZERO PUSH2 0x102C JUMPI DUP1 PUSH0 MSTORE PUSH1 0x20 PUSH0 KECCAK256 PUSH1 0x1F DUP5 ADD PUSH1 0x5 SHR DUP2 ADD PUSH1 0x20 DUP6 LT ISZERO PUSH2 0x153C JUMPI POP DUP1 JUMPDEST PUSH1 0x1F DUP5 ADD PUSH1 0x5 SHR DUP3 ADD SWAP2 POP JUMPDEST DUP2 DUP2 LT ISZERO PUSH2 0x155B JUMPI PUSH0 DUP2 SSTORE PUSH1 0x1 ADD PUSH2 0x1548 JUMP JUMPDEST POP POP POP POP POP JUMP JUMPDEST DUP2 MLOAD PUSH8 0xFFFFFFFFFFFFFFFF DUP2 GT ISZERO PUSH2 0x157C JUMPI PUSH2 0x157C PUSH2 0x1503 JUMP JUMPDEST PUSH2 0x1590 DUP2 PUSH2 0x158A DUP5 SLOAD PUSH2 0x1494 JUMP JUMPDEST DUP5 PUSH2 0x1517 JUMP JUMPDEST PUSH1 0x20 DUP1 PUSH1 0x1F DUP4 GT PUSH1 0x1 DUP2 EQ PUSH2 0x15C3 JUMPI PUSH0 DUP5 ISZERO PUSH2 0x15AC JUMPI POP DUP6 DUP4 ADD MLOAD JUMPDEST PUSH0 NOT PUSH1 0x3 DUP7 SWAP1 SHL SHR NOT AND PUSH1 0x1 DUP6 SWAP1 SHL OR DUP6 SSTORE PUSH2 0x161A JUMP JUMPDEST PUSH0 DUP6 DUP2 MSTORE PUSH1 0x20 DUP2 KECCAK256 PUSH1 0x1F NOT DUP7 AND SWAP2 JUMPDEST DUP3 DUP2 LT ISZERO PUSH2 0x15F1 JUMPI DUP9 DUP7 ADD MLOAD DUP3 SSTORE SWAP5 DUP5 ADD SWAP5 PUSH1 0x1 SWAP1 SWAP2 ADD SWAP1 DUP5 ADD PUSH2 0x15D2 JUMP JUMPDEST POP DUP6 DUP3 LT ISZERO PUSH2 0x160E JUMPI DUP8 DUP6 ADD MLOAD PUSH0 NOT PUSH1 0x3 DUP9 SWAP1 SHL PUSH1 0xF8 AND SHR NOT AND DUP2 SSTORE JUMPDEST POP POP PUSH1 0x1 DUP5 PUSH1 0x1 SHL ADD DUP6 SSTORE JUMPDEST POP POP POP POP POP POP JUMP JUMPDEST DUP7 DUP2 MSTORE DUP6 PUSH1 0x20 DUP3 ADD MSTORE DUP5 PUSH1 0x40 DUP3 ADD MSTORE PUSH1 0xFF DUP5 AND PUSH1 0x60 DUP3 ADD MSTORE PUSH1 0xA0 PUSH1 0x80 DUP3 ADD MSTORE DUP2 PUSH1 0xA0 DUP3 ADD MSTORE DUP2 DUP4 PUSH1 0xC0 DUP4 ADD CALLDATACOPY PUSH0 DUP2 DUP4 ADD PUSH1 0xC0 SWAP1 DUP2 ADD SWAP2 SWAP1 SWAP2 MSTORE PUSH1 0x1F SWAP1 SWAP3 ADD PUSH1 0x1F NOT AND ADD ADD SWAP6 SWAP5 POP POP POP POP POP JUMP JUMPDEST DUP1 DUP3 MUL DUP2 ISZERO DUP3 DUP3 DIV DUP5 EQ OR PUSH2 0xF4A JUMPI PUSH2 0xF4A PUSH2 0x145A JUMP JUMPDEST PUSH0 DUP3 PUSH2 0x16A0 JUMPI PUSH4 0x4E487B71 PUSH1 0xE0 SHL PUSH0 MSTORE PUSH1 0x12 PUSH1 0x4 MSTORE PUSH1 0x24 PUSH0 REVERT JUMPDEST POP DIV SWAP1 JUMP INVALID SWAP12 PUSH24 0x9B17422D0DF92223018B32B4D1FA46E071723D6817E2486D STOP EXTCODESIZE 0xEC 0xC5 PUSH0 STOP LOG2 PUSH5 0x6970667358 0x22 SLT KECCAK256 MLOAD SIGNEXTEND PUSH18 0xB04C27283BC75F3018AFA59B7B5D46C3FE9D SWAP13 BASEFEE 0xA8 0x2F 0xC 0xAD 0xDE 0xC3 0xD8 SWAP6 SWAP4 PUSH5 0x736F6C6343 STOP ADDMOD XOR STOP CALLER "},"methodIdentifiers":{"claimVested(uint256)":"204fd3b4","closeStream(uint256)":"1d1b7b77","createStream(address,address,uint256,uint256,uint8,string)":"75a7b327","employeeStreams(address,uint256)":"21837bbb","employerStreams(address,uint256)":"ea1433c9","getClaimable(uint256)":"9c7e4a66","getEmployeeStreams(address)":"a99b26c7","getEmployerStreams(address)":"90b734c7","getStream(uint256)":"894e9a0d","getVestedAmount(uint256)":"cafeedf6","nextStreamId()":"1e99d569","streams(uint256)":"64d60d91","yieldRouter()":"08ccadd8"}}}}}