{"contracts/HSPSettlementEmitter.sol":{"HSPSettlementEmitter":{"abi":[{"inputs":[],"stateMutability":"nonpayable","type":"constructor"},{"inputs":[{"internalType":"address","name":"owner","type":"address"}],"name":"OwnableInvalidOwner","type":"error"},{"inputs":[{"internalType":"address","name":"account","type":"address"}],"name":"OwnableUnauthorizedAccount","type":"error"},{"inputs":[],"name":"ReentrancyGuardReentrantCall","type":"error"},{"anonymous":false,"inputs":[{"indexed":true,"internalType":"address","name":"previousOwner","type":"address"},{"indexed":true,"internalType":"address","name":"newOwner","type":"address"}],"name":"OwnershipTransferred","type":"event"},{"anonymous":false,"inputs":[{"indexed":true,"internalType":"uint256","name":"settlementId","type":"uint256"},{"indexed":true,"internalType":"uint256","name":"streamId","type":"uint256"},{"indexed":true,"internalType":"address","name":"employer","type":"address"},{"indexed":false,"internalType":"address","name":"employee","type":"address"},{"indexed":false,"internalType":"address","name":"token","type":"address"},{"indexed":false,"internalType":"uint256","name":"amount","type":"uint256"},{"indexed":false,"internalType":"enum HSPSettlementEmitter.SettlementType","name":"settlementType","type":"uint8"},{"indexed":false,"internalType":"bytes32","name":"proofHash","type":"bytes32"},{"indexed":false,"internalType":"uint256","name":"timestamp","type":"uint256"}],"name":"SettlementCreated","type":"event"},{"anonymous":false,"inputs":[{"indexed":true,"internalType":"uint256","name":"settlementId","type":"uint256"},{"indexed":true,"internalType":"uint256","name":"streamId","type":"uint256"},{"indexed":true,"internalType":"address","name":"employee","type":"address"},{"indexed":false,"internalType":"uint256","name":"amount","type":"uint256"},{"indexed":false,"internalType":"uint256","name":"settledAt","type":"uint256"}],"name":"SettlementFinalized","type":"event"},{"anonymous":false,"inputs":[{"indexed":true,"internalType":"uint256","name":"settlementId","type":"uint256"},{"indexed":false,"internalType":"enum HSPSettlementEmitter.SettlementStatus","name":"fromStatus","type":"uint8"},{"indexed":false,"internalType":"enum HSPSettlementEmitter.SettlementStatus","name":"toStatus","type":"uint8"},{"indexed":false,"internalType":"uint256","name":"timestamp","type":"uint256"}],"name":"SettlementStatusChanged","type":"event"},{"inputs":[{"internalType":"uint256","name":"settlementId","type":"uint256"}],"name":"cancelSettlement","outputs":[],"stateMutability":"nonpayable","type":"function"},{"inputs":[{"internalType":"address","name":"employer","type":"address"},{"internalType":"address","name":"employee","type":"address"},{"internalType":"address","name":"token","type":"address"},{"internalType":"uint256","name":"amount","type":"uint256"},{"internalType":"uint256","name":"streamId","type":"uint256"},{"internalType":"enum HSPSettlementEmitter.SettlementType","name":"settlementType","type":"uint8"}],"name":"createSettlement","outputs":[{"internalType":"uint256","name":"settlementId","type":"uint256"}],"stateMutability":"nonpayable","type":"function"},{"inputs":[{"internalType":"uint256","name":"settlementId","type":"uint256"}],"name":"disputeSettlement","outputs":[],"stateMutability":"nonpayable","type":"function"},{"inputs":[{"internalType":"address","name":"employer","type":"address"},{"internalType":"address","name":"employee","type":"address"},{"internalType":"address","name":"token","type":"address"},{"internalType":"uint256","name":"amount","type":"uint256"},{"internalType":"uint256","name":"streamId","type":"uint256"},{"internalType":"string","name":"settlementTypeStr","type":"string"}],"name":"emitSettlement","outputs":[],"stateMutability":"nonpayable","type":"function"},{"inputs":[{"internalType":"address","name":"","type":"address"},{"internalType":"uint256","name":"","type":"uint256"}],"name":"employeeSettlements","outputs":[{"internalType":"uint256","name":"","type":"uint256"}],"stateMutability":"view","type":"function"},{"inputs":[{"internalType":"address","name":"","type":"address"},{"internalType":"uint256","name":"","type":"uint256"}],"name":"employerSettlements","outputs":[{"internalType":"uint256","name":"","type":"uint256"}],"stateMutability":"view","type":"function"},{"inputs":[{"internalType":"uint256","name":"settlementId","type":"uint256"}],"name":"expressSettle","outputs":[],"stateMutability":"nonpayable","type":"function"},{"inputs":[{"internalType":"uint256","name":"settlementId","type":"uint256"}],"name":"finalizeSettlement","outputs":[],"stateMutability":"nonpayable","type":"function"},{"inputs":[{"internalType":"address","name":"employee","type":"address"}],"name":"getEmployeeSettlements","outputs":[{"internalType":"uint256[]","name":"","type":"uint256[]"}],"stateMutability":"view","type":"function"},{"inputs":[{"internalType":"address","name":"employer","type":"address"}],"name":"getEmployerSettlements","outputs":[{"internalType":"uint256[]","name":"","type":"uint256[]"}],"stateMutability":"view","type":"function"},{"inputs":[{"internalType":"uint256","name":"settlementId","type":"uint256"}],"name":"getSettlement","outputs":[{"components":[{"internalType":"uint256","name":"settlementId","type":"uint256"},{"internalType":"address","name":"employer","type":"address"},{"internalType":"address","name":"employee","type":"address"},{"internalType":"address","name":"token","type":"address"},{"internalType":"uint256","name":"amount","type":"uint256"},{"internalType":"uint256","name":"streamId","type":"uint256"},{"internalType":"uint256","name":"createdAt","type":"uint256"},{"internalType":"uint256","name":"processedAt","type":"uint256"},{"internalType":"uint256","name":"settledAt","type":"uint256"},{"internalType":"enum HSPSettlementEmitter.SettlementStatus","name":"status","type":"uint8"},{"internalType":"enum HSPSettlementEmitter.SettlementType","name":"settlementType","type":"uint8"},{"internalType":"bytes32","name":"proofHash","type":"bytes32"}],"internalType":"struct HSPSettlementEmitter.Settlement","name":"","type":"tuple"}],"stateMutability":"view","type":"function"},{"inputs":[{"internalType":"uint256","name":"streamId","type":"uint256"}],"name":"getStreamSettlements","outputs":[{"internalType":"uint256[]","name":"","type":"uint256[]"}],"stateMutability":"view","type":"function"},{"inputs":[],"name":"owner","outputs":[{"internalType":"address","name":"","type":"address"}],"stateMutability":"view","type":"function"},{"inputs":[{"internalType":"uint256","name":"settlementId","type":"uint256"}],"name":"processSettlement","outputs":[],"stateMutability":"nonpayable","type":"function"},{"inputs":[],"name":"renounceOwnership","outputs":[],"stateMutability":"nonpayable","type":"function"},{"inputs":[{"internalType":"address","name":"_streamVault","type":"address"}],"name":"setStreamVault","outputs":[],"stateMutability":"nonpayable","type":"function"},{"inputs":[],"name":"settlementCount","outputs":[{"internalType":"uint256","name":"","type":"uint256"}],"stateMutability":"view","type":"function"},{"inputs":[{"internalType":"uint256","name":"","type":"uint256"}],"name":"settlements","outputs":[{"internalType":"uint256","name":"settlementId","type":"uint256"},{"internalType":"address","name":"employer","type":"address"},{"internalType":"address","name":"employee","type":"address"},{"internalType":"address","name":"token","type":"address"},{"internalType":"uint256","name":"amount","type":"uint256"},{"internalType":"uint256","name":"streamId","type":"uint256"},{"internalType":"uint256","name":"createdAt","type":"uint256"},{"internalType":"uint256","name":"processedAt","type":"uint256"},{"internalType":"uint256","name":"settledAt","type":"uint256"},{"internalType":"enum HSPSettlementEmitter.SettlementStatus","name":"status","type":"uint8"},{"internalType":"enum HSPSettlementEmitter.SettlementType","name":"settlementType","type":"uint8"},{"internalType":"bytes32","name":"proofHash","type":"bytes32"}],"stateMutability":"view","type":"function"},{"inputs":[{"internalType":"enum HSPSettlementEmitter.SettlementStatus","name":"","type":"uint8"}],"name":"statusCount","outputs":[{"internalType":"uint256","name":"","type":"uint256"}],"stateMutability":"view","type":"function"},{"inputs":[{"internalType":"uint256","name":"","type":"uint256"},{"internalType":"uint256","name":"","type":"uint256"}],"name":"streamSettlements","outputs":[{"internalType":"uint256","name":"","type":"uint256"}],"stateMutability":"view","type":"function"},{"inputs":[],"name":"streamVault","outputs":[{"internalType":"address","name":"","type":"address"}],"stateMutability":"view","type":"function"},{"inputs":[{"internalType":"address","name":"newOwner","type":"address"}],"name":"transferOwnership","outputs":[],"stateMutability":"nonpayable","type":"function"},{"inputs":[{"internalType":"uint256","name":"settlementId","type":"uint256"}],"name":"verifyProof","outputs":[{"internalType":"bool","name":"valid","type":"bool"},{"internalType":"bytes32","name":"expectedHash","type":"bytes32"}],"stateMutability":"view","type":"function"}],"evm":{"bytecode":{"linkReferences":{},"object":"608060405234801561000f575f80fd5b50338061003557604051631e4fbdf760e01b81525f600482015260240160405180910390fd5b61003e81610068565b5060017f9b779b17422d0df92223018b32b4d1fa46e071723d6817e2486d003becc55f00556100b7565b5f80546001600160a01b038381166001600160a01b0319831681178455604051919092169283917f8be0079c531659141344cd1fd0a4f28419497f9722a3daafe3b4186f6b6457e09190a35050565b61193f806100c45f395ff3fe608060405234801561000f575f80fd5b5060043610610148575f3560e01c80636a6a0ffa116100bf57806396d0cb371161007957806396d0cb3714610369578063aec4995f1461037c578063c3e876871461038f578063d41968e0146103a2578063f2fde38b146103b5578063fec3944b146103c8575f80fd5b80636a6a0ffa146102d6578063715018a6146102e957806385c0af7f146102f1578063871b98fb1461031c5780638b6958ff1461032f5780638da5cb5b14610359575f80fd5b806347d8664a1161011057806347d8664a1461023e5780634c58238014610251578063566f07da1461027157806356d38188146102845780635934c8a5146102a4578063686fbf07146102b7575f80fd5b8063037eca761461014c57806308df7dc8146101685780630a7859461461020357806312ca0be814610216578063143c515b14610229575b5f80fd5b61015560025481565b6040519081526020015b60405180910390f35b6101eb6101763660046113d3565b600360208190525f918252604090912080546001820154600283015493830154600484015460058501546006860154600787015460088801546009890154600a9099015497996001600160a01b03978816999088169896909716969495939492939192909160ff80831692610100900416908c565b60405161015f9c9b9a99989796959493929190611422565b6101556102113660046114bc565b6103db565b610155610224366004611525565b610729565b61023c6102373660046113d3565b610754565b005b61023c61024c3660046113d3565b6107f7565b61026461025f3660046113d3565b610897565b60405161015f9190611545565b61023c61027f3660046113d3565b61099f565b61029761029236600461160d565b610ab5565b60405161015f919061162d565b61023c6102b236600461160d565b610b1e565b6101556102c5366004611670565b60076020525f908152604090205481565b61023c6102e43660046113d3565b610b48565b61023c610c02565b600154610304906001600160a01b031681565b6040516001600160a01b03909116815260200161015f565b61023c61032a36600461168e565b610c15565b61034261033d3660046113d3565b610e08565b60408051921515835260208301919091520161015f565b5f546001600160a01b0316610304565b61023c6103773660046113d3565b610ea8565b61015561038a36600461173d565b610fb9565b61015561039d36600461173d565b610fd2565b6102976103b03660046113d3565b610feb565b61023c6103c336600461160d565b611048565b6102976103d636600461160d565b611085565b6001545f906001600160a01b03163314806103ff57505f546001600160a01b031633145b6104245760405162461bcd60e51b815260040161041b90611765565b60405180910390fd5b60025f8154610432906117a6565b918290555090505f818888888888886003811115610452576104526113ea565b4260405160200161046a9897969594939291906117be565b6040516020818303038152906040528051906020012090505f6040518061018001604052808481526020018a6001600160a01b03168152602001896001600160a01b03168152602001886001600160a01b031681526020018781526020018681526020014281526020015f81526020015f81526020015f60048111156104f2576104f26113ea565b8152602001856003811115610509576105096113ea565b815260209081018490525f85815260038083526040918290208451815592840151600180850180546001600160a01b03199081166001600160a01b0394851617909155938601516002860180548616918416919091179055606086015192850180549094169290911691909117909155608083015160048084019190915560a0840151600584015560c0840151600684015560e08401516007840155610100840151600884015561012084015160098401805495965086959193909260ff199092169184908111156105dd576105dd6113ea565b021790555061014082015160098201805461ff001916610100836003811115610608576106086113ea565b02179055506101609190910151600a909101555f858152600460209081526040808320805460018181018355918552838520018790556001600160a01b03808e168552600584529184208054918201815584529190922001849055881615610695576001600160a01b0388165f908152600660209081526040822080546001810182559083529120018390555b5f80805260076020527f6d5257204ebe7d88fd91ae87941cb2dd9d8062b64ae5a2bd2d28ec40b9fbf6df8054916106cb836117a6565b9190505550886001600160a01b031685847f86df14eda7f8baccadecb5f8e9e72959624d7acc571b3a78b9e3f2fc338e02c18b8b8b8a89426040516107159695949392919061181f565b60405180910390a450509695505050505050565b6004602052815f5260405f208181548110610742575f80fd5b905f5260205f20015f91509150505481565b61075c6110ec565b5f81815260036020526040812090600982015460ff166004811115610783576107836113ea565b14806107a757506003600982015460ff1660048111156107a5576107a56113ea565b145b6107e85760405162461bcd60e51b81526020600482015260126024820152711214d40e8810d85b9b9bdd0818d85b98d95b60721b604482015260640161041b565b6107f3816004611118565b5050565b6107ff6110ec565b5f81815260036020526040812090600982015460ff166004811115610826576108266113ea565b148061084a57506001600982015460ff166004811115610848576108486113ea565b145b61088c5760405162461bcd60e51b81526020600482015260136024820152724853503a2043616e6e6f74206469737075746560681b604482015260640161041b565b6107f3816003611118565b61089f611352565b5f828152600360208181526040928390208351610180810185528154815260018201546001600160a01b03908116938201939093526002820154831694810194909452918201541660608301526004808201546080840152600582015460a0840152600682015460c0840152600782015460e08401526008820154610100840152600982015461012084019160ff90911690811115610940576109406113ea565b6004811115610951576109516113ea565b81526020016009820160019054906101000a900460ff166003811115610979576109796113ea565b600381111561098a5761098a6113ea565b8152602001600a820154815250509050919050565b6001546001600160a01b03163314806109c157505f546001600160a01b031633145b6109dd5760405162461bcd60e51b815260040161041b90611765565b5f81815260036020526040812090600982015460ff166004811115610a0457610a046113ea565b14610a445760405162461bcd60e51b815260206004820152601060248201526f4853503a204e6f742050454e44494e4760801b604482015260640161041b565b42600782018190556008820155610a5c816002611118565b600281015460058201546004830154604080519182524260208301526001600160a01b039093169285917eed2d17a77784b94cf449d878fecfdcacd221011836ab71ae5fa020b9ab488c91015b60405180910390a45050565b6001600160a01b0381165f90815260066020908152604091829020805483518184028101840190945280845260609392830182828015610b1257602002820191905f5260205f20905b815481526020019060010190808311610afe575b50505050509050919050565b610b266110ec565b600180546001600160a01b0319166001600160a01b0392909216919091179055565b6001546001600160a01b0316331480610b6a57505f546001600160a01b031633145b610b865760405162461bcd60e51b815260040161041b90611765565b5f81815260036020526040812090600982015460ff166004811115610bad57610bad6113ea565b14610bed5760405162461bcd60e51b815260206004820152601060248201526f4853503a204e6f742050454e44494e4760801b604482015260640161041b565b610bf8816001611118565b4260079091015550565b610c0a6110ec565b610c135f611219565b565b6001546001600160a01b0316331480610c3757505f546001600160a01b031633145b610c535760405162461bcd60e51b815260040161041b90611765565b5f610c5e8383611268565b60405163053c2ca360e11b81529091505f903090630a78594690610c90908c908c908c908c908c908a9060040161185f565b6020604051808303815f875af1158015610cac573d5f803e3d5ffd5b505050506040513d601f19601f82011682018060405250810190610cd091906118a5565b5f818152600360209081526040822042600780830182905560088301919091558380529091527f6d5257204ebe7d88fd91ae87941cb2dd9d8062b64ae5a2bd2d28ec40b9fbf6df8054939450909291610d28836118bc565b909155505060025f90815260076020527fb7c774451310d1be4108bc180d1b52823cb0ee0274a6c0081bcaf94f115fb96d805491610d65836117a6565b9190505550817f0bbf93a79fd1cf95dc95d78e98a0abbf77b17a62d6deca7a1430b8a3fda83d115f600242604051610d9f939291906118d1565b60405180910390a260098101805460ff19166002179055604080518881524260208201526001600160a01b038b1691889185917eed2d17a77784b94cf449d878fecfdcacd221011836ab71ae5fa020b9ab488c910160405180910390a450505050505050505050565b5f81815260036020819052604082208054600182015460028301548385015460048501546005860154600987015489986001600160a01b0396871696958616959094169361010090910460ff1690811115610e6557610e656113ea565b8760060154604051602001610e819897969594939291906117be565b60405160208183030381529060405280519060200120915080600a01548214925050915091565b6001546001600160a01b0316331480610eca57505f546001600160a01b031633145b610ee65760405162461bcd60e51b815260040161041b90611765565b5f8181526003602052604090206001600982015460ff166004811115610f0e57610f0e6113ea565b14610f515760405162461bcd60e51b81526020600482015260136024820152724853503a204e6f742050524f43455353494e4760681b604482015260640161041b565b610f5c816002611118565b42600882018190556002820154600583015460048401546040805191825260208201949094526001600160a01b0390921692909185917eed2d17a77784b94cf449d878fecfdcacd221011836ab71ae5fa020b9ab488c9101610aa9565b6005602052815f5260405f208181548110610742575f80fd5b6006602052815f5260405f208181548110610742575f80fd5b5f81815260046020908152604091829020805483518184028101840190945280845260609392830182828015610b1257602002820191905f5260205f2090815481526020019060010190808311610afe5750505050509050919050565b6110506110ec565b6001600160a01b03811661107957604051631e4fbdf760e01b81525f600482015260240161041b565b61108281611219565b50565b6001600160a01b0381165f90815260056020908152604091829020805483518184028101840190945280845260609392830182828015610b1257602002820191905f5260205f2090815481526020019060010190808311610afe5750505050509050919050565b5f546001600160a01b03163314610c135760405163118cdaa760e01b815233600482015260240161041b565b600982015460ff1660075f826004811115611135576111356113ea565b6004811115611146576111466113ea565b81526020019081526020015f205f815480929190611163906118bc565b919050555060075f83600481111561117d5761117d6113ea565b600481111561118e5761118e6113ea565b81526020019081526020015f205f8154809291906111ab906117a6565b909155505060098301805483919060ff191660018360048111156111d1576111d16113ea565b021790555082546040517f0bbf93a79fd1cf95dc95d78e98a0abbf77b17a62d6deca7a1430b8a3fda83d119061120c908490869042906118d1565b60405180910390a2505050565b5f80546001600160a01b038381166001600160a01b0319831681178455604051919092169283917f8be0079c531659141344cd1fd0a4f28419497f9722a3daafe3b4186f6b6457e09190a35050565b5f80838360405161127a9291906118fa565b604051809103902090507f525f10cb12b807489dbbe753a0971d1a0cdeac4aaf9a0bd68f26dba60764475581036112b4575f91505061134c565b7f2098c5af2accb6f4ffb9bafd12dd2212243d8c6888d6a2194cb681e2b013914781036112e557600191505061134c565b7f1db4aaa8b803d576ce475d3fd486db99e0a6c96b67222f6d2c276a8e4c062210810361131657600291505061134c565b7f79ea73aa7a297f28aa4380b39ceaa4bd13749296595fb4bea7a856034f698230810361134757600391505061134c565b5f9150505b92915050565b6040518061018001604052805f81526020015f6001600160a01b031681526020015f6001600160a01b031681526020015f6001600160a01b031681526020015f81526020015f81526020015f81526020015f81526020015f81526020015f60048111156113c1576113c16113ea565b81526020015f81525f60209091015290565b5f602082840312156113e3575f80fd5b5035919050565b634e487b7160e01b5f52602160045260245ffd5b6005811061140e5761140e6113ea565b9052565b6004811061140e5761140e6113ea565b8c81526001600160a01b038c811660208301528b811660408301528a1660608201526080810189905260a0810188905260c0810187905260e081018690526101008101859052610180810161147b6101208301866113fe565b611489610140830185611412565b826101608301529d9c50505050505050505050505050565b80356001600160a01b03811681146114b7575f80fd5b919050565b5f805f805f8060c087890312156114d1575f80fd5b6114da876114a1565b95506114e8602088016114a1565b94506114f6604088016114a1565b9350606087013592506080870135915060a087013560048110611517575f80fd5b809150509295509295509295565b5f8060408385031215611536575f80fd5b50508035926020909101359150565b81518152602080830151610180830191611569908401826001600160a01b03169052565b50604083015161158460408401826001600160a01b03169052565b50606083015161159f60608401826001600160a01b03169052565b506080830151608083015260a083015160a083015260c083015160c083015260e083015160e0830152610100808401518184015250610120808401516115e7828501826113fe565b5050610140808401516115fc82850182611412565b505061016092830151919092015290565b5f6020828403121561161d575f80fd5b611626826114a1565b9392505050565b602080825282518282018190525f9190848201906040850190845b8181101561166457835183529284019291840191600101611648565b50909695505050505050565b5f60208284031215611680575f80fd5b813560058110611626575f80fd5b5f805f805f805f60c0888a0312156116a4575f80fd5b6116ad886114a1565b96506116bb602089016114a1565b95506116c9604089016114a1565b9450606088013593506080880135925060a088013567ffffffffffffffff808211156116f3575f80fd5b818a0191508a601f830112611706575f80fd5b813581811115611714575f80fd5b8b6020828501011115611725575f80fd5b60208301945080935050505092959891949750929550565b5f806040838503121561174e575f80fd5b611757836114a1565b946020939093013593505050565b6020808252601390820152721214d40e88139bdd08185d5d1a1bdc9a5e9959606a1b604082015260600190565b634e487b7160e01b5f52601160045260245ffd5b5f600182016117b7576117b7611792565b5060010190565b978852606096871b6bffffffffffffffffffffffff1990811660208a015295871b861660348901529390951b9093166048860152605c850152607c84019190915260f89190911b6001600160f81b031916609c830152609d82015260bd0190565b6001600160a01b038781168252861660208201526040810185905260c0810161184b6060830186611412565b608082019390935260a00152949350505050565b6001600160a01b038781168252868116602083015285166040820152606081018490526080810183905260c0810161189a60a0830184611412565b979650505050505050565b5f602082840312156118b5575f80fd5b5051919050565b5f816118ca576118ca611792565b505f190190565b606081016118df82866113fe565b6118ec60208301856113fe565b826040830152949350505050565b818382375f910190815291905056fea26469706673582212202cf161378ad9e4bfd8ea06b41d7178b3b21a0df955ba6b0b83860a59373a370764736f6c63430008180033","opcodes":"PUSH1 0x80 PUSH1 0x40 MSTORE CALLVALUE DUP1 ISZERO PUSH2 0xF JUMPI PUSH0 DUP1 REVERT JUMPDEST POP CALLER DUP1 PUSH2 0x35 JUMPI PUSH1 0x40 MLOAD PUSH4 0x1E4FBDF7 PUSH1 0xE0 SHL DUP2 MSTORE PUSH0 PUSH1 0x4 DUP3 ADD MSTORE PUSH1 0x24 ADD PUSH1 0x40 MLOAD DUP1 SWAP2 SUB SWAP1 REVERT JUMPDEST PUSH2 0x3E DUP2 PUSH2 0x68 JUMP JUMPDEST POP PUSH1 0x1 PUSH32 0x9B779B17422D0DF92223018B32B4D1FA46E071723D6817E2486D003BECC55F00 SSTORE PUSH2 0xB7 JUMP JUMPDEST PUSH0 DUP1 SLOAD PUSH1 0x1 PUSH1 0x1 PUSH1 0xA0 SHL SUB DUP4 DUP2 AND PUSH1 0x1 PUSH1 0x1 PUSH1 0xA0 SHL SUB NOT DUP4 AND DUP2 OR DUP5 SSTORE PUSH1 0x40 MLOAD SWAP2 SWAP1 SWAP3 AND SWAP3 DUP4 SWAP2 PUSH32 0x8BE0079C531659141344CD1FD0A4F28419497F9722A3DAAFE3B4186F6B6457E0 SWAP2 SWAP1 LOG3 POP POP JUMP JUMPDEST PUSH2 0x193F DUP1 PUSH2 0xC4 PUSH0 CODECOPY PUSH0 RETURN INVALID PUSH1 0x80 PUSH1 0x40 MSTORE CALLVALUE DUP1 ISZERO PUSH2 0xF JUMPI PUSH0 DUP1 REVERT JUMPDEST POP PUSH1 0x4 CALLDATASIZE LT PUSH2 0x148 JUMPI PUSH0 CALLDATALOAD PUSH1 0xE0 SHR DUP1 PUSH4 0x6A6A0FFA GT PUSH2 0xBF JUMPI DUP1 PUSH4 0x96D0CB37 GT PUSH2 0x79 JUMPI DUP1 PUSH4 0x96D0CB37 EQ PUSH2 0x369 JUMPI DUP1 PUSH4 0xAEC4995F EQ PUSH2 0x37C JUMPI DUP1 PUSH4 0xC3E87687 EQ PUSH2 0x38F JUMPI DUP1 PUSH4 0xD41968E0 EQ PUSH2 0x3A2 JUMPI DUP1 PUSH4 0xF2FDE38B EQ PUSH2 0x3B5 JUMPI DUP1 PUSH4 0xFEC3944B EQ PUSH2 0x3C8 JUMPI PUSH0 DUP1 REVERT JUMPDEST DUP1 PUSH4 0x6A6A0FFA EQ PUSH2 0x2D6 JUMPI DUP1 PUSH4 0x715018A6 EQ PUSH2 0x2E9 JUMPI DUP1 PUSH4 0x85C0AF7F EQ PUSH2 0x2F1 JUMPI DUP1 PUSH4 0x871B98FB EQ PUSH2 0x31C JUMPI DUP1 PUSH4 0x8B6958FF EQ PUSH2 0x32F JUMPI DUP1 PUSH4 0x8DA5CB5B EQ PUSH2 0x359 JUMPI PUSH0 DUP1 REVERT JUMPDEST DUP1 PUSH4 0x47D8664A GT PUSH2 0x110 JUMPI DUP1 PUSH4 0x47D8664A EQ PUSH2 0x23E JUMPI DUP1 PUSH4 0x4C582380 EQ PUSH2 0x251 JUMPI DUP1 PUSH4 0x566F07DA EQ PUSH2 0x271 JUMPI DUP1 PUSH4 0x56D38188 EQ PUSH2 0x284 JUMPI DUP1 PUSH4 0x5934C8A5 EQ PUSH2 0x2A4 JUMPI DUP1 PUSH4 0x686FBF07 EQ PUSH2 0x2B7 JUMPI PUSH0 DUP1 REVERT JUMPDEST DUP1 PUSH4 0x37ECA76 EQ PUSH2 0x14C JUMPI DUP1 PUSH4 0x8DF7DC8 EQ PUSH2 0x168 JUMPI DUP1 PUSH4 0xA785946 EQ PUSH2 0x203 JUMPI DUP1 PUSH4 0x12CA0BE8 EQ PUSH2 0x216 JUMPI DUP1 PUSH4 0x143C515B EQ PUSH2 0x229 JUMPI JUMPDEST PUSH0 DUP1 REVERT JUMPDEST PUSH2 0x155 PUSH1 0x2 SLOAD DUP2 JUMP JUMPDEST PUSH1 0x40 MLOAD SWAP1 DUP2 MSTORE PUSH1 0x20 ADD JUMPDEST PUSH1 0x40 MLOAD DUP1 SWAP2 SUB SWAP1 RETURN JUMPDEST PUSH2 0x1EB PUSH2 0x176 CALLDATASIZE PUSH1 0x4 PUSH2 0x13D3 JUMP JUMPDEST PUSH1 0x3 PUSH1 0x20 DUP2 SWAP1 MSTORE PUSH0 SWAP2 DUP3 MSTORE PUSH1 0x40 SWAP1 SWAP2 KECCAK256 DUP1 SLOAD PUSH1 0x1 DUP3 ADD SLOAD PUSH1 0x2 DUP4 ADD SLOAD SWAP4 DUP4 ADD SLOAD PUSH1 0x4 DUP5 ADD SLOAD PUSH1 0x5 DUP6 ADD SLOAD PUSH1 0x6 DUP7 ADD SLOAD PUSH1 0x7 DUP8 ADD SLOAD PUSH1 0x8 DUP9 ADD SLOAD PUSH1 0x9 DUP10 ADD SLOAD PUSH1 0xA SWAP1 SWAP10 ADD SLOAD SWAP8 SWAP10 PUSH1 0x1 PUSH1 0x1 PUSH1 0xA0 SHL SUB SWAP8 DUP9 AND SWAP10 SWAP1 DUP9 AND SWAP9 SWAP7 SWAP1 SWAP8 AND SWAP7 SWAP5 SWAP6 SWAP4 SWAP5 SWAP3 SWAP4 SWAP2 SWAP3 SWAP1 SWAP2 PUSH1 0xFF DUP1 DUP4 AND SWAP3 PUSH2 0x100 SWAP1 DIV AND SWAP1 DUP13 JUMP JUMPDEST PUSH1 0x40 MLOAD PUSH2 0x15F SWAP13 SWAP12 SWAP11 SWAP10 SWAP9 SWAP8 SWAP7 SWAP6 SWAP5 SWAP4 SWAP3 SWAP2 SWAP1 PUSH2 0x1422 JUMP JUMPDEST PUSH2 0x155 PUSH2 0x211 CALLDATASIZE PUSH1 0x4 PUSH2 0x14BC JUMP JUMPDEST PUSH2 0x3DB JUMP JUMPDEST PUSH2 0x155 PUSH2 0x224 CALLDATASIZE PUSH1 0x4 PUSH2 0x1525 JUMP JUMPDEST PUSH2 0x729 JUMP JUMPDEST PUSH2 0x23C PUSH2 0x237 CALLDATASIZE PUSH1 0x4 PUSH2 0x13D3 JUMP JUMPDEST PUSH2 0x754 JUMP JUMPDEST STOP JUMPDEST PUSH2 0x23C PUSH2 0x24C CALLDATASIZE PUSH1 0x4 PUSH2 0x13D3 JUMP JUMPDEST PUSH2 0x7F7 JUMP JUMPDEST PUSH2 0x264 PUSH2 0x25F CALLDATASIZE PUSH1 0x4 PUSH2 0x13D3 JUMP JUMPDEST PUSH2 0x897 JUMP JUMPDEST PUSH1 0x40 MLOAD PUSH2 0x15F SWAP2 SWAP1 PUSH2 0x1545 JUMP JUMPDEST PUSH2 0x23C PUSH2 0x27F CALLDATASIZE PUSH1 0x4 PUSH2 0x13D3 JUMP JUMPDEST PUSH2 0x99F JUMP JUMPDEST PUSH2 0x297 PUSH2 0x292 CALLDATASIZE PUSH1 0x4 PUSH2 0x160D JUMP JUMPDEST PUSH2 0xAB5 JUMP JUMPDEST PUSH1 0x40 MLOAD PUSH2 0x15F SWAP2 SWAP1 PUSH2 0x162D JUMP JUMPDEST PUSH2 0x23C PUSH2 0x2B2 CALLDATASIZE PUSH1 0x4 PUSH2 0x160D JUMP JUMPDEST PUSH2 0xB1E JUMP JUMPDEST PUSH2 0x155 PUSH2 0x2C5 CALLDATASIZE PUSH1 0x4 PUSH2 0x1670 JUMP JUMPDEST PUSH1 0x7 PUSH1 0x20 MSTORE PUSH0 SWAP1 DUP2 MSTORE PUSH1 0x40 SWAP1 KECCAK256 SLOAD DUP2 JUMP JUMPDEST PUSH2 0x23C PUSH2 0x2E4 CALLDATASIZE PUSH1 0x4 PUSH2 0x13D3 JUMP JUMPDEST PUSH2 0xB48 JUMP JUMPDEST PUSH2 0x23C PUSH2 0xC02 JUMP JUMPDEST PUSH1 0x1 SLOAD PUSH2 0x304 SWAP1 PUSH1 0x1 PUSH1 0x1 PUSH1 0xA0 SHL SUB AND DUP2 JUMP JUMPDEST PUSH1 0x40 MLOAD PUSH1 0x1 PUSH1 0x1 PUSH1 0xA0 SHL SUB SWAP1 SWAP2 AND DUP2 MSTORE PUSH1 0x20 ADD PUSH2 0x15F JUMP JUMPDEST PUSH2 0x23C PUSH2 0x32A CALLDATASIZE PUSH1 0x4 PUSH2 0x168E JUMP JUMPDEST PUSH2 0xC15 JUMP JUMPDEST PUSH2 0x342 PUSH2 0x33D CALLDATASIZE PUSH1 0x4 PUSH2 0x13D3 JUMP JUMPDEST PUSH2 0xE08 JUMP JUMPDEST PUSH1 0x40 DUP1 MLOAD SWAP3 ISZERO ISZERO DUP4 MSTORE PUSH1 0x20 DUP4 ADD SWAP2 SWAP1 SWAP2 MSTORE ADD PUSH2 0x15F JUMP JUMPDEST PUSH0 SLOAD PUSH1 0x1 PUSH1 0x1 PUSH1 0xA0 SHL SUB AND PUSH2 0x304 JUMP JUMPDEST PUSH2 0x23C PUSH2 0x377 CALLDATASIZE PUSH1 0x4 PUSH2 0x13D3 JUMP JUMPDEST PUSH2 0xEA8 JUMP JUMPDEST PUSH2 0x155 PUSH2 0x38A CALLDATASIZE PUSH1 0x4 PUSH2 0x173D JUMP JUMPDEST PUSH2 0xFB9 JUMP JUMPDEST PUSH2 0x155 PUSH2 0x39D CALLDATASIZE PUSH1 0x4 PUSH2 0x173D JUMP JUMPDEST PUSH2 0xFD2 JUMP JUMPDEST PUSH2 0x297 PUSH2 0x3B0 CALLDATASIZE PUSH1 0x4 PUSH2 0x13D3 JUMP JUMPDEST PUSH2 0xFEB JUMP JUMPDEST PUSH2 0x23C PUSH2 0x3C3 CALLDATASIZE PUSH1 0x4 PUSH2 0x160D JUMP JUMPDEST PUSH2 0x1048 JUMP JUMPDEST PUSH2 0x297 PUSH2 0x3D6 CALLDATASIZE PUSH1 0x4 PUSH2 0x160D JUMP JUMPDEST PUSH2 0x1085 JUMP JUMPDEST PUSH1 0x1 SLOAD PUSH0 SWAP1 PUSH1 0x1 PUSH1 0x1 PUSH1 0xA0 SHL SUB AND CALLER EQ DUP1 PUSH2 0x3FF JUMPI POP PUSH0 SLOAD PUSH1 0x1 PUSH1 0x1 PUSH1 0xA0 SHL SUB AND CALLER EQ JUMPDEST PUSH2 0x424 JUMPI PUSH1 0x40 MLOAD PUSH3 0x461BCD PUSH1 0xE5 SHL DUP2 MSTORE PUSH1 0x4 ADD PUSH2 0x41B SWAP1 PUSH2 0x1765 JUMP JUMPDEST PUSH1 0x40 MLOAD DUP1 SWAP2 SUB SWAP1 REVERT JUMPDEST PUSH1 0x2 PUSH0 DUP2 SLOAD PUSH2 0x432 SWAP1 PUSH2 0x17A6 JUMP JUMPDEST SWAP2 DUP3 SWAP1 SSTORE POP SWAP1 POP PUSH0 DUP2 DUP9 DUP9 DUP9 DUP9 DUP9 DUP9 PUSH1 0x3 DUP2 GT ISZERO PUSH2 0x452 JUMPI PUSH2 0x452 PUSH2 0x13EA JUMP JUMPDEST TIMESTAMP PUSH1 0x40 MLOAD PUSH1 0x20 ADD PUSH2 0x46A SWAP9 SWAP8 SWAP7 SWAP6 SWAP5 SWAP4 SWAP3 SWAP2 SWAP1 PUSH2 0x17BE JUMP JUMPDEST PUSH1 0x40 MLOAD PUSH1 0x20 DUP2 DUP4 SUB SUB DUP2 MSTORE SWAP1 PUSH1 0x40 MSTORE DUP1 MLOAD SWAP1 PUSH1 0x20 ADD KECCAK256 SWAP1 POP PUSH0 PUSH1 0x40 MLOAD DUP1 PUSH2 0x180 ADD PUSH1 0x40 MSTORE DUP1 DUP5 DUP2 MSTORE PUSH1 0x20 ADD DUP11 PUSH1 0x1 PUSH1 0x1 PUSH1 0xA0 SHL SUB AND DUP2 MSTORE PUSH1 0x20 ADD DUP10 PUSH1 0x1 PUSH1 0x1 PUSH1 0xA0 SHL SUB AND DUP2 MSTORE PUSH1 0x20 ADD DUP9 PUSH1 0x1 PUSH1 0x1 PUSH1 0xA0 SHL SUB AND DUP2 MSTORE PUSH1 0x20 ADD DUP8 DUP2 MSTORE PUSH1 0x20 ADD DUP7 DUP2 MSTORE PUSH1 0x20 ADD TIMESTAMP DUP2 MSTORE PUSH1 0x20 ADD PUSH0 DUP2 MSTORE PUSH1 0x20 ADD PUSH0 DUP2 MSTORE PUSH1 0x20 ADD PUSH0 PUSH1 0x4 DUP2 GT ISZERO PUSH2 0x4F2 JUMPI PUSH2 0x4F2 PUSH2 0x13EA JUMP JUMPDEST DUP2 MSTORE PUSH1 0x20 ADD DUP6 PUSH1 0x3 DUP2 GT ISZERO PUSH2 0x509 JUMPI PUSH2 0x509 PUSH2 0x13EA JUMP JUMPDEST DUP2 MSTORE PUSH1 0x20 SWAP1 DUP2 ADD DUP5 SWAP1 MSTORE PUSH0 DUP6 DUP2 MSTORE PUSH1 0x3 DUP1 DUP4 MSTORE PUSH1 0x40 SWAP2 DUP3 SWAP1 KECCAK256 DUP5 MLOAD DUP2 SSTORE SWAP3 DUP5 ADD MLOAD PUSH1 0x1 DUP1 DUP6 ADD DUP1 SLOAD PUSH1 0x1 PUSH1 0x1 PUSH1 0xA0 SHL SUB NOT SWAP1 DUP2 AND PUSH1 0x1 PUSH1 0x1 PUSH1 0xA0 SHL SUB SWAP5 DUP6 AND OR SWAP1 SWAP2 SSTORE SWAP4 DUP7 ADD MLOAD PUSH1 0x2 DUP7 ADD DUP1 SLOAD DUP7 AND SWAP2 DUP5 AND SWAP2 SWAP1 SWAP2 OR SWAP1 SSTORE PUSH1 0x60 DUP7 ADD MLOAD SWAP3 DUP6 ADD DUP1 SLOAD SWAP1 SWAP5 AND SWAP3 SWAP1 SWAP2 AND SWAP2 SWAP1 SWAP2 OR SWAP1 SWAP2 SSTORE PUSH1 0x80 DUP4 ADD MLOAD PUSH1 0x4 DUP1 DUP5 ADD SWAP2 SWAP1 SWAP2 SSTORE PUSH1 0xA0 DUP5 ADD MLOAD PUSH1 0x5 DUP5 ADD SSTORE PUSH1 0xC0 DUP5 ADD MLOAD PUSH1 0x6 DUP5 ADD SSTORE PUSH1 0xE0 DUP5 ADD MLOAD PUSH1 0x7 DUP5 ADD SSTORE PUSH2 0x100 DUP5 ADD MLOAD PUSH1 0x8 DUP5 ADD SSTORE PUSH2 0x120 DUP5 ADD MLOAD PUSH1 0x9 DUP5 ADD DUP1 SLOAD SWAP6 SWAP7 POP DUP7 SWAP6 SWAP2 SWAP4 SWAP1 SWAP3 PUSH1 0xFF NOT SWAP1 SWAP3 AND SWAP2 DUP5 SWAP1 DUP2 GT ISZERO PUSH2 0x5DD JUMPI PUSH2 0x5DD PUSH2 0x13EA JUMP JUMPDEST MUL OR SWAP1 SSTORE POP PUSH2 0x140 DUP3 ADD MLOAD PUSH1 0x9 DUP3 ADD DUP1 SLOAD PUSH2 0xFF00 NOT AND PUSH2 0x100 DUP4 PUSH1 0x3 DUP2 GT ISZERO PUSH2 0x608 JUMPI PUSH2 0x608 PUSH2 0x13EA JUMP JUMPDEST MUL OR SWAP1 SSTORE POP PUSH2 0x160 SWAP2 SWAP1 SWAP2 ADD MLOAD PUSH1 0xA SWAP1 SWAP2 ADD SSTORE PUSH0 DUP6 DUP2 MSTORE PUSH1 0x4 PUSH1 0x20 SWAP1 DUP2 MSTORE PUSH1 0x40 DUP1 DUP4 KECCAK256 DUP1 SLOAD PUSH1 0x1 DUP2 DUP2 ADD DUP4 SSTORE SWAP2 DUP6 MSTORE DUP4 DUP6 KECCAK256 ADD DUP8 SWAP1 SSTORE PUSH1 0x1 PUSH1 0x1 PUSH1 0xA0 SHL SUB DUP1 DUP15 AND DUP6 MSTORE PUSH1 0x5 DUP5 MSTORE SWAP2 DUP5 KECCAK256 DUP1 SLOAD SWAP2 DUP3 ADD DUP2 SSTORE DUP5 MSTORE SWAP2 SWAP1 SWAP3 KECCAK256 ADD DUP5 SWAP1 SSTORE DUP9 AND ISZERO PUSH2 0x695 JUMPI PUSH1 0x1 PUSH1 0x1 PUSH1 0xA0 SHL SUB DUP9 AND PUSH0 SWAP1 DUP2 MSTORE PUSH1 0x6 PUSH1 0x20 SWAP1 DUP2 MSTORE PUSH1 0x40 DUP3 KECCAK256 DUP1 SLOAD PUSH1 0x1 DUP2 ADD DUP3 SSTORE SWAP1 DUP4 MSTORE SWAP2 KECCAK256 ADD DUP4 SWAP1 SSTORE JUMPDEST PUSH0 DUP1 DUP1 MSTORE PUSH1 0x7 PUSH1 0x20 MSTORE PUSH32 0x6D5257204EBE7D88FD91AE87941CB2DD9D8062B64AE5A2BD2D28EC40B9FBF6DF DUP1 SLOAD SWAP2 PUSH2 0x6CB DUP4 PUSH2 0x17A6 JUMP JUMPDEST SWAP2 SWAP1 POP SSTORE POP DUP9 PUSH1 0x1 PUSH1 0x1 PUSH1 0xA0 SHL SUB AND DUP6 DUP5 PUSH32 0x86DF14EDA7F8BACCADECB5F8E9E72959624D7ACC571B3A78B9E3F2FC338E02C1 DUP12 DUP12 DUP12 DUP11 DUP10 TIMESTAMP PUSH1 0x40 MLOAD PUSH2 0x715 SWAP7 SWAP6 SWAP5 SWAP4 SWAP3 SWAP2 SWAP1 PUSH2 0x181F JUMP JUMPDEST PUSH1 0x40 MLOAD DUP1 SWAP2 SUB SWAP1 LOG4 POP POP SWAP7 SWAP6 POP POP POP POP POP POP JUMP JUMPDEST PUSH1 0x4 PUSH1 0x20 MSTORE DUP2 PUSH0 MSTORE PUSH1 0x40 PUSH0 KECCAK256 DUP2 DUP2 SLOAD DUP2 LT PUSH2 0x742 JUMPI PUSH0 DUP1 REVERT JUMPDEST SWAP1 PUSH0 MSTORE PUSH1 0x20 PUSH0 KECCAK256 ADD PUSH0 SWAP2 POP SWAP2 POP POP SLOAD DUP2 JUMP JUMPDEST PUSH2 0x75C PUSH2 0x10EC JUMP JUMPDEST PUSH0 DUP2 DUP2 MSTORE PUSH1 0x3 PUSH1 0x20 MSTORE PUSH1 0x40 DUP2 KECCAK256 SWAP1 PUSH1 0x9 DUP3 ADD SLOAD PUSH1 0xFF AND PUSH1 0x4 DUP2 GT ISZERO PUSH2 0x783 JUMPI PUSH2 0x783 PUSH2 0x13EA JUMP JUMPDEST EQ DUP1 PUSH2 0x7A7 JUMPI POP PUSH1 0x3 PUSH1 0x9 DUP3 ADD SLOAD PUSH1 0xFF AND PUSH1 0x4 DUP2 GT ISZERO PUSH2 0x7A5 JUMPI PUSH2 0x7A5 PUSH2 0x13EA JUMP JUMPDEST EQ JUMPDEST PUSH2 0x7E8 JUMPI PUSH1 0x40 MLOAD PUSH3 0x461BCD PUSH1 0xE5 SHL DUP2 MSTORE PUSH1 0x20 PUSH1 0x4 DUP3 ADD MSTORE PUSH1 0x12 PUSH1 0x24 DUP3 ADD MSTORE PUSH18 0x1214D40E8810D85B9B9BDD0818D85B98D95B PUSH1 0x72 SHL PUSH1 0x44 DUP3 ADD MSTORE PUSH1 0x64 ADD PUSH2 0x41B JUMP JUMPDEST PUSH2 0x7F3 DUP2 PUSH1 0x4 PUSH2 0x1118 JUMP JUMPDEST POP POP JUMP JUMPDEST PUSH2 0x7FF PUSH2 0x10EC JUMP JUMPDEST PUSH0 DUP2 DUP2 MSTORE PUSH1 0x3 PUSH1 0x20 MSTORE PUSH1 0x40 DUP2 KECCAK256 SWAP1 PUSH1 0x9 DUP3 ADD SLOAD PUSH1 0xFF AND PUSH1 0x4 DUP2 GT ISZERO PUSH2 0x826 JUMPI PUSH2 0x826 PUSH2 0x13EA JUMP JUMPDEST EQ DUP1 PUSH2 0x84A JUMPI POP PUSH1 0x1 PUSH1 0x9 DUP3 ADD SLOAD PUSH1 0xFF AND PUSH1 0x4 DUP2 GT ISZERO PUSH2 0x848 JUMPI PUSH2 0x848 PUSH2 0x13EA JUMP JUMPDEST EQ JUMPDEST PUSH2 0x88C JUMPI PUSH1 0x40 MLOAD PUSH3 0x461BCD PUSH1 0xE5 SHL DUP2 MSTORE PUSH1 0x20 PUSH1 0x4 DUP3 ADD MSTORE PUSH1 0x13 PUSH1 0x24 DUP3 ADD MSTORE PUSH19 0x4853503A2043616E6E6F742064697370757465 PUSH1 0x68 SHL PUSH1 0x44 DUP3 ADD MSTORE PUSH1 0x64 ADD PUSH2 0x41B JUMP JUMPDEST PUSH2 0x7F3 DUP2 PUSH1 0x3 PUSH2 0x1118 JUMP JUMPDEST PUSH2 0x89F PUSH2 0x1352 JUMP JUMPDEST PUSH0 DUP3 DUP2 MSTORE PUSH1 0x3 PUSH1 0x20 DUP2 DUP2 MSTORE PUSH1 0x40 SWAP3 DUP4 SWAP1 KECCAK256 DUP4 MLOAD PUSH2 0x180 DUP2 ADD DUP6 MSTORE DUP2 SLOAD DUP2 MSTORE PUSH1 0x1 DUP3 ADD SLOAD PUSH1 0x1 PUSH1 0x1 PUSH1 0xA0 SHL SUB SWAP1 DUP2 AND SWAP4 DUP3 ADD SWAP4 SWAP1 SWAP4 MSTORE PUSH1 0x2 DUP3 ADD SLOAD DUP4 AND SWAP5 DUP2 ADD SWAP5 SWAP1 SWAP5 MSTORE SWAP2 DUP3 ADD SLOAD AND PUSH1 0x60 DUP4 ADD MSTORE PUSH1 0x4 DUP1 DUP3 ADD SLOAD PUSH1 0x80 DUP5 ADD MSTORE PUSH1 0x5 DUP3 ADD SLOAD PUSH1 0xA0 DUP5 ADD MSTORE PUSH1 0x6 DUP3 ADD SLOAD PUSH1 0xC0 DUP5 ADD MSTORE PUSH1 0x7 DUP3 ADD SLOAD PUSH1 0xE0 DUP5 ADD MSTORE PUSH1 0x8 DUP3 ADD SLOAD PUSH2 0x100 DUP5 ADD MSTORE PUSH1 0x9 DUP3 ADD SLOAD PUSH2 0x120 DUP5 ADD SWAP2 PUSH1 0xFF SWAP1 SWAP2 AND SWAP1 DUP2 GT ISZERO PUSH2 0x940 JUMPI PUSH2 0x940 PUSH2 0x13EA JUMP JUMPDEST PUSH1 0x4 DUP2 GT ISZERO PUSH2 0x951 JUMPI PUSH2 0x951 PUSH2 0x13EA JUMP JUMPDEST DUP2 MSTORE PUSH1 0x20 ADD PUSH1 0x9 DUP3 ADD PUSH1 0x1 SWAP1 SLOAD SWAP1 PUSH2 0x100 EXP SWAP1 DIV PUSH1 0xFF AND PUSH1 0x3 DUP2 GT ISZERO PUSH2 0x979 JUMPI PUSH2 0x979 PUSH2 0x13EA JUMP JUMPDEST PUSH1 0x3 DUP2 GT ISZERO PUSH2 0x98A JUMPI PUSH2 0x98A PUSH2 0x13EA JUMP JUMPDEST DUP2 MSTORE PUSH1 0x20 ADD PUSH1 0xA DUP3 ADD SLOAD DUP2 MSTORE POP POP SWAP1 POP SWAP2 SWAP1 POP JUMP JUMPDEST PUSH1 0x1 SLOAD PUSH1 0x1 PUSH1 0x1 PUSH1 0xA0 SHL SUB AND CALLER EQ DUP1 PUSH2 0x9C1 JUMPI POP PUSH0 SLOAD PUSH1 0x1 PUSH1 0x1 PUSH1 0xA0 SHL SUB AND CALLER EQ JUMPDEST PUSH2 0x9DD JUMPI PUSH1 0x40 MLOAD PUSH3 0x461BCD PUSH1 0xE5 SHL DUP2 MSTORE PUSH1 0x4 ADD PUSH2 0x41B SWAP1 PUSH2 0x1765 JUMP JUMPDEST PUSH0 DUP2 DUP2 MSTORE PUSH1 0x3 PUSH1 0x20 MSTORE PUSH1 0x40 DUP2 KECCAK256 SWAP1 PUSH1 0x9 DUP3 ADD SLOAD PUSH1 0xFF AND PUSH1 0x4 DUP2 GT ISZERO PUSH2 0xA04 JUMPI PUSH2 0xA04 PUSH2 0x13EA JUMP JUMPDEST EQ PUSH2 0xA44 JUMPI PUSH1 0x40 MLOAD PUSH3 0x461BCD PUSH1 0xE5 SHL DUP2 MSTORE PUSH1 0x20 PUSH1 0x4 DUP3 ADD MSTORE PUSH1 0x10 PUSH1 0x24 DUP3 ADD MSTORE PUSH16 0x4853503A204E6F742050454E44494E47 PUSH1 0x80 SHL PUSH1 0x44 DUP3 ADD MSTORE PUSH1 0x64 ADD PUSH2 0x41B JUMP JUMPDEST TIMESTAMP PUSH1 0x7 DUP3 ADD DUP2 SWAP1 SSTORE PUSH1 0x8 DUP3 ADD SSTORE PUSH2 0xA5C DUP2 PUSH1 0x2 PUSH2 0x1118 JUMP JUMPDEST PUSH1 0x2 DUP2 ADD SLOAD PUSH1 0x5 DUP3 ADD SLOAD PUSH1 0x4 DUP4 ADD SLOAD PUSH1 0x40 DUP1 MLOAD SWAP2 DUP3 MSTORE TIMESTAMP PUSH1 0x20 DUP4 ADD MSTORE PUSH1 0x1 PUSH1 0x1 PUSH1 0xA0 SHL SUB SWAP1 SWAP4 AND SWAP3 DUP6 SWAP2 PUSH31 0xED2D17A77784B94CF449D878FECFDCACD221011836AB71AE5FA020B9AB488C SWAP2 ADD JUMPDEST PUSH1 0x40 MLOAD DUP1 SWAP2 SUB SWAP1 LOG4 POP POP JUMP JUMPDEST PUSH1 0x1 PUSH1 0x1 PUSH1 0xA0 SHL SUB DUP2 AND PUSH0 SWAP1 DUP2 MSTORE PUSH1 0x6 PUSH1 0x20 SWAP1 DUP2 MSTORE PUSH1 0x40 SWAP2 DUP3 SWAP1 KECCAK256 DUP1 SLOAD DUP4 MLOAD DUP2 DUP5 MUL DUP2 ADD DUP5 ADD SWAP1 SWAP5 MSTORE DUP1 DUP5 MSTORE PUSH1 0x60 SWAP4 SWAP3 DUP4 ADD DUP3 DUP3 DUP1 ISZERO PUSH2 0xB12 JUMPI PUSH1 0x20 MUL DUP3 ADD SWAP2 SWAP1 PUSH0 MSTORE PUSH1 0x20 PUSH0 KECCAK256 SWAP1 JUMPDEST DUP2 SLOAD DUP2 MSTORE PUSH1 0x20 ADD SWAP1 PUSH1 0x1 ADD SWAP1 DUP1 DUP4 GT PUSH2 0xAFE JUMPI JUMPDEST POP POP POP POP POP SWAP1 POP SWAP2 SWAP1 POP JUMP JUMPDEST PUSH2 0xB26 PUSH2 0x10EC JUMP JUMPDEST PUSH1 0x1 DUP1 SLOAD PUSH1 0x1 PUSH1 0x1 PUSH1 0xA0 SHL SUB NOT AND PUSH1 0x1 PUSH1 0x1 PUSH1 0xA0 SHL SUB SWAP3 SWAP1 SWAP3 AND SWAP2 SWAP1 SWAP2 OR SWAP1 SSTORE JUMP JUMPDEST PUSH1 0x1 SLOAD PUSH1 0x1 PUSH1 0x1 PUSH1 0xA0 SHL SUB AND CALLER EQ DUP1 PUSH2 0xB6A JUMPI POP PUSH0 SLOAD PUSH1 0x1 PUSH1 0x1 PUSH1 0xA0 SHL SUB AND CALLER EQ JUMPDEST PUSH2 0xB86 JUMPI PUSH1 0x40 MLOAD PUSH3 0x461BCD PUSH1 0xE5 SHL DUP2 MSTORE PUSH1 0x4 ADD PUSH2 0x41B SWAP1 PUSH2 0x1765 JUMP JUMPDEST PUSH0 DUP2 DUP2 MSTORE PUSH1 0x3 PUSH1 0x20 MSTORE PUSH1 0x40 DUP2 KECCAK256 SWAP1 PUSH1 0x9 DUP3 ADD SLOAD PUSH1 0xFF AND PUSH1 0x4 DUP2 GT ISZERO PUSH2 0xBAD JUMPI PUSH2 0xBAD PUSH2 0x13EA JUMP JUMPDEST EQ PUSH2 0xBED JUMPI PUSH1 0x40 MLOAD PUSH3 0x461BCD PUSH1 0xE5 SHL DUP2 MSTORE PUSH1 0x20 PUSH1 0x4 DUP3 ADD MSTORE PUSH1 0x10 PUSH1 0x24 DUP3 ADD MSTORE PUSH16 0x4853503A204E6F742050454E44494E47 PUSH1 0x80 SHL PUSH1 0x44 DUP3 ADD MSTORE PUSH1 0x64 ADD PUSH2 0x41B JUMP JUMPDEST PUSH2 0xBF8 DUP2 PUSH1 0x1 PUSH2 0x1118 JUMP JUMPDEST TIMESTAMP PUSH1 0x7 SWAP1 SWAP2 ADD SSTORE POP JUMP JUMPDEST PUSH2 0xC0A PUSH2 0x10EC JUMP JUMPDEST PUSH2 0xC13 PUSH0 PUSH2 0x1219 JUMP JUMPDEST JUMP JUMPDEST PUSH1 0x1 SLOAD PUSH1 0x1 PUSH1 0x1 PUSH1 0xA0 SHL SUB AND CALLER EQ DUP1 PUSH2 0xC37 JUMPI POP PUSH0 SLOAD PUSH1 0x1 PUSH1 0x1 PUSH1 0xA0 SHL SUB AND CALLER EQ JUMPDEST PUSH2 0xC53 JUMPI PUSH1 0x40 MLOAD PUSH3 0x461BCD PUSH1 0xE5 SHL DUP2 MSTORE PUSH1 0x4 ADD PUSH2 0x41B SWAP1 PUSH2 0x1765 JUMP JUMPDEST PUSH0 PUSH2 0xC5E DUP4 DUP4 PUSH2 0x1268 JUMP JUMPDEST PUSH1 0x40 MLOAD PUSH4 0x53C2CA3 PUSH1 0xE1 SHL DUP2 MSTORE SWAP1 SWAP2 POP PUSH0 SWAP1 ADDRESS SWAP1 PUSH4 0xA785946 SWAP1 PUSH2 0xC90 SWAP1 DUP13 SWAP1 DUP13 SWAP1 DUP13 SWAP1 DUP13 SWAP1 DUP13 SWAP1 DUP11 SWAP1 PUSH1 0x4 ADD PUSH2 0x185F JUMP JUMPDEST PUSH1 0x20 PUSH1 0x40 MLOAD DUP1 DUP4 SUB DUP2 PUSH0 DUP8 GAS CALL ISZERO DUP1 ISZERO PUSH2 0xCAC JUMPI RETURNDATASIZE PUSH0 DUP1 RETURNDATACOPY RETURNDATASIZE PUSH0 REVERT JUMPDEST POP POP POP POP PUSH1 0x40 MLOAD RETURNDATASIZE PUSH1 0x1F NOT PUSH1 0x1F DUP3 ADD AND DUP3 ADD DUP1 PUSH1 0x40 MSTORE POP DUP2 ADD SWAP1 PUSH2 0xCD0 SWAP2 SWAP1 PUSH2 0x18A5 JUMP JUMPDEST PUSH0 DUP2 DUP2 MSTORE PUSH1 0x3 PUSH1 0x20 SWAP1 DUP2 MSTORE PUSH1 0x40 DUP3 KECCAK256 TIMESTAMP PUSH1 0x7 DUP1 DUP4 ADD DUP3 SWAP1 SSTORE PUSH1 0x8 DUP4 ADD SWAP2 SWAP1 SWAP2 SSTORE DUP4 DUP1 MSTORE SWAP1 SWAP2 MSTORE PUSH32 0x6D5257204EBE7D88FD91AE87941CB2DD9D8062B64AE5A2BD2D28EC40B9FBF6DF DUP1 SLOAD SWAP4 SWAP5 POP SWAP1 SWAP3 SWAP2 PUSH2 0xD28 DUP4 PUSH2 0x18BC JUMP JUMPDEST SWAP1 SWAP2 SSTORE POP POP PUSH1 0x2 PUSH0 SWAP1 DUP2 MSTORE PUSH1 0x7 PUSH1 0x20 MSTORE PUSH32 0xB7C774451310D1BE4108BC180D1B52823CB0EE0274A6C0081BCAF94F115FB96D DUP1 SLOAD SWAP2 PUSH2 0xD65 DUP4 PUSH2 0x17A6 JUMP JUMPDEST SWAP2 SWAP1 POP SSTORE POP DUP2 PUSH32 0xBBF93A79FD1CF95DC95D78E98A0ABBF77B17A62D6DECA7A1430B8A3FDA83D11 PUSH0 PUSH1 0x2 TIMESTAMP PUSH1 0x40 MLOAD PUSH2 0xD9F SWAP4 SWAP3 SWAP2 SWAP1 PUSH2 0x18D1 JUMP JUMPDEST PUSH1 0x40 MLOAD DUP1 SWAP2 SUB SWAP1 LOG2 PUSH1 0x9 DUP2 ADD DUP1 SLOAD PUSH1 0xFF NOT AND PUSH1 0x2 OR SWAP1 SSTORE PUSH1 0x40 DUP1 MLOAD DUP9 DUP2 MSTORE TIMESTAMP PUSH1 0x20 DUP3 ADD MSTORE PUSH1 0x1 PUSH1 0x1 PUSH1 0xA0 SHL SUB DUP12 AND SWAP2 DUP9 SWAP2 DUP6 SWAP2 PUSH31 0xED2D17A77784B94CF449D878FECFDCACD221011836AB71AE5FA020B9AB488C SWAP2 ADD PUSH1 0x40 MLOAD DUP1 SWAP2 SUB SWAP1 LOG4 POP POP POP POP POP POP POP POP POP POP JUMP JUMPDEST PUSH0 DUP2 DUP2 MSTORE PUSH1 0x3 PUSH1 0x20 DUP2 SWAP1 MSTORE PUSH1 0x40 DUP3 KECCAK256 DUP1 SLOAD PUSH1 0x1 DUP3 ADD SLOAD PUSH1 0x2 DUP4 ADD SLOAD DUP4 DUP6 ADD SLOAD PUSH1 0x4 DUP6 ADD SLOAD PUSH1 0x5 DUP7 ADD SLOAD PUSH1 0x9 DUP8 ADD SLOAD DUP10 SWAP9 PUSH1 0x1 PUSH1 0x1 PUSH1 0xA0 SHL SUB SWAP7 DUP8 AND SWAP7 SWAP6 DUP7 AND SWAP6 SWAP1 SWAP5 AND SWAP4 PUSH2 0x100 SWAP1 SWAP2 DIV PUSH1 0xFF AND SWAP1 DUP2 GT ISZERO PUSH2 0xE65 JUMPI PUSH2 0xE65 PUSH2 0x13EA JUMP JUMPDEST DUP8 PUSH1 0x6 ADD SLOAD PUSH1 0x40 MLOAD PUSH1 0x20 ADD PUSH2 0xE81 SWAP9 SWAP8 SWAP7 SWAP6 SWAP5 SWAP4 SWAP3 SWAP2 SWAP1 PUSH2 0x17BE JUMP JUMPDEST PUSH1 0x40 MLOAD PUSH1 0x20 DUP2 DUP4 SUB SUB DUP2 MSTORE SWAP1 PUSH1 0x40 MSTORE DUP1 MLOAD SWAP1 PUSH1 0x20 ADD KECCAK256 SWAP2 POP DUP1 PUSH1 0xA ADD SLOAD DUP3 EQ SWAP3 POP POP SWAP2 POP SWAP2 JUMP JUMPDEST PUSH1 0x1 SLOAD PUSH1 0x1 PUSH1 0x1 PUSH1 0xA0 SHL SUB AND CALLER EQ DUP1 PUSH2 0xECA JUMPI POP PUSH0 SLOAD PUSH1 0x1 PUSH1 0x1 PUSH1 0xA0 SHL SUB AND CALLER EQ JUMPDEST PUSH2 0xEE6 JUMPI PUSH1 0x40 MLOAD PUSH3 0x461BCD PUSH1 0xE5 SHL DUP2 MSTORE PUSH1 0x4 ADD PUSH2 0x41B SWAP1 PUSH2 0x1765 JUMP JUMPDEST PUSH0 DUP2 DUP2 MSTORE PUSH1 0x3 PUSH1 0x20 MSTORE PUSH1 0x40 SWAP1 KECCAK256 PUSH1 0x1 PUSH1 0x9 DUP3 ADD SLOAD PUSH1 0xFF AND PUSH1 0x4 DUP2 GT ISZERO PUSH2 0xF0E JUMPI PUSH2 0xF0E PUSH2 0x13EA JUMP JUMPDEST EQ PUSH2 0xF51 JUMPI PUSH1 0x40 MLOAD PUSH3 0x461BCD PUSH1 0xE5 SHL DUP2 MSTORE PUSH1 0x20 PUSH1 0x4 DUP3 ADD MSTORE PUSH1 0x13 PUSH1 0x24 DUP3 ADD MSTORE PUSH19 0x4853503A204E6F742050524F43455353494E47 PUSH1 0x68 SHL PUSH1 0x44 DUP3 ADD MSTORE PUSH1 0x64 ADD PUSH2 0x41B JUMP JUMPDEST PUSH2 0xF5C DUP2 PUSH1 0x2 PUSH2 0x1118 JUMP JUMPDEST TIMESTAMP PUSH1 0x8 DUP3 ADD DUP2 SWAP1 SSTORE PUSH1 0x2 DUP3 ADD SLOAD PUSH1 0x5 DUP4 ADD SLOAD PUSH1 0x4 DUP5 ADD SLOAD PUSH1 0x40 DUP1 MLOAD SWAP2 DUP3 MSTORE PUSH1 0x20 DUP3 ADD SWAP5 SWAP1 SWAP5 MSTORE PUSH1 0x1 PUSH1 0x1 PUSH1 0xA0 SHL SUB SWAP1 SWAP3 AND SWAP3 SWAP1 SWAP2 DUP6 SWAP2 PUSH31 0xED2D17A77784B94CF449D878FECFDCACD221011836AB71AE5FA020B9AB488C SWAP2 ADD PUSH2 0xAA9 JUMP JUMPDEST PUSH1 0x5 PUSH1 0x20 MSTORE DUP2 PUSH0 MSTORE PUSH1 0x40 PUSH0 KECCAK256 DUP2 DUP2 SLOAD DUP2 LT PUSH2 0x742 JUMPI PUSH0 DUP1 REVERT JUMPDEST PUSH1 0x6 PUSH1 0x20 MSTORE DUP2 PUSH0 MSTORE PUSH1 0x40 PUSH0 KECCAK256 DUP2 DUP2 SLOAD DUP2 LT PUSH2 0x742 JUMPI PUSH0 DUP1 REVERT JUMPDEST PUSH0 DUP2 DUP2 MSTORE PUSH1 0x4 PUSH1 0x20 SWAP1 DUP2 MSTORE PUSH1 0x40 SWAP2 DUP3 SWAP1 KECCAK256 DUP1 SLOAD DUP4 MLOAD DUP2 DUP5 MUL DUP2 ADD DUP5 ADD SWAP1 SWAP5 MSTORE DUP1 DUP5 MSTORE PUSH1 0x60 SWAP4 SWAP3 DUP4 ADD DUP3 DUP3 DUP1 ISZERO PUSH2 0xB12 JUMPI PUSH1 0x20 MUL DUP3 ADD SWAP2 SWAP1 PUSH0 MSTORE PUSH1 0x20 PUSH0 KECCAK256 SWAP1 DUP2 SLOAD DUP2 MSTORE PUSH1 0x20 ADD SWAP1 PUSH1 0x1 ADD SWAP1 DUP1 DUP4 GT PUSH2 0xAFE JUMPI POP POP POP POP POP SWAP1 POP SWAP2 SWAP1 POP JUMP JUMPDEST PUSH2 0x1050 PUSH2 0x10EC JUMP JUMPDEST PUSH1 0x1 PUSH1 0x1 PUSH1 0xA0 SHL SUB DUP2 AND PUSH2 0x1079 JUMPI PUSH1 0x40 MLOAD PUSH4 0x1E4FBDF7 PUSH1 0xE0 SHL DUP2 MSTORE PUSH0 PUSH1 0x4 DUP3 ADD MSTORE PUSH1 0x24 ADD PUSH2 0x41B JUMP JUMPDEST PUSH2 0x1082 DUP2 PUSH2 0x1219 JUMP JUMPDEST POP JUMP JUMPDEST PUSH1 0x1 PUSH1 0x1 PUSH1 0xA0 SHL SUB DUP2 AND PUSH0 SWAP1 DUP2 MSTORE PUSH1 0x5 PUSH1 0x20 SWAP1 DUP2 MSTORE PUSH1 0x40 SWAP2 DUP3 SWAP1 KECCAK256 DUP1 SLOAD DUP4 MLOAD DUP2 DUP5 MUL DUP2 ADD DUP5 ADD SWAP1 SWAP5 MSTORE DUP1 DUP5 MSTORE PUSH1 0x60 SWAP4 SWAP3 DUP4 ADD DUP3 DUP3 DUP1 ISZERO PUSH2 0xB12 JUMPI PUSH1 0x20 MUL DUP3 ADD SWAP2 SWAP1 PUSH0 MSTORE PUSH1 0x20 PUSH0 KECCAK256 SWAP1 DUP2 SLOAD DUP2 MSTORE PUSH1 0x20 ADD SWAP1 PUSH1 0x1 ADD SWAP1 DUP1 DUP4 GT PUSH2 0xAFE JUMPI POP POP POP POP POP SWAP1 POP SWAP2 SWAP1 POP JUMP JUMPDEST PUSH0 SLOAD PUSH1 0x1 PUSH1 0x1 PUSH1 0xA0 SHL SUB AND CALLER EQ PUSH2 0xC13 JUMPI PUSH1 0x40 MLOAD PUSH4 0x118CDAA7 PUSH1 0xE0 SHL DUP2 MSTORE CALLER PUSH1 0x4 DUP3 ADD MSTORE PUSH1 0x24 ADD PUSH2 0x41B JUMP JUMPDEST PUSH1 0x9 DUP3 ADD SLOAD PUSH1 0xFF AND PUSH1 0x7 PUSH0 DUP3 PUSH1 0x4 DUP2 GT ISZERO PUSH2 0x1135 JUMPI PUSH2 0x1135 PUSH2 0x13EA JUMP JUMPDEST PUSH1 0x4 DUP2 GT ISZERO PUSH2 0x1146 JUMPI PUSH2 0x1146 PUSH2 0x13EA JUMP JUMPDEST DUP2 MSTORE PUSH1 0x20 ADD SWAP1 DUP2 MSTORE PUSH1 0x20 ADD PUSH0 KECCAK256 PUSH0 DUP2 SLOAD DUP1 SWAP3 SWAP2 SWAP1 PUSH2 0x1163 SWAP1 PUSH2 0x18BC JUMP JUMPDEST SWAP2 SWAP1 POP SSTORE POP PUSH1 0x7 PUSH0 DUP4 PUSH1 0x4 DUP2 GT ISZERO PUSH2 0x117D JUMPI PUSH2 0x117D PUSH2 0x13EA JUMP JUMPDEST PUSH1 0x4 DUP2 GT ISZERO PUSH2 0x118E JUMPI PUSH2 0x118E PUSH2 0x13EA JUMP JUMPDEST DUP2 MSTORE PUSH1 0x20 ADD SWAP1 DUP2 MSTORE PUSH1 0x20 ADD PUSH0 KECCAK256 PUSH0 DUP2 SLOAD DUP1 SWAP3 SWAP2 SWAP1 PUSH2 0x11AB SWAP1 PUSH2 0x17A6 JUMP JUMPDEST SWAP1 SWAP2 SSTORE POP POP PUSH1 0x9 DUP4 ADD DUP1 SLOAD DUP4 SWAP2 SWAP1 PUSH1 0xFF NOT AND PUSH1 0x1 DUP4 PUSH1 0x4 DUP2 GT ISZERO PUSH2 0x11D1 JUMPI PUSH2 0x11D1 PUSH2 0x13EA JUMP JUMPDEST MUL OR SWAP1 SSTORE POP DUP3 SLOAD PUSH1 0x40 MLOAD PUSH32 0xBBF93A79FD1CF95DC95D78E98A0ABBF77B17A62D6DECA7A1430B8A3FDA83D11 SWAP1 PUSH2 0x120C SWAP1 DUP5 SWAP1 DUP7 SWAP1 TIMESTAMP SWAP1 PUSH2 0x18D1 JUMP JUMPDEST PUSH1 0x40 MLOAD DUP1 SWAP2 SUB SWAP1 LOG2 POP POP POP JUMP JUMPDEST PUSH0 DUP1 SLOAD PUSH1 0x1 PUSH1 0x1 PUSH1 0xA0 SHL SUB DUP4 DUP2 AND PUSH1 0x1 PUSH1 0x1 PUSH1 0xA0 SHL SUB NOT DUP4 AND DUP2 OR DUP5 SSTORE PUSH1 0x40 MLOAD SWAP2 SWAP1 SWAP3 AND SWAP3 DUP4 SWAP2 PUSH32 0x8BE0079C531659141344CD1FD0A4F28419497F9722A3DAAFE3B4186F6B6457E0 SWAP2 SWAP1 LOG3 POP POP JUMP JUMPDEST PUSH0 DUP1 DUP4 DUP4 PUSH1 0x40 MLOAD PUSH2 0x127A SWAP3 SWAP2 SWAP1 PUSH2 0x18FA JUMP JUMPDEST PUSH1 0x40 MLOAD DUP1 SWAP2 SUB SWAP1 KECCAK256 SWAP1 POP PUSH32 0x525F10CB12B807489DBBE753A0971D1A0CDEAC4AAF9A0BD68F26DBA607644755 DUP2 SUB PUSH2 0x12B4 JUMPI PUSH0 SWAP2 POP POP PUSH2 0x134C JUMP JUMPDEST PUSH32 0x2098C5AF2ACCB6F4FFB9BAFD12DD2212243D8C6888D6A2194CB681E2B0139147 DUP2 SUB PUSH2 0x12E5 JUMPI PUSH1 0x1 SWAP2 POP POP PUSH2 0x134C JUMP JUMPDEST PUSH32 0x1DB4AAA8B803D576CE475D3FD486DB99E0A6C96B67222F6D2C276A8E4C062210 DUP2 SUB PUSH2 0x1316 JUMPI PUSH1 0x2 SWAP2 POP POP PUSH2 0x134C JUMP JUMPDEST PUSH32 0x79EA73AA7A297F28AA4380B39CEAA4BD13749296595FB4BEA7A856034F698230 DUP2 SUB PUSH2 0x1347 JUMPI PUSH1 0x3 SWAP2 POP POP PUSH2 0x134C JUMP JUMPDEST PUSH0 SWAP2 POP POP JUMPDEST SWAP3 SWAP2 POP POP JUMP JUMPDEST PUSH1 0x40 MLOAD DUP1 PUSH2 0x180 ADD PUSH1 0x40 MSTORE DUP1 PUSH0 DUP2 MSTORE PUSH1 0x20 ADD PUSH0 PUSH1 0x1 PUSH1 0x1 PUSH1 0xA0 SHL SUB AND DUP2 MSTORE PUSH1 0x20 ADD PUSH0 PUSH1 0x1 PUSH1 0x1 PUSH1 0xA0 SHL SUB AND DUP2 MSTORE PUSH1 0x20 ADD PUSH0 PUSH1 0x1 PUSH1 0x1 PUSH1 0xA0 SHL SUB AND DUP2 MSTORE PUSH1 0x20 ADD PUSH0 DUP2 MSTORE PUSH1 0x20 ADD PUSH0 DUP2 MSTORE PUSH1 0x20 ADD PUSH0 DUP2 MSTORE PUSH1 0x20 ADD PUSH0 DUP2 MSTORE PUSH1 0x20 ADD PUSH0 DUP2 MSTORE PUSH1 0x20 ADD PUSH0 PUSH1 0x4 DUP2 GT ISZERO PUSH2 0x13C1 JUMPI PUSH2 0x13C1 PUSH2 0x13EA JUMP JUMPDEST DUP2 MSTORE PUSH1 0x20 ADD PUSH0 DUP2 MSTORE PUSH0 PUSH1 0x20 SWAP1 SWAP2 ADD MSTORE SWAP1 JUMP JUMPDEST PUSH0 PUSH1 0x20 DUP3 DUP5 SUB SLT ISZERO PUSH2 0x13E3 JUMPI PUSH0 DUP1 REVERT JUMPDEST POP CALLDATALOAD SWAP2 SWAP1 POP JUMP JUMPDEST PUSH4 0x4E487B71 PUSH1 0xE0 SHL PUSH0 MSTORE PUSH1 0x21 PUSH1 0x4 MSTORE PUSH1 0x24 PUSH0 REVERT JUMPDEST PUSH1 0x5 DUP2 LT PUSH2 0x140E JUMPI PUSH2 0x140E PUSH2 0x13EA JUMP JUMPDEST SWAP1 MSTORE JUMP JUMPDEST PUSH1 0x4 DUP2 LT PUSH2 0x140E JUMPI PUSH2 0x140E PUSH2 0x13EA JUMP JUMPDEST DUP13 DUP2 MSTORE PUSH1 0x1 PUSH1 0x1 PUSH1 0xA0 SHL SUB DUP13 DUP2 AND PUSH1 0x20 DUP4 ADD MSTORE DUP12 DUP2 AND PUSH1 0x40 DUP4 ADD MSTORE DUP11 AND PUSH1 0x60 DUP3 ADD MSTORE PUSH1 0x80 DUP2 ADD DUP10 SWAP1 MSTORE PUSH1 0xA0 DUP2 ADD DUP9 SWAP1 MSTORE PUSH1 0xC0 DUP2 ADD DUP8 SWAP1 MSTORE PUSH1 0xE0 DUP2 ADD DUP7 SWAP1 MSTORE PUSH2 0x100 DUP2 ADD DUP6 SWAP1 MSTORE PUSH2 0x180 DUP2 ADD PUSH2 0x147B PUSH2 0x120 DUP4 ADD DUP7 PUSH2 0x13FE JUMP JUMPDEST PUSH2 0x1489 PUSH2 0x140 DUP4 ADD DUP6 PUSH2 0x1412 JUMP JUMPDEST DUP3 PUSH2 0x160 DUP4 ADD MSTORE SWAP14 SWAP13 POP POP POP POP POP POP POP POP POP POP POP POP POP JUMP JUMPDEST DUP1 CALLDATALOAD PUSH1 0x1 PUSH1 0x1 PUSH1 0xA0 SHL SUB DUP2 AND DUP2 EQ PUSH2 0x14B7 JUMPI PUSH0 DUP1 REVERT JUMPDEST SWAP2 SWAP1 POP JUMP JUMPDEST PUSH0 DUP1 PUSH0 DUP1 PUSH0 DUP1 PUSH1 0xC0 DUP8 DUP10 SUB SLT ISZERO PUSH2 0x14D1 JUMPI PUSH0 DUP1 REVERT JUMPDEST PUSH2 0x14DA DUP8 PUSH2 0x14A1 JUMP JUMPDEST SWAP6 POP PUSH2 0x14E8 PUSH1 0x20 DUP9 ADD PUSH2 0x14A1 JUMP JUMPDEST SWAP5 POP PUSH2 0x14F6 PUSH1 0x40 DUP9 ADD PUSH2 0x14A1 JUMP JUMPDEST SWAP4 POP PUSH1 0x60 DUP8 ADD CALLDATALOAD SWAP3 POP PUSH1 0x80 DUP8 ADD CALLDATALOAD SWAP2 POP PUSH1 0xA0 DUP8 ADD CALLDATALOAD PUSH1 0x4 DUP2 LT PUSH2 0x1517 JUMPI PUSH0 DUP1 REVERT JUMPDEST DUP1 SWAP2 POP POP SWAP3 SWAP6 POP SWAP3 SWAP6 POP SWAP3 SWAP6 JUMP JUMPDEST PUSH0 DUP1 PUSH1 0x40 DUP4 DUP6 SUB SLT ISZERO PUSH2 0x1536 JUMPI PUSH0 DUP1 REVERT JUMPDEST POP POP DUP1 CALLDATALOAD SWAP3 PUSH1 0x20 SWAP1 SWAP2 ADD CALLDATALOAD SWAP2 POP JUMP JUMPDEST DUP2 MLOAD DUP2 MSTORE PUSH1 0x20 DUP1 DUP4 ADD MLOAD PUSH2 0x180 DUP4 ADD SWAP2 PUSH2 0x1569 SWAP1 DUP5 ADD DUP3 PUSH1 0x1 PUSH1 0x1 PUSH1 0xA0 SHL SUB AND SWAP1 MSTORE JUMP JUMPDEST POP PUSH1 0x40 DUP4 ADD MLOAD PUSH2 0x1584 PUSH1 0x40 DUP5 ADD DUP3 PUSH1 0x1 PUSH1 0x1 PUSH1 0xA0 SHL SUB AND SWAP1 MSTORE JUMP JUMPDEST POP PUSH1 0x60 DUP4 ADD MLOAD PUSH2 0x159F PUSH1 0x60 DUP5 ADD DUP3 PUSH1 0x1 PUSH1 0x1 PUSH1 0xA0 SHL SUB AND SWAP1 MSTORE JUMP JUMPDEST POP PUSH1 0x80 DUP4 ADD MLOAD PUSH1 0x80 DUP4 ADD MSTORE PUSH1 0xA0 DUP4 ADD MLOAD PUSH1 0xA0 DUP4 ADD MSTORE PUSH1 0xC0 DUP4 ADD MLOAD PUSH1 0xC0 DUP4 ADD MSTORE PUSH1 0xE0 DUP4 ADD MLOAD PUSH1 0xE0 DUP4 ADD MSTORE PUSH2 0x100 DUP1 DUP5 ADD MLOAD DUP2 DUP5 ADD MSTORE POP PUSH2 0x120 DUP1 DUP5 ADD MLOAD PUSH2 0x15E7 DUP3 DUP6 ADD DUP3 PUSH2 0x13FE JUMP JUMPDEST POP POP PUSH2 0x140 DUP1 DUP5 ADD MLOAD PUSH2 0x15FC DUP3 DUP6 ADD DUP3 PUSH2 0x1412 JUMP JUMPDEST POP POP PUSH2 0x160 SWAP3 DUP4 ADD MLOAD SWAP2 SWAP1 SWAP3 ADD MSTORE SWAP1 JUMP JUMPDEST PUSH0 PUSH1 0x20 DUP3 DUP5 SUB SLT ISZERO PUSH2 0x161D JUMPI PUSH0 DUP1 REVERT JUMPDEST PUSH2 0x1626 DUP3 PUSH2 0x14A1 JUMP JUMPDEST SWAP4 SWAP3 POP POP POP JUMP JUMPDEST PUSH1 0x20 DUP1 DUP3 MSTORE DUP3 MLOAD DUP3 DUP3 ADD DUP2 SWAP1 MSTORE PUSH0 SWAP2 SWAP1 DUP5 DUP3 ADD SWAP1 PUSH1 0x40 DUP6 ADD SWAP1 DUP5 JUMPDEST DUP2 DUP2 LT ISZERO PUSH2 0x1664 JUMPI DUP4 MLOAD DUP4 MSTORE SWAP3 DUP5 ADD SWAP3 SWAP2 DUP5 ADD SWAP2 PUSH1 0x1 ADD PUSH2 0x1648 JUMP JUMPDEST POP SWAP1 SWAP7 SWAP6 POP POP POP POP POP POP JUMP JUMPDEST PUSH0 PUSH1 0x20 DUP3 DUP5 SUB SLT ISZERO PUSH2 0x1680 JUMPI PUSH0 DUP1 REVERT JUMPDEST DUP2 CALLDATALOAD PUSH1 0x5 DUP2 LT PUSH2 0x1626 JUMPI PUSH0 DUP1 REVERT JUMPDEST PUSH0 DUP1 PUSH0 DUP1 PUSH0 DUP1 PUSH0 PUSH1 0xC0 DUP9 DUP11 SUB SLT ISZERO PUSH2 0x16A4 JUMPI PUSH0 DUP1 REVERT JUMPDEST PUSH2 0x16AD DUP9 PUSH2 0x14A1 JUMP JUMPDEST SWAP7 POP PUSH2 0x16BB PUSH1 0x20 DUP10 ADD PUSH2 0x14A1 JUMP JUMPDEST SWAP6 POP PUSH2 0x16C9 PUSH1 0x40 DUP10 ADD PUSH2 0x14A1 JUMP JUMPDEST SWAP5 POP PUSH1 0x60 DUP9 ADD CALLDATALOAD SWAP4 POP PUSH1 0x80 DUP9 ADD CALLDATALOAD SWAP3 POP PUSH1 0xA0 DUP9 ADD CALLDATALOAD PUSH8 0xFFFFFFFFFFFFFFFF DUP1 DUP3 GT ISZERO PUSH2 0x16F3 JUMPI PUSH0 DUP1 REVERT JUMPDEST DUP2 DUP11 ADD SWAP2 POP DUP11 PUSH1 0x1F DUP4 ADD SLT PUSH2 0x1706 JUMPI PUSH0 DUP1 REVERT JUMPDEST DUP2 CALLDATALOAD DUP2 DUP2 GT ISZERO PUSH2 0x1714 JUMPI PUSH0 DUP1 REVERT JUMPDEST DUP12 PUSH1 0x20 DUP3 DUP6 ADD ADD GT ISZERO PUSH2 0x1725 JUMPI PUSH0 DUP1 REVERT JUMPDEST PUSH1 0x20 DUP4 ADD SWAP5 POP DUP1 SWAP4 POP POP POP POP SWAP3 SWAP6 SWAP9 SWAP2 SWAP5 SWAP8 POP SWAP3 SWAP6 POP JUMP JUMPDEST PUSH0 DUP1 PUSH1 0x40 DUP4 DUP6 SUB SLT ISZERO PUSH2 0x174E JUMPI PUSH0 DUP1 REVERT JUMPDEST PUSH2 0x1757 DUP4 PUSH2 0x14A1 JUMP JUMPDEST SWAP5 PUSH1 0x20 SWAP4 SWAP1 SWAP4 ADD CALLDATALOAD SWAP4 POP POP POP JUMP JUMPDEST PUSH1 0x20 DUP1 DUP3 MSTORE PUSH1 0x13 SWAP1 DUP3 ADD MSTORE PUSH19 0x1214D40E88139BDD08185D5D1A1BDC9A5E9959 PUSH1 0x6A SHL PUSH1 0x40 DUP3 ADD MSTORE PUSH1 0x60 ADD SWAP1 JUMP JUMPDEST PUSH4 0x4E487B71 PUSH1 0xE0 SHL PUSH0 MSTORE PUSH1 0x11 PUSH1 0x4 MSTORE PUSH1 0x24 PUSH0 REVERT JUMPDEST PUSH0 PUSH1 0x1 DUP3 ADD PUSH2 0x17B7 JUMPI PUSH2 0x17B7 PUSH2 0x1792 JUMP JUMPDEST POP PUSH1 0x1 ADD SWAP1 JUMP JUMPDEST SWAP8 DUP9 MSTORE PUSH1 0x60 SWAP7 DUP8 SHL PUSH12 0xFFFFFFFFFFFFFFFFFFFFFFFF NOT SWAP1 DUP2 AND PUSH1 0x20 DUP11 ADD MSTORE SWAP6 DUP8 SHL DUP7 AND PUSH1 0x34 DUP10 ADD MSTORE SWAP4 SWAP1 SWAP6 SHL SWAP1 SWAP4 AND PUSH1 0x48 DUP7 ADD MSTORE PUSH1 0x5C DUP6 ADD MSTORE PUSH1 0x7C DUP5 ADD SWAP2 SWAP1 SWAP2 MSTORE PUSH1 0xF8 SWAP2 SWAP1 SWAP2 SHL PUSH1 0x1 PUSH1 0x1 PUSH1 0xF8 SHL SUB NOT AND PUSH1 0x9C DUP4 ADD MSTORE PUSH1 0x9D DUP3 ADD MSTORE PUSH1 0xBD ADD SWAP1 JUMP JUMPDEST PUSH1 0x1 PUSH1 0x1 PUSH1 0xA0 SHL SUB DUP8 DUP2 AND DUP3 MSTORE DUP7 AND PUSH1 0x20 DUP3 ADD MSTORE PUSH1 0x40 DUP2 ADD DUP6 SWAP1 MSTORE PUSH1 0xC0 DUP2 ADD PUSH2 0x184B PUSH1 0x60 DUP4 ADD DUP7 PUSH2 0x1412 JUMP JUMPDEST PUSH1 0x80 DUP3 ADD SWAP4 SWAP1 SWAP4 MSTORE PUSH1 0xA0 ADD MSTORE SWAP5 SWAP4 POP POP POP POP JUMP JUMPDEST PUSH1 0x1 PUSH1 0x1 PUSH1 0xA0 SHL SUB DUP8 DUP2 AND DUP3 MSTORE DUP7 DUP2 AND PUSH1 0x20 DUP4 ADD MSTORE DUP6 AND PUSH1 0x40 DUP3 ADD MSTORE PUSH1 0x60 DUP2 ADD DUP5 SWAP1 MSTORE PUSH1 0x80 DUP2 ADD DUP4 SWAP1 MSTORE PUSH1 0xC0 DUP2 ADD PUSH2 0x189A PUSH1 0xA0 DUP4 ADD DUP5 PUSH2 0x1412 JUMP JUMPDEST SWAP8 SWAP7 POP POP POP POP POP POP POP JUMP JUMPDEST PUSH0 PUSH1 0x20 DUP3 DUP5 SUB SLT ISZERO PUSH2 0x18B5 JUMPI PUSH0 DUP1 REVERT JUMPDEST POP MLOAD SWAP2 SWAP1 POP JUMP JUMPDEST PUSH0 DUP2 PUSH2 0x18CA JUMPI PUSH2 0x18CA PUSH2 0x1792 JUMP JUMPDEST POP PUSH0 NOT ADD SWAP1 JUMP JUMPDEST PUSH1 0x60 DUP2 ADD PUSH2 0x18DF DUP3 DUP7 PUSH2 0x13FE JUMP JUMPDEST PUSH2 0x18EC PUSH1 0x20 DUP4 ADD DUP6 PUSH2 0x13FE JUMP JUMPDEST DUP3 PUSH1 0x40 DUP4 ADD MSTORE SWAP5 SWAP4 POP POP POP POP JUMP JUMPDEST DUP2 DUP4 DUP3 CALLDATACOPY PUSH0 SWAP2 ADD SWAP1 DUP2 MSTORE SWAP2 SWAP1 POP JUMP INVALID LOG2 PUSH5 0x6970667358 0x22 SLT KECCAK256 0x2C CALL PUSH2 0x378A 0xD9 0xE4 0xBF 0xD8 0xEA MOD 0xB4 SAR PUSH18 0x78B3B21A0DF955BA6B0B83860A59373A3707 PUSH5 0x736F6C6343 STOP ADDMOD XOR STOP CALLER "},"methodIdentifiers":{"cancelSettlement(uint256)":"143c515b","createSettlement(address,address,address,uint256,uint256,uint8)":"0a785946","disputeSettlement(uint256)":"47d8664a","emitSettlement(address,address,address,uint256,uint256,string)":"871b98fb","employeeSettlements(address,uint256)":"c3e87687","employerSettlements(address,uint256)":"aec4995f","expressSettle(uint256)":"566f07da","finalizeSettlement(uint256)":"96d0cb37","getEmployeeSettlements(address)":"56d38188","getEmployerSettlements(address)":"fec3944b","getSettlement(uint256)":"4c582380","getStreamSettlements(uint256)":"d41968e0","owner()":"8da5cb5b","processSettlement(uint256)":"6a6a0ffa","renounceOwnership()":"715018a6","setStreamVault(address)":"5934c8a5","settlementCount()":"037eca76","settlements(uint256)":"08df7dc8","statusCount(uint8)":"686fbf07","streamSettlements(uint256,uint256)":"12ca0be8","streamVault()":"85c0af7f","transferOwnership(address)":"f2fde38b","verifyProof(uint256)":"8b6958ff"}}}}}