{"contracts/RWAYieldRouter.sol":{"RWAYieldRouter":{"abi":[{"inputs":[{"internalType":"contract IERC20","name":"_token","type":"address"}],"stateMutability":"nonpayable","type":"constructor"},{"inputs":[{"internalType":"address","name":"owner","type":"address"}],"name":"OwnableInvalidOwner","type":"error"},{"inputs":[{"internalType":"address","name":"account","type":"address"}],"name":"OwnableUnauthorizedAccount","type":"error"},{"inputs":[],"name":"ReentrancyGuardReentrantCall","type":"error"},{"inputs":[{"internalType":"address","name":"token","type":"address"}],"name":"SafeERC20FailedOperation","type":"error"},{"anonymous":false,"inputs":[{"indexed":true,"internalType":"uint256","name":"streamId","type":"uint256"},{"indexed":false,"internalType":"address","name":"token","type":"address"},{"indexed":false,"internalType":"uint256","name":"assets","type":"uint256"},{"indexed":false,"internalType":"uint256","name":"shares","type":"uint256"},{"indexed":false,"internalType":"uint8","name":"tier","type":"uint8"}],"name":"Deposited","type":"event"},{"anonymous":false,"inputs":[{"indexed":true,"internalType":"address","name":"previousOwner","type":"address"},{"indexed":true,"internalType":"address","name":"newOwner","type":"address"}],"name":"OwnershipTransferred","type":"event"},{"anonymous":false,"inputs":[{"indexed":true,"internalType":"uint256","name":"streamId","type":"uint256"},{"indexed":false,"internalType":"address","name":"token","type":"address"},{"indexed":false,"internalType":"uint256","name":"assets","type":"uint256"},{"indexed":false,"internalType":"uint256","name":"shares","type":"uint256"},{"indexed":false,"internalType":"uint8","name":"tier","type":"uint8"}],"name":"Withdrawn","type":"event"},{"anonymous":false,"inputs":[{"indexed":true,"internalType":"uint256","name":"streamId","type":"uint256"},{"indexed":false,"internalType":"uint256","name":"yieldAmount","type":"uint256"}],"name":"YieldHarvested","type":"event"},{"inputs":[],"name":"BALANCED_APY_BPS","outputs":[{"internalType":"uint256","name":"","type":"uint256"}],"stateMutability":"view","type":"function"},{"inputs":[],"name":"BPS_DENOMINATOR","outputs":[{"internalType":"uint256","name":"","type":"uint256"}],"stateMutability":"view","type":"function"},{"inputs":[],"name":"GROWTH_APY_BPS","outputs":[{"internalType":"uint256","name":"","type":"uint256"}],"stateMutability":"view","type":"function"},{"inputs":[],"name":"SECONDS_PER_YEAR","outputs":[{"internalType":"uint256","name":"","type":"uint256"}],"stateMutability":"view","type":"function"},{"inputs":[],"name":"STABLE_APY_BPS","outputs":[{"internalType":"uint256","name":"","type":"uint256"}],"stateMutability":"view","type":"function"},{"inputs":[],"name":"balancedVault","outputs":[{"internalType":"contract RWATierVault","name":"","type":"address"}],"stateMutability":"view","type":"function"},{"inputs":[{"internalType":"address","name":"token","type":"address"},{"internalType":"uint256","name":"amount","type":"uint256"},{"internalType":"uint8","name":"tier","type":"uint8"},{"internalType":"uint256","name":"streamId","type":"uint256"}],"name":"deposit","outputs":[{"internalType":"uint256","name":"sharesReceived","type":"uint256"}],"stateMutability":"nonpayable","type":"function"},{"inputs":[{"internalType":"uint256","name":"streamId","type":"uint256"}],"name":"getAccumulatedYield","outputs":[{"internalType":"uint256","name":"","type":"uint256"}],"stateMutability":"view","type":"function"},{"inputs":[{"internalType":"uint8","name":"tier","type":"uint8"}],"name":"getTierAPY","outputs":[{"internalType":"uint256","name":"","type":"uint256"}],"stateMutability":"pure","type":"function"},{"inputs":[{"internalType":"address","name":"token","type":"address"},{"internalType":"uint8","name":"tier","type":"uint8"}],"name":"getTierBalance","outputs":[{"internalType":"uint256","name":"","type":"uint256"}],"stateMutability":"view","type":"function"},{"inputs":[{"internalType":"uint8","name":"tier","type":"uint8"}],"name":"getTierTVL","outputs":[{"internalType":"uint256","name":"","type":"uint256"}],"stateMutability":"view","type":"function"},{"inputs":[{"internalType":"uint8","name":"tier","type":"uint8"}],"name":"getVaultAddress","outputs":[{"internalType":"address","name":"","type":"address"}],"stateMutability":"view","type":"function"},{"inputs":[],"name":"growthVault","outputs":[{"internalType":"contract RWATierVault","name":"","type":"address"}],"stateMutability":"view","type":"function"},{"inputs":[{"internalType":"uint256","name":"streamId","type":"uint256"},{"internalType":"address","name":"recipient","type":"address"}],"name":"harvestYield","outputs":[{"internalType":"uint256","name":"yieldAmount","type":"uint256"}],"stateMutability":"nonpayable","type":"function"},{"inputs":[],"name":"owner","outputs":[{"internalType":"address","name":"","type":"address"}],"stateMutability":"view","type":"function"},{"inputs":[{"internalType":"uint256","name":"","type":"uint256"}],"name":"positions","outputs":[{"internalType":"address","name":"token","type":"address"},{"internalType":"uint256","name":"shares","type":"uint256"},{"internalType":"uint256","name":"principal","type":"uint256"},{"internalType":"uint256","name":"depositedAt","type":"uint256"},{"internalType":"uint8","name":"tier","type":"uint8"},{"internalType":"bool","name":"active","type":"bool"}],"stateMutability":"view","type":"function"},{"inputs":[],"name":"renounceOwnership","outputs":[],"stateMutability":"nonpayable","type":"function"},{"inputs":[{"internalType":"address","name":"_sv","type":"address"}],"name":"setStreamVault","outputs":[],"stateMutability":"nonpayable","type":"function"},{"inputs":[],"name":"stableVault","outputs":[{"internalType":"contract RWATierVault","name":"","type":"address"}],"stateMutability":"view","type":"function"},{"inputs":[],"name":"streamVault","outputs":[{"internalType":"address","name":"","type":"address"}],"stateMutability":"view","type":"function"},{"inputs":[{"internalType":"address","name":"newOwner","type":"address"}],"name":"transferOwnership","outputs":[],"stateMutability":"nonpayable","type":"function"},{"inputs":[{"internalType":"address","name":"token","type":"address"},{"internalType":"uint256","name":"amount","type":"uint256"},{"internalType":"uint8","name":"tier","type":"uint8"},{"internalType":"uint256","name":"streamId","type":"uint256"}],"name":"withdraw","outputs":[],"stateMutability":"nonpayable","type":"function"}],"evm":{"bytecode":{"linkReferences":{},"object":"608060405234801562000010575f80fd5b50604051620030ce380380620030ce833981016040819052620000339162000355565b33806200005957604051631e4fbdf760e01b81525f600482015260240160405180910390fd5b6200006481620002f8565b5060017f9b779b17422d0df92223018b32b4d1fa46e071723d6817e2486d003becc55f00556040518190610190906200009d9062000347565b6001600160a01b03909216825260a060208301819052600f908301526e14d64814dd18589b194815985d5b1d608a1b60c083015260e0604083018190526005908301526439bca9aa2b60d91b61010083015260608201526101206080820181905260069082015265537461626c6560d01b61014082015261016001604051809103905ff08015801562000132573d5f803e3d5ffd5b5060015f6101000a8154816001600160a01b0302191690836001600160a01b03160217905550806103206040516200016a9062000347565b6001600160a01b03909216825260a0602083018190526011908301527014d64810985b185b98d9590815985d5b1d607a1b60c083015260e0604083018190526005908301526439bca120ab60d91b6101008301526060820152610120608082018190526008908201526710985b185b98d95960c21b61014082015261016001604051809103905ff08015801562000203573d5f803e3d5ffd5b5060025f6101000a8154816001600160a01b0302191690836001600160a01b03160217905550806104b06040516200023b9062000347565b6001600160a01b03909216825260a060208301819052600f908301526e14d64811dc9bdddd1a0815985d5b1d608a1b60c083015260e0604083018190526005908301526439bca3aa2b60d91b6101008301526060820152610120608082018190526006908201526508ee4deeee8d60d31b61014082015261016001604051809103905ff080158015620002d0573d5f803e3d5ffd5b50600380546001600160a01b0319166001600160a01b03929092169190911790555062000384565b5f80546001600160a01b038381166001600160a01b0319831681178455604051919092169283917f8be0079c531659141344cd1fd0a4f28419497f9722a3daafe3b4186f6b6457e09190a35050565b611bc5806200150983390190565b5f6020828403121562000366575f80fd5b81516001600160a01b03811681146200037d575f80fd5b9392505050565b61117780620003925f395ff3fe608060405234801561000f575f80fd5b506004361061013d575f3560e01c8063a12cb815116100b4578063c9652e9511610079578063c9652e95146102f8578063cf42989514610301578063e1a4521814610314578063e6a69ab81461031d578063f1f89e9214610328578063f2fde38b1461033b575f80fd5b8063a12cb81514610299578063a623f2c7146102ac578063aa45259b146102bf578063aebf9d2b146102d2578063c8ecf423146102e5575f80fd5b8063715018a611610105578063715018a6146101b95780637e2d1857146101c157806385c0af7f146101d45780638da5cb5b146101e75780638fec9f08146101f757806399fbab881461020a575f80fd5b80632df1ebcf1461014157806352398b871461015d5780635934c8a5146101665780636cf5a7641461017b5780636f42f9c71461018e575b5f80fd5b61014a61019081565b6040519081526020015b60405180910390f35b61014a61032081565b610179610174366004610f83565b61034e565b005b61014a610189366004610fb3565b610378565b6001546101a1906001600160a01b031681565b6040516001600160a01b039091168152602001610154565b6101796103e7565b61014a6101cf366004610fcc565b6103fa565b6005546101a1906001600160a01b031681565b5f546001600160a01b03166101a1565b6003546101a1906001600160a01b031681565b61025d610218366004610ffa565b600460208190525f9182526040909120805460018201546002830154600384015493909401546001600160a01b03909216939092909160ff8082169161010090041686565b604080516001600160a01b039097168752602087019590955293850192909252606084015260ff166080830152151560a082015260c001610154565b61014a6102a7366004610fb3565b6105fb565b61014a6102ba366004610ffa565b61066e565b6101796102cd366004611011565b610756565b6002546101a1906001600160a01b031681565b61014a6102f3366004611054565b61099b565b61014a6104b081565b6101a161030f366004610fb3565b610a21565b61014a61271081565b61014a6301e1338081565b61014a610336366004611011565b610a2b565b610179610349366004610f83565b610d76565b610356610db3565b600580546001600160a01b0319166001600160a01b0392909216919091179055565b5f61038282610ddf565b6001600160a01b03166301e1d1146040518163ffffffff1660e01b8152600401602060405180830381865afa1580156103bd573d5f803e3d5ffd5b505050506040513d601f19601f820116820180604052508101906103e19190611087565b92915050565b6103ef610db3565b6103f85f610e33565b565b6005545f906001600160a01b0316331461042f5760405162461bcd60e51b81526004016104269061109e565b60405180910390fd5b610437610e82565b5f83815260046020819052604090912090810154610100900460ff16158061046157506001810154155b1561046f575f9150506105e5565b60048101545f906104829060ff16610ddf565b90505f816001600160a01b03166307a2d13a84600101546040518263ffffffff1660e01b81526004016104b791815260200190565b602060405180830381865afa1580156104d2573d5f803e3d5ffd5b505050506040513d601f19601f820116820180604052508101906104f69190611087565b905082600201548111610509575f610518565b600283015461051890826110c8565b6001840154604051635d043b2960e11b815260048101919091526001600160a01b0387811660248301523060448301529195509083169063ba087652906064016020604051808303815f875af1158015610574573d5f803e3d5ffd5b505050506040513d601f19601f820116820180604052508101906105989190611087565b505f600184015560048301805461ff001916905560405184815286907f3fb12fb590bb295327f3bfc48158ada0b1147f8f823e0c7a09b98b301d1867749060200160405180910390a25050505b6103e160015f8051602061112283398151915255565b5f8160ff165f0361060f5750610190919050565b8160ff166001036106235750610320919050565b8160ff1660020361063757506104b0919050565b60405162461bcd60e51b815260206004820152600c60248201526b24b73b30b634b2103a34b2b960a11b6044820152606401610426565b5f818152600460208190526040822090810154610100900460ff16158061069757506001810154155b156106a457505f92915050565b60048101545f906106b79060ff16610ddf565b90505f816001600160a01b03166307a2d13a84600101546040518263ffffffff1660e01b81526004016106ec91815260200190565b602060405180830381865afa158015610707573d5f803e3d5ffd5b505050506040513d601f19601f8201168201806040525081019061072b9190611087565b90508260020154811161073e575f61074d565b600283015461074d90826110c8565b95945050505050565b6005546001600160a01b031633146107805760405162461bcd60e51b81526004016104269061109e565b610788610e82565b5f61079283610ddf565b5f8381526004602081905260409091209081015491925090610100900460ff166107f45760405162461bcd60e51b8152602060048201526013602482015272506f736974696f6e206e6f742061637469766560681b6044820152606401610426565b6040516363737ac960e11b8152600481018690525f906001600160a01b0384169063c6e6f59290602401602060405180830381865afa158015610839573d5f803e3d5ffd5b505050506040513d601f19601f8201168201806040525081019061085d9190611087565b90508160010154811115610872575060018101545b604051635d043b2960e11b8152600481018290523360248201523060448201525f906001600160a01b0385169063ba087652906064016020604051808303815f875af11580156108c4573d5f803e3d5ffd5b505050506040513d601f19601f820116820180604052508101906108e89190611087565b905081836001015f8282546108fd91906110c8565b9091555050600283015487116109265786836002015f82825461092091906110c8565b90915550505b604080516001600160a01b038a1681526020810183905290810183905260ff8716606082015285907f1b78d3f42803eb83fddad03fb3d4f7fde01da63777e04c69038542b6396dd3f59060800160405180910390a25050505061099560015f8051602061112283398151915255565b50505050565b5f826001600160a01b03166370a082316109b484610ddf565b6040516001600160e01b031960e084901b1681526001600160a01b039091166004820152602401602060405180830381865afa1580156109f6573d5f803e3d5ffd5b505050506040513d601f19601f82011682018060405250810190610a1a9190611087565b9392505050565b5f6103e182610ddf565b6005545f906001600160a01b03163314610a575760405162461bcd60e51b81526004016104269061109e565b610a5f610e82565b60028360ff161115610aa25760405162461bcd60e51b815260206004820152600c60248201526b24b73b30b634b2103a34b2b960a11b6044820152606401610426565b5f610aac84610ddf565b9050856001600160a01b0316816001600160a01b03166338d52e0f6040518163ffffffff1660e01b8152600401602060405180830381865afa158015610af4573d5f803e3d5ffd5b505050506040513d601f19601f82011682018060405250810190610b1891906110e7565b6001600160a01b031614610b5f5760405162461bcd60e51b815260206004820152600e60248201526d0a8ded6cadc40dad2e6dac2e8c6d60931b6044820152606401610426565b610b746001600160a01b038716333088610e9d565b60405163095ea7b360e01b81526001600160a01b0382811660048301526024820187905287169063095ea7b3906044016020604051808303815f875af1158015610bc0573d5f803e3d5ffd5b505050506040513d601f19601f82011682018060405250810190610be49190611102565b50604051636e553f6560e01b8152600481018690523060248201526001600160a01b03821690636e553f65906044016020604051808303815f875af1158015610c2f573d5f803e3d5ffd5b505050506040513d601f19601f82011682018060405250810190610c539190611087565b6040805160c0810182526001600160a01b03808a16825260208083018581528385018b8152426060860190815260ff808d1660808801908152600160a089018181525f8f81526004988990528b902099518a5499166001600160a01b0319909916989098178955945194880194909455915160028701555160038601559051939091018054925115156101000261ffff1990931693909116929092171790555190925083907f6ed42c48bec8dff965099bb8dcfa97f82912ef04e34569ca7054652d98be851c90610d4f908990899087908a906001600160a01b039490941684526020840192909252604083015260ff16606082015260800190565b60405180910390a250610d6e60015f8051602061112283398151915255565b949350505050565b610d7e610db3565b6001600160a01b038116610da757604051631e4fbdf760e01b81525f6004820152602401610426565b610db081610e33565b50565b5f546001600160a01b031633146103f85760405163118cdaa760e01b8152336004820152602401610426565b5f8160ff165f03610dfb5750506001546001600160a01b031690565b8160ff16600103610e175750506002546001600160a01b031690565b8160ff166002036106375750506003546001600160a01b031690565b5f80546001600160a01b038381166001600160a01b0319831681178455604051919092169283917f8be0079c531659141344cd1fd0a4f28419497f9722a3daafe3b4186f6b6457e09190a35050565b610e8a610ed3565b60025f8051602061112283398151915255565b610eab848484846001610f02565b61099557604051635274afe760e01b81526001600160a01b0385166004820152602401610426565b5f80516020611122833981519152546002036103f857604051633ee5aeb560e01b815260040160405180910390fd5b6040516323b872dd60e01b5f8181526001600160a01b038781166004528616602452604485905291602083606481808c5af1925060015f51148316610f5e578383151615610f52573d5f823e3d81fd5b5f883b113d1516831692505b604052505f60605295945050505050565b6001600160a01b0381168114610db0575f80fd5b5f60208284031215610f93575f80fd5b8135610a1a81610f6f565b803560ff81168114610fae575f80fd5b919050565b5f60208284031215610fc3575f80fd5b610a1a82610f9e565b5f8060408385031215610fdd575f80fd5b823591506020830135610fef81610f6f565b809150509250929050565b5f6020828403121561100a575f80fd5b5035919050565b5f805f8060808587031215611024575f80fd5b843561102f81610f6f565b93506020850135925061104460408601610f9e565b9396929550929360600135925050565b5f8060408385031215611065575f80fd5b823561107081610f6f565b915061107e60208401610f9e565b90509250929050565b5f60208284031215611097575f80fd5b5051919050565b60208082526010908201526f13db9b1e4814dd1c99585b55985d5b1d60821b604082015260600190565b818103818111156103e157634e487b7160e01b5f52601160045260245ffd5b5f602082840312156110f7575f80fd5b8151610a1a81610f6f565b5f60208284031215611112575f80fd5b81518015158114610a1a575f80fdfe9b779b17422d0df92223018b32b4d1fa46e071723d6817e2486d003becc55f00a264697066735822122003e02b9e1f98bd55c236c58e2e92fa3615aa3b1d9d0d50e6962cc84e061cb45364736f6c6343000818003360e060405234801562000010575f80fd5b5060405162001bc538038062001bc58339810160408190526200003391620002d5565b33858585600362000045838262000413565b50600462000054828262000413565b5050505f806200006a836200010960201b60201c565b91509150816200007c5760126200007e565b805b60ff1660a05250506001600160a01b039081166080528116620000ba57604051631e4fbdf760e01b81525f600482015260240160405180910390fd5b620000c581620001a2565b5060017f9b779b17422d0df92223018b32b4d1fa46e071723d6817e2486d003becc55f005560c08290526006620000fd828262000413565b505050505050620004df565b5f80806200011660405190565b6040805160048152602481019091526020810180516001600160e01b0390811663313ce56760e01b179091529192505f9182916200015891889190620001f316565b5090925090506200016883604052565b81801562000177575060203d10155b801562000185575060ff8111155b62000192575f8062000196565b6001815b94509450505050915091565b600580546001600160a01b038381166001600160a01b0319831681179093556040519116919082907f8be0079c531659141344cd1fd0a4f28419497f9722a3daafe3b4186f6b6457e0905f90a35050565b5f805f60405f855160208701885afa92505f51915060205190509250925092565b634e487b7160e01b5f52604160045260245ffd5b5f82601f83011262000238575f80fd5b81516001600160401b038082111562000255576200025562000214565b604051601f8301601f19908116603f0116810190828211818310171562000280576200028062000214565b81604052838152602092508660208588010111156200029d575f80fd5b5f91505b83821015620002c05785820183015181830184015290820190620002a1565b5f602085830101528094505050505092915050565b5f805f805f60a08688031215620002ea575f80fd5b85516001600160a01b038116811462000301575f80fd5b60208701519095506001600160401b03808211156200031e575f80fd5b6200032c89838a0162000228565b9550604088015191508082111562000342575f80fd5b6200035089838a0162000228565b94506060880151935060808801519150808211156200036d575f80fd5b506200037c8882890162000228565b9150509295509295909350565b600181811c908216806200039e57607f821691505b602082108103620003bd57634e487b7160e01b5f52602260045260245ffd5b50919050565b601f8211156200040e57805f5260205f20601f840160051c81016020851015620003ea5750805b601f840160051c820191505b818110156200040b575f8155600101620003f6565b50505b505050565b81516001600160401b038111156200042f576200042f62000214565b620004478162000440845462000389565b84620003c3565b602080601f8311600181146200047d575f8415620004655750858301515b5f19600386901b1c1916600185901b178555620004d7565b5f85815260208120601f198616915b82811015620004ad578886015182559484019460019091019084016200048c565b5085821015620004cb57878501515f19600388901b60f8161c191681555b505060018460011b0185555b505050505050565b60805160a05160c051611691620005345f395f8181610287015281816103650152818161059d015261071a01525f6106da01525f81816102f5015281816104e801528181610ed4015261111d01526116915ff3fe608060405234801561000f575f80fd5b5060043610610208575f3560e01c806370a082311161011f578063c63d75b6116100a9578063dd62ed3e11610079578063dd62ed3e14610485578063e1a45218146104bd578063e6a69ab8146104c6578063ef8b30f71461044c578063f2fde38b146104d1575f80fd5b8063c63d75b61461032d578063c6e6f5921461044c578063ce96cb771461045f578063d905777e14610472575f80fd5b806395d89b41116100ef57806395d89b41146103f8578063a9059cbb14610400578063b3d7f6b914610413578063b460af9414610426578063ba08765214610439575f80fd5b806370a08231146103a2578063715018a6146103ca5780638da5cb5b146103d457806394bf804d146103e5575f80fd5b8063313ce567116101a057806346b00d041161017057806346b00d04146103415780634cdad5061461023c57806351618ed3146103605780635a7edc9d146103875780636e553f651461038f575f80fd5b8063313ce567146102c6578063378e7b7b146102e057806338d52e0f146102f3578063402d267d1461032d575f80fd5b80630a28a477116101db5780630a28a477146102725780630f10fa9d1461028557806318160ddd146102ab57806323b872dd146102b3575f80fd5b806301e1d1141461020c57806306fdde031461022757806307a2d13a1461023c578063095ea7b31461024f575b5f80fd5b6102146104e4565b6040519081526020015b60405180910390f35b61022f6105ea565b60405161021e9190611274565b61021461024a3660046112c0565b61067a565b61026261025d3660046112f2565b61068b565b604051901515815260200161021e565b6102146102803660046112c0565b6106a2565b7f0000000000000000000000000000000000000000000000000000000000000000610214565b600254610214565b6102626102c136600461131a565b6106ae565b6102ce6106d3565b60405160ff909116815260200161021e565b6102146102ee366004611353565b610703565b7f00000000000000000000000000000000000000000000000000000000000000005b6040516001600160a01b03909116815260200161021e565b61021461033b366004611373565b505f1990565b61021461034f366004611373565b60076020525f908152604090205481565b6102147f000000000000000000000000000000000000000000000000000000000000000081565b61022f610753565b61021461039d36600461138c565b6107df565b6102146103b0366004611373565b6001600160a01b03165f9081526020819052604090205490565b6103d2610851565b005b6005546001600160a01b0316610315565b6102146103f336600461138c565b610864565b61022f610895565b61026261040e3660046112f2565b6108a4565b6102146104213660046112c0565b6108b1565b6102146104343660046113b6565b6108bd565b6102146104473660046113b6565b6108e9565b61021461045a3660046112c0565b6108fd565b61021461046d366004611373565b610908565b610214610480366004611373565b610911565b6102146104933660046113ef565b6001600160a01b039182165f90815260016020908152604080832093909416825291909152205490565b61021461271081565b6102146301e1338081565b6103d26104df366004611373565b61092e565b5f807f00000000000000000000000000000000000000000000000000000000000000006040516370a0823160e01b81523060048201526001600160a01b0391909116906370a0823190602401602060405180830381865afa15801561054b573d5f803e3d5ffd5b505050506040513d601f19601f8201168201806040525081019061056f9190611417565b90505f61057a61096b565b6105849042611442565b90505f6105976301e13380612710611455565b826105c27f000000000000000000000000000000000000000000000000000000000000000086611455565b6105cc9190611455565b6105d69190611480565b90506105e28184611493565b935050505090565b6060600380546105f9906114a6565b80601f0160208091040260200160405190810160405280929190818152602001828054610625906114a6565b80156106705780601f1061064757610100808354040283529160200191610670565b820191905f5260205f20905b81548152906001019060200180831161065357829003601f168201915b5050505050905090565b5f610685825f610981565b92915050565b5f336106988185856109b9565b5060019392505050565b5f6106858260016109cb565b5f336106bb8582856109fa565b6106c6858585610a63565b60019150505b9392505050565b5f6106fe817f00000000000000000000000000000000000000000000000000000000000000006114de565b905090565b5f6107146301e13380612710611455565b8261073f7f000000000000000000000000000000000000000000000000000000000000000086611455565b6107499190611455565b6106cc9190611480565b60068054610760906114a6565b80601f016020809104026020016040519081016040528092919081815260200182805461078c906114a6565b80156107d75780601f106107ae576101008083540402835291602001916107d7565b820191905f5260205f20905b8154815290600101906020018083116107ba57829003601f168201915b505050505081565b5f6107e8610ac0565b6008545f036107f657426008555b6001600160a01b0382165f90815260076020526040812054900361082f576001600160a01b0382165f9081526007602052604090204290555b6108398383610adb565b905061068560015f8051602061163c83398151915255565b610859610af6565b6108625f610b23565b565b5f5f19610875565b60405180910390fd5b5f61087f856108b1565b905061088d33858388610b74565b949350505050565b6060600480546105f9906114a6565b5f33610698818585610a63565b5f610685826001610981565b5f6108c6610ac0565b6108d1848484610be4565b90506106cc60015f8051602061163c83398151915255565b5f6108f2610ac0565b6108d1848484610c3a565b5f610685825f6109cb565b5f61068561024a835b6001600160a01b0381165f90815260208190526040812054610685565b610936610af6565b6001600160a01b03811661095f57604051631e4fbdf760e01b81525f600482015260240161086c565b61096881610b23565b50565b5f6008545f1461097c575060085490565b504290565b5f6106cc61098d6104e4565b610998906001611493565b6109a35f600a6115f8565b6002546109b09190611493565b85919085610c87565b6109c68383836001610cc9565b505050565b5f6106cc6109da82600a6115f8565b6002546109e79190611493565b6109ef6104e4565b6109b0906001611493565b6001600160a01b038381165f908152600160209081526040808320938616835292905220545f19811015610a5d5781811015610a4f57828183604051637dc7a0d960e11b815260040161086c939291906114f7565b610a5d84848484035f610cc9565b50505050565b6001600160a01b038316610a8c57604051634b637e8f60e11b81525f600482015260240161086c565b6001600160a01b038216610ab55760405163ec442f0560e01b81525f600482015260240161086c565b6109c6838383610d8d565b610ac8610ea0565b60025f8051602061163c83398151915255565b5f5f195f610ae8856108fd565b905061088d33858784610b74565b6005546001600160a01b031633146108625760405163118cdaa760e01b815233600482015260240161086c565b600580546001600160a01b038381166001600160a01b0319831681179093556040519116919082907f8be0079c531659141344cd1fd0a4f28419497f9722a3daafe3b4186f6b6457e0905f90a35050565b610b7e8483610ecf565b610b888382610eff565b826001600160a01b0316846001600160a01b03167fdcbc1c05240f31ff3ad067ef1ee35ce4997762752e3a095284754544f4c709d78484604051610bd6929190918252602082015260400190565b60405180910390a350505050565b5f80610bef83610908565b905080851115610c1857828582604051633fa733bb60e21b815260040161086c939291906114f7565b5f610c22866106a2565b9050610c313386868985610f33565b95945050505050565b5f80610c4583610911565b905080851115610c6e57828582604051632e52afbb60e21b815260040161086c939291906114f7565b5f610c788661067a565b9050610c31338686848a610f33565b5f610cb4610c9483610fd2565b8015610caf57505f8480610caa57610caa61146c565b868809115b151590565b610cbf868686610ffe565b610c319190611493565b6001600160a01b038416610cf25760405163e602df0560e01b81525f600482015260240161086c565b6001600160a01b038316610d1b57604051634a1406b160e11b81525f600482015260240161086c565b6001600160a01b038085165f9081526001602090815260408083209387168352929052208290558015610a5d57826001600160a01b0316846001600160a01b03167f8c5be1e5ebec7d5bd14f71427d1e84f3dd0314c0f7b2291e5b200ac8c7c3b92584604051610bd691815260200190565b6001600160a01b038316610db7578060025f828254610dac9190611493565b90915550610e149050565b6001600160a01b0383165f9081526020819052604090205481811015610df65783818360405163391434e360e21b815260040161086c939291906114f7565b6001600160a01b0384165f9081526020819052604090209082900390555b6001600160a01b038216610e3057600280548290039055610e4e565b6001600160a01b0382165f9081526020819052604090208054820190555b816001600160a01b0316836001600160a01b03167fddf252ad1be2c89b69c2b068fc378daa952ba7f163c4a11628f55a4df523b3ef83604051610e9391815260200190565b60405180910390a3505050565b5f8051602061163c8339815191525460020361086257604051633ee5aeb560e01b815260040160405180910390fd5b610efb7f00000000000000000000000000000000000000000000000000000000000000008330846110ae565b5050565b6001600160a01b038216610f285760405163ec442f0560e01b81525f600482015260240161086c565b610efb5f8383610d8d565b826001600160a01b0316856001600160a01b031614610f5757610f578386836109fa565b610f6183826110e4565b610f6b8483611118565b826001600160a01b0316846001600160a01b0316866001600160a01b03167ffbde797d201c681b91056529119e0b02407c7bb96a4a2c75c01fc9667232c8db8585604051610fc3929190918252602082015260400190565b60405180910390a45050505050565b5f6002826003811115610fe757610fe7611606565b610ff1919061161a565b60ff166001149050919050565b5f805f61100b8686611143565b91509150815f0361102f578381816110255761102561146c565b04925050506106cc565b81841161104657611046600385150260111861115f565b5f848688095f868103871696879004966002600389028118808a02820302808a02820302808a02820302808a02820302808a02820302808a02909103029181900381900460010185841190960395909502919093039390930492909217029150509392505050565b6110bc848484846001611170565b610a5d57604051635274afe760e01b81526001600160a01b038516600482015260240161086c565b6001600160a01b03821661110d57604051634b637e8f60e11b81525f600482015260240161086c565b610efb825f83610d8d565b610efb7f000000000000000000000000000000000000000000000000000000000000000083836111dd565b5f805f1983850993909202808410938190039390930393915050565b634e487b715f52806020526024601cfd5b6040516323b872dd60e01b5f8181526001600160a01b038781166004528616602452604485905291602083606481808c5af1925060015f511483166111cc5783831516156111c0573d5f823e3d81fd5b5f883b113d1516831692505b604052505f60605295945050505050565b6111ea8383836001611212565b6109c657604051635274afe760e01b81526001600160a01b038416600482015260240161086c565b60405163a9059cbb60e01b5f8181526001600160a01b038616600452602485905291602083604481808b5af1925060015f5114831661126857838315161561125c573d5f823e3d81fd5b5f873b113d1516831692505b60405250949350505050565b5f602080835283518060208501525f5b818110156112a057858101830151858201604001528201611284565b505f604082860101526040601f19601f8301168501019250505092915050565b5f602082840312156112d0575f80fd5b5035919050565b80356001600160a01b03811681146112ed575f80fd5b919050565b5f8060408385031215611303575f80fd5b61130c836112d7565b946020939093013593505050565b5f805f6060848603121561132c575f80fd5b611335846112d7565b9250611343602085016112d7565b9150604084013590509250925092565b5f8060408385031215611364575f80fd5b50508035926020909101359150565b5f60208284031215611383575f80fd5b6106cc826112d7565b5f806040838503121561139d575f80fd5b823591506113ad602084016112d7565b90509250929050565b5f805f606084860312156113c8575f80fd5b833592506113d8602085016112d7565b91506113e6604085016112d7565b90509250925092565b5f8060408385031215611400575f80fd5b611409836112d7565b91506113ad602084016112d7565b5f60208284031215611427575f80fd5b5051919050565b634e487b7160e01b5f52601160045260245ffd5b818103818111156106855761068561142e565b80820281158282048414176106855761068561142e565b634e487b7160e01b5f52601260045260245ffd5b5f8261148e5761148e61146c565b500490565b808201808211156106855761068561142e565b600181811c908216806114ba57607f821691505b6020821081036114d857634e487b7160e01b5f52602260045260245ffd5b50919050565b60ff81811683821601908111156106855761068561142e565b6001600160a01b039390931683526020830191909152604082015260600190565b600181815b8085111561155257815f19048211156115385761153861142e565b8085161561154557918102915b93841c939080029061151d565b509250929050565b5f8261156857506001610685565b8161157457505f610685565b816001811461158a5760028114611594576115b0565b6001915050610685565b60ff8411156115a5576115a561142e565b50506001821b610685565b5060208310610133831016604e8410600b84101617156115d3575081810a610685565b6115dd8383611518565b805f19048211156115f0576115f061142e565b029392505050565b5f6106cc60ff84168361155a565b634e487b7160e01b5f52602160045260245ffd5b5f60ff83168061162c5761162c61146c565b8060ff8416069150509291505056fe9b779b17422d0df92223018b32b4d1fa46e071723d6817e2486d003becc55f00a264697066735822122011b94fb7e5d3a7730c0bc961d0eb47c14f79b791ede21ad7ccb5b64e3572db1764736f6c63430008180033","opcodes":"PUSH1 0x80 PUSH1 0x40 MSTORE CALLVALUE DUP1 ISZERO PUSH3 0x10 JUMPI PUSH0 DUP1 REVERT JUMPDEST POP PUSH1 0x40 MLOAD PUSH3 0x30CE CODESIZE SUB DUP1 PUSH3 0x30CE DUP4 CODECOPY DUP2 ADD PUSH1 0x40 DUP2 SWAP1 MSTORE PUSH3 0x33 SWAP2 PUSH3 0x355 JUMP JUMPDEST CALLER DUP1 PUSH3 0x59 JUMPI PUSH1 0x40 MLOAD PUSH4 0x1E4FBDF7 PUSH1 0xE0 SHL DUP2 MSTORE PUSH0 PUSH1 0x4 DUP3 ADD MSTORE PUSH1 0x24 ADD PUSH1 0x40 MLOAD DUP1 SWAP2 SUB SWAP1 REVERT JUMPDEST PUSH3 0x64 DUP2 PUSH3 0x2F8 JUMP JUMPDEST POP PUSH1 0x1 PUSH32 0x9B779B17422D0DF92223018B32B4D1FA46E071723D6817E2486D003BECC55F00 SSTORE PUSH1 0x40 MLOAD DUP2 SWAP1 PUSH2 0x190 SWAP1 PUSH3 0x9D SWAP1 PUSH3 0x347 JUMP JUMPDEST PUSH1 0x1 PUSH1 0x1 PUSH1 0xA0 SHL SUB SWAP1 SWAP3 AND DUP3 MSTORE PUSH1 0xA0 PUSH1 0x20 DUP4 ADD DUP2 SWAP1 MSTORE PUSH1 0xF SWAP1 DUP4 ADD MSTORE PUSH15 0x14D64814DD18589B194815985D5B1D PUSH1 0x8A SHL PUSH1 0xC0 DUP4 ADD MSTORE PUSH1 0xE0 PUSH1 0x40 DUP4 ADD DUP2 SWAP1 MSTORE PUSH1 0x5 SWAP1 DUP4 ADD MSTORE PUSH5 0x39BCA9AA2B PUSH1 0xD9 SHL PUSH2 0x100 DUP4 ADD MSTORE PUSH1 0x60 DUP3 ADD MSTORE PUSH2 0x120 PUSH1 0x80 DUP3 ADD DUP2 SWAP1 MSTORE PUSH1 0x6 SWAP1 DUP3 ADD MSTORE PUSH6 0x537461626C65 PUSH1 0xD0 SHL PUSH2 0x140 DUP3 ADD MSTORE PUSH2 0x160 ADD PUSH1 0x40 MLOAD DUP1 SWAP2 SUB SWAP1 PUSH0 CREATE DUP1 ISZERO DUP1 ISZERO PUSH3 0x132 JUMPI RETURNDATASIZE PUSH0 DUP1 RETURNDATACOPY RETURNDATASIZE PUSH0 REVERT JUMPDEST POP PUSH1 0x1 PUSH0 PUSH2 0x100 EXP DUP2 SLOAD DUP2 PUSH1 0x1 PUSH1 0x1 PUSH1 0xA0 SHL SUB MUL NOT AND SWAP1 DUP4 PUSH1 0x1 PUSH1 0x1 PUSH1 0xA0 SHL SUB AND MUL OR SWAP1 SSTORE POP DUP1 PUSH2 0x320 PUSH1 0x40 MLOAD PUSH3 0x16A SWAP1 PUSH3 0x347 JUMP JUMPDEST PUSH1 0x1 PUSH1 0x1 PUSH1 0xA0 SHL SUB SWAP1 SWAP3 AND DUP3 MSTORE PUSH1 0xA0 PUSH1 0x20 DUP4 ADD DUP2 SWAP1 MSTORE PUSH1 0x11 SWAP1 DUP4 ADD MSTORE PUSH17 0x14D64810985B185B98D9590815985D5B1D PUSH1 0x7A SHL PUSH1 0xC0 DUP4 ADD MSTORE PUSH1 0xE0 PUSH1 0x40 DUP4 ADD DUP2 SWAP1 MSTORE PUSH1 0x5 SWAP1 DUP4 ADD MSTORE PUSH5 0x39BCA120AB PUSH1 0xD9 SHL PUSH2 0x100 DUP4 ADD MSTORE PUSH1 0x60 DUP3 ADD MSTORE PUSH2 0x120 PUSH1 0x80 DUP3 ADD DUP2 SWAP1 MSTORE PUSH1 0x8 SWAP1 DUP3 ADD MSTORE PUSH8 0x10985B185B98D959 PUSH1 0xC2 SHL PUSH2 0x140 DUP3 ADD MSTORE PUSH2 0x160 ADD PUSH1 0x40 MLOAD DUP1 SWAP2 SUB SWAP1 PUSH0 CREATE DUP1 ISZERO DUP1 ISZERO PUSH3 0x203 JUMPI RETURNDATASIZE PUSH0 DUP1 RETURNDATACOPY RETURNDATASIZE PUSH0 REVERT JUMPDEST POP PUSH1 0x2 PUSH0 PUSH2 0x100 EXP DUP2 SLOAD DUP2 PUSH1 0x1 PUSH1 0x1 PUSH1 0xA0 SHL SUB MUL NOT AND SWAP1 DUP4 PUSH1 0x1 PUSH1 0x1 PUSH1 0xA0 SHL SUB AND MUL OR SWAP1 SSTORE POP DUP1 PUSH2 0x4B0 PUSH1 0x40 MLOAD PUSH3 0x23B SWAP1 PUSH3 0x347 JUMP JUMPDEST PUSH1 0x1 PUSH1 0x1 PUSH1 0xA0 SHL SUB SWAP1 SWAP3 AND DUP3 MSTORE PUSH1 0xA0 PUSH1 0x20 DUP4 ADD DUP2 SWAP1 MSTORE PUSH1 0xF SWAP1 DUP4 ADD MSTORE PUSH15 0x14D64811DC9BDDDD1A0815985D5B1D PUSH1 0x8A SHL PUSH1 0xC0 DUP4 ADD MSTORE PUSH1 0xE0 PUSH1 0x40 DUP4 ADD DUP2 SWAP1 MSTORE PUSH1 0x5 SWAP1 DUP4 ADD MSTORE PUSH5 0x39BCA3AA2B PUSH1 0xD9 SHL PUSH2 0x100 DUP4 ADD MSTORE PUSH1 0x60 DUP3 ADD MSTORE PUSH2 0x120 PUSH1 0x80 DUP3 ADD DUP2 SWAP1 MSTORE PUSH1 0x6 SWAP1 DUP3 ADD MSTORE PUSH6 0x8EE4DEEEE8D PUSH1 0xD3 SHL PUSH2 0x140 DUP3 ADD MSTORE PUSH2 0x160 ADD PUSH1 0x40 MLOAD DUP1 SWAP2 SUB SWAP1 PUSH0 CREATE DUP1 ISZERO DUP1 ISZERO PUSH3 0x2D0 JUMPI RETURNDATASIZE PUSH0 DUP1 RETURNDATACOPY RETURNDATASIZE PUSH0 REVERT JUMPDEST POP PUSH1 0x3 DUP1 SLOAD PUSH1 0x1 PUSH1 0x1 PUSH1 0xA0 SHL SUB NOT AND PUSH1 0x1 PUSH1 0x1 PUSH1 0xA0 SHL SUB SWAP3 SWAP1 SWAP3 AND SWAP2 SWAP1 SWAP2 OR SWAP1 SSTORE POP PUSH3 0x384 JUMP JUMPDEST PUSH0 DUP1 SLOAD PUSH1 0x1 PUSH1 0x1 PUSH1 0xA0 SHL SUB DUP4 DUP2 AND PUSH1 0x1 PUSH1 0x1 PUSH1 0xA0 SHL SUB NOT DUP4 AND DUP2 OR DUP5 SSTORE PUSH1 0x40 MLOAD SWAP2 SWAP1 SWAP3 AND SWAP3 DUP4 SWAP2 PUSH32 0x8BE0079C531659141344CD1FD0A4F28419497F9722A3DAAFE3B4186F6B6457E0 SWAP2 SWAP1 LOG3 POP POP JUMP JUMPDEST PUSH2 0x1BC5 DUP1 PUSH3 0x1509 DUP4 CODECOPY ADD SWAP1 JUMP JUMPDEST PUSH0 PUSH1 0x20 DUP3 DUP5 SUB SLT ISZERO PUSH3 0x366 JUMPI PUSH0 DUP1 REVERT JUMPDEST DUP2 MLOAD PUSH1 0x1 PUSH1 0x1 PUSH1 0xA0 SHL SUB DUP2 AND DUP2 EQ PUSH3 0x37D JUMPI PUSH0 DUP1 REVERT JUMPDEST SWAP4 SWAP3 POP POP POP JUMP JUMPDEST PUSH2 0x1177 DUP1 PUSH3 0x392 PUSH0 CODECOPY PUSH0 RETURN INVALID PUSH1 0x80 PUSH1 0x40 MSTORE CALLVALUE DUP1 ISZERO PUSH2 0xF JUMPI PUSH0 DUP1 REVERT JUMPDEST POP PUSH1 0x4 CALLDATASIZE LT PUSH2 0x13D JUMPI PUSH0 CALLDATALOAD PUSH1 0xE0 SHR DUP1 PUSH4 0xA12CB815 GT PUSH2 0xB4 JUMPI DUP1 PUSH4 0xC9652E95 GT PUSH2 0x79 JUMPI DUP1 PUSH4 0xC9652E95 EQ PUSH2 0x2F8 JUMPI DUP1 PUSH4 0xCF429895 EQ PUSH2 0x301 JUMPI DUP1 PUSH4 0xE1A45218 EQ PUSH2 0x314 JUMPI DUP1 PUSH4 0xE6A69AB8 EQ PUSH2 0x31D JUMPI DUP1 PUSH4 0xF1F89E92 EQ PUSH2 0x328 JUMPI DUP1 PUSH4 0xF2FDE38B EQ PUSH2 0x33B JUMPI PUSH0 DUP1 REVERT JUMPDEST DUP1 PUSH4 0xA12CB815 EQ PUSH2 0x299 JUMPI DUP1 PUSH4 0xA623F2C7 EQ PUSH2 0x2AC JUMPI DUP1 PUSH4 0xAA45259B EQ PUSH2 0x2BF JUMPI DUP1 PUSH4 0xAEBF9D2B EQ PUSH2 0x2D2 JUMPI DUP1 PUSH4 0xC8ECF423 EQ PUSH2 0x2E5 JUMPI PUSH0 DUP1 REVERT JUMPDEST DUP1 PUSH4 0x715018A6 GT PUSH2 0x105 JUMPI DUP1 PUSH4 0x715018A6 EQ PUSH2 0x1B9 JUMPI DUP1 PUSH4 0x7E2D1857 EQ PUSH2 0x1C1 JUMPI DUP1 PUSH4 0x85C0AF7F EQ PUSH2 0x1D4 JUMPI DUP1 PUSH4 0x8DA5CB5B EQ PUSH2 0x1E7 JUMPI DUP1 PUSH4 0x8FEC9F08 EQ PUSH2 0x1F7 JUMPI DUP1 PUSH4 0x99FBAB88 EQ PUSH2 0x20A JUMPI PUSH0 DUP1 REVERT JUMPDEST DUP1 PUSH4 0x2DF1EBCF EQ PUSH2 0x141 JUMPI DUP1 PUSH4 0x52398B87 EQ PUSH2 0x15D JUMPI DUP1 PUSH4 0x5934C8A5 EQ PUSH2 0x166 JUMPI DUP1 PUSH4 0x6CF5A764 EQ PUSH2 0x17B JUMPI DUP1 PUSH4 0x6F42F9C7 EQ PUSH2 0x18E JUMPI JUMPDEST PUSH0 DUP1 REVERT JUMPDEST PUSH2 0x14A PUSH2 0x190 DUP2 JUMP JUMPDEST PUSH1 0x40 MLOAD SWAP1 DUP2 MSTORE PUSH1 0x20 ADD JUMPDEST PUSH1 0x40 MLOAD DUP1 SWAP2 SUB SWAP1 RETURN JUMPDEST PUSH2 0x14A PUSH2 0x320 DUP2 JUMP JUMPDEST PUSH2 0x179 PUSH2 0x174 CALLDATASIZE PUSH1 0x4 PUSH2 0xF83 JUMP JUMPDEST PUSH2 0x34E JUMP JUMPDEST STOP JUMPDEST PUSH2 0x14A PUSH2 0x189 CALLDATASIZE PUSH1 0x4 PUSH2 0xFB3 JUMP JUMPDEST PUSH2 0x378 JUMP JUMPDEST PUSH1 0x1 SLOAD PUSH2 0x1A1 SWAP1 PUSH1 0x1 PUSH1 0x1 PUSH1 0xA0 SHL SUB AND DUP2 JUMP JUMPDEST PUSH1 0x40 MLOAD PUSH1 0x1 PUSH1 0x1 PUSH1 0xA0 SHL SUB SWAP1 SWAP2 AND DUP2 MSTORE PUSH1 0x20 ADD PUSH2 0x154 JUMP JUMPDEST PUSH2 0x179 PUSH2 0x3E7 JUMP JUMPDEST PUSH2 0x14A PUSH2 0x1CF CALLDATASIZE PUSH1 0x4 PUSH2 0xFCC JUMP JUMPDEST PUSH2 0x3FA JUMP JUMPDEST PUSH1 0x5 SLOAD PUSH2 0x1A1 SWAP1 PUSH1 0x1 PUSH1 0x1 PUSH1 0xA0 SHL SUB AND DUP2 JUMP JUMPDEST PUSH0 SLOAD PUSH1 0x1 PUSH1 0x1 PUSH1 0xA0 SHL SUB AND PUSH2 0x1A1 JUMP JUMPDEST PUSH1 0x3 SLOAD PUSH2 0x1A1 SWAP1 PUSH1 0x1 PUSH1 0x1 PUSH1 0xA0 SHL SUB AND DUP2 JUMP JUMPDEST PUSH2 0x25D PUSH2 0x218 CALLDATASIZE PUSH1 0x4 PUSH2 0xFFA JUMP JUMPDEST PUSH1 0x4 PUSH1 0x20 DUP2 SWAP1 MSTORE PUSH0 SWAP2 DUP3 MSTORE PUSH1 0x40 SWAP1 SWAP2 KECCAK256 DUP1 SLOAD PUSH1 0x1 DUP3 ADD SLOAD PUSH1 0x2 DUP4 ADD SLOAD PUSH1 0x3 DUP5 ADD SLOAD SWAP4 SWAP1 SWAP5 ADD SLOAD PUSH1 0x1 PUSH1 0x1 PUSH1 0xA0 SHL SUB SWAP1 SWAP3 AND SWAP4 SWAP1 SWAP3 SWAP1 SWAP2 PUSH1 0xFF DUP1 DUP3 AND SWAP2 PUSH2 0x100 SWAP1 DIV AND DUP7 JUMP JUMPDEST PUSH1 0x40 DUP1 MLOAD PUSH1 0x1 PUSH1 0x1 PUSH1 0xA0 SHL SUB SWAP1 SWAP8 AND DUP8 MSTORE PUSH1 0x20 DUP8 ADD SWAP6 SWAP1 SWAP6 MSTORE SWAP4 DUP6 ADD SWAP3 SWAP1 SWAP3 MSTORE PUSH1 0x60 DUP5 ADD MSTORE PUSH1 0xFF AND PUSH1 0x80 DUP4 ADD MSTORE ISZERO ISZERO PUSH1 0xA0 DUP3 ADD MSTORE PUSH1 0xC0 ADD PUSH2 0x154 JUMP JUMPDEST PUSH2 0x14A PUSH2 0x2A7 CALLDATASIZE PUSH1 0x4 PUSH2 0xFB3 JUMP JUMPDEST PUSH2 0x5FB JUMP JUMPDEST PUSH2 0x14A PUSH2 0x2BA CALLDATASIZE PUSH1 0x4 PUSH2 0xFFA JUMP JUMPDEST PUSH2 0x66E JUMP JUMPDEST PUSH2 0x179 PUSH2 0x2CD CALLDATASIZE PUSH1 0x4 PUSH2 0x1011 JUMP JUMPDEST PUSH2 0x756 JUMP JUMPDEST PUSH1 0x2 SLOAD PUSH2 0x1A1 SWAP1 PUSH1 0x1 PUSH1 0x1 PUSH1 0xA0 SHL SUB AND DUP2 JUMP JUMPDEST PUSH2 0x14A PUSH2 0x2F3 CALLDATASIZE PUSH1 0x4 PUSH2 0x1054 JUMP JUMPDEST PUSH2 0x99B JUMP JUMPDEST PUSH2 0x14A PUSH2 0x4B0 DUP2 JUMP JUMPDEST PUSH2 0x1A1 PUSH2 0x30F CALLDATASIZE PUSH1 0x4 PUSH2 0xFB3 JUMP JUMPDEST PUSH2 0xA21 JUMP JUMPDEST PUSH2 0x14A PUSH2 0x2710 DUP2 JUMP JUMPDEST PUSH2 0x14A PUSH4 0x1E13380 DUP2 JUMP JUMPDEST PUSH2 0x14A PUSH2 0x336 CALLDATASIZE PUSH1 0x4 PUSH2 0x1011 JUMP JUMPDEST PUSH2 0xA2B JUMP JUMPDEST PUSH2 0x179 PUSH2 0x349 CALLDATASIZE PUSH1 0x4 PUSH2 0xF83 JUMP JUMPDEST PUSH2 0xD76 JUMP JUMPDEST PUSH2 0x356 PUSH2 0xDB3 JUMP JUMPDEST PUSH1 0x5 DUP1 SLOAD PUSH1 0x1 PUSH1 0x1 PUSH1 0xA0 SHL SUB NOT AND PUSH1 0x1 PUSH1 0x1 PUSH1 0xA0 SHL SUB SWAP3 SWAP1 SWAP3 AND SWAP2 SWAP1 SWAP2 OR SWAP1 SSTORE JUMP JUMPDEST PUSH0 PUSH2 0x382 DUP3 PUSH2 0xDDF JUMP JUMPDEST PUSH1 0x1 PUSH1 0x1 PUSH1 0xA0 SHL SUB AND PUSH4 0x1E1D114 PUSH1 0x40 MLOAD DUP2 PUSH4 0xFFFFFFFF AND PUSH1 0xE0 SHL DUP2 MSTORE PUSH1 0x4 ADD PUSH1 0x20 PUSH1 0x40 MLOAD DUP1 DUP4 SUB DUP2 DUP7 GAS STATICCALL ISZERO DUP1 ISZERO PUSH2 0x3BD JUMPI RETURNDATASIZE PUSH0 DUP1 RETURNDATACOPY RETURNDATASIZE PUSH0 REVERT JUMPDEST POP POP POP POP PUSH1 0x40 MLOAD RETURNDATASIZE PUSH1 0x1F NOT PUSH1 0x1F DUP3 ADD AND DUP3 ADD DUP1 PUSH1 0x40 MSTORE POP DUP2 ADD SWAP1 PUSH2 0x3E1 SWAP2 SWAP1 PUSH2 0x1087 JUMP JUMPDEST SWAP3 SWAP2 POP POP JUMP JUMPDEST PUSH2 0x3EF PUSH2 0xDB3 JUMP JUMPDEST PUSH2 0x3F8 PUSH0 PUSH2 0xE33 JUMP JUMPDEST JUMP JUMPDEST PUSH1 0x5 SLOAD PUSH0 SWAP1 PUSH1 0x1 PUSH1 0x1 PUSH1 0xA0 SHL SUB AND CALLER EQ PUSH2 0x42F JUMPI PUSH1 0x40 MLOAD PUSH3 0x461BCD PUSH1 0xE5 SHL DUP2 MSTORE PUSH1 0x4 ADD PUSH2 0x426 SWAP1 PUSH2 0x109E JUMP JUMPDEST PUSH1 0x40 MLOAD DUP1 SWAP2 SUB SWAP1 REVERT JUMPDEST PUSH2 0x437 PUSH2 0xE82 JUMP JUMPDEST PUSH0 DUP4 DUP2 MSTORE PUSH1 0x4 PUSH1 0x20 DUP2 SWAP1 MSTORE PUSH1 0x40 SWAP1 SWAP2 KECCAK256 SWAP1 DUP2 ADD SLOAD PUSH2 0x100 SWAP1 DIV PUSH1 0xFF AND ISZERO DUP1 PUSH2 0x461 JUMPI POP PUSH1 0x1 DUP2 ADD SLOAD ISZERO JUMPDEST ISZERO PUSH2 0x46F JUMPI PUSH0 SWAP2 POP POP PUSH2 0x5E5 JUMP JUMPDEST PUSH1 0x4 DUP2 ADD SLOAD PUSH0 SWAP1 PUSH2 0x482 SWAP1 PUSH1 0xFF AND PUSH2 0xDDF JUMP JUMPDEST SWAP1 POP PUSH0 DUP2 PUSH1 0x1 PUSH1 0x1 PUSH1 0xA0 SHL SUB AND PUSH4 0x7A2D13A DUP5 PUSH1 0x1 ADD SLOAD PUSH1 0x40 MLOAD DUP3 PUSH4 0xFFFFFFFF AND PUSH1 0xE0 SHL DUP2 MSTORE PUSH1 0x4 ADD PUSH2 0x4B7 SWAP2 DUP2 MSTORE PUSH1 0x20 ADD SWAP1 JUMP JUMPDEST PUSH1 0x20 PUSH1 0x40 MLOAD DUP1 DUP4 SUB DUP2 DUP7 GAS STATICCALL ISZERO DUP1 ISZERO PUSH2 0x4D2 JUMPI RETURNDATASIZE PUSH0 DUP1 RETURNDATACOPY RETURNDATASIZE PUSH0 REVERT JUMPDEST POP POP POP POP PUSH1 0x40 MLOAD RETURNDATASIZE PUSH1 0x1F NOT PUSH1 0x1F DUP3 ADD AND DUP3 ADD DUP1 PUSH1 0x40 MSTORE POP DUP2 ADD SWAP1 PUSH2 0x4F6 SWAP2 SWAP1 PUSH2 0x1087 JUMP JUMPDEST SWAP1 POP DUP3 PUSH1 0x2 ADD SLOAD DUP2 GT PUSH2 0x509 JUMPI PUSH0 PUSH2 0x518 JUMP JUMPDEST PUSH1 0x2 DUP4 ADD SLOAD PUSH2 0x518 SWAP1 DUP3 PUSH2 0x10C8 JUMP JUMPDEST PUSH1 0x1 DUP5 ADD SLOAD PUSH1 0x40 MLOAD PUSH4 0x5D043B29 PUSH1 0xE1 SHL DUP2 MSTORE PUSH1 0x4 DUP2 ADD SWAP2 SWAP1 SWAP2 MSTORE PUSH1 0x1 PUSH1 0x1 PUSH1 0xA0 SHL SUB DUP8 DUP2 AND PUSH1 0x24 DUP4 ADD MSTORE ADDRESS PUSH1 0x44 DUP4 ADD MSTORE SWAP2 SWAP6 POP SWAP1 DUP4 AND SWAP1 PUSH4 0xBA087652 SWAP1 PUSH1 0x64 ADD PUSH1 0x20 PUSH1 0x40 MLOAD DUP1 DUP4 SUB DUP2 PUSH0 DUP8 GAS CALL ISZERO DUP1 ISZERO PUSH2 0x574 JUMPI RETURNDATASIZE PUSH0 DUP1 RETURNDATACOPY RETURNDATASIZE PUSH0 REVERT JUMPDEST POP POP POP POP PUSH1 0x40 MLOAD RETURNDATASIZE PUSH1 0x1F NOT PUSH1 0x1F DUP3 ADD AND DUP3 ADD DUP1 PUSH1 0x40 MSTORE POP DUP2 ADD SWAP1 PUSH2 0x598 SWAP2 SWAP1 PUSH2 0x1087 JUMP JUMPDEST POP PUSH0 PUSH1 0x1 DUP5 ADD SSTORE PUSH1 0x4 DUP4 ADD DUP1 SLOAD PUSH2 0xFF00 NOT AND SWAP1 SSTORE PUSH1 0x40 MLOAD DUP5 DUP2 MSTORE DUP7 SWAP1 PUSH32 0x3FB12FB590BB295327F3BFC48158ADA0B1147F8F823E0C7A09B98B301D186774 SWAP1 PUSH1 0x20 ADD PUSH1 0x40 MLOAD DUP1 SWAP2 SUB SWAP1 LOG2 POP POP POP JUMPDEST PUSH2 0x3E1 PUSH1 0x1 PUSH0 DUP1 MLOAD PUSH1 0x20 PUSH2 0x1122 DUP4 CODECOPY DUP2 MLOAD SWAP2 MSTORE SSTORE JUMP JUMPDEST PUSH0 DUP2 PUSH1 0xFF AND PUSH0 SUB PUSH2 0x60F JUMPI POP PUSH2 0x190 SWAP2 SWAP1 POP JUMP JUMPDEST DUP2 PUSH1 0xFF AND PUSH1 0x1 SUB PUSH2 0x623 JUMPI POP PUSH2 0x320 SWAP2 SWAP1 POP JUMP JUMPDEST DUP2 PUSH1 0xFF AND PUSH1 0x2 SUB PUSH2 0x637 JUMPI POP PUSH2 0x4B0 SWAP2 SWAP1 POP JUMP JUMPDEST PUSH1 0x40 MLOAD PUSH3 0x461BCD PUSH1 0xE5 SHL DUP2 MSTORE PUSH1 0x20 PUSH1 0x4 DUP3 ADD MSTORE PUSH1 0xC PUSH1 0x24 DUP3 ADD MSTORE PUSH12 0x24B73B30B634B2103A34B2B9 PUSH1 0xA1 SHL PUSH1 0x44 DUP3 ADD MSTORE PUSH1 0x64 ADD PUSH2 0x426 JUMP JUMPDEST PUSH0 DUP2 DUP2 MSTORE PUSH1 0x4 PUSH1 0x20 DUP2 SWAP1 MSTORE PUSH1 0x40 DUP3 KECCAK256 SWAP1 DUP2 ADD SLOAD PUSH2 0x100 SWAP1 DIV PUSH1 0xFF AND ISZERO DUP1 PUSH2 0x697 JUMPI POP PUSH1 0x1 DUP2 ADD SLOAD ISZERO JUMPDEST ISZERO PUSH2 0x6A4 JUMPI POP PUSH0 SWAP3 SWAP2 POP POP JUMP JUMPDEST PUSH1 0x4 DUP2 ADD SLOAD PUSH0 SWAP1 PUSH2 0x6B7 SWAP1 PUSH1 0xFF AND PUSH2 0xDDF JUMP JUMPDEST SWAP1 POP PUSH0 DUP2 PUSH1 0x1 PUSH1 0x1 PUSH1 0xA0 SHL SUB AND PUSH4 0x7A2D13A DUP5 PUSH1 0x1 ADD SLOAD PUSH1 0x40 MLOAD DUP3 PUSH4 0xFFFFFFFF AND PUSH1 0xE0 SHL DUP2 MSTORE PUSH1 0x4 ADD PUSH2 0x6EC SWAP2 DUP2 MSTORE PUSH1 0x20 ADD SWAP1 JUMP JUMPDEST PUSH1 0x20 PUSH1 0x40 MLOAD DUP1 DUP4 SUB DUP2 DUP7 GAS STATICCALL ISZERO DUP1 ISZERO PUSH2 0x707 JUMPI RETURNDATASIZE PUSH0 DUP1 RETURNDATACOPY RETURNDATASIZE PUSH0 REVERT JUMPDEST POP POP POP POP PUSH1 0x40 MLOAD RETURNDATASIZE PUSH1 0x1F NOT PUSH1 0x1F DUP3 ADD AND DUP3 ADD DUP1 PUSH1 0x40 MSTORE POP DUP2 ADD SWAP1 PUSH2 0x72B SWAP2 SWAP1 PUSH2 0x1087 JUMP JUMPDEST SWAP1 POP DUP3 PUSH1 0x2 ADD SLOAD DUP2 GT PUSH2 0x73E JUMPI PUSH0 PUSH2 0x74D JUMP JUMPDEST PUSH1 0x2 DUP4 ADD SLOAD PUSH2 0x74D SWAP1 DUP3 PUSH2 0x10C8 JUMP JUMPDEST SWAP6 SWAP5 POP POP POP POP POP JUMP JUMPDEST PUSH1 0x5 SLOAD PUSH1 0x1 PUSH1 0x1 PUSH1 0xA0 SHL SUB AND CALLER EQ PUSH2 0x780 JUMPI PUSH1 0x40 MLOAD PUSH3 0x461BCD PUSH1 0xE5 SHL DUP2 MSTORE PUSH1 0x4 ADD PUSH2 0x426 SWAP1 PUSH2 0x109E JUMP JUMPDEST PUSH2 0x788 PUSH2 0xE82 JUMP JUMPDEST PUSH0 PUSH2 0x792 DUP4 PUSH2 0xDDF JUMP JUMPDEST PUSH0 DUP4 DUP2 MSTORE PUSH1 0x4 PUSH1 0x20 DUP2 SWAP1 MSTORE PUSH1 0x40 SWAP1 SWAP2 KECCAK256 SWAP1 DUP2 ADD SLOAD SWAP2 SWAP3 POP SWAP1 PUSH2 0x100 SWAP1 DIV PUSH1 0xFF AND PUSH2 0x7F4 JUMPI PUSH1 0x40 MLOAD PUSH3 0x461BCD PUSH1 0xE5 SHL DUP2 MSTORE PUSH1 0x20 PUSH1 0x4 DUP3 ADD MSTORE PUSH1 0x13 PUSH1 0x24 DUP3 ADD MSTORE PUSH19 0x506F736974696F6E206E6F7420616374697665 PUSH1 0x68 SHL PUSH1 0x44 DUP3 ADD MSTORE PUSH1 0x64 ADD PUSH2 0x426 JUMP JUMPDEST PUSH1 0x40 MLOAD PUSH4 0x63737AC9 PUSH1 0xE1 SHL DUP2 MSTORE PUSH1 0x4 DUP2 ADD DUP7 SWAP1 MSTORE PUSH0 SWAP1 PUSH1 0x1 PUSH1 0x1 PUSH1 0xA0 SHL SUB DUP5 AND SWAP1 PUSH4 0xC6E6F592 SWAP1 PUSH1 0x24 ADD PUSH1 0x20 PUSH1 0x40 MLOAD DUP1 DUP4 SUB DUP2 DUP7 GAS STATICCALL ISZERO DUP1 ISZERO PUSH2 0x839 JUMPI RETURNDATASIZE PUSH0 DUP1 RETURNDATACOPY RETURNDATASIZE PUSH0 REVERT JUMPDEST POP POP POP POP PUSH1 0x40 MLOAD RETURNDATASIZE PUSH1 0x1F NOT PUSH1 0x1F DUP3 ADD AND DUP3 ADD DUP1 PUSH1 0x40 MSTORE POP DUP2 ADD SWAP1 PUSH2 0x85D SWAP2 SWAP1 PUSH2 0x1087 JUMP JUMPDEST SWAP1 POP DUP2 PUSH1 0x1 ADD SLOAD DUP2 GT ISZERO PUSH2 0x872 JUMPI POP PUSH1 0x1 DUP2 ADD SLOAD JUMPDEST PUSH1 0x40 MLOAD PUSH4 0x5D043B29 PUSH1 0xE1 SHL DUP2 MSTORE PUSH1 0x4 DUP2 ADD DUP3 SWAP1 MSTORE CALLER PUSH1 0x24 DUP3 ADD MSTORE ADDRESS PUSH1 0x44 DUP3 ADD MSTORE PUSH0 SWAP1 PUSH1 0x1 PUSH1 0x1 PUSH1 0xA0 SHL SUB DUP6 AND SWAP1 PUSH4 0xBA087652 SWAP1 PUSH1 0x64 ADD PUSH1 0x20 PUSH1 0x40 MLOAD DUP1 DUP4 SUB DUP2 PUSH0 DUP8 GAS CALL ISZERO DUP1 ISZERO PUSH2 0x8C4 JUMPI RETURNDATASIZE PUSH0 DUP1 RETURNDATACOPY RETURNDATASIZE PUSH0 REVERT JUMPDEST POP POP POP POP PUSH1 0x40 MLOAD RETURNDATASIZE PUSH1 0x1F NOT PUSH1 0x1F DUP3 ADD AND DUP3 ADD DUP1 PUSH1 0x40 MSTORE POP DUP2 ADD SWAP1 PUSH2 0x8E8 SWAP2 SWAP1 PUSH2 0x1087 JUMP JUMPDEST SWAP1 POP DUP2 DUP4 PUSH1 0x1 ADD PUSH0 DUP3 DUP3 SLOAD PUSH2 0x8FD SWAP2 SWAP1 PUSH2 0x10C8 JUMP JUMPDEST SWAP1 SWAP2 SSTORE POP POP PUSH1 0x2 DUP4 ADD SLOAD DUP8 GT PUSH2 0x926 JUMPI DUP7 DUP4 PUSH1 0x2 ADD PUSH0 DUP3 DUP3 SLOAD PUSH2 0x920 SWAP2 SWAP1 PUSH2 0x10C8 JUMP JUMPDEST SWAP1 SWAP2 SSTORE POP POP JUMPDEST PUSH1 0x40 DUP1 MLOAD PUSH1 0x1 PUSH1 0x1 PUSH1 0xA0 SHL SUB DUP11 AND DUP2 MSTORE PUSH1 0x20 DUP2 ADD DUP4 SWAP1 MSTORE SWAP1 DUP2 ADD DUP4 SWAP1 MSTORE PUSH1 0xFF DUP8 AND PUSH1 0x60 DUP3 ADD MSTORE DUP6 SWAP1 PUSH32 0x1B78D3F42803EB83FDDAD03FB3D4F7FDE01DA63777E04C69038542B6396DD3F5 SWAP1 PUSH1 0x80 ADD PUSH1 0x40 MLOAD DUP1 SWAP2 SUB SWAP1 LOG2 POP POP POP POP PUSH2 0x995 PUSH1 0x1 PUSH0 DUP1 MLOAD PUSH1 0x20 PUSH2 0x1122 DUP4 CODECOPY DUP2 MLOAD SWAP2 MSTORE SSTORE JUMP JUMPDEST POP POP POP POP JUMP JUMPDEST PUSH0 DUP3 PUSH1 0x1 PUSH1 0x1 PUSH1 0xA0 SHL SUB AND PUSH4 0x70A08231 PUSH2 0x9B4 DUP5 PUSH2 0xDDF JUMP JUMPDEST PUSH1 0x40 MLOAD PUSH1 0x1 PUSH1 0x1 PUSH1 0xE0 SHL SUB NOT PUSH1 0xE0 DUP5 SWAP1 SHL AND DUP2 MSTORE PUSH1 0x1 PUSH1 0x1 PUSH1 0xA0 SHL SUB SWAP1 SWAP2 AND PUSH1 0x4 DUP3 ADD MSTORE PUSH1 0x24 ADD PUSH1 0x20 PUSH1 0x40 MLOAD DUP1 DUP4 SUB DUP2 DUP7 GAS STATICCALL ISZERO DUP1 ISZERO PUSH2 0x9F6 JUMPI RETURNDATASIZE PUSH0 DUP1 RETURNDATACOPY RETURNDATASIZE PUSH0 REVERT JUMPDEST POP POP POP POP PUSH1 0x40 MLOAD RETURNDATASIZE PUSH1 0x1F NOT PUSH1 0x1F DUP3 ADD AND DUP3 ADD DUP1 PUSH1 0x40 MSTORE POP DUP2 ADD SWAP1 PUSH2 0xA1A SWAP2 SWAP1 PUSH2 0x1087 JUMP JUMPDEST SWAP4 SWAP3 POP POP POP JUMP JUMPDEST PUSH0 PUSH2 0x3E1 DUP3 PUSH2 0xDDF JUMP JUMPDEST PUSH1 0x5 SLOAD PUSH0 SWAP1 PUSH1 0x1 PUSH1 0x1 PUSH1 0xA0 SHL SUB AND CALLER EQ PUSH2 0xA57 JUMPI PUSH1 0x40 MLOAD PUSH3 0x461BCD PUSH1 0xE5 SHL DUP2 MSTORE PUSH1 0x4 ADD PUSH2 0x426 SWAP1 PUSH2 0x109E JUMP JUMPDEST PUSH2 0xA5F PUSH2 0xE82 JUMP JUMPDEST PUSH1 0x2 DUP4 PUSH1 0xFF AND GT ISZERO PUSH2 0xAA2 JUMPI PUSH1 0x40 MLOAD PUSH3 0x461BCD PUSH1 0xE5 SHL DUP2 MSTORE PUSH1 0x20 PUSH1 0x4 DUP3 ADD MSTORE PUSH1 0xC PUSH1 0x24 DUP3 ADD MSTORE PUSH12 0x24B73B30B634B2103A34B2B9 PUSH1 0xA1 SHL PUSH1 0x44 DUP3 ADD MSTORE PUSH1 0x64 ADD PUSH2 0x426 JUMP JUMPDEST PUSH0 PUSH2 0xAAC DUP5 PUSH2 0xDDF JUMP JUMPDEST SWAP1 POP DUP6 PUSH1 0x1 PUSH1 0x1 PUSH1 0xA0 SHL SUB AND DUP2 PUSH1 0x1 PUSH1 0x1 PUSH1 0xA0 SHL SUB AND PUSH4 0x38D52E0F PUSH1 0x40 MLOAD DUP2 PUSH4 0xFFFFFFFF AND PUSH1 0xE0 SHL DUP2 MSTORE PUSH1 0x4 ADD PUSH1 0x20 PUSH1 0x40 MLOAD DUP1 DUP4 SUB DUP2 DUP7 GAS STATICCALL ISZERO DUP1 ISZERO PUSH2 0xAF4 JUMPI RETURNDATASIZE PUSH0 DUP1 RETURNDATACOPY RETURNDATASIZE PUSH0 REVERT JUMPDEST POP POP POP POP PUSH1 0x40 MLOAD RETURNDATASIZE PUSH1 0x1F NOT PUSH1 0x1F DUP3 ADD AND DUP3 ADD DUP1 PUSH1 0x40 MSTORE POP DUP2 ADD SWAP1 PUSH2 0xB18 SWAP2 SWAP1 PUSH2 0x10E7 JUMP JUMPDEST PUSH1 0x1 PUSH1 0x1 PUSH1 0xA0 SHL SUB AND EQ PUSH2 0xB5F JUMPI PUSH1 0x40 MLOAD PUSH3 0x461BCD PUSH1 0xE5 SHL DUP2 MSTORE PUSH1 0x20 PUSH1 0x4 DUP3 ADD MSTORE PUSH1 0xE PUSH1 0x24 DUP3 ADD MSTORE PUSH14 0xA8DED6CADC40DAD2E6DAC2E8C6D PUSH1 0x93 SHL PUSH1 0x44 DUP3 ADD MSTORE PUSH1 0x64 ADD PUSH2 0x426 JUMP JUMPDEST PUSH2 0xB74 PUSH1 0x1 PUSH1 0x1 PUSH1 0xA0 SHL SUB DUP8 AND CALLER ADDRESS DUP9 PUSH2 0xE9D JUMP JUMPDEST PUSH1 0x40 MLOAD PUSH4 0x95EA7B3 PUSH1 0xE0 SHL DUP2 MSTORE PUSH1 0x1 PUSH1 0x1 PUSH1 0xA0 SHL SUB DUP3 DUP2 AND PUSH1 0x4 DUP4 ADD MSTORE PUSH1 0x24 DUP3 ADD DUP8 SWAP1 MSTORE DUP8 AND SWAP1 PUSH4 0x95EA7B3 SWAP1 PUSH1 0x44 ADD PUSH1 0x20 PUSH1 0x40 MLOAD DUP1 DUP4 SUB DUP2 PUSH0 DUP8 GAS CALL ISZERO DUP1 ISZERO PUSH2 0xBC0 JUMPI RETURNDATASIZE PUSH0 DUP1 RETURNDATACOPY RETURNDATASIZE PUSH0 REVERT JUMPDEST POP POP POP POP PUSH1 0x40 MLOAD RETURNDATASIZE PUSH1 0x1F NOT PUSH1 0x1F DUP3 ADD AND DUP3 ADD DUP1 PUSH1 0x40 MSTORE POP DUP2 ADD SWAP1 PUSH2 0xBE4 SWAP2 SWAP1 PUSH2 0x1102 JUMP JUMPDEST POP PUSH1 0x40 MLOAD PUSH4 0x6E553F65 PUSH1 0xE0 SHL DUP2 MSTORE PUSH1 0x4 DUP2 ADD DUP7 SWAP1 MSTORE ADDRESS PUSH1 0x24 DUP3 ADD MSTORE PUSH1 0x1 PUSH1 0x1 PUSH1 0xA0 SHL SUB DUP3 AND SWAP1 PUSH4 0x6E553F65 SWAP1 PUSH1 0x44 ADD PUSH1 0x20 PUSH1 0x40 MLOAD DUP1 DUP4 SUB DUP2 PUSH0 DUP8 GAS CALL ISZERO DUP1 ISZERO PUSH2 0xC2F JUMPI RETURNDATASIZE PUSH0 DUP1 RETURNDATACOPY RETURNDATASIZE PUSH0 REVERT JUMPDEST POP POP POP POP PUSH1 0x40 MLOAD RETURNDATASIZE PUSH1 0x1F NOT PUSH1 0x1F DUP3 ADD AND DUP3 ADD DUP1 PUSH1 0x40 MSTORE POP DUP2 ADD SWAP1 PUSH2 0xC53 SWAP2 SWAP1 PUSH2 0x1087 JUMP JUMPDEST PUSH1 0x40 DUP1 MLOAD PUSH1 0xC0 DUP2 ADD DUP3 MSTORE PUSH1 0x1 PUSH1 0x1 PUSH1 0xA0 SHL SUB DUP1 DUP11 AND DUP3 MSTORE PUSH1 0x20 DUP1 DUP4 ADD DUP6 DUP2 MSTORE DUP4 DUP6 ADD DUP12 DUP2 MSTORE TIMESTAMP PUSH1 0x60 DUP7 ADD SWAP1 DUP2 MSTORE PUSH1 0xFF DUP1 DUP14 AND PUSH1 0x80 DUP9 ADD SWAP1 DUP2 MSTORE PUSH1 0x1 PUSH1 0xA0 DUP10 ADD DUP2 DUP2 MSTORE PUSH0 DUP16 DUP2 MSTORE PUSH1 0x4 SWAP9 DUP10 SWAP1 MSTORE DUP12 SWAP1 KECCAK256 SWAP10 MLOAD DUP11 SLOAD SWAP10 AND PUSH1 0x1 PUSH1 0x1 PUSH1 0xA0 SHL SUB NOT SWAP1 SWAP10 AND SWAP9 SWAP1 SWAP9 OR DUP10 SSTORE SWAP5 MLOAD SWAP5 DUP9 ADD SWAP5 SWAP1 SWAP5 SSTORE SWAP2 MLOAD PUSH1 0x2 DUP8 ADD SSTORE MLOAD PUSH1 0x3 DUP7 ADD SSTORE SWAP1 MLOAD SWAP4 SWAP1 SWAP2 ADD DUP1 SLOAD SWAP3 MLOAD ISZERO ISZERO PUSH2 0x100 MUL PUSH2 0xFFFF NOT SWAP1 SWAP4 AND SWAP4 SWAP1 SWAP2 AND SWAP3 SWAP1 SWAP3 OR OR SWAP1 SSTORE MLOAD SWAP1 SWAP3 POP DUP4 SWAP1 PUSH32 0x6ED42C48BEC8DFF965099BB8DCFA97F82912EF04E34569CA7054652D98BE851C SWAP1 PUSH2 0xD4F SWAP1 DUP10 SWAP1 DUP10 SWAP1 DUP8 SWAP1 DUP11 SWAP1 PUSH1 0x1 PUSH1 0x1 PUSH1 0xA0 SHL SUB SWAP5 SWAP1 SWAP5 AND DUP5 MSTORE PUSH1 0x20 DUP5 ADD SWAP3 SWAP1 SWAP3 MSTORE PUSH1 0x40 DUP4 ADD MSTORE PUSH1 0xFF AND PUSH1 0x60 DUP3 ADD MSTORE PUSH1 0x80 ADD SWAP1 JUMP JUMPDEST PUSH1 0x40 MLOAD DUP1 SWAP2 SUB SWAP1 LOG2 POP PUSH2 0xD6E PUSH1 0x1 PUSH0 DUP1 MLOAD PUSH1 0x20 PUSH2 0x1122 DUP4 CODECOPY DUP2 MLOAD SWAP2 MSTORE SSTORE JUMP JUMPDEST SWAP5 SWAP4 POP POP POP POP JUMP JUMPDEST PUSH2 0xD7E PUSH2 0xDB3 JUMP JUMPDEST PUSH1 0x1 PUSH1 0x1 PUSH1 0xA0 SHL SUB DUP2 AND PUSH2 0xDA7 JUMPI PUSH1 0x40 MLOAD PUSH4 0x1E4FBDF7 PUSH1 0xE0 SHL DUP2 MSTORE PUSH0 PUSH1 0x4 DUP3 ADD MSTORE PUSH1 0x24 ADD PUSH2 0x426 JUMP JUMPDEST PUSH2 0xDB0 DUP2 PUSH2 0xE33 JUMP JUMPDEST POP JUMP JUMPDEST PUSH0 SLOAD PUSH1 0x1 PUSH1 0x1 PUSH1 0xA0 SHL SUB AND CALLER EQ PUSH2 0x3F8 JUMPI PUSH1 0x40 MLOAD PUSH4 0x118CDAA7 PUSH1 0xE0 SHL DUP2 MSTORE CALLER PUSH1 0x4 DUP3 ADD MSTORE PUSH1 0x24 ADD PUSH2 0x426 JUMP JUMPDEST PUSH0 DUP2 PUSH1 0xFF AND PUSH0 SUB PUSH2 0xDFB JUMPI POP POP PUSH1 0x1 SLOAD PUSH1 0x1 PUSH1 0x1 PUSH1 0xA0 SHL SUB AND SWAP1 JUMP JUMPDEST DUP2 PUSH1 0xFF AND PUSH1 0x1 SUB PUSH2 0xE17 JUMPI POP POP PUSH1 0x2 SLOAD PUSH1 0x1 PUSH1 0x1 PUSH1 0xA0 SHL SUB AND SWAP1 JUMP JUMPDEST DUP2 PUSH1 0xFF AND PUSH1 0x2 SUB PUSH2 0x637 JUMPI POP POP PUSH1 0x3 SLOAD PUSH1 0x1 PUSH1 0x1 PUSH1 0xA0 SHL SUB AND SWAP1 JUMP JUMPDEST PUSH0 DUP1 SLOAD PUSH1 0x1 PUSH1 0x1 PUSH1 0xA0 SHL SUB DUP4 DUP2 AND PUSH1 0x1 PUSH1 0x1 PUSH1 0xA0 SHL SUB NOT DUP4 AND DUP2 OR DUP5 SSTORE PUSH1 0x40 MLOAD SWAP2 SWAP1 SWAP3 AND SWAP3 DUP4 SWAP2 PUSH32 0x8BE0079C531659141344CD1FD0A4F28419497F9722A3DAAFE3B4186F6B6457E0 SWAP2 SWAP1 LOG3 POP POP JUMP JUMPDEST PUSH2 0xE8A PUSH2 0xED3 JUMP JUMPDEST PUSH1 0x2 PUSH0 DUP1 MLOAD PUSH1 0x20 PUSH2 0x1122 DUP4 CODECOPY DUP2 MLOAD SWAP2 MSTORE SSTORE JUMP JUMPDEST PUSH2 0xEAB DUP5 DUP5 DUP5 DUP5 PUSH1 0x1 PUSH2 0xF02 JUMP JUMPDEST PUSH2 0x995 JUMPI PUSH1 0x40 MLOAD PUSH4 0x5274AFE7 PUSH1 0xE0 SHL DUP2 MSTORE PUSH1 0x1 PUSH1 0x1 PUSH1 0xA0 SHL SUB DUP6 AND PUSH1 0x4 DUP3 ADD MSTORE PUSH1 0x24 ADD PUSH2 0x426 JUMP JUMPDEST PUSH0 DUP1 MLOAD PUSH1 0x20 PUSH2 0x1122 DUP4 CODECOPY DUP2 MLOAD SWAP2 MSTORE SLOAD PUSH1 0x2 SUB PUSH2 0x3F8 JUMPI PUSH1 0x40 MLOAD PUSH4 0x3EE5AEB5 PUSH1 0xE0 SHL DUP2 MSTORE PUSH1 0x4 ADD PUSH1 0x40 MLOAD DUP1 SWAP2 SUB SWAP1 REVERT JUMPDEST PUSH1 0x40 MLOAD PUSH4 0x23B872DD PUSH1 0xE0 SHL PUSH0 DUP2 DUP2 MSTORE PUSH1 0x1 PUSH1 0x1 PUSH1 0xA0 SHL SUB DUP8 DUP2 AND PUSH1 0x4 MSTORE DUP7 AND PUSH1 0x24 MSTORE PUSH1 0x44 DUP6 SWAP1 MSTORE SWAP2 PUSH1 0x20 DUP4 PUSH1 0x64 DUP2 DUP1 DUP13 GAS CALL SWAP3 POP PUSH1 0x1 PUSH0 MLOAD EQ DUP4 AND PUSH2 0xF5E JUMPI DUP4 DUP4 ISZERO AND ISZERO PUSH2 0xF52 JUMPI RETURNDATASIZE PUSH0 DUP3 RETURNDATACOPY RETURNDATASIZE DUP2 REVERT JUMPDEST PUSH0 DUP9 EXTCODESIZE GT RETURNDATASIZE ISZERO AND DUP4 AND SWAP3 POP JUMPDEST PUSH1 0x40 MSTORE POP PUSH0 PUSH1 0x60 MSTORE SWAP6 SWAP5 POP POP POP POP POP JUMP JUMPDEST PUSH1 0x1 PUSH1 0x1 PUSH1 0xA0 SHL SUB DUP2 AND DUP2 EQ PUSH2 0xDB0 JUMPI PUSH0 DUP1 REVERT JUMPDEST PUSH0 PUSH1 0x20 DUP3 DUP5 SUB SLT ISZERO PUSH2 0xF93 JUMPI PUSH0 DUP1 REVERT JUMPDEST DUP2 CALLDATALOAD PUSH2 0xA1A DUP2 PUSH2 0xF6F JUMP JUMPDEST DUP1 CALLDATALOAD PUSH1 0xFF DUP2 AND DUP2 EQ PUSH2 0xFAE JUMPI PUSH0 DUP1 REVERT JUMPDEST SWAP2 SWAP1 POP JUMP JUMPDEST PUSH0 PUSH1 0x20 DUP3 DUP5 SUB SLT ISZERO PUSH2 0xFC3 JUMPI PUSH0 DUP1 REVERT JUMPDEST PUSH2 0xA1A DUP3 PUSH2 0xF9E JUMP JUMPDEST PUSH0 DUP1 PUSH1 0x40 DUP4 DUP6 SUB SLT ISZERO PUSH2 0xFDD JUMPI PUSH0 DUP1 REVERT JUMPDEST DUP3 CALLDATALOAD SWAP2 POP PUSH1 0x20 DUP4 ADD CALLDATALOAD PUSH2 0xFEF DUP2 PUSH2 0xF6F JUMP JUMPDEST DUP1 SWAP2 POP POP SWAP3 POP SWAP3 SWAP1 POP JUMP JUMPDEST PUSH0 PUSH1 0x20 DUP3 DUP5 SUB SLT ISZERO PUSH2 0x100A JUMPI PUSH0 DUP1 REVERT JUMPDEST POP CALLDATALOAD SWAP2 SWAP1 POP JUMP JUMPDEST PUSH0 DUP1 PUSH0 DUP1 PUSH1 0x80 DUP6 DUP8 SUB SLT ISZERO PUSH2 0x1024 JUMPI PUSH0 DUP1 REVERT JUMPDEST DUP5 CALLDATALOAD PUSH2 0x102F DUP2 PUSH2 0xF6F JUMP JUMPDEST SWAP4 POP PUSH1 0x20 DUP6 ADD CALLDATALOAD SWAP3 POP PUSH2 0x1044 PUSH1 0x40 DUP7 ADD PUSH2 0xF9E JUMP JUMPDEST SWAP4 SWAP7 SWAP3 SWAP6 POP SWAP3 SWAP4 PUSH1 0x60 ADD CALLDATALOAD SWAP3 POP POP JUMP JUMPDEST PUSH0 DUP1 PUSH1 0x40 DUP4 DUP6 SUB SLT ISZERO PUSH2 0x1065 JUMPI PUSH0 DUP1 REVERT JUMPDEST DUP3 CALLDATALOAD PUSH2 0x1070 DUP2 PUSH2 0xF6F JUMP JUMPDEST SWAP2 POP PUSH2 0x107E PUSH1 0x20 DUP5 ADD PUSH2 0xF9E JUMP JUMPDEST SWAP1 POP SWAP3 POP SWAP3 SWAP1 POP JUMP JUMPDEST PUSH0 PUSH1 0x20 DUP3 DUP5 SUB SLT ISZERO PUSH2 0x1097 JUMPI PUSH0 DUP1 REVERT JUMPDEST POP MLOAD SWAP2 SWAP1 POP JUMP JUMPDEST PUSH1 0x20 DUP1 DUP3 MSTORE PUSH1 0x10 SWAP1 DUP3 ADD MSTORE PUSH16 0x13DB9B1E4814DD1C99585B55985D5B1D PUSH1 0x82 SHL PUSH1 0x40 DUP3 ADD MSTORE PUSH1 0x60 ADD SWAP1 JUMP JUMPDEST DUP2 DUP2 SUB DUP2 DUP2 GT ISZERO PUSH2 0x3E1 JUMPI PUSH4 0x4E487B71 PUSH1 0xE0 SHL PUSH0 MSTORE PUSH1 0x11 PUSH1 0x4 MSTORE PUSH1 0x24 PUSH0 REVERT JUMPDEST PUSH0 PUSH1 0x20 DUP3 DUP5 SUB SLT ISZERO PUSH2 0x10F7 JUMPI PUSH0 DUP1 REVERT JUMPDEST DUP2 MLOAD PUSH2 0xA1A DUP2 PUSH2 0xF6F JUMP JUMPDEST PUSH0 PUSH1 0x20 DUP3 DUP5 SUB SLT ISZERO PUSH2 0x1112 JUMPI PUSH0 DUP1 REVERT JUMPDEST DUP2 MLOAD DUP1 ISZERO ISZERO DUP2 EQ PUSH2 0xA1A JUMPI PUSH0 DUP1 REVERT INVALID SWAP12 PUSH24 0x9B17422D0DF92223018B32B4D1FA46E071723D6817E2486D STOP EXTCODESIZE 0xEC 0xC5 PUSH0 STOP LOG2 PUSH5 0x6970667358 0x22 SLT KECCAK256 SUB 0xE0 0x2B SWAP15 0x1F SWAP9 0xBD SSTORE 0xC2 CALLDATASIZE 0xC5 DUP15 0x2E SWAP3 STATICCALL CALLDATASIZE ISZERO 0xAA EXTCODESIZE SAR SWAP14 0xD POP 0xE6 SWAP7 0x2C 0xC8 0x4E MOD SHR 0xB4 MSTORE8 PUSH5 0x736F6C6343 STOP ADDMOD XOR STOP CALLER PUSH1 0xE0 PUSH1 0x40 MSTORE CALLVALUE DUP1 ISZERO PUSH3 0x10 JUMPI PUSH0 DUP1 REVERT JUMPDEST POP PUSH1 0x40 MLOAD PUSH3 0x1BC5 CODESIZE SUB DUP1 PUSH3 0x1BC5 DUP4 CODECOPY DUP2 ADD PUSH1 0x40 DUP2 SWAP1 MSTORE PUSH3 0x33 SWAP2 PUSH3 0x2D5 JUMP JUMPDEST CALLER DUP6 DUP6 DUP6 PUSH1 0x3 PUSH3 0x45 DUP4 DUP3 PUSH3 0x413 JUMP JUMPDEST POP PUSH1 0x4 PUSH3 0x54 DUP3 DUP3 PUSH3 0x413 JUMP JUMPDEST POP POP POP PUSH0 DUP1 PUSH3 0x6A DUP4 PUSH3 0x109 PUSH1 0x20 SHL PUSH1 0x20 SHR JUMP JUMPDEST SWAP2 POP SWAP2 POP DUP2 PUSH3 0x7C JUMPI PUSH1 0x12 PUSH3 0x7E JUMP JUMPDEST DUP1 JUMPDEST PUSH1 0xFF AND PUSH1 0xA0 MSTORE POP POP PUSH1 0x1 PUSH1 0x1 PUSH1 0xA0 SHL SUB SWAP1 DUP2 AND PUSH1 0x80 MSTORE DUP2 AND PUSH3 0xBA JUMPI PUSH1 0x40 MLOAD PUSH4 0x1E4FBDF7 PUSH1 0xE0 SHL DUP2 MSTORE PUSH0 PUSH1 0x4 DUP3 ADD MSTORE PUSH1 0x24 ADD PUSH1 0x40 MLOAD DUP1 SWAP2 SUB SWAP1 REVERT JUMPDEST PUSH3 0xC5 DUP2 PUSH3 0x1A2 JUMP JUMPDEST POP PUSH1 0x1 PUSH32 0x9B779B17422D0DF92223018B32B4D1FA46E071723D6817E2486D003BECC55F00 SSTORE PUSH1 0xC0 DUP3 SWAP1 MSTORE PUSH1 0x6 PUSH3 0xFD DUP3 DUP3 PUSH3 0x413 JUMP JUMPDEST POP POP POP POP POP POP PUSH3 0x4DF JUMP JUMPDEST PUSH0 DUP1 DUP1 PUSH3 0x116 PUSH1 0x40 MLOAD SWAP1 JUMP JUMPDEST PUSH1 0x40 DUP1 MLOAD PUSH1 0x4 DUP2 MSTORE PUSH1 0x24 DUP2 ADD SWAP1 SWAP2 MSTORE PUSH1 0x20 DUP2 ADD DUP1 MLOAD PUSH1 0x1 PUSH1 0x1 PUSH1 0xE0 SHL SUB SWAP1 DUP2 AND PUSH4 0x313CE567 PUSH1 0xE0 SHL OR SWAP1 SWAP2 MSTORE SWAP2 SWAP3 POP PUSH0 SWAP2 DUP3 SWAP2 PUSH3 0x158 SWAP2 DUP9 SWAP2 SWAP1 PUSH3 0x1F3 AND JUMP JUMPDEST POP SWAP1 SWAP3 POP SWAP1 POP PUSH3 0x168 DUP4 PUSH1 0x40 MSTORE JUMP JUMPDEST DUP2 DUP1 ISZERO PUSH3 0x177 JUMPI POP PUSH1 0x20 RETURNDATASIZE LT ISZERO JUMPDEST DUP1 ISZERO PUSH3 0x185 JUMPI POP PUSH1 0xFF DUP2 GT ISZERO JUMPDEST PUSH3 0x192 JUMPI PUSH0 DUP1 PUSH3 0x196 JUMP JUMPDEST PUSH1 0x1 DUP2 JUMPDEST SWAP5 POP SWAP5 POP POP POP POP SWAP2 POP SWAP2 JUMP JUMPDEST PUSH1 0x5 DUP1 SLOAD PUSH1 0x1 PUSH1 0x1 PUSH1 0xA0 SHL SUB DUP4 DUP2 AND PUSH1 0x1 PUSH1 0x1 PUSH1 0xA0 SHL SUB NOT DUP4 AND DUP2 OR SWAP1 SWAP4 SSTORE PUSH1 0x40 MLOAD SWAP2 AND SWAP2 SWAP1 DUP3 SWAP1 PUSH32 0x8BE0079C531659141344CD1FD0A4F28419497F9722A3DAAFE3B4186F6B6457E0 SWAP1 PUSH0 SWAP1 LOG3 POP POP JUMP JUMPDEST PUSH0 DUP1 PUSH0 PUSH1 0x40 PUSH0 DUP6 MLOAD PUSH1 0x20 DUP8 ADD DUP9 GAS STATICCALL SWAP3 POP PUSH0 MLOAD SWAP2 POP PUSH1 0x20 MLOAD SWAP1 POP SWAP3 POP SWAP3 POP SWAP3 JUMP JUMPDEST PUSH4 0x4E487B71 PUSH1 0xE0 SHL PUSH0 MSTORE PUSH1 0x41 PUSH1 0x4 MSTORE PUSH1 0x24 PUSH0 REVERT JUMPDEST PUSH0 DUP3 PUSH1 0x1F DUP4 ADD SLT PUSH3 0x238 JUMPI PUSH0 DUP1 REVERT JUMPDEST DUP2 MLOAD PUSH1 0x1 PUSH1 0x1 PUSH1 0x40 SHL SUB DUP1 DUP3 GT ISZERO PUSH3 0x255 JUMPI PUSH3 0x255 PUSH3 0x214 JUMP JUMPDEST PUSH1 0x40 MLOAD PUSH1 0x1F DUP4 ADD PUSH1 0x1F NOT SWAP1 DUP2 AND PUSH1 0x3F ADD AND DUP2 ADD SWAP1 DUP3 DUP3 GT DUP2 DUP4 LT OR ISZERO PUSH3 0x280 JUMPI PUSH3 0x280 PUSH3 0x214 JUMP JUMPDEST DUP2 PUSH1 0x40 MSTORE DUP4 DUP2 MSTORE PUSH1 0x20 SWAP3 POP DUP7 PUSH1 0x20 DUP6 DUP9 ADD ADD GT ISZERO PUSH3 0x29D JUMPI PUSH0 DUP1 REVERT JUMPDEST PUSH0 SWAP2 POP JUMPDEST DUP4 DUP3 LT ISZERO PUSH3 0x2C0 JUMPI DUP6 DUP3 ADD DUP4 ADD MLOAD DUP2 DUP4 ADD DUP5 ADD MSTORE SWAP1 DUP3 ADD SWAP1 PUSH3 0x2A1 JUMP JUMPDEST PUSH0 PUSH1 0x20 DUP6 DUP4 ADD ADD MSTORE DUP1 SWAP5 POP POP POP POP POP SWAP3 SWAP2 POP POP JUMP JUMPDEST PUSH0 DUP1 PUSH0 DUP1 PUSH0 PUSH1 0xA0 DUP7 DUP9 SUB SLT ISZERO PUSH3 0x2EA JUMPI PUSH0 DUP1 REVERT JUMPDEST DUP6 MLOAD PUSH1 0x1 PUSH1 0x1 PUSH1 0xA0 SHL SUB DUP2 AND DUP2 EQ PUSH3 0x301 JUMPI PUSH0 DUP1 REVERT JUMPDEST PUSH1 0x20 DUP8 ADD MLOAD SWAP1 SWAP6 POP PUSH1 0x1 PUSH1 0x1 PUSH1 0x40 SHL SUB DUP1 DUP3 GT ISZERO PUSH3 0x31E JUMPI PUSH0 DUP1 REVERT JUMPDEST PUSH3 0x32C DUP10 DUP4 DUP11 ADD PUSH3 0x228 JUMP JUMPDEST SWAP6 POP PUSH1 0x40 DUP9 ADD MLOAD SWAP2 POP DUP1 DUP3 GT ISZERO PUSH3 0x342 JUMPI PUSH0 DUP1 REVERT JUMPDEST PUSH3 0x350 DUP10 DUP4 DUP11 ADD PUSH3 0x228 JUMP JUMPDEST SWAP5 POP PUSH1 0x60 DUP9 ADD MLOAD SWAP4 POP PUSH1 0x80 DUP9 ADD MLOAD SWAP2 POP DUP1 DUP3 GT ISZERO PUSH3 0x36D JUMPI PUSH0 DUP1 REVERT JUMPDEST POP PUSH3 0x37C DUP9 DUP3 DUP10 ADD PUSH3 0x228 JUMP JUMPDEST SWAP2 POP POP SWAP3 SWAP6 POP SWAP3 SWAP6 SWAP1 SWAP4 POP JUMP JUMPDEST PUSH1 0x1 DUP2 DUP2 SHR SWAP1 DUP3 AND DUP1 PUSH3 0x39E JUMPI PUSH1 0x7F DUP3 AND SWAP2 POP JUMPDEST PUSH1 0x20 DUP3 LT DUP2 SUB PUSH3 0x3BD JUMPI PUSH4 0x4E487B71 PUSH1 0xE0 SHL PUSH0 MSTORE PUSH1 0x22 PUSH1 0x4 MSTORE PUSH1 0x24 PUSH0 REVERT JUMPDEST POP SWAP2 SWAP1 POP JUMP JUMPDEST PUSH1 0x1F DUP3 GT ISZERO PUSH3 0x40E JUMPI DUP1 PUSH0 MSTORE PUSH1 0x20 PUSH0 KECCAK256 PUSH1 0x1F DUP5 ADD PUSH1 0x5 SHR DUP2 ADD PUSH1 0x20 DUP6 LT ISZERO PUSH3 0x3EA JUMPI POP DUP1 JUMPDEST PUSH1 0x1F DUP5 ADD PUSH1 0x5 SHR DUP3 ADD SWAP2 POP JUMPDEST DUP2 DUP2 LT ISZERO PUSH3 0x40B JUMPI PUSH0 DUP2 SSTORE PUSH1 0x1 ADD PUSH3 0x3F6 JUMP JUMPDEST POP POP JUMPDEST POP POP POP JUMP JUMPDEST DUP2 MLOAD PUSH1 0x1 PUSH1 0x1 PUSH1 0x40 SHL SUB DUP2 GT ISZERO PUSH3 0x42F JUMPI PUSH3 0x42F PUSH3 0x214 JUMP JUMPDEST PUSH3 0x447 DUP2 PUSH3 0x440 DUP5 SLOAD PUSH3 0x389 JUMP JUMPDEST DUP5 PUSH3 0x3C3 JUMP JUMPDEST PUSH1 0x20 DUP1 PUSH1 0x1F DUP4 GT PUSH1 0x1 DUP2 EQ PUSH3 0x47D JUMPI PUSH0 DUP5 ISZERO PUSH3 0x465 JUMPI POP DUP6 DUP4 ADD MLOAD JUMPDEST PUSH0 NOT PUSH1 0x3 DUP7 SWAP1 SHL SHR NOT AND PUSH1 0x1 DUP6 SWAP1 SHL OR DUP6 SSTORE PUSH3 0x4D7 JUMP JUMPDEST PUSH0 DUP6 DUP2 MSTORE PUSH1 0x20 DUP2 KECCAK256 PUSH1 0x1F NOT DUP7 AND SWAP2 JUMPDEST DUP3 DUP2 LT ISZERO PUSH3 0x4AD JUMPI DUP9 DUP7 ADD MLOAD DUP3 SSTORE SWAP5 DUP5 ADD SWAP5 PUSH1 0x1 SWAP1 SWAP2 ADD SWAP1 DUP5 ADD PUSH3 0x48C JUMP JUMPDEST POP DUP6 DUP3 LT ISZERO PUSH3 0x4CB JUMPI DUP8 DUP6 ADD MLOAD PUSH0 NOT PUSH1 0x3 DUP9 SWAP1 SHL PUSH1 0xF8 AND SHR NOT AND DUP2 SSTORE JUMPDEST POP POP PUSH1 0x1 DUP5 PUSH1 0x1 SHL ADD DUP6 SSTORE JUMPDEST POP POP POP POP POP POP JUMP JUMPDEST PUSH1 0x80 MLOAD PUSH1 0xA0 MLOAD PUSH1 0xC0 MLOAD PUSH2 0x1691 PUSH3 0x534 PUSH0 CODECOPY PUSH0 DUP2 DUP2 PUSH2 0x287 ADD MSTORE DUP2 DUP2 PUSH2 0x365 ADD MSTORE DUP2 DUP2 PUSH2 0x59D ADD MSTORE PUSH2 0x71A ADD MSTORE PUSH0 PUSH2 0x6DA ADD MSTORE PUSH0 DUP2 DUP2 PUSH2 0x2F5 ADD MSTORE DUP2 DUP2 PUSH2 0x4E8 ADD MSTORE DUP2 DUP2 PUSH2 0xED4 ADD MSTORE PUSH2 0x111D ADD MSTORE PUSH2 0x1691 PUSH0 RETURN INVALID PUSH1 0x80 PUSH1 0x40 MSTORE CALLVALUE DUP1 ISZERO PUSH2 0xF JUMPI PUSH0 DUP1 REVERT JUMPDEST POP PUSH1 0x4 CALLDATASIZE LT PUSH2 0x208 JUMPI PUSH0 CALLDATALOAD PUSH1 0xE0 SHR DUP1 PUSH4 0x70A08231 GT PUSH2 0x11F JUMPI DUP1 PUSH4 0xC63D75B6 GT PUSH2 0xA9 JUMPI DUP1 PUSH4 0xDD62ED3E GT PUSH2 0x79 JUMPI DUP1 PUSH4 0xDD62ED3E EQ PUSH2 0x485 JUMPI DUP1 PUSH4 0xE1A45218 EQ PUSH2 0x4BD JUMPI DUP1 PUSH4 0xE6A69AB8 EQ PUSH2 0x4C6 JUMPI DUP1 PUSH4 0xEF8B30F7 EQ PUSH2 0x44C JUMPI DUP1 PUSH4 0xF2FDE38B EQ PUSH2 0x4D1 JUMPI PUSH0 DUP1 REVERT JUMPDEST DUP1 PUSH4 0xC63D75B6 EQ PUSH2 0x32D JUMPI DUP1 PUSH4 0xC6E6F592 EQ PUSH2 0x44C JUMPI DUP1 PUSH4 0xCE96CB77 EQ PUSH2 0x45F JUMPI DUP1 PUSH4 0xD905777E EQ PUSH2 0x472 JUMPI PUSH0 DUP1 REVERT JUMPDEST DUP1 PUSH4 0x95D89B41 GT PUSH2 0xEF JUMPI DUP1 PUSH4 0x95D89B41 EQ PUSH2 0x3F8 JUMPI DUP1 PUSH4 0xA9059CBB EQ PUSH2 0x400 JUMPI DUP1 PUSH4 0xB3D7F6B9 EQ PUSH2 0x413 JUMPI DUP1 PUSH4 0xB460AF94 EQ PUSH2 0x426 JUMPI DUP1 PUSH4 0xBA087652 EQ PUSH2 0x439 JUMPI PUSH0 DUP1 REVERT JUMPDEST DUP1 PUSH4 0x70A08231 EQ PUSH2 0x3A2 JUMPI DUP1 PUSH4 0x715018A6 EQ PUSH2 0x3CA JUMPI DUP1 PUSH4 0x8DA5CB5B EQ PUSH2 0x3D4 JUMPI DUP1 PUSH4 0x94BF804D EQ PUSH2 0x3E5 JUMPI PUSH0 DUP1 REVERT JUMPDEST DUP1 PUSH4 0x313CE567 GT PUSH2 0x1A0 JUMPI DUP1 PUSH4 0x46B00D04 GT PUSH2 0x170 JUMPI DUP1 PUSH4 0x46B00D04 EQ PUSH2 0x341 JUMPI DUP1 PUSH4 0x4CDAD506 EQ PUSH2 0x23C JUMPI DUP1 PUSH4 0x51618ED3 EQ PUSH2 0x360 JUMPI DUP1 PUSH4 0x5A7EDC9D EQ PUSH2 0x387 JUMPI DUP1 PUSH4 0x6E553F65 EQ PUSH2 0x38F JUMPI PUSH0 DUP1 REVERT JUMPDEST DUP1 PUSH4 0x313CE567 EQ PUSH2 0x2C6 JUMPI DUP1 PUSH4 0x378E7B7B EQ PUSH2 0x2E0 JUMPI DUP1 PUSH4 0x38D52E0F EQ PUSH2 0x2F3 JUMPI DUP1 PUSH4 0x402D267D EQ PUSH2 0x32D JUMPI PUSH0 DUP1 REVERT JUMPDEST DUP1 PUSH4 0xA28A477 GT PUSH2 0x1DB JUMPI DUP1 PUSH4 0xA28A477 EQ PUSH2 0x272 JUMPI DUP1 PUSH4 0xF10FA9D EQ PUSH2 0x285 JUMPI DUP1 PUSH4 0x18160DDD EQ PUSH2 0x2AB JUMPI DUP1 PUSH4 0x23B872DD EQ PUSH2 0x2B3 JUMPI PUSH0 DUP1 REVERT JUMPDEST DUP1 PUSH4 0x1E1D114 EQ PUSH2 0x20C JUMPI DUP1 PUSH4 0x6FDDE03 EQ PUSH2 0x227 JUMPI DUP1 PUSH4 0x7A2D13A EQ PUSH2 0x23C JUMPI DUP1 PUSH4 0x95EA7B3 EQ PUSH2 0x24F JUMPI JUMPDEST PUSH0 DUP1 REVERT JUMPDEST PUSH2 0x214 PUSH2 0x4E4 JUMP JUMPDEST PUSH1 0x40 MLOAD SWAP1 DUP2 MSTORE PUSH1 0x20 ADD JUMPDEST PUSH1 0x40 MLOAD DUP1 SWAP2 SUB SWAP1 RETURN JUMPDEST PUSH2 0x22F PUSH2 0x5EA JUMP JUMPDEST PUSH1 0x40 MLOAD PUSH2 0x21E SWAP2 SWAP1 PUSH2 0x1274 JUMP JUMPDEST PUSH2 0x214 PUSH2 0x24A CALLDATASIZE PUSH1 0x4 PUSH2 0x12C0 JUMP JUMPDEST PUSH2 0x67A JUMP JUMPDEST PUSH2 0x262 PUSH2 0x25D CALLDATASIZE PUSH1 0x4 PUSH2 0x12F2 JUMP JUMPDEST PUSH2 0x68B JUMP JUMPDEST PUSH1 0x40 MLOAD SWAP1 ISZERO ISZERO DUP2 MSTORE PUSH1 0x20 ADD PUSH2 0x21E JUMP JUMPDEST PUSH2 0x214 PUSH2 0x280 CALLDATASIZE PUSH1 0x4 PUSH2 0x12C0 JUMP JUMPDEST PUSH2 0x6A2 JUMP JUMPDEST PUSH32 0x0 PUSH2 0x214 JUMP JUMPDEST PUSH1 0x2 SLOAD PUSH2 0x214 JUMP JUMPDEST PUSH2 0x262 PUSH2 0x2C1 CALLDATASIZE PUSH1 0x4 PUSH2 0x131A JUMP JUMPDEST PUSH2 0x6AE JUMP JUMPDEST PUSH2 0x2CE PUSH2 0x6D3 JUMP JUMPDEST PUSH1 0x40 MLOAD PUSH1 0xFF SWAP1 SWAP2 AND DUP2 MSTORE PUSH1 0x20 ADD PUSH2 0x21E JUMP JUMPDEST PUSH2 0x214 PUSH2 0x2EE CALLDATASIZE PUSH1 0x4 PUSH2 0x1353 JUMP JUMPDEST PUSH2 0x703 JUMP JUMPDEST PUSH32 0x0 JUMPDEST PUSH1 0x40 MLOAD PUSH1 0x1 PUSH1 0x1 PUSH1 0xA0 SHL SUB SWAP1 SWAP2 AND DUP2 MSTORE PUSH1 0x20 ADD PUSH2 0x21E JUMP JUMPDEST PUSH2 0x214 PUSH2 0x33B CALLDATASIZE PUSH1 0x4 PUSH2 0x1373 JUMP JUMPDEST POP PUSH0 NOT SWAP1 JUMP JUMPDEST PUSH2 0x214 PUSH2 0x34F CALLDATASIZE PUSH1 0x4 PUSH2 0x1373 JUMP JUMPDEST PUSH1 0x7 PUSH1 0x20 MSTORE PUSH0 SWAP1 DUP2 MSTORE PUSH1 0x40 SWAP1 KECCAK256 SLOAD DUP2 JUMP JUMPDEST PUSH2 0x214 PUSH32 0x0 DUP2 JUMP JUMPDEST PUSH2 0x22F PUSH2 0x753 JUMP JUMPDEST PUSH2 0x214 PUSH2 0x39D CALLDATASIZE PUSH1 0x4 PUSH2 0x138C JUMP JUMPDEST PUSH2 0x7DF JUMP JUMPDEST PUSH2 0x214 PUSH2 0x3B0 CALLDATASIZE PUSH1 0x4 PUSH2 0x1373 JUMP JUMPDEST PUSH1 0x1 PUSH1 0x1 PUSH1 0xA0 SHL SUB AND PUSH0 SWAP1 DUP2 MSTORE PUSH1 0x20 DUP2 SWAP1 MSTORE PUSH1 0x40 SWAP1 KECCAK256 SLOAD SWAP1 JUMP JUMPDEST PUSH2 0x3D2 PUSH2 0x851 JUMP JUMPDEST STOP JUMPDEST PUSH1 0x5 SLOAD PUSH1 0x1 PUSH1 0x1 PUSH1 0xA0 SHL SUB AND PUSH2 0x315 JUMP JUMPDEST PUSH2 0x214 PUSH2 0x3F3 CALLDATASIZE PUSH1 0x4 PUSH2 0x138C JUMP JUMPDEST PUSH2 0x864 JUMP JUMPDEST PUSH2 0x22F PUSH2 0x895 JUMP JUMPDEST PUSH2 0x262 PUSH2 0x40E CALLDATASIZE PUSH1 0x4 PUSH2 0x12F2 JUMP JUMPDEST PUSH2 0x8A4 JUMP JUMPDEST PUSH2 0x214 PUSH2 0x421 CALLDATASIZE PUSH1 0x4 PUSH2 0x12C0 JUMP JUMPDEST PUSH2 0x8B1 JUMP JUMPDEST PUSH2 0x214 PUSH2 0x434 CALLDATASIZE PUSH1 0x4 PUSH2 0x13B6 JUMP JUMPDEST PUSH2 0x8BD JUMP JUMPDEST PUSH2 0x214 PUSH2 0x447 CALLDATASIZE PUSH1 0x4 PUSH2 0x13B6 JUMP JUMPDEST PUSH2 0x8E9 JUMP JUMPDEST PUSH2 0x214 PUSH2 0x45A CALLDATASIZE PUSH1 0x4 PUSH2 0x12C0 JUMP JUMPDEST PUSH2 0x8FD JUMP JUMPDEST PUSH2 0x214 PUSH2 0x46D CALLDATASIZE PUSH1 0x4 PUSH2 0x1373 JUMP JUMPDEST PUSH2 0x908 JUMP JUMPDEST PUSH2 0x214 PUSH2 0x480 CALLDATASIZE PUSH1 0x4 PUSH2 0x1373 JUMP JUMPDEST PUSH2 0x911 JUMP JUMPDEST PUSH2 0x214 PUSH2 0x493 CALLDATASIZE PUSH1 0x4 PUSH2 0x13EF JUMP JUMPDEST PUSH1 0x1 PUSH1 0x1 PUSH1 0xA0 SHL SUB SWAP2 DUP3 AND PUSH0 SWAP1 DUP2 MSTORE PUSH1 0x1 PUSH1 0x20 SWAP1 DUP2 MSTORE PUSH1 0x40 DUP1 DUP4 KECCAK256 SWAP4 SWAP1 SWAP5 AND DUP3 MSTORE SWAP2 SWAP1 SWAP2 MSTORE KECCAK256 SLOAD SWAP1 JUMP JUMPDEST PUSH2 0x214 PUSH2 0x2710 DUP2 JUMP JUMPDEST PUSH2 0x214 PUSH4 0x1E13380 DUP2 JUMP JUMPDEST PUSH2 0x3D2 PUSH2 0x4DF CALLDATASIZE PUSH1 0x4 PUSH2 0x1373 JUMP JUMPDEST PUSH2 0x92E JUMP JUMPDEST PUSH0 DUP1 PUSH32 0x0 PUSH1 0x40 MLOAD PUSH4 0x70A08231 PUSH1 0xE0 SHL DUP2 MSTORE ADDRESS PUSH1 0x4 DUP3 ADD MSTORE PUSH1 0x1 PUSH1 0x1 PUSH1 0xA0 SHL SUB SWAP2 SWAP1 SWAP2 AND SWAP1 PUSH4 0x70A08231 SWAP1 PUSH1 0x24 ADD PUSH1 0x20 PUSH1 0x40 MLOAD DUP1 DUP4 SUB DUP2 DUP7 GAS STATICCALL ISZERO DUP1 ISZERO PUSH2 0x54B JUMPI RETURNDATASIZE PUSH0 DUP1 RETURNDATACOPY RETURNDATASIZE PUSH0 REVERT JUMPDEST POP POP POP POP PUSH1 0x40 MLOAD RETURNDATASIZE PUSH1 0x1F NOT PUSH1 0x1F DUP3 ADD AND DUP3 ADD DUP1 PUSH1 0x40 MSTORE POP DUP2 ADD SWAP1 PUSH2 0x56F SWAP2 SWAP1 PUSH2 0x1417 JUMP JUMPDEST SWAP1 POP PUSH0 PUSH2 0x57A PUSH2 0x96B JUMP JUMPDEST PUSH2 0x584 SWAP1 TIMESTAMP PUSH2 0x1442 JUMP JUMPDEST SWAP1 POP PUSH0 PUSH2 0x597 PUSH4 0x1E13380 PUSH2 0x2710 PUSH2 0x1455 JUMP JUMPDEST DUP3 PUSH2 0x5C2 PUSH32 0x0 DUP7 PUSH2 0x1455 JUMP JUMPDEST PUSH2 0x5CC SWAP2 SWAP1 PUSH2 0x1455 JUMP JUMPDEST PUSH2 0x5D6 SWAP2 SWAP1 PUSH2 0x1480 JUMP JUMPDEST SWAP1 POP PUSH2 0x5E2 DUP2 DUP5 PUSH2 0x1493 JUMP JUMPDEST SWAP4 POP POP POP POP SWAP1 JUMP JUMPDEST PUSH1 0x60 PUSH1 0x3 DUP1 SLOAD PUSH2 0x5F9 SWAP1 PUSH2 0x14A6 JUMP JUMPDEST DUP1 PUSH1 0x1F ADD PUSH1 0x20 DUP1 SWAP2 DIV MUL PUSH1 0x20 ADD PUSH1 0x40 MLOAD SWAP1 DUP2 ADD PUSH1 0x40 MSTORE DUP1 SWAP3 SWAP2 SWAP1 DUP2 DUP2 MSTORE PUSH1 0x20 ADD DUP3 DUP1 SLOAD PUSH2 0x625 SWAP1 PUSH2 0x14A6 JUMP JUMPDEST DUP1 ISZERO PUSH2 0x670 JUMPI DUP1 PUSH1 0x1F LT PUSH2 0x647 JUMPI PUSH2 0x100 DUP1 DUP4 SLOAD DIV MUL DUP4 MSTORE SWAP2 PUSH1 0x20 ADD SWAP2 PUSH2 0x670 JUMP JUMPDEST DUP3 ADD SWAP2 SWAP1 PUSH0 MSTORE PUSH1 0x20 PUSH0 KECCAK256 SWAP1 JUMPDEST DUP2 SLOAD DUP2 MSTORE SWAP1 PUSH1 0x1 ADD SWAP1 PUSH1 0x20 ADD DUP1 DUP4 GT PUSH2 0x653 JUMPI DUP3 SWAP1 SUB PUSH1 0x1F AND DUP3 ADD SWAP2 JUMPDEST POP POP POP POP POP SWAP1 POP SWAP1 JUMP JUMPDEST PUSH0 PUSH2 0x685 DUP3 PUSH0 PUSH2 0x981 JUMP JUMPDEST SWAP3 SWAP2 POP POP JUMP JUMPDEST PUSH0 CALLER PUSH2 0x698 DUP2 DUP6 DUP6 PUSH2 0x9B9 JUMP JUMPDEST POP PUSH1 0x1 SWAP4 SWAP3 POP POP POP JUMP JUMPDEST PUSH0 PUSH2 0x685 DUP3 PUSH1 0x1 PUSH2 0x9CB JUMP JUMPDEST PUSH0 CALLER PUSH2 0x6BB DUP6 DUP3 DUP6 PUSH2 0x9FA JUMP JUMPDEST PUSH2 0x6C6 DUP6 DUP6 DUP6 PUSH2 0xA63 JUMP JUMPDEST PUSH1 0x1 SWAP2 POP POP JUMPDEST SWAP4 SWAP3 POP POP POP JUMP JUMPDEST PUSH0 PUSH2 0x6FE DUP2 PUSH32 0x0 PUSH2 0x14DE JUMP JUMPDEST SWAP1 POP SWAP1 JUMP JUMPDEST PUSH0 PUSH2 0x714 PUSH4 0x1E13380 PUSH2 0x2710 PUSH2 0x1455 JUMP JUMPDEST DUP3 PUSH2 0x73F PUSH32 0x0 DUP7 PUSH2 0x1455 JUMP JUMPDEST PUSH2 0x749 SWAP2 SWAP1 PUSH2 0x1455 JUMP JUMPDEST PUSH2 0x6CC SWAP2 SWAP1 PUSH2 0x1480 JUMP JUMPDEST PUSH1 0x6 DUP1 SLOAD PUSH2 0x760 SWAP1 PUSH2 0x14A6 JUMP JUMPDEST DUP1 PUSH1 0x1F ADD PUSH1 0x20 DUP1 SWAP2 DIV MUL PUSH1 0x20 ADD PUSH1 0x40 MLOAD SWAP1 DUP2 ADD PUSH1 0x40 MSTORE DUP1 SWAP3 SWAP2 SWAP1 DUP2 DUP2 MSTORE PUSH1 0x20 ADD DUP3 DUP1 SLOAD PUSH2 0x78C SWAP1 PUSH2 0x14A6 JUMP JUMPDEST DUP1 ISZERO PUSH2 0x7D7 JUMPI DUP1 PUSH1 0x1F LT PUSH2 0x7AE JUMPI PUSH2 0x100 DUP1 DUP4 SLOAD DIV MUL DUP4 MSTORE SWAP2 PUSH1 0x20 ADD SWAP2 PUSH2 0x7D7 JUMP JUMPDEST DUP3 ADD SWAP2 SWAP1 PUSH0 MSTORE PUSH1 0x20 PUSH0 KECCAK256 SWAP1 JUMPDEST DUP2 SLOAD DUP2 MSTORE SWAP1 PUSH1 0x1 ADD SWAP1 PUSH1 0x20 ADD DUP1 DUP4 GT PUSH2 0x7BA JUMPI DUP3 SWAP1 SUB PUSH1 0x1F AND DUP3 ADD SWAP2 JUMPDEST POP POP POP POP POP DUP2 JUMP JUMPDEST PUSH0 PUSH2 0x7E8 PUSH2 0xAC0 JUMP JUMPDEST PUSH1 0x8 SLOAD PUSH0 SUB PUSH2 0x7F6 JUMPI TIMESTAMP PUSH1 0x8 SSTORE JUMPDEST PUSH1 0x1 PUSH1 0x1 PUSH1 0xA0 SHL SUB DUP3 AND PUSH0 SWAP1 DUP2 MSTORE PUSH1 0x7 PUSH1 0x20 MSTORE PUSH1 0x40 DUP2 KECCAK256 SLOAD SWAP1 SUB PUSH2 0x82F JUMPI PUSH1 0x1 PUSH1 0x1 PUSH1 0xA0 SHL SUB DUP3 AND PUSH0 SWAP1 DUP2 MSTORE PUSH1 0x7 PUSH1 0x20 MSTORE PUSH1 0x40 SWAP1 KECCAK256 TIMESTAMP SWAP1 SSTORE JUMPDEST PUSH2 0x839 DUP4 DUP4 PUSH2 0xADB JUMP JUMPDEST SWAP1 POP PUSH2 0x685 PUSH1 0x1 PUSH0 DUP1 MLOAD PUSH1 0x20 PUSH2 0x163C DUP4 CODECOPY DUP2 MLOAD SWAP2 MSTORE SSTORE JUMP JUMPDEST PUSH2 0x859 PUSH2 0xAF6 JUMP JUMPDEST PUSH2 0x862 PUSH0 PUSH2 0xB23 JUMP JUMPDEST JUMP JUMPDEST PUSH0 PUSH0 NOT PUSH2 0x875 JUMP JUMPDEST PUSH1 0x40 MLOAD DUP1 SWAP2 SUB SWAP1 REVERT JUMPDEST PUSH0 PUSH2 0x87F DUP6 PUSH2 0x8B1 JUMP JUMPDEST SWAP1 POP PUSH2 0x88D CALLER DUP6 DUP4 DUP9 PUSH2 0xB74 JUMP JUMPDEST SWAP5 SWAP4 POP POP POP POP JUMP JUMPDEST PUSH1 0x60 PUSH1 0x4 DUP1 SLOAD PUSH2 0x5F9 SWAP1 PUSH2 0x14A6 JUMP JUMPDEST PUSH0 CALLER PUSH2 0x698 DUP2 DUP6 DUP6 PUSH2 0xA63 JUMP JUMPDEST PUSH0 PUSH2 0x685 DUP3 PUSH1 0x1 PUSH2 0x981 JUMP JUMPDEST PUSH0 PUSH2 0x8C6 PUSH2 0xAC0 JUMP JUMPDEST PUSH2 0x8D1 DUP5 DUP5 DUP5 PUSH2 0xBE4 JUMP JUMPDEST SWAP1 POP PUSH2 0x6CC PUSH1 0x1 PUSH0 DUP1 MLOAD PUSH1 0x20 PUSH2 0x163C DUP4 CODECOPY DUP2 MLOAD SWAP2 MSTORE SSTORE JUMP JUMPDEST PUSH0 PUSH2 0x8F2 PUSH2 0xAC0 JUMP JUMPDEST PUSH2 0x8D1 DUP5 DUP5 DUP5 PUSH2 0xC3A JUMP JUMPDEST PUSH0 PUSH2 0x685 DUP3 PUSH0 PUSH2 0x9CB JUMP JUMPDEST PUSH0 PUSH2 0x685 PUSH2 0x24A DUP4 JUMPDEST PUSH1 0x1 PUSH1 0x1 PUSH1 0xA0 SHL SUB DUP2 AND PUSH0 SWAP1 DUP2 MSTORE PUSH1 0x20 DUP2 SWAP1 MSTORE PUSH1 0x40 DUP2 KECCAK256 SLOAD PUSH2 0x685 JUMP JUMPDEST PUSH2 0x936 PUSH2 0xAF6 JUMP JUMPDEST PUSH1 0x1 PUSH1 0x1 PUSH1 0xA0 SHL SUB DUP2 AND PUSH2 0x95F JUMPI PUSH1 0x40 MLOAD PUSH4 0x1E4FBDF7 PUSH1 0xE0 SHL DUP2 MSTORE PUSH0 PUSH1 0x4 DUP3 ADD MSTORE PUSH1 0x24 ADD PUSH2 0x86C JUMP JUMPDEST PUSH2 0x968 DUP2 PUSH2 0xB23 JUMP JUMPDEST POP JUMP JUMPDEST PUSH0 PUSH1 0x8 SLOAD PUSH0 EQ PUSH2 0x97C JUMPI POP PUSH1 0x8 SLOAD SWAP1 JUMP JUMPDEST POP TIMESTAMP SWAP1 JUMP JUMPDEST PUSH0 PUSH2 0x6CC PUSH2 0x98D PUSH2 0x4E4 JUMP JUMPDEST PUSH2 0x998 SWAP1 PUSH1 0x1 PUSH2 0x1493 JUMP JUMPDEST PUSH2 0x9A3 PUSH0 PUSH1 0xA PUSH2 0x15F8 JUMP JUMPDEST PUSH1 0x2 SLOAD PUSH2 0x9B0 SWAP2 SWAP1 PUSH2 0x1493 JUMP JUMPDEST DUP6 SWAP2 SWAP1 DUP6 PUSH2 0xC87 JUMP JUMPDEST PUSH2 0x9C6 DUP4 DUP4 DUP4 PUSH1 0x1 PUSH2 0xCC9 JUMP JUMPDEST POP POP POP JUMP JUMPDEST PUSH0 PUSH2 0x6CC PUSH2 0x9DA DUP3 PUSH1 0xA PUSH2 0x15F8 JUMP JUMPDEST PUSH1 0x2 SLOAD PUSH2 0x9E7 SWAP2 SWAP1 PUSH2 0x1493 JUMP JUMPDEST PUSH2 0x9EF PUSH2 0x4E4 JUMP JUMPDEST PUSH2 0x9B0 SWAP1 PUSH1 0x1 PUSH2 0x1493 JUMP JUMPDEST PUSH1 0x1 PUSH1 0x1 PUSH1 0xA0 SHL SUB DUP4 DUP2 AND PUSH0 SWAP1 DUP2 MSTORE PUSH1 0x1 PUSH1 0x20 SWAP1 DUP2 MSTORE PUSH1 0x40 DUP1 DUP4 KECCAK256 SWAP4 DUP7 AND DUP4 MSTORE SWAP3 SWAP1 MSTORE KECCAK256 SLOAD PUSH0 NOT DUP2 LT ISZERO PUSH2 0xA5D JUMPI DUP2 DUP2 LT ISZERO PUSH2 0xA4F JUMPI DUP3 DUP2 DUP4 PUSH1 0x40 MLOAD PUSH4 0x7DC7A0D9 PUSH1 0xE1 SHL DUP2 MSTORE PUSH1 0x4 ADD PUSH2 0x86C SWAP4 SWAP3 SWAP2 SWAP1 PUSH2 0x14F7 JUMP JUMPDEST PUSH2 0xA5D DUP5 DUP5 DUP5 DUP5 SUB PUSH0 PUSH2 0xCC9 JUMP JUMPDEST POP POP POP POP JUMP JUMPDEST PUSH1 0x1 PUSH1 0x1 PUSH1 0xA0 SHL SUB DUP4 AND PUSH2 0xA8C JUMPI PUSH1 0x40 MLOAD PUSH4 0x4B637E8F PUSH1 0xE1 SHL DUP2 MSTORE PUSH0 PUSH1 0x4 DUP3 ADD MSTORE PUSH1 0x24 ADD PUSH2 0x86C JUMP JUMPDEST PUSH1 0x1 PUSH1 0x1 PUSH1 0xA0 SHL SUB DUP3 AND PUSH2 0xAB5 JUMPI PUSH1 0x40 MLOAD PUSH4 0xEC442F05 PUSH1 0xE0 SHL DUP2 MSTORE PUSH0 PUSH1 0x4 DUP3 ADD MSTORE PUSH1 0x24 ADD PUSH2 0x86C JUMP JUMPDEST PUSH2 0x9C6 DUP4 DUP4 DUP4 PUSH2 0xD8D JUMP JUMPDEST PUSH2 0xAC8 PUSH2 0xEA0 JUMP JUMPDEST PUSH1 0x2 PUSH0 DUP1 MLOAD PUSH1 0x20 PUSH2 0x163C DUP4 CODECOPY DUP2 MLOAD SWAP2 MSTORE SSTORE JUMP JUMPDEST PUSH0 PUSH0 NOT PUSH0 PUSH2 0xAE8 DUP6 PUSH2 0x8FD JUMP JUMPDEST SWAP1 POP PUSH2 0x88D CALLER DUP6 DUP8 DUP5 PUSH2 0xB74 JUMP JUMPDEST PUSH1 0x5 SLOAD PUSH1 0x1 PUSH1 0x1 PUSH1 0xA0 SHL SUB AND CALLER EQ PUSH2 0x862 JUMPI PUSH1 0x40 MLOAD PUSH4 0x118CDAA7 PUSH1 0xE0 SHL DUP2 MSTORE CALLER PUSH1 0x4 DUP3 ADD MSTORE PUSH1 0x24 ADD PUSH2 0x86C JUMP JUMPDEST PUSH1 0x5 DUP1 SLOAD PUSH1 0x1 PUSH1 0x1 PUSH1 0xA0 SHL SUB DUP4 DUP2 AND PUSH1 0x1 PUSH1 0x1 PUSH1 0xA0 SHL SUB NOT DUP4 AND DUP2 OR SWAP1 SWAP4 SSTORE PUSH1 0x40 MLOAD SWAP2 AND SWAP2 SWAP1 DUP3 SWAP1 PUSH32 0x8BE0079C531659141344CD1FD0A4F28419497F9722A3DAAFE3B4186F6B6457E0 SWAP1 PUSH0 SWAP1 LOG3 POP POP JUMP JUMPDEST PUSH2 0xB7E DUP5 DUP4 PUSH2 0xECF JUMP JUMPDEST PUSH2 0xB88 DUP4 DUP3 PUSH2 0xEFF JUMP JUMPDEST DUP3 PUSH1 0x1 PUSH1 0x1 PUSH1 0xA0 SHL SUB AND DUP5 PUSH1 0x1 PUSH1 0x1 PUSH1 0xA0 SHL SUB AND PUSH32 0xDCBC1C05240F31FF3AD067EF1EE35CE4997762752E3A095284754544F4C709D7 DUP5 DUP5 PUSH1 0x40 MLOAD PUSH2 0xBD6 SWAP3 SWAP2 SWAP1 SWAP2 DUP3 MSTORE PUSH1 0x20 DUP3 ADD MSTORE PUSH1 0x40 ADD SWAP1 JUMP JUMPDEST PUSH1 0x40 MLOAD DUP1 SWAP2 SUB SWAP1 LOG3 POP POP POP POP JUMP JUMPDEST PUSH0 DUP1 PUSH2 0xBEF DUP4 PUSH2 0x908 JUMP JUMPDEST SWAP1 POP DUP1 DUP6 GT ISZERO PUSH2 0xC18 JUMPI DUP3 DUP6 DUP3 PUSH1 0x40 MLOAD PUSH4 0x3FA733BB PUSH1 0xE2 SHL DUP2 MSTORE PUSH1 0x4 ADD PUSH2 0x86C SWAP4 SWAP3 SWAP2 SWAP1 PUSH2 0x14F7 JUMP JUMPDEST PUSH0 PUSH2 0xC22 DUP7 PUSH2 0x6A2 JUMP JUMPDEST SWAP1 POP PUSH2 0xC31 CALLER DUP7 DUP7 DUP10 DUP6 PUSH2 0xF33 JUMP JUMPDEST SWAP6 SWAP5 POP POP POP POP POP JUMP JUMPDEST PUSH0 DUP1 PUSH2 0xC45 DUP4 PUSH2 0x911 JUMP JUMPDEST SWAP1 POP DUP1 DUP6 GT ISZERO PUSH2 0xC6E JUMPI DUP3 DUP6 DUP3 PUSH1 0x40 MLOAD PUSH4 0x2E52AFBB PUSH1 0xE2 SHL DUP2 MSTORE PUSH1 0x4 ADD PUSH2 0x86C SWAP4 SWAP3 SWAP2 SWAP1 PUSH2 0x14F7 JUMP JUMPDEST PUSH0 PUSH2 0xC78 DUP7 PUSH2 0x67A JUMP JUMPDEST SWAP1 POP PUSH2 0xC31 CALLER DUP7 DUP7 DUP5 DUP11 PUSH2 0xF33 JUMP JUMPDEST PUSH0 PUSH2 0xCB4 PUSH2 0xC94 DUP4 PUSH2 0xFD2 JUMP JUMPDEST DUP1 ISZERO PUSH2 0xCAF JUMPI POP PUSH0 DUP5 DUP1 PUSH2 0xCAA JUMPI PUSH2 0xCAA PUSH2 0x146C JUMP JUMPDEST DUP7 DUP9 MULMOD GT JUMPDEST ISZERO ISZERO SWAP1 JUMP JUMPDEST PUSH2 0xCBF DUP7 DUP7 DUP7 PUSH2 0xFFE JUMP JUMPDEST PUSH2 0xC31 SWAP2 SWAP1 PUSH2 0x1493 JUMP JUMPDEST PUSH1 0x1 PUSH1 0x1 PUSH1 0xA0 SHL SUB DUP5 AND PUSH2 0xCF2 JUMPI PUSH1 0x40 MLOAD PUSH4 0xE602DF05 PUSH1 0xE0 SHL DUP2 MSTORE PUSH0 PUSH1 0x4 DUP3 ADD MSTORE PUSH1 0x24 ADD PUSH2 0x86C JUMP JUMPDEST PUSH1 0x1 PUSH1 0x1 PUSH1 0xA0 SHL SUB DUP4 AND PUSH2 0xD1B JUMPI PUSH1 0x40 MLOAD PUSH4 0x4A1406B1 PUSH1 0xE1 SHL DUP2 MSTORE PUSH0 PUSH1 0x4 DUP3 ADD MSTORE PUSH1 0x24 ADD PUSH2 0x86C JUMP JUMPDEST PUSH1 0x1 PUSH1 0x1 PUSH1 0xA0 SHL SUB DUP1 DUP6 AND PUSH0 SWAP1 DUP2 MSTORE PUSH1 0x1 PUSH1 0x20 SWAP1 DUP2 MSTORE PUSH1 0x40 DUP1 DUP4 KECCAK256 SWAP4 DUP8 AND DUP4 MSTORE SWAP3 SWAP1 MSTORE KECCAK256 DUP3 SWAP1 SSTORE DUP1 ISZERO PUSH2 0xA5D JUMPI DUP3 PUSH1 0x1 PUSH1 0x1 PUSH1 0xA0 SHL SUB AND DUP5 PUSH1 0x1 PUSH1 0x1 PUSH1 0xA0 SHL SUB AND PUSH32 0x8C5BE1E5EBEC7D5BD14F71427D1E84F3DD0314C0F7B2291E5B200AC8C7C3B925 DUP5 PUSH1 0x40 MLOAD PUSH2 0xBD6 SWAP2 DUP2 MSTORE PUSH1 0x20 ADD SWAP1 JUMP JUMPDEST PUSH1 0x1 PUSH1 0x1 PUSH1 0xA0 SHL SUB DUP4 AND PUSH2 0xDB7 JUMPI DUP1 PUSH1 0x2 PUSH0 DUP3 DUP3 SLOAD PUSH2 0xDAC SWAP2 SWAP1 PUSH2 0x1493 JUMP JUMPDEST SWAP1 SWAP2 SSTORE POP PUSH2 0xE14 SWAP1 POP JUMP JUMPDEST PUSH1 0x1 PUSH1 0x1 PUSH1 0xA0 SHL SUB DUP4 AND PUSH0 SWAP1 DUP2 MSTORE PUSH1 0x20 DUP2 SWAP1 MSTORE PUSH1 0x40 SWAP1 KECCAK256 SLOAD DUP2 DUP2 LT ISZERO PUSH2 0xDF6 JUMPI DUP4 DUP2 DUP4 PUSH1 0x40 MLOAD PUSH4 0x391434E3 PUSH1 0xE2 SHL DUP2 MSTORE PUSH1 0x4 ADD PUSH2 0x86C SWAP4 SWAP3 SWAP2 SWAP1 PUSH2 0x14F7 JUMP JUMPDEST PUSH1 0x1 PUSH1 0x1 PUSH1 0xA0 SHL SUB DUP5 AND PUSH0 SWAP1 DUP2 MSTORE PUSH1 0x20 DUP2 SWAP1 MSTORE PUSH1 0x40 SWAP1 KECCAK256 SWAP1 DUP3 SWAP1 SUB SWAP1 SSTORE JUMPDEST PUSH1 0x1 PUSH1 0x1 PUSH1 0xA0 SHL SUB DUP3 AND PUSH2 0xE30 JUMPI PUSH1 0x2 DUP1 SLOAD DUP3 SWAP1 SUB SWAP1 SSTORE PUSH2 0xE4E JUMP JUMPDEST PUSH1 0x1 PUSH1 0x1 PUSH1 0xA0 SHL SUB DUP3 AND PUSH0 SWAP1 DUP2 MSTORE PUSH1 0x20 DUP2 SWAP1 MSTORE PUSH1 0x40 SWAP1 KECCAK256 DUP1 SLOAD DUP3 ADD SWAP1 SSTORE JUMPDEST DUP2 PUSH1 0x1 PUSH1 0x1 PUSH1 0xA0 SHL SUB AND DUP4 PUSH1 0x1 PUSH1 0x1 PUSH1 0xA0 SHL SUB AND PUSH32 0xDDF252AD1BE2C89B69C2B068FC378DAA952BA7F163C4A11628F55A4DF523B3EF DUP4 PUSH1 0x40 MLOAD PUSH2 0xE93 SWAP2 DUP2 MSTORE PUSH1 0x20 ADD SWAP1 JUMP JUMPDEST PUSH1 0x40 MLOAD DUP1 SWAP2 SUB SWAP1 LOG3 POP POP POP JUMP JUMPDEST PUSH0 DUP1 MLOAD PUSH1 0x20 PUSH2 0x163C DUP4 CODECOPY DUP2 MLOAD SWAP2 MSTORE SLOAD PUSH1 0x2 SUB PUSH2 0x862 JUMPI PUSH1 0x40 MLOAD PUSH4 0x3EE5AEB5 PUSH1 0xE0 SHL DUP2 MSTORE PUSH1 0x4 ADD PUSH1 0x40 MLOAD DUP1 SWAP2 SUB SWAP1 REVERT JUMPDEST PUSH2 0xEFB PUSH32 0x0 DUP4 ADDRESS DUP5 PUSH2 0x10AE JUMP JUMPDEST POP POP JUMP JUMPDEST PUSH1 0x1 PUSH1 0x1 PUSH1 0xA0 SHL SUB DUP3 AND PUSH2 0xF28 JUMPI PUSH1 0x40 MLOAD PUSH4 0xEC442F05 PUSH1 0xE0 SHL DUP2 MSTORE PUSH0 PUSH1 0x4 DUP3 ADD MSTORE PUSH1 0x24 ADD PUSH2 0x86C JUMP JUMPDEST PUSH2 0xEFB PUSH0 DUP4 DUP4 PUSH2 0xD8D JUMP JUMPDEST DUP3 PUSH1 0x1 PUSH1 0x1 PUSH1 0xA0 SHL SUB AND DUP6 PUSH1 0x1 PUSH1 0x1 PUSH1 0xA0 SHL SUB AND EQ PUSH2 0xF57 JUMPI PUSH2 0xF57 DUP4 DUP7 DUP4 PUSH2 0x9FA JUMP JUMPDEST PUSH2 0xF61 DUP4 DUP3 PUSH2 0x10E4 JUMP JUMPDEST PUSH2 0xF6B DUP5 DUP4 PUSH2 0x1118 JUMP JUMPDEST DUP3 PUSH1 0x1 PUSH1 0x1 PUSH1 0xA0 SHL SUB AND DUP5 PUSH1 0x1 PUSH1 0x1 PUSH1 0xA0 SHL SUB AND DUP7 PUSH1 0x1 PUSH1 0x1 PUSH1 0xA0 SHL SUB AND PUSH32 0xFBDE797D201C681B91056529119E0B02407C7BB96A4A2C75C01FC9667232C8DB DUP6 DUP6 PUSH1 0x40 MLOAD PUSH2 0xFC3 SWAP3 SWAP2 SWAP1 SWAP2 DUP3 MSTORE PUSH1 0x20 DUP3 ADD MSTORE PUSH1 0x40 ADD SWAP1 JUMP JUMPDEST PUSH1 0x40 MLOAD DUP1 SWAP2 SUB SWAP1 LOG4 POP POP POP POP POP JUMP JUMPDEST PUSH0 PUSH1 0x2 DUP3 PUSH1 0x3 DUP2 GT ISZERO PUSH2 0xFE7 JUMPI PUSH2 0xFE7 PUSH2 0x1606 JUMP JUMPDEST PUSH2 0xFF1 SWAP2 SWAP1 PUSH2 0x161A JUMP JUMPDEST PUSH1 0xFF AND PUSH1 0x1 EQ SWAP1 POP SWAP2 SWAP1 POP JUMP JUMPDEST PUSH0 DUP1 PUSH0 PUSH2 0x100B DUP7 DUP7 PUSH2 0x1143 JUMP JUMPDEST SWAP2 POP SWAP2 POP DUP2 PUSH0 SUB PUSH2 0x102F JUMPI DUP4 DUP2 DUP2 PUSH2 0x1025 JUMPI PUSH2 0x1025 PUSH2 0x146C JUMP JUMPDEST DIV SWAP3 POP POP POP PUSH2 0x6CC JUMP JUMPDEST DUP2 DUP5 GT PUSH2 0x1046 JUMPI PUSH2 0x1046 PUSH1 0x3 DUP6 ISZERO MUL PUSH1 0x11 XOR PUSH2 0x115F JUMP JUMPDEST PUSH0 DUP5 DUP7 DUP9 MULMOD PUSH0 DUP7 DUP2 SUB DUP8 AND SWAP7 DUP8 SWAP1 DIV SWAP7 PUSH1 0x2 PUSH1 0x3 DUP10 MUL DUP2 XOR DUP1 DUP11 MUL DUP3 SUB MUL DUP1 DUP11 MUL DUP3 SUB MUL DUP1 DUP11 MUL DUP3 SUB MUL DUP1 DUP11 MUL DUP3 SUB MUL DUP1 DUP11 MUL DUP3 SUB MUL DUP1 DUP11 MUL SWAP1 SWAP2 SUB MUL SWAP2 DUP2 SWAP1 SUB DUP2 SWAP1 DIV PUSH1 0x1 ADD DUP6 DUP5 GT SWAP1 SWAP7 SUB SWAP6 SWAP1 SWAP6 MUL SWAP2 SWAP1 SWAP4 SUB SWAP4 SWAP1 SWAP4 DIV SWAP3 SWAP1 SWAP3 OR MUL SWAP2 POP POP SWAP4 SWAP3 POP POP POP JUMP JUMPDEST PUSH2 0x10BC DUP5 DUP5 DUP5 DUP5 PUSH1 0x1 PUSH2 0x1170 JUMP JUMPDEST PUSH2 0xA5D JUMPI PUSH1 0x40 MLOAD PUSH4 0x5274AFE7 PUSH1 0xE0 SHL DUP2 MSTORE PUSH1 0x1 PUSH1 0x1 PUSH1 0xA0 SHL SUB DUP6 AND PUSH1 0x4 DUP3 ADD MSTORE PUSH1 0x24 ADD PUSH2 0x86C JUMP JUMPDEST PUSH1 0x1 PUSH1 0x1 PUSH1 0xA0 SHL SUB DUP3 AND PUSH2 0x110D JUMPI PUSH1 0x40 MLOAD PUSH4 0x4B637E8F PUSH1 0xE1 SHL DUP2 MSTORE PUSH0 PUSH1 0x4 DUP3 ADD MSTORE PUSH1 0x24 ADD PUSH2 0x86C JUMP JUMPDEST PUSH2 0xEFB DUP3 PUSH0 DUP4 PUSH2 0xD8D JUMP JUMPDEST PUSH2 0xEFB PUSH32 0x0 DUP4 DUP4 PUSH2 0x11DD JUMP JUMPDEST PUSH0 DUP1 PUSH0 NOT DUP4 DUP6 MULMOD SWAP4 SWAP1 SWAP3 MUL DUP1 DUP5 LT SWAP4 DUP2 SWAP1 SUB SWAP4 SWAP1 SWAP4 SUB SWAP4 SWAP2 POP POP JUMP JUMPDEST PUSH4 0x4E487B71 PUSH0 MSTORE DUP1 PUSH1 0x20 MSTORE PUSH1 0x24 PUSH1 0x1C REVERT JUMPDEST PUSH1 0x40 MLOAD PUSH4 0x23B872DD PUSH1 0xE0 SHL PUSH0 DUP2 DUP2 MSTORE PUSH1 0x1 PUSH1 0x1 PUSH1 0xA0 SHL SUB DUP8 DUP2 AND PUSH1 0x4 MSTORE DUP7 AND PUSH1 0x24 MSTORE PUSH1 0x44 DUP6 SWAP1 MSTORE SWAP2 PUSH1 0x20 DUP4 PUSH1 0x64 DUP2 DUP1 DUP13 GAS CALL SWAP3 POP PUSH1 0x1 PUSH0 MLOAD EQ DUP4 AND PUSH2 0x11CC JUMPI DUP4 DUP4 ISZERO AND ISZERO PUSH2 0x11C0 JUMPI RETURNDATASIZE PUSH0 DUP3 RETURNDATACOPY RETURNDATASIZE DUP2 REVERT JUMPDEST PUSH0 DUP9 EXTCODESIZE GT RETURNDATASIZE ISZERO AND DUP4 AND SWAP3 POP JUMPDEST PUSH1 0x40 MSTORE POP PUSH0 PUSH1 0x60 MSTORE SWAP6 SWAP5 POP POP POP POP POP JUMP JUMPDEST PUSH2 0x11EA DUP4 DUP4 DUP4 PUSH1 0x1 PUSH2 0x1212 JUMP JUMPDEST PUSH2 0x9C6 JUMPI PUSH1 0x40 MLOAD PUSH4 0x5274AFE7 PUSH1 0xE0 SHL DUP2 MSTORE PUSH1 0x1 PUSH1 0x1 PUSH1 0xA0 SHL SUB DUP5 AND PUSH1 0x4 DUP3 ADD MSTORE PUSH1 0x24 ADD PUSH2 0x86C JUMP JUMPDEST PUSH1 0x40 MLOAD PUSH4 0xA9059CBB PUSH1 0xE0 SHL PUSH0 DUP2 DUP2 MSTORE PUSH1 0x1 PUSH1 0x1 PUSH1 0xA0 SHL SUB DUP7 AND PUSH1 0x4 MSTORE PUSH1 0x24 DUP6 SWAP1 MSTORE SWAP2 PUSH1 0x20 DUP4 PUSH1 0x44 DUP2 DUP1 DUP12 GAS CALL SWAP3 POP PUSH1 0x1 PUSH0 MLOAD EQ DUP4 AND PUSH2 0x1268 JUMPI DUP4 DUP4 ISZERO AND ISZERO PUSH2 0x125C JUMPI RETURNDATASIZE PUSH0 DUP3 RETURNDATACOPY RETURNDATASIZE DUP2 REVERT JUMPDEST PUSH0 DUP8 EXTCODESIZE GT RETURNDATASIZE ISZERO AND DUP4 AND SWAP3 POP JUMPDEST PUSH1 0x40 MSTORE POP SWAP5 SWAP4 POP POP POP POP JUMP JUMPDEST PUSH0 PUSH1 0x20 DUP1 DUP4 MSTORE DUP4 MLOAD DUP1 PUSH1 0x20 DUP6 ADD MSTORE PUSH0 JUMPDEST DUP2 DUP2 LT ISZERO PUSH2 0x12A0 JUMPI DUP6 DUP2 ADD DUP4 ADD MLOAD DUP6 DUP3 ADD PUSH1 0x40 ADD MSTORE DUP3 ADD PUSH2 0x1284 JUMP JUMPDEST POP PUSH0 PUSH1 0x40 DUP3 DUP7 ADD ADD MSTORE PUSH1 0x40 PUSH1 0x1F NOT PUSH1 0x1F DUP4 ADD AND DUP6 ADD ADD SWAP3 POP POP POP SWAP3 SWAP2 POP POP JUMP JUMPDEST PUSH0 PUSH1 0x20 DUP3 DUP5 SUB SLT ISZERO PUSH2 0x12D0 JUMPI PUSH0 DUP1 REVERT JUMPDEST POP CALLDATALOAD SWAP2 SWAP1 POP JUMP JUMPDEST DUP1 CALLDATALOAD PUSH1 0x1 PUSH1 0x1 PUSH1 0xA0 SHL SUB DUP2 AND DUP2 EQ PUSH2 0x12ED JUMPI PUSH0 DUP1 REVERT JUMPDEST SWAP2 SWAP1 POP JUMP JUMPDEST PUSH0 DUP1 PUSH1 0x40 DUP4 DUP6 SUB SLT ISZERO PUSH2 0x1303 JUMPI PUSH0 DUP1 REVERT JUMPDEST PUSH2 0x130C DUP4 PUSH2 0x12D7 JUMP JUMPDEST SWAP5 PUSH1 0x20 SWAP4 SWAP1 SWAP4 ADD CALLDATALOAD SWAP4 POP POP POP JUMP JUMPDEST PUSH0 DUP1 PUSH0 PUSH1 0x60 DUP5 DUP7 SUB SLT ISZERO PUSH2 0x132C JUMPI PUSH0 DUP1 REVERT JUMPDEST PUSH2 0x1335 DUP5 PUSH2 0x12D7 JUMP JUMPDEST SWAP3 POP PUSH2 0x1343 PUSH1 0x20 DUP6 ADD PUSH2 0x12D7 JUMP JUMPDEST SWAP2 POP PUSH1 0x40 DUP5 ADD CALLDATALOAD SWAP1 POP SWAP3 POP SWAP3 POP SWAP3 JUMP JUMPDEST PUSH0 DUP1 PUSH1 0x40 DUP4 DUP6 SUB SLT ISZERO PUSH2 0x1364 JUMPI PUSH0 DUP1 REVERT JUMPDEST POP POP DUP1 CALLDATALOAD SWAP3 PUSH1 0x20 SWAP1 SWAP2 ADD CALLDATALOAD SWAP2 POP JUMP JUMPDEST PUSH0 PUSH1 0x20 DUP3 DUP5 SUB SLT ISZERO PUSH2 0x1383 JUMPI PUSH0 DUP1 REVERT JUMPDEST PUSH2 0x6CC DUP3 PUSH2 0x12D7 JUMP JUMPDEST PUSH0 DUP1 PUSH1 0x40 DUP4 DUP6 SUB SLT ISZERO PUSH2 0x139D JUMPI PUSH0 DUP1 REVERT JUMPDEST DUP3 CALLDATALOAD SWAP2 POP PUSH2 0x13AD PUSH1 0x20 DUP5 ADD PUSH2 0x12D7 JUMP JUMPDEST SWAP1 POP SWAP3 POP SWAP3 SWAP1 POP JUMP JUMPDEST PUSH0 DUP1 PUSH0 PUSH1 0x60 DUP5 DUP7 SUB SLT ISZERO PUSH2 0x13C8 JUMPI PUSH0 DUP1 REVERT JUMPDEST DUP4 CALLDATALOAD SWAP3 POP PUSH2 0x13D8 PUSH1 0x20 DUP6 ADD PUSH2 0x12D7 JUMP JUMPDEST SWAP2 POP PUSH2 0x13E6 PUSH1 0x40 DUP6 ADD PUSH2 0x12D7 JUMP JUMPDEST SWAP1 POP SWAP3 POP SWAP3 POP SWAP3 JUMP JUMPDEST PUSH0 DUP1 PUSH1 0x40 DUP4 DUP6 SUB SLT ISZERO PUSH2 0x1400 JUMPI PUSH0 DUP1 REVERT JUMPDEST PUSH2 0x1409 DUP4 PUSH2 0x12D7 JUMP JUMPDEST SWAP2 POP PUSH2 0x13AD PUSH1 0x20 DUP5 ADD PUSH2 0x12D7 JUMP JUMPDEST PUSH0 PUSH1 0x20 DUP3 DUP5 SUB SLT ISZERO PUSH2 0x1427 JUMPI PUSH0 DUP1 REVERT JUMPDEST POP MLOAD SWAP2 SWAP1 POP JUMP JUMPDEST PUSH4 0x4E487B71 PUSH1 0xE0 SHL PUSH0 MSTORE PUSH1 0x11 PUSH1 0x4 MSTORE PUSH1 0x24 PUSH0 REVERT JUMPDEST DUP2 DUP2 SUB DUP2 DUP2 GT ISZERO PUSH2 0x685 JUMPI PUSH2 0x685 PUSH2 0x142E JUMP JUMPDEST DUP1 DUP3 MUL DUP2 ISZERO DUP3 DUP3 DIV DUP5 EQ OR PUSH2 0x685 JUMPI PUSH2 0x685 PUSH2 0x142E JUMP JUMPDEST PUSH4 0x4E487B71 PUSH1 0xE0 SHL PUSH0 MSTORE PUSH1 0x12 PUSH1 0x4 MSTORE PUSH1 0x24 PUSH0 REVERT JUMPDEST PUSH0 DUP3 PUSH2 0x148E JUMPI PUSH2 0x148E PUSH2 0x146C JUMP JUMPDEST POP DIV SWAP1 JUMP JUMPDEST DUP1 DUP3 ADD DUP1 DUP3 GT ISZERO PUSH2 0x685 JUMPI PUSH2 0x685 PUSH2 0x142E JUMP JUMPDEST PUSH1 0x1 DUP2 DUP2 SHR SWAP1 DUP3 AND DUP1 PUSH2 0x14BA JUMPI PUSH1 0x7F DUP3 AND SWAP2 POP JUMPDEST PUSH1 0x20 DUP3 LT DUP2 SUB PUSH2 0x14D8 JUMPI PUSH4 0x4E487B71 PUSH1 0xE0 SHL PUSH0 MSTORE PUSH1 0x22 PUSH1 0x4 MSTORE PUSH1 0x24 PUSH0 REVERT JUMPDEST POP SWAP2 SWAP1 POP JUMP JUMPDEST PUSH1 0xFF DUP2 DUP2 AND DUP4 DUP3 AND ADD SWAP1 DUP2 GT ISZERO PUSH2 0x685 JUMPI PUSH2 0x685 PUSH2 0x142E JUMP JUMPDEST PUSH1 0x1 PUSH1 0x1 PUSH1 0xA0 SHL SUB SWAP4 SWAP1 SWAP4 AND DUP4 MSTORE PUSH1 0x20 DUP4 ADD SWAP2 SWAP1 SWAP2 MSTORE PUSH1 0x40 DUP3 ADD MSTORE PUSH1 0x60 ADD SWAP1 JUMP JUMPDEST PUSH1 0x1 DUP2 DUP2 JUMPDEST DUP1 DUP6 GT ISZERO PUSH2 0x1552 JUMPI DUP2 PUSH0 NOT DIV DUP3 GT ISZERO PUSH2 0x1538 JUMPI PUSH2 0x1538 PUSH2 0x142E JUMP JUMPDEST DUP1 DUP6 AND ISZERO PUSH2 0x1545 JUMPI SWAP2 DUP2 MUL SWAP2 JUMPDEST SWAP4 DUP5 SHR SWAP4 SWAP1 DUP1 MUL SWAP1 PUSH2 0x151D JUMP JUMPDEST POP SWAP3 POP SWAP3 SWAP1 POP JUMP JUMPDEST PUSH0 DUP3 PUSH2 0x1568 JUMPI POP PUSH1 0x1 PUSH2 0x685 JUMP JUMPDEST DUP2 PUSH2 0x1574 JUMPI POP PUSH0 PUSH2 0x685 JUMP JUMPDEST DUP2 PUSH1 0x1 DUP2 EQ PUSH2 0x158A JUMPI PUSH1 0x2 DUP2 EQ PUSH2 0x1594 JUMPI PUSH2 0x15B0 JUMP JUMPDEST PUSH1 0x1 SWAP2 POP POP PUSH2 0x685 JUMP JUMPDEST PUSH1 0xFF DUP5 GT ISZERO PUSH2 0x15A5 JUMPI PUSH2 0x15A5 PUSH2 0x142E JUMP JUMPDEST POP POP PUSH1 0x1 DUP3 SHL PUSH2 0x685 JUMP JUMPDEST POP PUSH1 0x20 DUP4 LT PUSH2 0x133 DUP4 LT AND PUSH1 0x4E DUP5 LT PUSH1 0xB DUP5 LT AND OR ISZERO PUSH2 0x15D3 JUMPI POP DUP2 DUP2 EXP PUSH2 0x685 JUMP JUMPDEST PUSH2 0x15DD DUP4 DUP4 PUSH2 0x1518 JUMP JUMPDEST DUP1 PUSH0 NOT DIV DUP3 GT ISZERO PUSH2 0x15F0 JUMPI PUSH2 0x15F0 PUSH2 0x142E JUMP JUMPDEST MUL SWAP4 SWAP3 POP POP POP JUMP JUMPDEST PUSH0 PUSH2 0x6CC PUSH1 0xFF DUP5 AND DUP4 PUSH2 0x155A JUMP JUMPDEST PUSH4 0x4E487B71 PUSH1 0xE0 SHL PUSH0 MSTORE PUSH1 0x21 PUSH1 0x4 MSTORE PUSH1 0x24 PUSH0 REVERT JUMPDEST PUSH0 PUSH1 0xFF DUP4 AND DUP1 PUSH2 0x162C JUMPI PUSH2 0x162C PUSH2 0x146C JUMP JUMPDEST DUP1 PUSH1 0xFF DUP5 AND MOD SWAP2 POP POP SWAP3 SWAP2 POP POP JUMP INVALID SWAP12 PUSH24 0x9B17422D0DF92223018B32B4D1FA46E071723D6817E2486D STOP EXTCODESIZE 0xEC 0xC5 PUSH0 STOP LOG2 PUSH5 0x6970667358 0x22 SLT KECCAK256 GT 0xB9 0x4F 0xB7 0xE5 0xD3 0xA7 PUSH20 0xC0BC961D0EB47C14F79B791EDE21AD7CCB5B64E CALLDATALOAD PUSH19 0xDB1764736F6C63430008180033000000000000 "},"methodIdentifiers":{"BALANCED_APY_BPS()":"52398b87","BPS_DENOMINATOR()":"e1a45218","GROWTH_APY_BPS()":"c9652e95","SECONDS_PER_YEAR()":"e6a69ab8","STABLE_APY_BPS()":"2df1ebcf","balancedVault()":"aebf9d2b","deposit(address,uint256,uint8,uint256)":"f1f89e92","getAccumulatedYield(uint256)":"a623f2c7","getTierAPY(uint8)":"a12cb815","getTierBalance(address,uint8)":"c8ecf423","getTierTVL(uint8)":"6cf5a764","getVaultAddress(uint8)":"cf429895","growthVault()":"8fec9f08","harvestYield(uint256,address)":"7e2d1857","owner()":"8da5cb5b","positions(uint256)":"99fbab88","renounceOwnership()":"715018a6","setStreamVault(address)":"5934c8a5","stableVault()":"6f42f9c7","streamVault()":"85c0af7f","transferOwnership(address)":"f2fde38b","withdraw(address,uint256,uint8,uint256)":"aa45259b"}}}}}