{
  "_format": "hh-sol-artifact-1",
  "contractName": "HSPSettlementEmitter",
  "sourceName": "contracts/HSPSettlementEmitter.sol",
  "abi": [
    {
      "inputs": [],
      "stateMutability": "nonpayable",
      "type": "constructor"
    },
    {
      "inputs": [
        {
          "internalType": "address",
          "name": "owner",
          "type": "address"
        }
      ],
      "name": "OwnableInvalidOwner",
      "type": "error"
    },
    {
      "inputs": [
        {
          "internalType": "address",
          "name": "account",
          "type": "address"
        }
      ],
      "name": "OwnableUnauthorizedAccount",
      "type": "error"
    },
    {
      "inputs": [],
      "name": "ReentrancyGuardReentrantCall",
      "type": "error"
    },
    {
      "anonymous": false,
      "inputs": [
        {
          "indexed": true,
          "internalType": "address",
          "name": "previousOwner",
          "type": "address"
        },
        {
          "indexed": true,
          "internalType": "address",
          "name": "newOwner",
          "type": "address"
        }
      ],
      "name": "OwnershipTransferred",
      "type": "event"
    },
    {
      "anonymous": false,
      "inputs": [
        {
          "indexed": true,
          "internalType": "uint256",
          "name": "settlementId",
          "type": "uint256"
        },
        {
          "indexed": true,
          "internalType": "uint256",
          "name": "streamId",
          "type": "uint256"
        },
        {
          "indexed": true,
          "internalType": "address",
          "name": "employer",
          "type": "address"
        },
        {
          "indexed": false,
          "internalType": "address",
          "name": "employee",
          "type": "address"
        },
        {
          "indexed": false,
          "internalType": "address",
          "name": "token",
          "type": "address"
        },
        {
          "indexed": false,
          "internalType": "uint256",
          "name": "amount",
          "type": "uint256"
        },
        {
          "indexed": false,
          "internalType": "enum HSPSettlementEmitter.SettlementType",
          "name": "settlementType",
          "type": "uint8"
        },
        {
          "indexed": false,
          "internalType": "bytes32",
          "name": "proofHash",
          "type": "bytes32"
        },
        {
          "indexed": false,
          "internalType": "uint256",
          "name": "timestamp",
          "type": "uint256"
        }
      ],
      "name": "SettlementCreated",
      "type": "event"
    },
    {
      "anonymous": false,
      "inputs": [
        {
          "indexed": true,
          "internalType": "uint256",
          "name": "settlementId",
          "type": "uint256"
        },
        {
          "indexed": true,
          "internalType": "uint256",
          "name": "streamId",
          "type": "uint256"
        },
        {
          "indexed": true,
          "internalType": "address",
          "name": "employee",
          "type": "address"
        },
        {
          "indexed": false,
          "internalType": "uint256",
          "name": "amount",
          "type": "uint256"
        },
        {
          "indexed": false,
          "internalType": "uint256",
          "name": "settledAt",
          "type": "uint256"
        }
      ],
      "name": "SettlementFinalized",
      "type": "event"
    },
    {
      "anonymous": false,
      "inputs": [
        {
          "indexed": true,
          "internalType": "uint256",
          "name": "settlementId",
          "type": "uint256"
        },
        {
          "indexed": false,
          "internalType": "enum HSPSettlementEmitter.SettlementStatus",
          "name": "fromStatus",
          "type": "uint8"
        },
        {
          "indexed": false,
          "internalType": "enum HSPSettlementEmitter.SettlementStatus",
          "name": "toStatus",
          "type": "uint8"
        },
        {
          "indexed": false,
          "internalType": "uint256",
          "name": "timestamp",
          "type": "uint256"
        }
      ],
      "name": "SettlementStatusChanged",
      "type": "event"
    },
    {
      "inputs": [
        {
          "internalType": "uint256",
          "name": "settlementId",
          "type": "uint256"
        }
      ],
      "name": "cancelSettlement",
      "outputs": [],
      "stateMutability": "nonpayable",
      "type": "function"
    },
    {
      "inputs": [
        {
          "internalType": "address",
          "name": "employer",
          "type": "address"
        },
        {
          "internalType": "address",
          "name": "employee",
          "type": "address"
        },
        {
          "internalType": "address",
          "name": "token",
          "type": "address"
        },
        {
          "internalType": "uint256",
          "name": "amount",
          "type": "uint256"
        },
        {
          "internalType": "uint256",
          "name": "streamId",
          "type": "uint256"
        },
        {
          "internalType": "enum HSPSettlementEmitter.SettlementType",
          "name": "settlementType",
          "type": "uint8"
        }
      ],
      "name": "createSettlement",
      "outputs": [
        {
          "internalType": "uint256",
          "name": "settlementId",
          "type": "uint256"
        }
      ],
      "stateMutability": "nonpayable",
      "type": "function"
    },
    {
      "inputs": [
        {
          "internalType": "uint256",
          "name": "settlementId",
          "type": "uint256"
        }
      ],
      "name": "disputeSettlement",
      "outputs": [],
      "stateMutability": "nonpayable",
      "type": "function"
    },
    {
      "inputs": [
        {
          "internalType": "address",
          "name": "employer",
          "type": "address"
        },
        {
          "internalType": "address",
          "name": "employee",
          "type": "address"
        },
        {
          "internalType": "address",
          "name": "token",
          "type": "address"
        },
        {
          "internalType": "uint256",
          "name": "amount",
          "type": "uint256"
        },
        {
          "internalType": "uint256",
          "name": "streamId",
          "type": "uint256"
        },
        {
          "internalType": "string",
          "name": "settlementTypeStr",
          "type": "string"
        }
      ],
      "name": "emitSettlement",
      "outputs": [],
      "stateMutability": "nonpayable",
      "type": "function"
    },
    {
      "inputs": [
        {
          "internalType": "address",
          "name": "",
          "type": "address"
        },
        {
          "internalType": "uint256",
          "name": "",
          "type": "uint256"
        }
      ],
      "name": "employeeSettlements",
      "outputs": [
        {
          "internalType": "uint256",
          "name": "",
          "type": "uint256"
        }
      ],
      "stateMutability": "view",
      "type": "function"
    },
    {
      "inputs": [
        {
          "internalType": "address",
          "name": "",
          "type": "address"
        },
        {
          "internalType": "uint256",
          "name": "",
          "type": "uint256"
        }
      ],
      "name": "employerSettlements",
      "outputs": [
        {
          "internalType": "uint256",
          "name": "",
          "type": "uint256"
        }
      ],
      "stateMutability": "view",
      "type": "function"
    },
    {
      "inputs": [
        {
          "internalType": "uint256",
          "name": "settlementId",
          "type": "uint256"
        }
      ],
      "name": "expressSettle",
      "outputs": [],
      "stateMutability": "nonpayable",
      "type": "function"
    },
    {
      "inputs": [
        {
          "internalType": "uint256",
          "name": "settlementId",
          "type": "uint256"
        }
      ],
      "name": "finalizeSettlement",
      "outputs": [],
      "stateMutability": "nonpayable",
      "type": "function"
    },
    {
      "inputs": [
        {
          "internalType": "address",
          "name": "employee",
          "type": "address"
        }
      ],
      "name": "getEmployeeSettlements",
      "outputs": [
        {
          "internalType": "uint256[]",
          "name": "",
          "type": "uint256[]"
        }
      ],
      "stateMutability": "view",
      "type": "function"
    },
    {
      "inputs": [
        {
          "internalType": "address",
          "name": "employer",
          "type": "address"
        }
      ],
      "name": "getEmployerSettlements",
      "outputs": [
        {
          "internalType": "uint256[]",
          "name": "",
          "type": "uint256[]"
        }
      ],
      "stateMutability": "view",
      "type": "function"
    },
    {
      "inputs": [
        {
          "internalType": "uint256",
          "name": "settlementId",
          "type": "uint256"
        }
      ],
      "name": "getSettlement",
      "outputs": [
        {
          "components": [
            {
              "internalType": "uint256",
              "name": "settlementId",
              "type": "uint256"
            },
            {
              "internalType": "address",
              "name": "employer",
              "type": "address"
            },
            {
              "internalType": "address",
              "name": "employee",
              "type": "address"
            },
            {
              "internalType": "address",
              "name": "token",
              "type": "address"
            },
            {
              "internalType": "uint256",
              "name": "amount",
              "type": "uint256"
            },
            {
              "internalType": "uint256",
              "name": "streamId",
              "type": "uint256"
            },
            {
              "internalType": "uint256",
              "name": "createdAt",
              "type": "uint256"
            },
            {
              "internalType": "uint256",
              "name": "processedAt",
              "type": "uint256"
            },
            {
              "internalType": "uint256",
              "name": "settledAt",
              "type": "uint256"
            },
            {
              "internalType": "enum HSPSettlementEmitter.SettlementStatus",
              "name": "status",
              "type": "uint8"
            },
            {
              "internalType": "enum HSPSettlementEmitter.SettlementType",
              "name": "settlementType",
              "type": "uint8"
            },
            {
              "internalType": "bytes32",
              "name": "proofHash",
              "type": "bytes32"
            }
          ],
          "internalType": "struct HSPSettlementEmitter.Settlement",
          "name": "",
          "type": "tuple"
        }
      ],
      "stateMutability": "view",
      "type": "function"
    },
    {
      "inputs": [
        {
          "internalType": "uint256",
          "name": "streamId",
          "type": "uint256"
        }
      ],
      "name": "getStreamSettlements",
      "outputs": [
        {
          "internalType": "uint256[]",
          "name": "",
          "type": "uint256[]"
        }
      ],
      "stateMutability": "view",
      "type": "function"
    },
    {
      "inputs": [],
      "name": "owner",
      "outputs": [
        {
          "internalType": "address",
          "name": "",
          "type": "address"
        }
      ],
      "stateMutability": "view",
      "type": "function"
    },
    {
      "inputs": [
        {
          "internalType": "uint256",
          "name": "settlementId",
          "type": "uint256"
        }
      ],
      "name": "processSettlement",
      "outputs": [],
      "stateMutability": "nonpayable",
      "type": "function"
    },
    {
      "inputs": [],
      "name": "renounceOwnership",
      "outputs": [],
      "stateMutability": "nonpayable",
      "type": "function"
    },
    {
      "inputs": [
        {
          "internalType": "address",
          "name": "_streamVault",
          "type": "address"
        }
      ],
      "name": "setStreamVault",
      "outputs": [],
      "stateMutability": "nonpayable",
      "type": "function"
    },
    {
      "inputs": [],
      "name": "settlementCount",
      "outputs": [
        {
          "internalType": "uint256",
          "name": "",
          "type": "uint256"
        }
      ],
      "stateMutability": "view",
      "type": "function"
    },
    {
      "inputs": [
        {
          "internalType": "uint256",
          "name": "",
          "type": "uint256"
        }
      ],
      "name": "settlements",
      "outputs": [
        {
          "internalType": "uint256",
          "name": "settlementId",
          "type": "uint256"
        },
        {
          "internalType": "address",
          "name": "employer",
          "type": "address"
        },
        {
          "internalType": "address",
          "name": "employee",
          "type": "address"
        },
        {
          "internalType": "address",
          "name": "token",
          "type": "address"
        },
        {
          "internalType": "uint256",
          "name": "amount",
          "type": "uint256"
        },
        {
          "internalType": "uint256",
          "name": "streamId",
          "type": "uint256"
        },
        {
          "internalType": "uint256",
          "name": "createdAt",
          "type": "uint256"
        },
        {
          "internalType": "uint256",
          "name": "processedAt",
          "type": "uint256"
        },
        {
          "internalType": "uint256",
          "name": "settledAt",
          "type": "uint256"
        },
        {
          "internalType": "enum HSPSettlementEmitter.SettlementStatus",
          "name": "status",
          "type": "uint8"
        },
        {
          "internalType": "enum HSPSettlementEmitter.SettlementType",
          "name": "settlementType",
          "type": "uint8"
        },
        {
          "internalType": "bytes32",
          "name": "proofHash",
          "type": "bytes32"
        }
      ],
      "stateMutability": "view",
      "type": "function"
    },
    {
      "inputs": [
        {
          "internalType": "enum HSPSettlementEmitter.SettlementStatus",
          "name": "",
          "type": "uint8"
        }
      ],
      "name": "statusCount",
      "outputs": [
        {
          "internalType": "uint256",
          "name": "",
          "type": "uint256"
        }
      ],
      "stateMutability": "view",
      "type": "function"
    },
    {
      "inputs": [
        {
          "internalType": "uint256",
          "name": "",
          "type": "uint256"
        },
        {
          "internalType": "uint256",
          "name": "",
          "type": "uint256"
        }
      ],
      "name": "streamSettlements",
      "outputs": [
        {
          "internalType": "uint256",
          "name": "",
          "type": "uint256"
        }
      ],
      "stateMutability": "view",
      "type": "function"
    },
    {
      "inputs": [],
      "name": "streamVault",
      "outputs": [
        {
          "internalType": "address",
          "name": "",
          "type": "address"
        }
      ],
      "stateMutability": "view",
      "type": "function"
    },
    {
      "inputs": [
        {
          "internalType": "address",
          "name": "newOwner",
          "type": "address"
        }
      ],
      "name": "transferOwnership",
      "outputs": [],
      "stateMutability": "nonpayable",
      "type": "function"
    },
    {
      "inputs": [
        {
          "internalType": "uint256",
          "name": "settlementId",
          "type": "uint256"
        }
      ],
      "name": "verifyProof",
      "outputs": [
        {
          "internalType": "bool",
          "name": "valid",
          "type": "bool"
        },
        {
          "internalType": "bytes32",
          "name": "expectedHash",
          "type": "bytes32"
        }
      ],
      "stateMutability": "view",
      "type": "function"
    }
  ],
  "bytecode": "0x608060405234801561000f575f80fd5b50338061003557604051631e4fbdf760e01b81525f600482015260240160405180910390fd5b61003e81610068565b5060017f9b779b17422d0df92223018b32b4d1fa46e071723d6817e2486d003becc55f00556100b7565b5f80546001600160a01b038381166001600160a01b0319831681178455604051919092169283917f8be0079c531659141344cd1fd0a4f28419497f9722a3daafe3b4186f6b6457e09190a35050565b61193f806100c45f395ff3fe608060405234801561000f575f80fd5b5060043610610148575f3560e01c80636a6a0ffa116100bf57806396d0cb371161007957806396d0cb3714610369578063aec4995f1461037c578063c3e876871461038f578063d41968e0146103a2578063f2fde38b146103b5578063fec3944b146103c8575f80fd5b80636a6a0ffa146102d6578063715018a6146102e957806385c0af7f146102f1578063871b98fb1461031c5780638b6958ff1461032f5780638da5cb5b14610359575f80fd5b806347d8664a1161011057806347d8664a1461023e5780634c58238014610251578063566f07da1461027157806356d38188146102845780635934c8a5146102a4578063686fbf07146102b7575f80fd5b8063037eca761461014c57806308df7dc8146101685780630a7859461461020357806312ca0be814610216578063143c515b14610229575b5f80fd5b61015560025481565b6040519081526020015b60405180910390f35b6101eb6101763660046113d3565b600360208190525f918252604090912080546001820154600283015493830154600484015460058501546006860154600787015460088801546009890154600a9099015497996001600160a01b03978816999088169896909716969495939492939192909160ff80831692610100900416908c565b60405161015f9c9b9a99989796959493929190611422565b6101556102113660046114bc565b6103db565b610155610224366004611525565b610729565b61023c6102373660046113d3565b610754565b005b61023c61024c3660046113d3565b6107f7565b61026461025f3660046113d3565b610897565b60405161015f9190611545565b61023c61027f3660046113d3565b61099f565b61029761029236600461160d565b610ab5565b60405161015f919061162d565b61023c6102b236600461160d565b610b1e565b6101556102c5366004611670565b60076020525f908152604090205481565b61023c6102e43660046113d3565b610b48565b61023c610c02565b600154610304906001600160a01b031681565b6040516001600160a01b03909116815260200161015f565b61023c61032a36600461168e565b610c15565b61034261033d3660046113d3565b610e08565b60408051921515835260208301919091520161015f565b5f546001600160a01b0316610304565b61023c6103773660046113d3565b610ea8565b61015561038a36600461173d565b610fb9565b61015561039d36600461173d565b610fd2565b6102976103b03660046113d3565b610feb565b61023c6103c336600461160d565b611048565b6102976103d636600461160d565b611085565b6001545f906001600160a01b03163314806103ff57505f546001600160a01b031633145b6104245760405162461bcd60e51b815260040161041b90611765565b60405180910390fd5b60025f8154610432906117a6565b918290555090505f818888888888886003811115610452576104526113ea565b4260405160200161046a9897969594939291906117be565b6040516020818303038152906040528051906020012090505f6040518061018001604052808481526020018a6001600160a01b03168152602001896001600160a01b03168152602001886001600160a01b031681526020018781526020018681526020014281526020015f81526020015f81526020015f60048111156104f2576104f26113ea565b8152602001856003811115610509576105096113ea565b815260209081018490525f85815260038083526040918290208451815592840151600180850180546001600160a01b03199081166001600160a01b0394851617909155938601516002860180548616918416919091179055606086015192850180549094169290911691909117909155608083015160048084019190915560a0840151600584015560c0840151600684015560e08401516007840155610100840151600884015561012084015160098401805495965086959193909260ff199092169184908111156105dd576105dd6113ea565b021790555061014082015160098201805461ff001916610100836003811115610608576106086113ea565b02179055506101609190910151600a909101555f858152600460209081526040808320805460018181018355918552838520018790556001600160a01b03808e168552600584529184208054918201815584529190922001849055881615610695576001600160a01b0388165f908152600660209081526040822080546001810182559083529120018390555b5f80805260076020527f6d5257204ebe7d88fd91ae87941cb2dd9d8062b64ae5a2bd2d28ec40b9fbf6df8054916106cb836117a6565b9190505550886001600160a01b031685847f86df14eda7f8baccadecb5f8e9e72959624d7acc571b3a78b9e3f2fc338e02c18b8b8b8a89426040516107159695949392919061181f565b60405180910390a450509695505050505050565b6004602052815f5260405f208181548110610742575f80fd5b905f5260205f20015f91509150505481565b61075c6110ec565b5f81815260036020526040812090600982015460ff166004811115610783576107836113ea565b14806107a757506003600982015460ff1660048111156107a5576107a56113ea565b145b6107e85760405162461bcd60e51b81526020600482015260126024820152711214d40e8810d85b9b9bdd0818d85b98d95b60721b604482015260640161041b565b6107f3816004611118565b5050565b6107ff6110ec565b5f81815260036020526040812090600982015460ff166004811115610826576108266113ea565b148061084a57506001600982015460ff166004811115610848576108486113ea565b145b61088c5760405162461bcd60e51b81526020600482015260136024820152724853503a2043616e6e6f74206469737075746560681b604482015260640161041b565b6107f3816003611118565b61089f611352565b5f828152600360208181526040928390208351610180810185528154815260018201546001600160a01b03908116938201939093526002820154831694810194909452918201541660608301526004808201546080840152600582015460a0840152600682015460c0840152600782015460e08401526008820154610100840152600982015461012084019160ff90911690811115610940576109406113ea565b6004811115610951576109516113ea565b81526020016009820160019054906101000a900460ff166003811115610979576109796113ea565b600381111561098a5761098a6113ea565b8152602001600a820154815250509050919050565b6001546001600160a01b03163314806109c157505f546001600160a01b031633145b6109dd5760405162461bcd60e51b815260040161041b90611765565b5f81815260036020526040812090600982015460ff166004811115610a0457610a046113ea565b14610a445760405162461bcd60e51b815260206004820152601060248201526f4853503a204e6f742050454e44494e4760801b604482015260640161041b565b42600782018190556008820155610a5c816002611118565b600281015460058201546004830154604080519182524260208301526001600160a01b039093169285917eed2d17a77784b94cf449d878fecfdcacd221011836ab71ae5fa020b9ab488c91015b60405180910390a45050565b6001600160a01b0381165f90815260066020908152604091829020805483518184028101840190945280845260609392830182828015610b1257602002820191905f5260205f20905b815481526020019060010190808311610afe575b50505050509050919050565b610b266110ec565b600180546001600160a01b0319166001600160a01b0392909216919091179055565b6001546001600160a01b0316331480610b6a57505f546001600160a01b031633145b610b865760405162461bcd60e51b815260040161041b90611765565b5f81815260036020526040812090600982015460ff166004811115610bad57610bad6113ea565b14610bed5760405162461bcd60e51b815260206004820152601060248201526f4853503a204e6f742050454e44494e4760801b604482015260640161041b565b610bf8816001611118565b4260079091015550565b610c0a6110ec565b610c135f611219565b565b6001546001600160a01b0316331480610c3757505f546001600160a01b031633145b610c535760405162461bcd60e51b815260040161041b90611765565b5f610c5e8383611268565b60405163053c2ca360e11b81529091505f903090630a78594690610c90908c908c908c908c908c908a9060040161185f565b6020604051808303815f875af1158015610cac573d5f803e3d5ffd5b505050506040513d601f19601f82011682018060405250810190610cd091906118a5565b5f818152600360209081526040822042600780830182905560088301919091558380529091527f6d5257204ebe7d88fd91ae87941cb2dd9d8062b64ae5a2bd2d28ec40b9fbf6df8054939450909291610d28836118bc565b909155505060025f90815260076020527fb7c774451310d1be4108bc180d1b52823cb0ee0274a6c0081bcaf94f115fb96d805491610d65836117a6565b9190505550817f0bbf93a79fd1cf95dc95d78e98a0abbf77b17a62d6deca7a1430b8a3fda83d115f600242604051610d9f939291906118d1565b60405180910390a260098101805460ff19166002179055604080518881524260208201526001600160a01b038b1691889185917eed2d17a77784b94cf449d878fecfdcacd221011836ab71ae5fa020b9ab488c910160405180910390a450505050505050505050565b5f81815260036020819052604082208054600182015460028301548385015460048501546005860154600987015489986001600160a01b0396871696958616959094169361010090910460ff1690811115610e6557610e656113ea565b8760060154604051602001610e819897969594939291906117be565b60405160208183030381529060405280519060200120915080600a01548214925050915091565b6001546001600160a01b0316331480610eca57505f546001600160a01b031633145b610ee65760405162461bcd60e51b815260040161041b90611765565b5f8181526003602052604090206001600982015460ff166004811115610f0e57610f0e6113ea565b14610f515760405162461bcd60e51b81526020600482015260136024820152724853503a204e6f742050524f43455353494e4760681b604482015260640161041b565b610f5c816002611118565b42600882018190556002820154600583015460048401546040805191825260208201949094526001600160a01b0390921692909185917eed2d17a77784b94cf449d878fecfdcacd221011836ab71ae5fa020b9ab488c9101610aa9565b6005602052815f5260405f208181548110610742575f80fd5b6006602052815f5260405f208181548110610742575f80fd5b5f81815260046020908152604091829020805483518184028101840190945280845260609392830182828015610b1257602002820191905f5260205f2090815481526020019060010190808311610afe5750505050509050919050565b6110506110ec565b6001600160a01b03811661107957604051631e4fbdf760e01b81525f600482015260240161041b565b61108281611219565b50565b6001600160a01b0381165f90815260056020908152604091829020805483518184028101840190945280845260609392830182828015610b1257602002820191905f5260205f2090815481526020019060010190808311610afe5750505050509050919050565b5f546001600160a01b03163314610c135760405163118cdaa760e01b815233600482015260240161041b565b600982015460ff1660075f826004811115611135576111356113ea565b6004811115611146576111466113ea565b81526020019081526020015f205f815480929190611163906118bc565b919050555060075f83600481111561117d5761117d6113ea565b600481111561118e5761118e6113ea565b81526020019081526020015f205f8154809291906111ab906117a6565b909155505060098301805483919060ff191660018360048111156111d1576111d16113ea565b021790555082546040517f0bbf93a79fd1cf95dc95d78e98a0abbf77b17a62d6deca7a1430b8a3fda83d119061120c908490869042906118d1565b60405180910390a2505050565b5f80546001600160a01b038381166001600160a01b0319831681178455604051919092169283917f8be0079c531659141344cd1fd0a4f28419497f9722a3daafe3b4186f6b6457e09190a35050565b5f80838360405161127a9291906118fa565b604051809103902090507f525f10cb12b807489dbbe753a0971d1a0cdeac4aaf9a0bd68f26dba60764475581036112b4575f91505061134c565b7f2098c5af2accb6f4ffb9bafd12dd2212243d8c6888d6a2194cb681e2b013914781036112e557600191505061134c565b7f1db4aaa8b803d576ce475d3fd486db99e0a6c96b67222f6d2c276a8e4c062210810361131657600291505061134c565b7f79ea73aa7a297f28aa4380b39ceaa4bd13749296595fb4bea7a856034f698230810361134757600391505061134c565b5f9150505b92915050565b6040518061018001604052805f81526020015f6001600160a01b031681526020015f6001600160a01b031681526020015f6001600160a01b031681526020015f81526020015f81526020015f81526020015f81526020015f81526020015f60048111156113c1576113c16113ea565b81526020015f81525f60209091015290565b5f602082840312156113e3575f80fd5b5035919050565b634e487b7160e01b5f52602160045260245ffd5b6005811061140e5761140e6113ea565b9052565b6004811061140e5761140e6113ea565b8c81526001600160a01b038c811660208301528b811660408301528a1660608201526080810189905260a0810188905260c0810187905260e081018690526101008101859052610180810161147b6101208301866113fe565b611489610140830185611412565b826101608301529d9c50505050505050505050505050565b80356001600160a01b03811681146114b7575f80fd5b919050565b5f805f805f8060c087890312156114d1575f80fd5b6114da876114a1565b95506114e8602088016114a1565b94506114f6604088016114a1565b9350606087013592506080870135915060a087013560048110611517575f80fd5b809150509295509295509295565b5f8060408385031215611536575f80fd5b50508035926020909101359150565b81518152602080830151610180830191611569908401826001600160a01b03169052565b50604083015161158460408401826001600160a01b03169052565b50606083015161159f60608401826001600160a01b03169052565b506080830151608083015260a083015160a083015260c083015160c083015260e083015160e0830152610100808401518184015250610120808401516115e7828501826113fe565b5050610140808401516115fc82850182611412565b505061016092830151919092015290565b5f6020828403121561161d575f80fd5b611626826114a1565b9392505050565b602080825282518282018190525f9190848201906040850190845b8181101561166457835183529284019291840191600101611648565b50909695505050505050565b5f60208284031215611680575f80fd5b813560058110611626575f80fd5b5f805f805f805f60c0888a0312156116a4575f80fd5b6116ad886114a1565b96506116bb602089016114a1565b95506116c9604089016114a1565b9450606088013593506080880135925060a088013567ffffffffffffffff808211156116f3575f80fd5b818a0191508a601f830112611706575f80fd5b813581811115611714575f80fd5b8b6020828501011115611725575f80fd5b60208301945080935050505092959891949750929550565b5f806040838503121561174e575f80fd5b611757836114a1565b946020939093013593505050565b6020808252601390820152721214d40e88139bdd08185d5d1a1bdc9a5e9959606a1b604082015260600190565b634e487b7160e01b5f52601160045260245ffd5b5f600182016117b7576117b7611792565b5060010190565b978852606096871b6bffffffffffffffffffffffff1990811660208a015295871b861660348901529390951b9093166048860152605c850152607c84019190915260f89190911b6001600160f81b031916609c830152609d82015260bd0190565b6001600160a01b038781168252861660208201526040810185905260c0810161184b6060830186611412565b608082019390935260a00152949350505050565b6001600160a01b038781168252868116602083015285166040820152606081018490526080810183905260c0810161189a60a0830184611412565b979650505050505050565b5f602082840312156118b5575f80fd5b5051919050565b5f816118ca576118ca611792565b505f190190565b606081016118df82866113fe565b6118ec60208301856113fe565b826040830152949350505050565b818382375f910190815291905056fea26469706673582212202cf161378ad9e4bfd8ea06b41d7178b3b21a0df955ba6b0b83860a59373a370764736f6c63430008180033",
  "linkReferences": {},
  "deployedLinkReferences": {}
}